:100000000C9462000C948A000C948A000C948A0070
:100010000C948A000C948A000C948A000C948A0038
:100020000C948A000C948A000C948A000C9463044B
:100030000C948A000C948A000C948A000C948A0018
:100040000C94C1030C948A000C9431040C940B049E
:100050000C948A000C948A000C948A000C948A00F8
:100060000C948A000C948A000000000023002600F3
:10007000290000000000240027002A0000000000E2
:10008000250028002B0004040404040404040202D4
:100090000202020203030303030301020408102007
:1000A0004080010204081020010204081020000012
:1000B0000008000201000003040700000000000027
:1000C0000000690511241FBECFEFD8E0DEBFCDBF11
:1000D00011E0A0E0B1E0EAE5F3E102C005900D9285
:1000E000AC33B107D9F722E0ACE3B1E001C01D9217
:1000F000AD3CB207E1F710E0C2E6D0E004C02197C2
:10010000FE010E946F08C136D107C9F70E946D0633
:100110000C94AB090C940000FC0181E291E0918306
:1001200080831682178210861186128613861486A3
:10013000158688EC90E097878687718B608B538B50
:10014000428B8FEF9FEF958B848B81E090E0978BB4
:10015000868B918F808F128E138E148E158E178E34
:10016000168E88EE93E091A380A393A382A314A696
:1001700015A616A617A610A611A612A613A615AEAA
:1001800014AE10AA11AA12AA13AA14AA15AA16AA82
:1001900017AA10AE11AE12AE13AE128213821482E1
:1001A000158214A215A216A217A2089590E0FC01D0
:1001B000E255FF4F2491FC01E656FF4F3491FC01BC
:1001C000EA57FF4FE491EE2309F43CC0222339F1B2
:1001D000233091F038F42130A9F0223001F584B5B4
:1001E0008F7D12C0273091F02830A1F02430B9F46F
:1001F000809180008F7D03C0809180008F778093F5
:1002000080000DC084B58F7784BD09C08091B00097
:100210008F7703C08091B0008F7D8093B000F0E0B5
:10022000EE0FFF1FE458FF4FA591B4919FB7F894CC
:10023000611104C08C913095382302C0EC913E2BA3
:100240003C939FBF0895CF93DF9390E0FC01E65667
:10025000FF4F2491FC01EA57FF4F8491882361F1FD
:1002600090E0880F991FFC01EE58FF4FC591D49183
:10027000FC01E458FF4FA591B491611109C09FB7EB
:10028000F8948881209582238883EC912E230BC0DB
:10029000623061F49FB7F8948881322F30958323C0
:1002A0008883EC912E2B2C939FBF06C08FB7F894B8
:1002B000E8812E2B28838FBFDF91CF910895CF93B4
:1002C000DF93EC0161E088890E94230161E0888965
:1002D0000E94D60061E08A890E94230160E08A8939
:1002E0000E94D6008C899D898F3F2FEF920751F095
:1002F00061E00E942301E881F9810680F781E02D09
:10030000CE01099580E090E0A8E4B3E48A8F9B8F4A
:10031000AC8FBD8FE881F9810280F381E02D61E02F
:1003200070E0CE010995E881F9810480F581E02D26
:10033000CE01DF91CF9109943FB7F89480914401A9
:1003400090914501A0914601B091470126B5A89B27
:1003500005C02F3F19F00196A11DB11D3FBFBA2F57
:10036000A92F982F8827820F911DA11DB11DBC01B7
:10037000CD0142E0660F771F881F991F4A95D1F77C
:100380000895CF92DF92EF92FF920F931F93CF9336
:10039000DF936C017A018B01C0E0D0E0CE15DF0560
:1003A00081F0D8016D918D01D601ED91FC91019004
:1003B000F081E02DC6010995892B11F02196EECF31
:1003C0007E01C701DF91CF911F910F91FF90EF90B8
:1003D000DF90CF900895089580E090E00895FC01AB
:1003E000538D448D252F30E0842F90E0821B930B9A
:1003F000541710F0CF96089501970895FC01918D40
:10040000828D981761F0828DDF01A80FB11D5D9676
:100410008C91928D9F5F9F73928F90E008958FEFE4
:100420009FEF0895FC01918D828D981731F0828D98
:10043000E80FF11D858D90E008958FEF9FEF0895EF
:10044000FC01918D228D892F90E0805C9F4F821B53
:1004500091098F739927089588E491E00E94200202
:1004600021E0892B09F420E0822F0895FC01848D7E
:10047000DF01A80FB11DA35ABF4F2C91848D90E0CE
:1004800001968F739927848FA689B7892C93A089A9
:10049000B1898C91837080648C93938D848D981333
:1004A00006C00288F389E02D80818F7D80830895C6
:1004B000EF92FF920F931F93CF93DF93EC0181E0B4
:1004C000888F9B8D8C8D981305C0E889F989808170
:1004D00085FD26C0F62E0B8D10E00F5F1F4F0F73AA
:1004E0001127E02E8C8DE8120CC00FB607FCFACF56
:1004F000E889F989808185FFF5CFCE010E94360217
:10050000F1CF8B8DFE01E80FF11DE35AFF4FF08212
:100510009FB7F8940B8FEA89FB89808180620AC0BB
:100520009FB7F894EE89FF896083E889F989808113
:100530008370806480839FBF81E090E0DF91CF91E2
:100540001F910F91FF90EF900895CF93DF93EC01EF
:10055000888D8823C9F0EA89FB89808185FD05C0E3
:10056000A889B9898C9186FD0FC00FB607FCF5CF1D
:10057000808185FFF2CFA889B9898C9185FFEDCF65
:10058000CE010E943602E7CFDF91CF91089580E03F
:1005900090E0892B29F00E942C0281110C9400001C
:1005A000089580E290E0089586E090E0089585E067
:1005B00091E0089580E890E00895FC012489358950
:1005C0002F3FFFEF3F0751F061E0FC0186899789DB
:1005D000019709F460E0822F0C94D6000895EF9201
:1005E000FF920F931F93CF93DF938C017B01C1E0A8
:1005F000D0E0D801ED91FC910190F081E02DC8018F
:1006000009958C179D0754F0CE15DF0521F4F801EC
:10061000D18FC08F03C0CC0FDD1FEBCFD801589610
:100620008D919C915997DF91CF911F910F91FF90E0
:10063000EF90089580E190E0089585E090E00895BE
:1006400080E091E00895CF92DF92EF92FF920F93B6
:100650001F93CF93DF93EC010E94EF028EAD9FAD0D
:10066000019609F44AC07E0180E4E80EF11CF7010E
:1006700080819181019609F440C06E0122E4C20E8E
:10068000D11CF601808191810196B9F1E881F9814F
:100690000084F185E02DCE0109958C01E881F98176
:1006A0000284F385E02DCE01099520E030E0821729
:1006B000930719F1488D598D022E02C05595479523
:1006C0000A94E2F740FF16C0F801E20FF31F108111
:1006D000612F6470F60180810E94D600612F6270E4
:1006E000F70180810E94D600612F61708EAD0E945B
:1006F000D60003C02F5F3F4FDACF888D998DDF91F1
:10070000CF911F910F91FF90EF90DF90CF900895C0
:10071000009769F0FC0101900020E9F73197AF01E3
:10072000481B590BBC0188E491E00C94C10180E0A6
:1007300090E00895CF92DF92EF92FF92FC0124891E
:1007400035892F3FFFEF3F0729F0FC016689822F93
:100750000E94D6000E949C016B017C010E949C01BA
:10076000DC01CB018C199D09AE09BF090297A105D7
:10077000B105A0F3FF90EF90DF90CF9008950E9415
:10078000A6091F920F920FB60F9211242F933F9339
:100790008F939F93AF93BF938091400190914101BC
:1007A000A0914201B091430130913F0123E0230F1A
:1007B0002D3720F40196A11DB11D05C026E8230F99
:1007C0000296A11DB11D20933F018093400190939B
:1007D0004101A0934201B093430180914401909163
:1007E0004501A0914601B09147010196A11DB11D9F
:1007F0008093440190934501A0934601B093470133
:10080000BF91AF919F918F913F912F910F900FBE0C
:100810000F901F9018951F920F920FB60F921124F0
:100820002F933F934F935F936F937F938F939F93F8
:10083000AF93BF93EF93FF9388E491E00E94360259
:10084000FF91EF91BF91AF919F918F917F916F91A8
:100850005F914F913F912F910F900FBE0F901F907E
:1008600018951F920F920FB60F9211242F938F930A
:100870009F93EF93FF93E0915801F091590180818C
:10088000E0915E01F0915F0182FD12C09081809144
:1008900061018F5F8F7320916201821751F0E091A7
:1008A0006101F0E0E85BFE4F958F8093610101C02C
:1008B0008081FF91EF919F918F912F910F900FBEAB
:1008C0000F901F9018951F920F920FB60F92112440
:1008D0002F933F934F935F936F937F938F939F9348
:1008E000AF93BF93EF93FF9380913C0187FF05C0C7
:1008F00010928500109284001BC020913C01022EB2
:10090000000C330B8091090290E02817390784F41A
:1009100080913C01082E000C990BFC01EE0FFF1F8B
:100920008E0F9F1FFC01EB51FE4F808186FD15C08D
:1009300080913C018F5F80933C0120913C01022E0D
:10094000000C330B8091090290E028173907C4F49A
:1009500080913C018C3064F113C080913C01082EE1
:10096000000C990BFC01EE0FFF1F8E0F9F1FFC0167
:10097000EB51FE4F808160E08F730E94D600D8CF8C
:100980008091840090918500049680349C4918F4ED
:1009900080E49CE905C080918400909185000496D4
:1009A00090938900809388008FEF80933C013BC037
:1009B000209184003091850080913C01082E000C2C
:1009C000990BFC01EE0FFF1F8E0F9F1FFC01EB51D7
:1009D000FE4F81819281820F931F909389008093B3
:1009E000880080913C01082E000C990BFC01EE0F51
:1009F000FF1F8E0F9F1FFC01EB51FE4F808186FF72
:100A000012C080913C01082E000C990BFC01EE0FE6
:100A1000FF1F8E0F9F1FFC01EB51FE4F808161E095
:100A20008F730E94D600FF91EF91BF91AF919F917C
:100A30008F917F916F915F914F913F912F910F9087
:100A40000FBE0F901F901895CF92DF92EF92FF92FA
:100A50000F931F93E82FF92F05C0015011092109A9
:100A6000310961F1908196239417B9F305C00150C3
:100A700011092109310911F1908196239413F7CFBF
:100A8000C12CD12CE12CF12C0AC08FEFC81AD80A46
:100A9000E80AF80A0C151D052E053F0579F080813E
:100AA0008623841791F36C2D7D2D8E2D9F2D1F9104
:100AB0000F91FF90EF90DF90CF90089560E070E08D
:100AC00080E090E01F910F91FF90EF90DF90CF902A
:100AD000089510924B0110924A0188EE93E0A0E035
:100AE000B0E080934C0190934D01A0934E01B093E0
:100AF0004F018FE091E0909349018093480185EC8C
:100B000090E0909355018093540184EC90E0909391
:100B100057018093560180EC90E0909359018093A7
:100B2000580181EC90E090935B0180935A0182EC34
:100B300090E090935D0180935C0186EC90E090934F
:100B40005F0180935E011092610110926201109228
:100B500063011092640110928F0210929002109221
:100B600091021092920210929302109294021092AB
:100B700095021092960288EC90E0909398028093F0
:100B8000970288E090E090939A028093990289E01E
:100B900090E090939C0280939B028FEF9FEF909345
:100BA0009E0280939D0221E030E03093A0022093CA
:100BB0009F023093A2022093A1021092A3021092EE
:100BC000A4021092A5021092A6021092A8021092FE
:100BD000A70228EE33E03093AA022093A9023093B3
:100BE000AC022093AB021092B5021092B6021092A2
:100BF000B7021092B8021092B1021092B202109293
:100C0000B3021092B4021092C6021092C502109262
:100C1000B9021092BA021092BB021092BC0210925A
:100C2000BD021092BE021092BF021092C00210923A
:100C3000C1021092C2021092C3021092C40210921A
:100C40008B0210928C0210928D0210928E021092E2
:100C5000AD021092AE021092AF021092B0029093C9
:100C6000C8028093C7029093CA028093C9029093EE
:100C7000CC028093CB028DE291E090938A02809324
:100C8000890242E050E061E070E08BE492E00E9473
:100C90008C004DE050E06CE070E08DE092E00E944E
:100CA0008C00809109028C30A0F491E0980F909311
:100CB000090280930A0290E0FC01EE0FFF1F8E0FE5
:100CC0009F1FFC01EB51FE4F88EB9BE092838183D9
:100CD00008958FEF80930A020895CF93DF93CDB7E5
:100CE000DEB7A1970FB6F894DEBF0FBECDBF7894E4
:100CF00084B5826084BD84B5816084BD85B5826021
:100D000085BD85B5816085BD80916E0081608093D1
:100D10006E0010928100809181008260809381003A
:100D2000809181008160809381008091800081604A
:100D3000809380008091B10084608093B1008091A5
:100D4000B00081608093B00080917A0084608093CD
:100D50007A0080917A00826080937A0080917A0094
:100D6000816080937A0080917A00806880937A0015
:100D70001092C100E0915801F091590182E0808306
:100D8000E0915401F09155011082E0915601F091EB
:100D900057018FEC808310926001E0915C01F0912B
:100DA0005D0186E08083E0915A01F0915B018081D2
:100DB00080618083E0915A01F0915B0180818860BD
:100DC0008083E0915A01F0915B018081806880838B
:100DD000E0915A01F0915B0180818F7D808389E8E9
:100DE00092E00E945F018091C7029091C8028F3FFC
:100DF0002FEF9207D9F02091C9023091CA022F3FFC
:100E00003F4FA1F02091CB023091CC022F3F3F4FBA
:100E100069F061E00E94230161E08091C9020E94B3
:100E2000230161E08091CB020E9423018DE092E0DA
:100E30000E945F018BE492E00E945F0161E084E028
:100E40000E94230160E085E00E94230180910A0254
:100E50008C3008F051C061E08AE00E94230180914B
:100E60000A02E82FF0E09F01220F331FE20FF31F69
:100E7000EB51FE4F9081907C9A60908310920B0210
:100E800010920C026CE00E946308FCE08F9FB0019E
:100E9000112440E050E09B01240F351FF901EE0FB3
:100EA000FF1F2E0F3F1FF901EB51FE4F908196FD62
:100EB00016C04F5F5F4F4C30510569F781110FC06D
:100EC0001092800082E08093810010928500109241
:100ED0008400B19A80916F00826080936F00E091EE
:100EE0000A02F0E0CF01880F991FE80FF91FEB51BC
:100EF000FE4F8081806480832BE8222E20E0322EFA
:100F00003AE0832E912CA12CB12C60E084E00E9469
:100F1000D60083E090E00197F1F761E084E00E9461
:100F2000D60083E290E00197F1F760E084E00E9450
:100F3000D600EFE9F0E06491F1018491E82FF0E050
:100F4000EE0FFF1FE859FF4F8591949100E412E4E2
:100F50002FE030E0462F0E942405611571058105C0
:100F6000910549F0DC01CB010196A11DB11DBC0129
:100F7000CD019F7003C060E070E0CB010E94AD081E
:100F800026E933E44BE05DE30E94110920E030E004
:100F900040E05FE30E9411090E94750870933E01D2
:100FA00060933D016B01770FEE08FF08F7FE20C04C
:100FB0006DE288E491E00E94580222273327A901BC
:100FC0002C193D094E095F0919A2CE0181967C01B9
:100FD000CA01B901A50194010E944108605DF701B1
:100FE00062937F01211531054105510589F715C02F
:100FF000A701960119A2CE0181967C01CA01B9010F
:10100000A50194010E944108605DF70162937F0190
:10101000211531054105510589F7C7010E94880353
:1010200042E050E069E371E088E491E00E94C10190
:101030000E949C012B013C0188ECC82ED12CE12C94
:10104000F12C0E949C01DC01CB0184199509A609B1
:10105000B709883E9340A105B10598F3F1E0CF1A96
:10106000D108E108F10828EE420E23E0521E611C6F
:10107000711CC114D104E104F10419F70E94C702E4
:1010800044CFA1E21A2EAA1BBB1BFD010DC0AA1F53
:10109000BB1FEE1FFF1FA217B307E407F50720F0E1
:1010A000A21BB30BE40BF50B661F771F881F991F5C
:1010B0001A9469F760957095809590959B01AC01A5
:1010C000BD01CF010895991B79E004C0991F9617BF
:1010D00008F0961B881F7A95C9F780950895EE0F42
:1010E000FF1F0590F491E02D09940E947C086894FC
:1010F000B1110C940B0908950E94F00888F09F57D5
:1011000098F0B92F9927B751B0F0E1F0660F771F2B
:10111000881F991F1AF0BA95C9F714C0B13091F021
:101120000E940A09B1E008950C940A09672F782FEC
:101130008827B85F39F0B93FCCF3869577956795E6
:10114000B395D9F73EF490958095709561957F4F52
:101150008F4F9F4F0895E89409C097FB3EF49095F8
:101160008095709561957F4F8F4F9F4F9923A9F080
:10117000F92F96E9BB279395F6958795779567950F
:10118000B795F111F8CFFAF4BB0F11F460FF1BC053
:101190006F5F7F4F8F4F9F4F16C0882311F096E9E6
:1011A00011C0772321F09EE8872F762F05C0662394
:1011B00071F096E8862F70E060E02AF09A95660F4D
:1011C000771F881FDAF7880F9695879597F9089506
:1011D00057FD9058440F551F59F05F3F71F04795E8
:1011E000880F97FB991F61F09F3F79F087950895CD
:1011F000121613061406551FF2CF4695F1DF08C0EC
:10120000161617061806991FF1CF86957105610508
:1012100008940895E894BB2766277727CB0197F9B0
:1012200008950E9424090C9495090E94870938F0BA
:101230000E948E0920F0952311F00C947E090C94E5
:10124000840911240C940B090E94E80870F3959FFF
:10125000C1F3950F50E0551F629FF001729FBB27AD
:10126000F00DB11D639FAA27F00DB11DAA1F649F49
:101270006627B00DA11D661F829F2227B00DA11DFC
:10128000621F739FB00DA11D621F839FA00D611D82
:10129000221F749F3327A00D611D231F849F600DA3
:1012A000211D822F762F6A2F11249F5750409AF0CC
:1012B000F1F088234AF0EE0FFF1FBB1F661F771F58
:1012C000881F91505040A9F79E3F510580F00C9423
:1012D0007E090C940B095F3FE4F3983ED4F38695A6
:1012E00077956795B795F795E7959F5FC1F7FE2BC3
:1012F000880F911D9695879597F9089597F99F679F
:1013000080E870E060E008959FEF80EC089500248D
:101310000A941616170618060906089500240A945A
:1013200012161306140605060895092E0394000CE0
:1013300011F4882352F0BB0F40F4BF2B11F460FF6F
:1013400004C06F5F7F4F8F4F9F4F089581E090E003
:0A135000F8940C94AB09F894FFCF59
:10135A00000102030700010203040700000000580D
:10136A0002C101EF01A5022002FE011202000000E3
:10137A0000DA02EF029A03DD0200000000D1022324
:0C138A00039A03DD02D702D4020D0A0012
:00000001FF
