:100000000C946C000C9494000C9494000C94940048
:100010000C9494000C9494000C9494000C94940010
:100020000C9494000C9494000C9494000C94A007ED
:100030000C9494000C9494000C9494000C949400F0
:100040000C94FE060C9494000C946E070C944807D4
:100050000C9494000C9494000C9494000C949400D0
:100060000C9494000C94940033033903430351031C
:1000700053035903630371038303850300000000E6
:10008000240027002A0000000000250028002B0083
:100090000000000800020100000304070000000047
:1000A00000000000000000002300260029000404D6
:1000B0000404040404040202020202020303030310
:1000C00003030102040810204080010204081020EC
:1000D000010204081020A60811241FBECFEFD8E0AB
:1000E000DEBFCDBF12E0A0E0B1E0EAECFAE102C071
:1000F00005900D92A236B107D9F724E0A2E6B2E04E
:1001000001C01D92A133B207E1F710E0CCE6D0E0C8
:1001100004C02197FE010E94730BCB36D107C9F7AB
:100120000E942C090C94630D0C94000090E0FC01DB
:10013000E057FF4F2491FC01EE53FF4F3491FC0137
:10014000E255FF4FE491EE2309F43CC0222339F13C
:10015000233091F038F42130A9F0223001F584B534
:100160008F7D12C0273091F02830A1F02430B9F4EF
:10017000809180008F7D03C0809180008F77809375
:1001800080000DC084B58F7784BD09C08091B00018
:100190008F7703C08091B0008F7D8093B000F0E036
:1001A000EE0FFF1FEA57FF4FA591B4919FB7F89448
:1001B000611104C08C913095382302C0EC913E2B24
:1001C0003C939FBF0895CF93DF9390E0FC01EE53E3
:1001D000FF4F2491FC01E255FF4F8491882361F188
:1001E00090E0880F991FFC01E458FF4FC591D4910E
:1001F000FC01EA57FF4FA591B491611109C09FB767
:10020000F8948881209582238883EC912E230BC05B
:10021000623061F49FB7F8948881322F3095832340
:100220008883EC912E2B2C939FBF06C08FB7F89438
:10023000E8812E2B28838FBFDF91CF9108950F93F4
:100240001F93CF93DF93EC01862F1B861A861982AA
:1002500018821E8A1F8A188E198EE8ECF0E0FF8340
:10026000EE836C877D875F874E87398B288B1B8B4E
:100270000A8B61E00E94E30061E08E850E94E3004A
:1002800061E088890E94E30061E08A890E94E300BE
:100290001D8A1C8A84E090E099878887DF91CF913E
:1002A0001F910F9108953FB7F89480911A03909190
:1002B0001B03A0911C03B0911D0326B5A89B05C08C
:1002C0002F3F19F00196A11DB11D3FBFBA2FA92FD5
:1002D000982F8827820F911DA11DB11DBC01CD0152
:1002E00042E0660F771F881F991F4A95D1F708953E
:1002F0008F929F92AF92BF92CF92DF92EF92FF9236
:100300006B017C010E9453014B015C01C114D104BB
:10031000E104F104F1F00E945301DC01CB018819E2
:100320009909AA09BB09883E9340A105B10570F35C
:1003300021E0C21AD108E108F10888EE880E83E0B6
:10034000981EA11CB11CC114D104E104F10419F7D9
:10035000DDCFFF90EF90DF90CF90BF90AF909F9058
:100360008F900895CF92DF92EF92FF920F931F9399
:10037000CF93DF936C017A018B01C0E0D0E0CE1502
:10038000DF0581F0D8016D918D01D601ED91FC91D1
:100390000190F081E02DC6010995892B11F021967D
:1003A000EECF7E01C701DF91CF911F910F91FF909A
:1003B000EF90DF90CF900895089580E090E0089549
:1003C000FC01538D448D252F30E0842F90E0821B5B
:1003D000930B541710F0CF96089501970895FC01E0
:1003E000918D828D981761F0828DDF01A80FB11D6C
:1003F0005D968C91928D9F5F9F73928F90E0089590
:100400008FEF9FEF0895FC01918D828D981731F049
:10041000828DE80FF11D858D90E008958FEF9FEF9D
:100420000895FC01918D228D892F90E0805C9F4F73
:10043000821B91098F73992708958EE193E00E94A2
:10044000110221E0892B09F420E0822F0895FC019C
:10045000848DDF01A80FB11DA35ABF4F2C91848D4D
:1004600090E001968F739927848FA689B7892C9382
:10047000A089B1898C91837080648C93938D848DD5
:10048000981306C00288F389E02D80818F7D8083D8
:100490000895EF92FF920F931F93CF93DF93EC0198
:1004A00081E0888F9B8D8C8D981305C0E889F98930
:1004B000808185FD26C0F62E0B8D10E00F5F1F4F4B
:1004C0000F731127E02E8C8DE8120CC00FB607FCBD
:1004D000FACFE889F989808185FFF5CFCE010E94A6
:1004E0002702F1CF8B8DFE01E80FF11DE35AFF4F7C
:1004F000F0829FB7F8940B8FEA89FB898081806234
:100500000AC09FB7F894EE89FF896083E889F9896A
:1005100080818370806480839FBF81E090E0DF9161
:10052000CF911F910F91FF90EF900895CF93DF939C
:10053000EC01888D8823C9F0EA89FB89808185FDDB
:1005400005C0A889B9898C9186FD0FC00FB607FC3C
:10055000F5CF808185FFF2CFA889B9898C9185FF7D
:10056000EDCFCE010E942702E7CFDF91CF91089512
:1005700080E090E0892B29F00E941D0281110C94EB
:10058000000008950F931F93CF93DF93EC018B012D
:10059000888599850297F1F46130710569F024F43A
:1005A000672BC1F460E009C06230710559F0633017
:1005B000710581F460E007C061E08C850E949600BF
:1005C00061E005C061E08C850E94960060E08E8548
:1005D0000E949600888599850497B9F50130110528
:1005E000B1F04CF40115110581F561E08C850E9494
:1005F000960060E011C002301105B9F0033011051A
:1006000021F561E08C850E94960060E013C060E0F7
:100610008C850E94960061E08E850E94960061E0C4
:1006200088890E94960060E00DC060E08C850E9481
:10063000960061E08E850E94960060E088890E94A5
:10064000960061E08A890E949600888599850597C1
:1006500009F073C00A30110508F06FC0F801EC5CB6
:10066000FF4F0C94730B60E08C850E94960061E054
:1006700051C060E08C850E94960061E08E850E94EA
:10068000960060E04BC060E08C850E94960061E0BF
:100690008E850E94960060E088890E94960061E045
:1006A00041C060E001C061E08C850E94960061E07D
:1006B00005C061E08C850E94960060E08E850E94F6
:1006C000960060E009C061E08C850E94960060E0C1
:1006D0008E850E94960061E088890E94960061E004
:1006E0000DC061E08C850E94960060E08E850E94BE
:1006F000960061E088890E94960060E08A890E94E5
:10070000960060E013C061E001C060E08C850E944B
:10071000960060E08E850E94960061E088890E94C4
:10072000960060E08A890E94960061E08C89DF91E2
:10073000CF911F910F910C949600DF91CF911F9153
:100740000F9108954F925F926F927F928F929F9236
:10075000AF92BF92CF92DF92EF92FF920F931F93CF
:10076000CF93DF93EC018B0177FF04C000271127A3
:10077000061B170B161617062CF481E090E09983E0
:10078000888304C0672B11F01982188284E0E82E58
:10079000F12C9AE0C92ED12C0115110509F449C09C
:1007A0000E9453018E889F88A88CB98C2B013C0134
:1007B000481859086A087B088A809B80AC80BD80F5
:1007C000481459046A047B0438F36E8B7F8B888F3E
:1007D000998F288139818A859B852130310559F48B
:1007E00001969B878A872E813F818217930771F438
:1007F0001B861A860BC0892B21F48E819F819B87D3
:100800008A878A859B8501979B878A870150110972
:10081000288539858A859B852530310511F4B601F7
:1008200001C0B7010E945F0BBC01CE010E94C20251
:10083000B3CFDF91CF911F910F91FF90EF90DF9099
:10084000CF90BF90AF909F908F907F906F905F9070
:100850004F9008958091130390911403019749F4E8
:1008600066E571E087E194E00E94A2036AEA7EEF08
:1008700008C067E571E087E194E00E94A20369EA9D
:100880007EEF87E194E00C94A20380911103909194
:100890001203892B61F46AE670E083EE93E00E9414
:1008A000A20381E090E09093120380931103809162
:1008B000110390911203019751F466E97FEF83EEE3
:1008C00093E00E94A2031092120310921103089564
:1008D000009769F0FC0101900020E9F73197AF0122
:1008E000481B590BBC018EE193E00C94B20180E0EF
:1008F00090E00895CF93DF930E946804EC0182E4B6
:1009000091E00E9468048C0F9D1FDF91CF910895A4
:100910000F931F93E1EDF0E06491EDEBF0E0E491D3
:10092000F0E0EE0FFF1FEC55FF4F8591949100E42E
:1009300012E42FE030E0462F0E9461086115710536
:100940008105910549F0DC01CB010196A11DB11D86
:10095000BC01CD019F7003C060E070E0CB011F912E
:100960000F910895CF92DF92EF92FF920F931F9312
:10097000CF93DF9360E08EE00E94960003E010E0EA
:10098000C8010197F1F761E08EE00E949600C3E292
:10099000D0E0CE010197F1F760E08EE00E94960072
:1009A0000E948804072E000C880B990B0E94370CBC
:1009B00026E933E44BE05DE30E94EC0C20E030E0FC
:1009C00040E05FE30E94EC0C60930D0370930E0314
:1009D00080930F039093100360E08EE00E949600D6
:1009E000C8010197F1F761E08EE00E949600CE0108
:1009F0000197F1F760E08EE00E9496000E94880463
:100A0000072E000C880B990B0E94370C26E933E463
:100A10004BE05DE30E94EC0C20E030E040E05FE35F
:100A20000E94EC0C6093090370930A0380930B03FC
:100A300090930C0360E08EE00E949600C80101973D
:100A4000F1F761E08EE00E9496002197F1F760E0F7
:100A50008EE00E9496000E948804072E000C880BEE
:100A6000990B0E94370C26E933E44BE05DE30E94CA
:100A7000EC0C20E030E040E05FE30E94EC0C20E072
:100A800030E040E251E40E948D0B6B017C0120E0DC
:100A900030E0A9010E94E70C181624F0F7FAF09450
:100AA000F7F8F094C0920503D0920603E092070392
:100AB000F092080320E030E040E251E46091090345
:100AC00070910A0380910B0390910C030E948D0B8F
:100AD0006B017C0120E030E0A9010E94E70C1816B0
:100AE00024F0F7FAF094F7F8F094C0920903D0924A
:100AF0000A03E0920B03F0920C0320E030E040E2A6
:100B000051E4C701B6010E948D0B6B017C0120E00E
:100B100030E0A9010E94E70C181624F0F7FAF094CF
:100B2000F7F8F094C0920D03D0920E03E0920F03F9
:100B3000F0921003DF91CF911F910F91FF90EF90F2
:100B4000DF90CF9008950E945E0D2F923F924F92BA
:100B50005F926F927F928F929F92AF92BF92CF924D
:100B6000DF92EF92FF920F931F93CF93DF93CDB756
:100B7000DEB7A1970FB6F894DEBF0FBECDBF68ED0C
:100B80007FEF83EE93E00E94A20382E6282E82E0AC
:100B9000382E6AE070E080E090E00E94780160E02A
:100BA0008EE00E94960083E090E00197F1F761E00B
:100BB0008EE00E94960083E290E00197F1F760E0FA
:100BC0008EE00E9496000E948804072E000C880B7D
:100BD000990B0E94370C26E933E44BE05DE30E9459
:100BE000EC0C20E030E040E05FE30E94EC0C6B0195
:100BF0007C014B015C01F1016193719381939193AD
:100C00001F0162E070E083EE93E00E94A20368EDB2
:100C10007FEF83EE93E00E94A203A7019601C70134
:100C2000B6010E94590D882319F085E491E01AC09D
:100C300026013701E89477F82FEF3FEF4FE75FE7A2
:100C4000C301B2010E94590D81110FC02FEF3FEF78
:100C50004FE75FE7C301B2010E94FA0B18162CF4AC
:100C600089E491E00E946804A0C02FEF3FEF4FE7B6
:100C70005FE4C701B6010E94E70C18161CF48DE46E
:100C800091E0F0CF2FEF3FEF4FE75FECC701B601E8
:100C90000E94FA0B87FDF3CF20E030E0A901C701E5
:100CA000B6010E94FA0B87FF0BC06DE28EE193E064
:100CB0000E94490246015701B7FAB094B7F8B094C0
:100CC0002AE037ED43EA5BE3C501B4010E948E0BD5
:100CD0006B017C010E94060C4B015C010E94350CEB
:100CE0009B01AC01C701B6010E948D0B2B013C0199
:100CF00019A27E01F1E2EF0EF11C0E2DDF2CC501D1
:100D0000B4012AE030E040E050E00E94310B49019C
:100D10005A01605DF70162937F01232B242B252B61
:100D200071F7CF010E9468046EE28EE193E00E94A9
:100D3000490213E01150C9F120E030E040E251E4F3
:100D4000C301B2010E94EC0C4B015C010E94060C35
:100D50009B0140E050E019A2E02EFD2C562E632EA0
:100D6000742EC52ECA01B9012AE030E040E050E0FF
:100D70000E94310B605DF70162937F0121153105FF
:100D80004105510579F7CF010E946804652D762D44
:100D9000872D9C2D0E94350C9B01AC01C501B4012F
:100DA0000E948D0B2B013C01C5CF82E491E00E9493
:100DB000680481E591E00E947A04F2E02F16F3E0E6
:100DC0003F0609F0E6CE81E090E0A1960FB6F894D8
:100DD000DEBF0FBECDBFDF91CF911F910F91FF906E
:100DE000EF90DF90CF90BF90AF909F908F907F90CB
:100DF0006F905F904F903F902F9008951F920F92A9
:100E00000FB60F9211242F933F938F939F93AF931D
:100E1000BF938091160390911703A0911803B0918E
:100E200019033091150323E0230F2D3720F4019689
:100E3000A11DB11D05C026E8230F0296A11DB11DFD
:100E4000209315038093160390931703A093180320
:100E5000B093190380911A0390911B03A0911C0376
:100E6000B0911D030196A11DB11D80931A039093AB
:100E70001B03A0931C03B0931D03BF91AF919F91DF
:100E80008F913F912F910F900FBE0F901F9018954B
:100E90001F920F920FB60F9211242F933F934F93EF
:100EA0005F936F937F938F939F93AF93BF93EF93D2
:100EB000FF938EE193E00E942702FF91EF91BF9193
:100EC000AF919F918F917F916F915F914F913F91E2
:100ED0002F910F900FBE0F901F9018951F920F9299
:100EE0000FB60F9211242F938F939F93EF93FF933D
:100EF000E0912E03F0912F038081E0913403F09173
:100F0000350382FD12C09081809137038F5F8F730C
:100F100020913803821751F0E0913703F0E0E25E50
:100F2000FC4F958F8093370301C08081FF91EF9133
:100F30009F918F912F910F900FBE0F901F9018953A
:100F40001F920F920FB60F9211242F933F934F933E
:100F50005F936F937F938F939F93AF93BF93EF9321
:100F6000FF938091020387FF05C0109285001092C5
:100F700084001BC020910203022E000C330B8091D1
:100F8000DF0390E02817390784F480910203082ECC
:100F9000000C990BFC01EE0FFF1F8E0F9F1FFC0131
:100FA000E554FC4F808186FD15C0809102038F5F60
:100FB0008093020320910203022E000C330B8091D8
:100FC000DF0390E028173907C4F4809102038C30C6
:100FD00064F113C080910203082E000C990BFC01F0
:100FE000EE0FFF1F8E0F9F1FFC01E554FC4F808109
:100FF00060E08F730E949600D8CF8091840090911A
:101000008500049680349C4918F480E49CE905C06E
:10101000809184009091850004969093890080933C
:1010200088008FEF809302033BC0209184003091B1
:10103000850080910203082E000C990BFC01EE0F35
:10104000FF1F8E0F9F1FFC01E554FC4F8181928191
:10105000820F931F909389008093880080910203F0
:10106000082E000C990BFC01EE0FFF1F8E0F9F1F27
:10107000FC01E554FC4F808186FF12C08091020381
:10108000082E000C990BFC01EE0FFF1F8E0F9F1F07
:10109000FC01E554FC4F808161E08F730E94960053
:1010A000FF91EF91BF91AF919F918F917F916F9140
:1010B0005F914F913F912F910F900FBE0F901F9016
:1010C0001895CF92DF92EF92FF920F931F93E82F24
:1010D000F92F05C0015011092109310961F19081F1
:1010E00096239417B9F305C001501109210931095C
:1010F00011F1908196239413F7CFC12CD12CE12CC0
:10110000F12C0AC08FEFC81AD80AE80AF80A0C15A1
:101110001D052E053F0579F080818623841791F304
:101120006C2D7D2D8E2D9F2D1F910F91FF90EF9097
:10113000DF90CF90089560E070E080E090E01F9134
:101140000F91FF90EF90DF90CF9008950F931F9332
:10115000109221031092200388EE93E0A0E0B0E00B
:101160008093220390932303A0932403B093250339
:1011700084E091E090931F0380931E0385EC90E040
:1011800090932B0380932A0384EC90E090932D039B
:1011900080932C0380EC90E090932F0380932E0398
:1011A00081EC90E0909331038093300382EC90E0E7
:1011B000909333038093320386EC90E09093350351
:1011C000809334031092370310923803109239033E
:1011D00010923A030CE414E024E833E044E650E0D3
:1011E00064E670E087E194E00E941F010BE010E0EC
:1011F0002AE030E049E050E068E070E08DEF93E0F5
:101200000E941F0109E010E028E030E047E050E0D4
:1012100066E070E083EE93E00E941F018091DF039F
:101220008C30A0F491E0980F9093DF038093E0035B
:1012300090E0FC01EE0FFF1F8E0F9F1FFC01E55495
:10124000FC4F88EB9BE09283818303C08FEF8093F8
:10125000E0031F910F910895789484B5826084BD56
:1012600084B5816084BD85B5826085BD85B58160AA
:1012700085BD80916E00816080936E001092810028
:1012800080918100826080938100809181008160E3
:1012900080938100809180008160809380008091A4
:1012A000B10084608093B1008091B0008160809330
:1012B000B00080917A00846080937A0080917A00F7
:1012C000826080937A0080917A00816080937A00B6
:1012D00080917A00806880937A001092C100E0913A
:1012E0002E03F0912F0382E08083E0912A03F09196
:1012F0002B031082E0912C03F0912D038FEC80835F
:1013000010923603E0913203F091330386E080833C
:10131000E0913003F0913103808180618083E0911E
:101320003003F0913103808188608083E091300345
:10133000F0913103808180688083E0913003F091E7
:10134000310380818F7D808381E090E0909314034E
:10135000809313039093120380931103209103044D
:1013600030910404032E000C440B550BC12CC7E82C
:10137000DC2EC3E9EC2EC3E0FC2EC701B6010E94AF
:10138000120BCA01B90128E230E040E050E00E94AF
:10139000120B2093FF0330930004409301045093F9
:1013A00002042091E9033091EA03032E000C440B60
:1013B000550BC701B6010E94120BDCE38D2E912C58
:1013C000A12CB12CCA01B901A50194010E94120BF4
:1013D0002093E5033093E6034093E7035093E8033B
:1013E00020911D0430911E04032E000C440B550B5C
:1013F000C701B6010E94120BCA01B901A5019401EF
:101400000E94120B2093190430931A0440931B047A
:1014100050931C0461E08EE00E94E30060E08FE0E6
:101420000E94E30061E08EE00E94E30060E08FE054
:101430000E94E30061E08EE00E94E30060E08FE044
:101440000E94E3008091E0038C3008F051C061E01D
:1014500080E50E94E3008091E003E82FF0E09F0127
:10146000220F331FE20FF31FE554FC4F9081907C55
:10147000906190831092E1031092E2036CE00E946D
:10148000530B9CE0899FB001112440E050E09B0188
:10149000240F351FF901EE0FFF1F2E0F3F1FF9011B
:1014A000E554FC4F908196FD16C04F5F5F4F4C3066
:1014B000510569F781110FC01092800082E080937E
:1014C00081001092850010928400B19A80916F0083
:1014D000826080936F00E091E003F0E0CF01880F1D
:1014E000991FE80FF91FE554FC4F808180648083C9
:1014F00002E111E00E94B2042091090330910A0335
:1015000040910B0350910C0360910D0370910E03F9
:1015100080910F03909110030E948E0B2091050380
:101520003091060340910703509108030E948E0BEF
:101530000E94FF0B161617069CF48AE891E00E94A1
:101540007A040E94A5058130910519F489ED91E096
:1015500004C0892B41F48EEE91E00E947A0403C00E
:10156000C2E0D0E002C0C3E0D0E083E092E00E949D
:101570007A04F80182819381419151918F019C01FC
:10158000241B350B48535F4F841B950BB90137FF64
:1015900004C066277727621B730BAC0197FF04C05A
:1015A00044275527481B590B461757072CF03093F3
:1015B00004032093030304C0909304038093030364
:1015C00060910303709104038DEF93E00E94A203E6
:1015D000229709F48FCF8CE392E00E947A040E9454
:1015E00045040E942A0468EC70E08DEF93E00E94AD
:1015F000A20368E873E180E090E00E9478010E9415
:1016000045040E942A0468E37FEF8DEF93E00E9477
:10161000A20368E873E180E090E00E9478010E94F4
:10162000B802DDCF052E97FB1EF400940E94290B13
:1016300057FD07D00E94310B07FC03D04EF40C94E9
:10164000290B50954095309521953F4F4F4F5F4F57
:10165000089590958095709561957F4F8F4F9F4F1E
:101660000895A1E21A2EAA1BBB1BFD010DC0AA1FE3
:10167000BB1FEE1FFF1FA217B307E407F50720F0FB
:10168000A21BB30BE40BF50B661F771F881F991F76
:101690001A9469F760957095809590959B01AC01BF
:1016A000BD01CF010895991B79E004C0991F9617D9
:1016B00008F0961B881F7A95C9F78095089597FBC7
:1016C000072E16F4009407D077FD09D00E94790BFD
:1016D00007FC05D03EF4909581959F4F0895709535
:1016E00061957F4F0895EE0FFF1F0590F491E02D57
:1016F0000994AA1BBB1B51E107C0AA1FBB1FA61759
:10170000B70710F0A61BB70B881F991F5A95A9F7AA
:1017100080959095BC01CD0108955058BB27AA270C
:101720000E94A50B0C94AD0C0E949F0C38F00E94F7
:10173000A60C20F039F49F3F19F426F40C949C0C6D
:101740000EF4E095E7FB0C94960CE92F0E94BE0C7A
:1017500058F3BA17620773078407950720F079F4E6
:10176000A6F50C94E00C0EF4E0950B2EBA2FA02DEC
:101770000B01B90190010C01CA01A0011124FF273E
:10178000591B99F0593F50F4503E68F11A16F04039
:10179000A22F232F342F4427585FF3CF4695379538
:1017A0002795A795F0405395C9F77EF41F16BA0BFD
:1017B000620B730B840BBAF09150A1F0FF0FBB1FAB
:1017C000661F771F881FC2F70EC0BA0F621F731FF4
:1017D000841F48F4879577956795B795F7959E3F51
:1017E00008F0B0CF9395880F08F09927EE0F9795E2
:1017F000879508950E94720C08F481E008950E9474
:10180000060C6894B1110C94E10C08950E94C60C6A
:1018100088F09F5798F0B92F9927B751B0F0E1F0B1
:10182000660F771F881F991F1AF0BA95C9F714C061
:10183000B13091F00E94E00CB1E008950C94E00CFE
:10184000672F782F8827B85F39F0B93FCCF386959A
:1018500077956795B395D9F73EF4909580957095F7
:1018600061957F4F8F4F9F4F0895E89409C097FB74
:101870003EF490958095709561957F4F8F4F9F4F67
:101880009923A9F0F92F96E9BB279395F6958795AB
:1018900077956795B795F111F8CFFAF4BB0F11F46E
:1018A00060FF1BC06F5F7F4F8F4F9F4F16C0882315
:1018B00011F096E911C0772321F09EE8872F762F4B
:1018C00005C0662371F096E8862F70E060E02AF08C
:1018D0009A95660F771F881FDAF7880F9695879578
:1018E00097F90895990F0008550FAA0BE0E8FEEF4D
:1018F00016161706E807F907C0F012161306E407D4
:10190000F50798F0621B730B840B950B39F40A26CC
:1019100061F0232B242B252B21F408950A2609F4AA
:10192000A140A6958FEF811D811D089597F99F67AE
:1019300080E870E060E008959FEF80EC0895002457
:101940000A941616170618060906089500240A9424
:1019500012161306140605060895092E0394000CAA
:1019600011F4882352F0BB0F40F4BF2B11F460FF39
:1019700004C06F5F7F4F8F4F9F4F089557FD905862
:10198000440F551F59F05F3F71F04795880F97FB43
:10199000991F61F09F3F79F08795089512161306FD
:1019A0001406551FF2CF4695F1DF08C0161617062C
:1019B0001806991FF1CF8695710561050894089561
:1019C000E894BB2766277727CB0197F908950E94F3
:1019D000720C08F48FEF08950E94FF0C0C94AD0C6C
:1019E0000E949F0C38F00E94A60C20F0952311F065
:1019F0000C94960C0C949C0C11240C94E10C0E94F9
:101A0000BE0C70F3959FC1F3950F50E0551F629F78
:101A1000F001729FBB27F00DB11D639FAA27F00D47
:101A2000B11DAA1F649F6627B00DA11D661F829F6E
:101A30002227B00DA11D621F739FB00DA11D621F53
:101A4000839FA00D611D221F749F3327A00D611D70
:101A5000231F849F600D211D822F762F6A2F112452
:101A60009F5750409AF0F1F088234AF0EE0FFF1F85
:101A7000BB1F661F771F881F91505040A9F79E3FDC
:101A8000510580F00C94960C0C94E10C5F3FE4F34C
:101A9000983ED4F3869577956795B795F795E79532
:101AA0009F5FC1F7FE2B880F911D9695879597F93B
:101AB00008950E94720C880B990B089581E090E0C4
:0A1AC000F8940C94630DF894FFCF26
:101ACA00000000004902B201E00196021102EF0192
:101ADA00030200000800100019002100290032004A
:101AEA003A0042004B0053005B0064006C00740033
:101AFA007D0085008E0096009E00A600AF00B7000C
:101B0A00BF000D0A006E616E00696E66006F766630
:101B1A000068696A20697320776565722074657246
:101B2A00756720696E2064652063656E746572202E
:101B3A006E616461742068696A20686565667420EC
:101B4A0067657363616E6E65640068696A206865BB
:101B5A0065667420646520656572737465204469DE
:101B6A0061626F6C206765766F6E64656E2067616F
:101B7A00206E752062657061616C656E206F6620EB
:101B8A0068696A20737461616E206F66206C696788
:101B9A0067656E642069732000646520316520647E
:101BAA006961626F6C20697320486F6F67006465B2
:101BBA0020316520646961626F6C206973204C6111
:101BCA0061670068696A206865656674206E696B7A
:101BDA0073206765766F6E64656E20696E20646532
:101BEA002076616B2067616174206E616172206486
:101BFA006520766F6C67656E6465200068696A2087
:101C0A0067616174206E75207A6F656B656E206EF0
:101C1A0061617220646520326520646961626F6C5B
:021C2A000000B8
:00000001FF
