:100000000C9467000C948F000C948F000C948F005C
:100010000C948F000C948F000C948F000C948F0024
:100020000C948F000C948F000C948F000C94590545
:100030000C948F000C948F000C948F000C948F0004
:100040000C94B7040C948F000C9427050C940105B4
:100050000C948F000C948F000C948F000C948F00E4
:100060000C948F000C948F005E0165017101820178
:1000700084018B019701A801BE01C00100000000AE
:10008000240027002A0000000000250028002B0083
:10009000040404040404040402020202020203032E
:1000A0000303030301020408102040800102040836
:1000B00010200102040810200000000800020100C6
:1000C0000003040700000000000000001A061124CD
:1000D0001FBECFEFD8E0DEBFCDBF12E0A0E0B1E0A1
:1000E000E2E1F4E102C005900D92AC31B107D9F71D
:1000F00023E0ACE1B2E001C01D92A734B207E1F702
:1001000010E0C7E6D0E004C02197FE010E94CB08B2
:10011000C636D107C9F70E94A0060C94070A0C94B2
:10012000000090E0FC01E854FF4F2491FC01EC55E5
:10013000FF4F3491FC01E057FF4FE491EE2309F4A7
:100140003CC0222339F1233091F038F42130A9F05A
:10015000223001F584B58F7D12C0273091F0283010
:10016000A1F02430B9F4809180008F7D03C080918C
:1001700080008F77809380000DC084B58F7784BD19
:1001800009C08091B0008F7703C08091B0008F7D4F
:100190008093B000F0E0EE0FFF1FEA57FF4FA591EC
:1001A000B4919FB7F894611104C08C9130953823B5
:1001B00002C0EC913E2B3C939FBF0895CF93DF93F9
:1001C000EC0180911B0390911C03029709F5C1304B
:1001D000D10569F024F42097D9F460E009C0C23059
:1001E000D10561F0C330D10599F460E008C061E049
:1001F00080911F030E94910061E006C061E0809140
:100200001F030E94910060E0809121030E949100F1
:1002100080911B0390911C03049709F03FC0C130EB
:10022000D105B9F04CF42097C9F561E080911F0326
:100230000E94910060E013C0C230D105D9F0C330F4
:10024000D10561F561E080911F030E94910060E09B
:1002500017C060E080911F030E94910061E08091CF
:1002600021030E94910061E0809123030E9491008C
:1002700060E010C060E080911F030E94910061E087
:10028000809121030E94910060E0809123030E94ED
:10029000910061E0809125030E94910080911B03F1
:1002A00090911C03059709F086C0CA30D10508F06B
:1002B00082C0FE01EC5CFF4F0C94CB0860E08091A3
:1002C0001F030E94910061E061C060E080911F0304
:1002D0000E94910061E0809121030E94910060E002
:1002E0005AC060E080911F030E94910061E08091FC
:1002F00021030E94910060E0809123030E949100FD
:1003000061E04EC060E001C061E080911F030E9487
:10031000910061E006C061E080911F030E9491009E
:1003200060E0809121030E94910060E00BC061E0D9
:1003300080911F030E94910060E0809121030E9440
:10034000910061E0809123030E94910061E010C060
:1003500061E080911F030E94910060E08091210381
:100360000E94910061E0809123030E94910060E06F
:10037000809125030E94910060E017C061E001C0F8
:1003800060E080911F030E94910060E08091210352
:100390000E94910061E0809123030E94910060E03F
:1003A000809125030E94910061E080912703DF91F5
:1003B000CF910C949100DF91CF910895CF93DF936B
:1003C00090E0FC01EC55FF4F2491FC01E057FF4FFA
:1003D0008491882361F190E0880F991FFC01E45813
:1003E000FF4FC591D491FC01EA57FF4FA591B491FD
:1003F000611109C09FB7F894888120958223888372
:10040000EC912E230BC0623061F49FB7F894888181
:10041000322F309583238883EC912E2B2C939FBF12
:1004200006C08FB7F894E8812E2B28838FBFDF9109
:10043000CF9108950F931F93CF93DF93EC01862FF5
:100440001B861A86198218821E8A1F8A188E198E98
:10045000E8ECF0E0FF83EE836C877D875F874E8753
:10046000398B288B1B8B0A8B61E00E94DE0161E0D7
:100470008E850E94DE0161E088890E94DE0161E0D4
:100480008A890E94DE011D8A1C8A84E090E0998797
:100490008887DF91CF911F910F9108953FB7F8940E
:1004A0008091300290913102A0913202B0913302DA
:1004B00026B5A89B05C02F3F19F00196A11DB11DBF
:1004C0003FBFBA2FA92F982F8827820F911DA11DFA
:1004D000B11DBC01CD0142E0660F771F881F991F37
:1004E0004A95D1F708954F925F926F927F928F92C3
:1004F0009F92AF92BF92EF92FF920F931F93CF9371
:10050000DF93EC0197FF04C0CC27DD27C81BD90B74
:10051000181619063CF481E090E090931403809340
:10052000130306C0892B21F01092140310921303B9
:1005300004E010E08AE0E82EF12C209709F468C06E
:100540000E944E028090290390902A03A0902B03D2
:10055000B0902C032B013C01481859086A087B080D
:100560008090150390901603A0901703B090180385
:10057000481459046A047B0400F3609329037093C0
:100580002A0380932B0390932C0320911303309123
:10059000140380911D0390911E032130310589F4CD
:1005A000019690931E0380931D03209119033091AF
:1005B0001A0382179307C1F410921E0310921D03B1
:1005C00013C0892B41F48091190390911A039093E1
:1005D0001E0380931D0380911D0390911E030197BC
:1005E00090931E0380931D03219720911B0330914C
:1005F0001C0380911D0390911E032530310511F4D9
:10060000B70101C0B8010E94B7080E94DE0095CF73
:10061000DF91CF911F910F91FF90EF90BF90AF901E
:100620009F908F907F906F905F904F900895CF92A2
:10063000DF92EF92FF920F931F93CF93DF936C01A2
:100640007A018B01C0E0D0E0CE15DF0581F0D80142
:100650006D918D01D601ED91FC910190F081E02D1D
:10066000C6010995892B11F02196EECF7E01C701B5
:10067000DF91CF911F910F91FF90EF90DF90CF907E
:100680000895089580E090E00895FC01538D448D15
:10069000252F30E0842F90E0821B930B541710F02D
:1006A000CF96089501970895FC01918D828D98173A
:1006B00061F0828DDF01A80FB11D5D968C91928D46
:1006C0009F5F9F73928F90E008958FEF9FEF089543
:1006D000FC01918D828D981731F0828DE80FF11D0C
:1006E000858D90E008958FEF9FEF0895FC01918D27
:1006F000228D892F90E0805C9F4F821B91098F7320
:100700009927089584E392E00E94760321E0892BE3
:1007100009F420E0822F0895FC01848DDF01A80FE9
:10072000B11DA35ABF4F2C91848D90E001968F7319
:100730009927848FA689B7892C93A089B1898C9138
:10074000837080648C93938D848D981306C0028887
:10075000F389E02D80818F7D80830895EF92FF9251
:100760000F931F93CF93DF93EC0181E0888F9B8DD4
:100770008C8D981305C0E889F989808185FD26C094
:10078000F62E0B8D10E00F5F1F4F0F731127E02E19
:100790008C8DE8120CC00FB607FCFACFE889F989F6
:1007A000808185FFF5CFCE010E948C03F1CF8B8D28
:1007B000FE01E80FF11DE35AFF4FF0829FB7F89456
:1007C0000B8FEA89FB89808180620AC09FB7F89409
:1007D000EE89FF896083E889F9898081837080646C
:1007E00080839FBF81E090E0DF91CF911F910F91B7
:1007F000FF90EF900895CF93DF93EC01888D8823CD
:10080000C9F0EA89FB89808185FD05C0A889B9897D
:100810008C9186FD0FC00FB607FCF5CF808185FF58
:10082000F2CFA889B9898C9185FFEDCFCE010E94C6
:100830008C03E7CFDF91CF91089580E090E0892B82
:1008400029F00E94820381110C9400000895CF9238
:10085000DF92EF92FF9220E030E040E251E46091BD
:100860001F027091200280912102909122020E9429
:10087000E5086B017C0120E030E0A9010E94D90964
:10088000181624F0F7FAF094F7F8F094C0921F02CB
:10089000D0922002E0922102F092220220E030E089
:1008A00040E251E46091230270912402809125027C
:1008B000909126020E94E5086B017C0120E030E067
:1008C000A9010E94D909181624F0F7FAF094F7F854
:1008D000F094C0922302D0922402E0922502F0927A
:1008E000260220E030E040E251E4C701B6010E9458
:1008F000E5086B017C0120E030E0A9010E94D909E4
:10090000181624F0F7FAF094F7F8F094C092270242
:10091000D0922802E0922902F0922A02FF90EF90F2
:10092000DF90CF900895CF93DF93009779F0FC018B
:1009300001900020E9F73197AF01481B590BBC012A
:1009400084E392E00E941703EC0102C0C0E0D0E013
:1009500042E050E062E471E084E392E00E94170319
:100960008C0F9D1FDF91CF9108950E94020A1F9264
:100970000F920FB60F9211242F933F938F939F9353
:10098000AF93BF9380912C0290912D02A0912E02E3
:10099000B0912F0230912B0223E0230F2D3720F44A
:1009A0000196A11DB11D05C026E8230F0296A11DC9
:1009B000B11D20932B0280932C0290932D02A093C3
:1009C0002E02B0932F028091300290913102A091BB
:1009D0003202B09133020196A11DB11D8093300205
:1009E00090933102A0933202B0933302BF91AF9142
:1009F0009F918F913F912F910F900FBE0F901F905D
:100A000018951F920F920FB60F9211242F933F93B8
:100A10004F935F936F937F938F939F93AF93BF9306
:100A2000EF93FF9384E392E00E948C03FF91EF9198
:100A3000BF91AF919F918F917F916F915F914F91F6
:100A40003F912F910F900FBE0F901F9018951F92FE
:100A50000F920FB60F9211242F938F939F93EF93C2
:100A6000FF93E0914402F09145028081E0914A02B7
:100A7000F0914B0282FD12C0908180914D028F5FF8
:100A80008F7320914E02821751F0E0914D02F0E0F9
:100A9000EC5CFD4F958F80934D0201C08081FF91EA
:100AA000EF919F918F912F910F900FBE0F901F90FC
:100AB00018951F920F920FB60F9211242F933F9308
:100AC0004F935F936F937F938F939F93AF93BF9356
:100AD000EF93FF9380911C0287FF05C01092850061
:100AE000109284001BC020911C02022E000C330BBC
:100AF0008091F50290E02817390784F480911C0258
:100B0000082E000C990BFC01EE0FFF1F8E0F9F1F8C
:100B1000FC01EF52FD4F808186FD15C080911C02C3
:100B20008F5F80931C0220911C02022E000C330B5D
:100B30008091F50290E028173907C4F480911C02D7
:100B40008C3064F113C080911C02082E000C990BAC
:100B5000FC01EE0FFF1F8E0F9F1FFC01EF52FD4F98
:100B6000808160E08F730E949100D8CF80918400D3
:100B700090918500049680349C4918F480E49CE9A7
:100B800005C080918400909185000496909389001F
:100B9000809388008FEF80931C023BC020918400DB
:100BA0003091850080911C02082E000C990BFC01ED
:100BB000EE0FFF1F8E0F9F1FFC01EF52FD4F818133
:100BC0009281820F931F9093890080938800809177
:100BD0001C02082E000C990BFC01EE0FFF1F8E0F5C
:100BE0009F1FFC01EF52FD4F808186FF12C0809154
:100BF0001C02082E000C990BFC01EE0FFF1F8E0F3C
:100C00009F1FFC01EF52FD4F808161E08F730E94B6
:100C10009100FF91EF91BF91AF919F918F917F9143
:100C20006F915F914F913F912F910F900FBE0F9059
:100C30001F9018950F931F9310923702109236024F
:100C400088EE93E0A0E0B0E0809338029093390200
:100C5000A0933A02B0933B0284E091E09093350276
:100C60008093340285EC90E090934102809340029F
:100C700084EC90E0909343028093420280EC90E0F9
:100C8000909345028093440281EC90E09093470258
:100C90008093460282EC90E0909349028093480250
:100CA00086EC90E090934B0280934A0210924D02A2
:100CB00010924E0210924F02109250020CE414E077
:100CC00024E833E044E650E064E670E08DE293E02F
:100CD0000E941A020BE010E02AE030E049E050E008
:100CE00068E070E083E193E00E941A0209E010E0FE
:100CF00028E030E047E050E066E070E089EF92E005
:100D00000E941A028091F5028C30A0F491E0980FB5
:100D10009093F5028093F60290E0FC01EE0FFF1F26
:100D20008E0F9F1FFC01EF52FD4F88EB9BE09283DB
:100D3000818303C08FEF8093F6021F910F91089576
:100D4000789484B5826084BD84B5816084BD85B5A6
:100D5000826085BD85B5816085BD80916E008160B2
:100D600080936E0010928100809181008260809358
:100D7000810080918100816080938100809180005A
:100D80008160809380008091B10084608093B10085
:100D90008091B00081608093B00080917A0084607F
:100DA00080937A0080917A00826080937A008091AB
:100DB0007A00816080937A0080917A0080688093C5
:100DC0007A001092C100E0914402F091450282E065
:100DD0008083E0914002F09141021082E091420252
:100DE000F09143028FEC808310924C02E091480214
:100DF000F091490286E08083E0914602F09147023B
:100E0000808180618083E0914602F0914702808179
:100E100088608083E0914602F0914702808180687B
:100E20008083E0914602F091470280818F7D80832C
:100E30002091190330911A03032E000C440B550B1B
:100E4000C12CC7E8DC2EC3E9EC2EC3E0FC2EC701A1
:100E5000B6010E946A08CA01B90128E230E040E008
:100E600050E00E946A0820931503309316034093C4
:100E70001703509318032091FF0230910003032EB3
:100E8000000C440B550BC701B6010E946A08DCE355
:100E90008D2E912CA12CB12CCA01B901A501940170
:100EA0000E946A082093FB023093FC024093FD02EB
:100EB0005093FE022091330330913403032E000C33
:100EC000440B550BC701B6010E946A08CA01B9015B
:100ED000A50194010E946A0820932F0330933003E8
:100EE000409331035093320361E08EE00E94DE01B3
:100EF00060E08FE00E94DE018091F6028C3008F005
:100F000051C061E080E50E94DE018091F602E82F89
:100F1000F0E09F01220F331FE20FF31FEF52FD4F4E
:100F20009081907C906190831092F7021092F80269
:100F30006CE00E94AB082CE0829FB001112440E0DD
:100F400050E09B01240F351FF901EE0FFF1F2E0FFC
:100F50003F1FF901EF52FD4F908196FD16C04F5F84
:100F60005F4F4C30510569F781110FC0109280001E
:100F700082E0809381001092850010928400B19AE3
:100F800080916F00826080936F00E091F602F0E044
:100F9000CF01880F991FE80FF91FEF52FD4F808195
:100FA0008064808302E111E00E94270420912302E3
:100FB000309124024091250250912602609127022F
:100FC000709128028091290290912A020E94E608DD
:100FD00020911F0230912002409121025091220263
:100FE0000E94E6080E945209161617065CF485E472
:100FF00091E00E94930489EA91E00E949304C3E087
:10100000D0E002C0C2E0D0E08EEB91E00E949304F9
:10101000F80182819381419151918F019C01241BA0
:10102000350B48535F4F841B950BB90137FF04C044
:1010300066277727621B730BAC0197FF04C0442718
:101040005527481B590B461757072CF030931E02A3
:1010500020931D0204C090931E0280931D02809174
:101060001D0290911E020E947302229709F49CCFE8
:1010700087EF91E00E94930488EC90E00E94730255
:101080000E944E026B017C0180ED882E87E0982E35
:10109000A12CB12C0E944E02DC01CB018C199D09C0
:1010A000AE09BF09883E9340A105B10598F3F1E070
:1010B0008F1A9108A108B10828EEC20E23E0D21EB3
:1010C000E11CF11C81149104A104B10419F70E94E0
:1010D0001D04D2CF052E97FB1EF400940E948108B8
:1010E00057FD07D00E94890807FC03D04EF40C94EA
:1010F000810850954095309521953F4F4F4F5F4F58
:10110000089590958095709561957F4F8F4F9F4F73
:101110000895A1E21A2EAA1BBB1BFD010DC0AA1F38
:10112000BB1FEE1FFF1FA217B307E407F50720F050
:10113000A21BB30BE40BF50B661F771F881F991FCB
:101140001A9469F760957095809590959B01AC0114
:10115000BD01CF010895991B79E004C0991F96172E
:1011600008F0961B881F7A95C9F78095089597FB1C
:10117000072E16F4009407D077FD09D00E94D108FD
:1011800007FC05D03EF4909581959F4F089570958A
:1011900061957F4F0895EE0FFF1F0590F491E02DAC
:1011A0000994AA1BBB1B51E107C0AA1FBB1FA617AE
:1011B000B70710F0A61BB70B881F991F5A95A9F700
:1011C00080959095BC01CD0108955058BB27AA2762
:1011D0000E94FD080C949F090E94910938F00E941A
:1011E000980920F039F49F3F19F426F40C948E09E5
:1011F0000EF4E095E7FB0C948809E92F0E94B009F2
:1012000058F3BA17620773078407950720F079F43B
:10121000A6F50C94D2090EF4E0950B2EBA2FA02D52
:101220000B01B90190010C01CA01A0011124FF2793
:10123000591B99F0593F50F4503E68F11A16F0408E
:10124000A22F232F342F4427585FF3CF469537958D
:101250002795A795F0405395C9F77EF41F16BA0B52
:10126000620B730B840BBAF09150A1F0FF0FBB1F00
:10127000661F771F881FC2F70EC0BA0F621F731F49
:10128000841F48F4879577956795B795F7959E3FA6
:1012900008F0B0CF9395880F08F09927EE0F979537
:1012A000879508950E9459096894B1110C94D30947
:1012B00008950E94B80988F09F5798F0B92F992790
:1012C000B751B0F0E1F0660F771F881F991F1AF031
:1012D000BA95C9F714C0B13091F00E94D209B1E0BB
:1012E00008950C94D209672F782F8827B85F39F0BA
:1012F000B93FCCF3869577956795B395D9F73EF4CA
:1013000090958095709561957F4F8F4F9F4F089571
:1013100097F99F6780E870E060E008959FEF80ECA8
:10132000089500240A94161617061806090608954B
:1013300000240A9412161306140605060895092EB1
:101340000394000C11F4882352F0BB0F40F4BF2B20
:1013500011F460FF04C06F5F7F4F8F4F9F4F089560
:1013600057FD9058440F551F59F05F3F71F0479556
:10137000880F97FB991F61F09F3F79F0879508953B
:10138000121613061406551FF2CF4695F1DF08C05A
:10139000161617061806991FF1CF86957105610577
:1013A00008940895E894BB2766277727CB0197F91F
:1013B00008950E94DE0908F48FEF0895990F000840
:1013C000550FAA0BE0E8FEEF16161706E807F90717
:1013D000C0F012161306E407F50798F0621B730BB2
:1013E000840B950B39F40A2661F0232B242B252B33
:1013F00021F408950A2609F4A140A6958FEF811DD6
:10140000811D089581E090E0F8940C94070AF89407
:02141000FFCF0C
:1014120000000000AE0317034503FB0376035403E9
:1014220068030000080010001900210029003200A2
:101432003A0042004B0053005B0064006C007400F1
:101442007D0085008E0096009E00A600AF00B700CA
:10145200BF000D0A0068696A2068656566742064C9
:10146200652065657273746520446961626F6C20E2
:101472006765766F6E64656E206761206E752062A7
:10148200657061616C656E206F662068696A2073A1
:101492007461616E206F66206C696767656E642097
:1014A20069732000646520316520646961626F6C34
:1014B20020697320486F6F6700646520316520647E
:1014C2006961626F6C206973204C616167006869B1
:1014D2006A206865656674206E696B73206765763D
:1014E2006F6E64656E20696E2064652076616B2084
:1014F20067616174206E61617220646520766F6C31
:1015020067656E6465200068696A2067616174209E
:101512006E75207A6F656B656E206E6161722064F4
:0C1522006520326520646961626F6C0016
:00000001FF
