:100000000C9462000C948A000C948A000C948A0070
:100010000C948A000C948A000C948A000C948A0038
:100020000C948A000C948A000C948A000C94B508F5
:100030000C948A000C948A000C948A000C948A0018
:100040000C9413080C948A000C9483080C945D089B
:100050000C948A000C948A000C948A000C948A00F8
:100060000C948A000C948A000000000023002600F3
:10007000290000000000240027002A0000000000E2
:10008000250028002B0004040404040404040202D4
:100090000202020203030303030301020408102007
:1000A0004080010204081020010204081020000012
:1000B0000008000201000003040700000000000027
:1000C0000000BB0911241FBECFEFD8E0DEBFCDBFBB
:1000D00012E0A0E0B1E0EEE8FEE102C005900D9272
:1000E000AE32B107D9F723E0AEE2B2E001C01D9213
:1000F000A53CB207E1F710E0C2E6D0E004C02197CA
:10010000FE010E943C0DC136D107C9F70E94BF0A0B
:100110000C94450F0C940000FC0181E291E0918366
:1001200080831682178210861186128613861486A3
:10013000158688EC90E097878687718B608B538B50
:10014000428B8FEF9FEF958B848B81E090E0978BB4
:10015000868B918F808F128E138E148E158E178E34
:10016000168E88EE93E091A380A393A382A314A696
:1001700015A616A617A610A611A612A613A615AEAA
:1001800014AE10AA11AA12AA13AA14AA15AA16AA82
:1001900017AA10AE11AE12AE13AE128213821482E1
:1001A000158214A215A216A217A20895CF92DF926B
:1001B000EF92FF92DC01A03282E0B8070CF03EC063
:1001C000B7FD06C0A53BB1052CF0A4EBB0E002C022
:1001D000A0E0B0E08091030328E830E06901C81A8C
:1001E000D10887FDD394CC0CDD1CCC0CDD1C0D2C70
:1001F000000CEE08FF088091040328E532E0281B7C
:10020000310987FD3395220F331F220F331FA901B8
:10021000330F660B770B9A01AB012C193D094E0980
:100220005F090E94E70C24EB30E040E050E00E94C0
:10023000BD0CC20ED31EE41EF51ED6019091020322
:100240009C3098F58091030348E850E0481B510921
:1002500087FD5395440F551F440F551FA417B5072D
:100260008CF08091040328E532E0281B310987FDDA
:100270003395220F331F220F331FAD012A173B077F
:100280000CF4A90142505109440F551F2FB7F8949F
:10029000892F90E0FC01EE0FFF1F8E0F9F1FFC01C6
:1002A000E352FD4F528341832FBFFF90EF90DF90C9
:1002B000CF90089590E0FC01E255FF4F2491FC019E
:1002C000E656FF4F3491FC01EA57FF4FE491EE23CD
:1002D00009F43CC0222339F1233091F038F4213065
:1002E000A9F0223001F584B58F7D12C0273091F03E
:1002F0002830A1F02430B9F4809180008F7D03C0B4
:10030000809180008F77809380000DC084B58F77B7
:1003100084BD09C08091B0008F7703C08091B00088
:100320008F7D8093B000F0E0EE0FFF1FE458FF4F89
:10033000A591B4919FB7F894611104C08C91309548
:10034000382302C0EC913E2B3C939FBF0895CF937E
:10035000DF9390E0FC01E656FF4F2491FC01EA5741
:10036000FF4F8491882361F190E0880F991FFC0171
:10037000EE58FF4FC591D491FC01E458FF4FA59171
:10038000B491611109C09FB7F894888120958223A8
:100390008883EC912E230BC0623061F49FB7F894F0
:1003A0008881322F309583238883EC912E2B2C93D8
:1003B0009FBF06C08FB7F894E8812E2B28838FBF8C
:1003C000DF91CF910895CF93DF93EC0161E08889AD
:1003D0000E94A70161E088890E945A0161E08A8930
:1003E0000E94A70160E08A890E945A018C899D8938
:1003F0008F3F2FEF920751F061E00E94A701E88143
:10040000F9810680F781E02DCE01099580E090E02A
:10041000A8E4B3E48A8F9B8FAC8FBD8FE881F9810C
:100420000280F381E02D61E070E0CE010995E88162
:10043000F9810480F581E02DCE01DF91CF910994FF
:100440003FB7F89480913C0290913D02A0913E020A
:10045000B0913F0226B5A89B05C02F3F19F0019629
:10046000A11DB11D3FBFBA2FA92F982F8827820F3A
:10047000911DA11DB11DBC01CD0142E0660F771F8A
:10048000881F991F4A95D1F708958F929F92AF9236
:10049000BF92CF92DF92EF92FF926B017C010E949C
:1004A00020024B015C01C114D104E104F104F1F01C
:1004B0000E942002DC01CB0188199909AA09BB0915
:1004C000883E9340A105B10570F321E0C21AD1081E
:1004D000E108F10888EE880E83E0981EA11CB11C8B
:1004E000C114D104E104F10419F7DDCFFF90EF90BE
:1004F000DF90CF90BF90AF909F908F900895CF9254
:10050000DF92EF92FF920F931F93CF93DF936C01D3
:100510007A018B01C0E0D0E0CE15DF0581F0D80173
:100520006D918D01D601ED91FC910190F081E02D4E
:10053000C6010995892B11F02196EECF7E01C701E6
:10054000DF91CF911F910F91FF90EF90DF90CF90AF
:100550000895089580E090E00895FC01538D448D46
:10056000252F30E0842F90E0821B930B541710F05E
:10057000CF96089501970895FC01918D828D98176B
:1005800061F0828DDF01A80FB11D5D968C91928D77
:100590009F5F9F73928F90E008958FEF9FEF089574
:1005A000FC01918D828D981731F0828DE80FF11D3D
:1005B000858D90E008958FEF9FEF0895FC01918D58
:1005C000228D892F90E0805C9F4F821B91098F7351
:1005D0009927089580E492E00E94DE0221E0892BB1
:1005E00009F420E0822F0895FC01848DDF01A80F1B
:1005F000B11DA35ABF4F2C91848D90E001968F734B
:100600009927848FA689B7892C93A089B1898C9169
:10061000837080648C93938D848D981306C00288B8
:10062000F389E02D80818F7D80830895EF92FF9282
:100630000F931F93CF93DF93EC0181E0888F9B8D05
:100640008C8D981305C0E889F989808185FD26C0C5
:10065000F62E0B8D10E00F5F1F4F0F731127E02E4A
:100660008C8DE8120CC00FB607FCFACFE889F98927
:10067000808185FFF5CFCE010E94F402F1CF8B8DF2
:10068000FE01E80FF11DE35AFF4FF0829FB7F89487
:100690000B8FEA89FB89808180620AC09FB7F8943A
:1006A000EE89FF896083E889F9898081837080649D
:1006B00080839FBF81E090E0DF91CF911F910F91E8
:1006C000FF90EF900895CF93DF93EC01888D8823FE
:1006D000C9F0EA89FB89808185FD05C0A889B989AF
:1006E0008C9186FD0FC00FB607FCF5CF808185FF8A
:1006F000F2CFA889B9898C9185FFEDCFCE010E94F8
:10070000F402E7CFDF91CF91089580E090E0892B4C
:1007100029F00E94EA0281110C940000089580E201
:1007200090E0089586E090E0089585E091E00895D6
:1007300080E890E00895FC01248935892F3FFFEF80
:100740003F0751F061E0FC0186899789019709F420
:1007500060E0822F0C945A010895CF92DF92EF92BD
:10076000FF92FC01248935892F3FFFEF3F0729F0D5
:10077000FC016689822F0E945A010E9420026B01AF
:100780007C010E942002DC01CB018C199D09AE097D
:10079000BF090297A105B105A0F3FF90EF90DF908C
:1007A000CF900895EF92FF920F931F93CF93DF9313
:1007B0008C017B01C1E0D0E0D801ED91FC9101906A
:1007C000F081E02DC80109958C179D0754F0CE15D6
:1007D000DF0521F4F801D18FC08F03C0CC0FDD1FDE
:1007E000EBCFD80158968D919C915997DF91CF917D
:1007F0001F910F91FF90EF90089580E190E0089590
:1008000085E090E0089580E091E00895CF92DF9236
:10081000EF92FF920F931F93CF93DF93EC010E940F
:10082000D2038EAD9FAD019609F44AC07E0180E4EB
:10083000E80EF11CF70180819181019609F440C016
:100840006E0122E4C20ED11CF601808191810196D5
:10085000B9F1E881F9810084F185E02DCE01099597
:100860008C01E881F9810284F385E02DCE010995A0
:1008700020E030E08217930719F1488D598D022E40
:1008800002C0559547950A94E2F740FF16C0F8015B
:10089000E20FF31F1081612F6470F60180810E94C6
:1008A0005A01612F6270F70180810E945A01612F05
:1008B00061708EAD0E945A0103C02F5F3F4FDACFA7
:1008C000888D998DDF91CF911F910F91FF90EF90BF
:1008D000DF90CF900895CF93DF93009779F0FC01DC
:1008E00001900020E9F73197AF01481B590BBC017B
:1008F00080E492E00E947F02EC0102C0C0E0D0E000
:1009000042E050E069E671E080E492E00E947F02FC
:100910008C0F9D1FDF91CF9108950E94400F2F9261
:100920003F924F925F926F927F928F929F92AF927F
:10093000BF92CF92DF92EF92FF920F931F93CF93CC
:10094000DF93CDB7DEB72E970FB6F894DEBF0FBE9C
:10095000CDBF9E878D87DB01CA0180959095A095BC
:10096000B0958827B7FD83959927AA27BB27ED85E2
:10097000FE8595AF84AF16821782108611866A01B4
:100980007B0177FF08C0F094E094D094C094C11C20
:10099000D11CE11CF11CED85FE85C0A6D1A6E2A606
:1009A000F3A614A215A216A217A212821382148211
:1009B0001582868D978D66857785019709F0E0C051
:1009C000072E000C880B990B0E94EC0DAD85BE859F
:1009D0005A962D913D914D915C915D970E94780EB4
:1009E00020E030E040E752E40E94420D69837A83C0
:1009F0008B839C83ED85FE85608D718D072E000CA9
:100A0000880B990B0E94EC0D4B015C01AD85BE85F6
:100A100090960D911C91919729813A814B815C812F
:100A2000CA01B9010E94780E2B013C01B801660F82
:100A3000771F072E000C880B990B0E94EC0D9B0171
:100A4000AC01C301B2010E94420DA50194010E94B4
:100A5000780E0E94B40D2B013C01ED85FE8564A744
:100A600075A786A797A722A033A0C101032C000C6D
:100A7000AA0BBB0B8D839E83AF83B887C801012E61
:100A8000000CAA0BBB0B89879A87AB87BC879C019C
:100A9000AD01C301B2010E94200D2D813E814F8125
:100AA00058850E94BD0CAD85BE85D0962D933D9393
:100AB0004D935C93D397D301C201820F931FA41F60
:100AC000B51FC816D906EA06FB06FCF4A701960175
:100AD0006D817E818F8198850E94200D9801220D65
:100AE000331D032E000C440B550B0E94BD0CED85ED
:100AF000FE8524A735A746A757A7C21AD30AE40A3A
:100B0000F50AC0AAD1AAE2AAF3AA69857A858B85DB
:100B10009C850E94EC0D9B01AC0160E070E080E0E0
:100B200090E40E94420DA50194010E94420D0E9492
:100B3000EB0E20E03AE045E259E40E94780E0E9474
:100B4000B40DED85FE8564AB75AB86AB97AB2981A3
:100B50003A814B815C8160E074E284E799E40E9411
:100B6000420DA50194010E94420D0E94B40DAD8575
:100B7000BE85D8966D937D938D939C93DB975CC0D7
:100B8000ED85FE8514A615A616A617A610AA11AA0D
:100B900012AA13AA072E000C880B990B0E94EC0DC9
:100BA0009B01AC0160EC71EE84E69CE40E94420D76
:100BB0004B015C01ED85FE85608D718D072E000C6B
:100BC000880B990B0E94EC0D9B01AC01C501B4018F
:100BD0000E94420DAD85BE855A962D913D914D9155
:100BE0005C915D970E94420D0E94B40D4B015C0127
:100BF000ED85FE8560AF71AF82AF93AFA70196011F
:100C00000E94200D97FD05C084AA95AAA6AAB7AA9E
:100C100013C0C701B6010E94EC0D9B01AC0160E05E
:100C200070E0CB010E94420D0E94B40DED85FE855F
:100C300064AB75AB86AB97ABED85FE8580A591A5C2
:100C4000A2A5B3A5181619061A061B060CF0CDC0EE
:100C5000C284D384E484F584C114D104E104F10492
:100C600049F5AD85BE85DC966C91DC9750968C91EC
:100C70000E945A0161E0ED85FE8582890E945A0139
:100C80000E94200269837A838B839C83AD85BE8515
:100C9000D4968D909D90AD90BC90D79798968D915D
:100CA0009D910D90BC91A02D181619061A061B06D1
:100CB000F4F063C0ED85FE8586809780A084B184C2
:100CC00081149104A104B10421F40E9420024B017B
:100CD0005C010E942002DC01CB0188199909AA0954
:100CE000BB098C159D05AE05BF0598F3BACF9C01D5
:100CF000AD012150310941095109AD85BE85989654
:100D00002D933D934D935C939B979496CD90DD905E
:100D1000ED90FC909797BFEFCB1ADB0AEB0AFB0A2A
:100D2000ED85FE85C4A2D5A2E6A2F7A2868D978D99
:100D3000019719F52115310541055105F1F080A9FB
:100D400091A9A2A9B3A982179307A407B5070CF02C
:100D50007AC084A595A5A6A5B7A58C159D05AE0559
:100D6000BF055CF0B6C0ED85FE8580AD91ADA2AD4E
:100D7000B3AD84AB95ABA6ABB7AB0E9420026B01C1
:100D80007C010E942002C616D706E806F906C9F3C0
:100D900060E0AD85BE8552968C910E945A010E94FA
:100DA0002002ED85FE856683778380879187298180
:100DB0003A81621B730BCB01A0E0B0E08815990566
:100DC000AA05BB0528F4881A990AAA0ABB0A04C016
:100DD000812C912C54018394AD85BE851A968D92F9
:100DE0009D92AD92BC921D970AC0ED85FE8516823C
:100DF0001782108611861286138614861586ED8555
:100E0000FE8582859385A485B585892B8A2B8B2BBE
:100E100009F012CF2E960FB6F894DEBF0FBECDBFED
:100E2000DF91CF911F910F91FF90EF90DF90CF90C6
:100E3000BF90AF909F908F907F906F905F904F90FA
:100E40003F902F900895AD85BE8512964D905D9090
:100E50006D907C901597ACEFBFEF0E94EA0C6B0190
:100E60007C01BFEFCB1ADB0AEB0AFB0AD501C401F8
:100E7000880F991FAA1FBB1FBC01CD01640D751DF2
:100E8000861D971DA70196010E94BD0CD501C401C6
:100E9000821B930BA40BB50BED85FE8584AB95AB44
:100EA000A6ABB7AB880F991FAA1FBB1FBC01CD0112
:100EB000640D751D861D971DA70196010E94BD0C2E
:100EC000AD85BE8512966D937D938D939C931597FA
:100ED00054CFC816D906EA06FB060CF044CFAD8500
:100EE000BE8512964D905D906D907C90159752E066
:100EF000CC0CDD1CEE1CFF1C5A95D1F7B2CFCF9362
:100F0000DF93C0E0D0E0AE010D2E000C660B770B36
:100F100085E093E00E948F04442755274C1B5D0B0E
:100F2000052E000C660B770B85E093E0DF91CF91E7
:100F30000C948F0480912E0290912F02892B71F4D2
:100F40004AE650E060E070E083E493E00E948F04A2
:100F500081E090E090932F0280932E0280912E02E8
:100F600090912F02019761F446E95FEF6FEF7FEFF9
:100F700085E093E00E948F0410922F0210922E02BF
:100F800008950F931F9360E084E00E945A0183E06C
:100F900090E00197F1F761E084E00E945A0183E25A
:100FA00090E00197F1F760E084E00E945A01EFE9D8
:100FB000F0E06491EBE8F0E0E491F0E0EE0FFF1F69
:100FC000E859FF4F8591949100E412E42FE030E05E
:100FD000462F0E947609611571058105910549F03A
:100FE000DC01CB010196A11DB11DBC01CD019F709B
:100FF00003C060E070E0CB010E94EC0D26E933E411
:101000004BE05DE30E94780E20E030E040E05FE3DB
:101010000E94780E0E94B40D7093360260933502E0
:101020001F910F9108951F920F920FB60F921124E6
:101030002F933F938F939F93AF93BF9380913802E9
:1010400090913902A0913A02B0913B02309137025F
:1010500023E0230F2D3720F40196A11DB11D05C0FB
:1010600026E8230F0296A11DB11D2093370280931D
:10107000380290933902A0933A02B0933B028091D8
:101080003C0290913D02A0913E02B0913F02019638
:10109000A11DB11D80933C0290933D02A0933E029E
:1010A000B0933F02BF91AF919F918F913F912F914C
:1010B0000F900FBE0F901F9018951F920F920FB6B2
:1010C0000F9211242F933F934F935F936F937F93CE
:1010D0008F939F93AF93BF93EF93FF9380E492E03E
:1010E0000E94F402FF91EF91BF91AF919F918F9178
:1010F0007F916F915F914F913F912F910F900FBE14
:101100000F901F9018951F920F920FB60F921124F7
:101110002F938F939F93EF93FF93E0915002F09161
:1011200051028081E0915602F091570282FD12C077
:101130009081809159028F5F8F7320915A0282179C
:1011400051F0E0915902F0E0E05CFD4F958F809303
:10115000590201C08081FF91EF919F918F912F9152
:101160000F900FBE0F901F9018951F920F920FB601
:101170000F9211242F933F934F935F936F937F931D
:101180008F939F93AF93BF93EF93FF938091300220
:1011900087FF05C010928500109284001BC020912B
:1011A0003002022E000C330B8091010390E02817CF
:1011B000390784F480913002082E000C990BFC0151
:1011C000EE0FFF1F8E0F9F1FFC01E352FD4F80812A
:1011D00086FD15C0809130028F5F80933002209190
:1011E0003002022E000C330B8091010390E028178F
:1011F0003907C4F4809130028C3064F113C08091BF
:101200003002082E000C990BFC01EE0FFF1F8E0F11
:101210009F1FFC01E352FD4F808160E08F730E94AD
:101220005A01D8CF80918400909185000496803433
:101230009C4918F480E49CE905C080918400909159
:101240008500049690938900809388008FEF8093A7
:1012500030023BC0209184003091850080913002A3
:10126000082E000C990BFC01EE0FFF1F8E0F9F1F25
:10127000FC01E352FD4F81819281820F931F909375
:1012800089008093880080913002082E000C990B11
:10129000FC01EE0FFF1F8E0F9F1FFC01E352FD4F5D
:1012A000808186FF12C080913002082E000C990BBD
:1012B000FC01EE0FFF1F8E0F9F1FFC01E352FD4F3D
:1012C000808161E08F730E945A01FF91EF91BF917D
:1012D000AF919F918F917F916F915F914F913F91CE
:1012E0002F910F900FBE0F901F901895CF92DF9205
:1012F000EF92FF920F931F93E82FF92F05C0015033
:1013000011092109310961F1908196239417B9F3EC
:1013100005C0015011092109310911F1908196236D
:101320009413F7CFC12CD12CE12CF12C0AC08FEFF4
:10133000C81AD80AE80AF80A0C151D052E053F053B
:1013400079F080818623841791F36C2D7D2D8E2D6D
:101350009F2D1F910F91FF90EF90DF90CF900895F8
:1013600060E070E080E090E01F910F91FF90EF90BF
:10137000DF90CF900895109243021092420288EEBF
:1013800093E0A0E0B0E08093440290934502A093E4
:101390004602B09347028FE091E090934102809320
:1013A000400285EC90E090934D0280934C0284ECD7
:1013B00090E090934F0280934E0280EC90E09093E7
:1013C00051028093500281EC90E0909353028093FD
:1013D000520282EC90E0909355028093540286EC86
:1013E00090E0909357028093560210925902109207
:1013F0005A0210925B0210925C02109287031092C4
:1014000088031092890310928A0310928B03109222
:101410008C0310928D0310928E0388EC90E09093D1
:10142000900380938F0388E090E0909392038093E1
:10143000910389E090E090939403809393038FEF5E
:101440009FEF909396038093950321E030E03093D3
:1014500098032093970330939A0320939903109253
:101460009B0310929C0310929D0310929E03109276
:10147000A00310929F0328EE33E03093A203209341
:10148000A1033093A4032093A3031092AD03109201
:10149000AE031092AF031092B0031092A903109202
:1014A000AA031092AB031092AC031092BE031092E9
:1014B000BD031092B1031092B2031092B3031092C5
:1014C000B4031092B5031092B6031092B7031092B2
:1014D000B8031092B9031092BA031092BB03109292
:1014E000BC03109283031092840310928503109220
:1014F00086031092A5031092A6031092A7031092E0
:10150000A8039093C0038093BF039093C20380937A
:10151000C1039093C4038093C3038DE291E0909341
:1015200082038093810342E050E061E070E083E455
:1015300093E00E948C004DE050E06CE070E085E0AC
:1015400093E00E948C00809101038C30A0F491E024
:10155000980F909301038093020390E0FC01EE0F3B
:10156000FF1F8E0F9F1FFC01E352FD4F88EB9BE096
:101570009283818308958FEF809302030895789476
:1015800084B5826084BD84B5816084BD85B5826088
:1015900085BD85B5816085BD80916E008160809339
:1015A0006E001092810080918100826080938100A2
:1015B00080918100816080938100809180008160B2
:1015C000809380008091B10084608093B10080910D
:1015D000B00081608093B00080917A008460809335
:1015E0007A0080917A00826080937A0080917A00FC
:1015F000816080937A0080917A00806880937A007D
:101600001092C100E0915002F091510282E080837B
:10161000E0914C02F0914D021082E0914E02F09167
:101620004F028FEC808310925802E0915402F091A7
:10163000550286E08083E0915202F091530280814E
:1016400080618083E0915202F09153028081886032
:101650008083E0915202F091530280818068808300
:10166000E0915202F091530280818F7D808381E866
:1016700093E00E94E3018091BF039091C0038F3FEC
:101680002FEF9207D9F02091C1033091C2032F3F71
:101690003F4FA1F02091C3033091C4032F3F3F4F30
:1016A00069F061E00E94A70161E08091C1030E949E
:1016B000A70161E08091C3030E94A70185E093E048
:1016C0000E94E30183E493E00E94E30161E084E08F
:1016D0000E94A70160E085E00E94A70180910203BB
:1016E0008C3008F051C061E08AE00E94A70180912F
:1016F0000203E82FF0E09F01220F331FE20FF31FD8
:10170000E352FD4F9081907C9A6090831092030386
:10171000109204036CE00E94300DFCE08F9FB0013A
:10172000112440E050E09B01240F351FF901EE0F1A
:10173000FF1F2E0F3F1FF901E352FD4F908196FDD1
:1017400016C04F5F5F4F4C30510569F781110FC0D4
:101750001092800082E080938100109285001092A8
:101760008400B19A80916F00826080936F00E09155
:101770000203F0E0CF01880F991FE80FF91FE35231
:10178000FD4F808180648083C0E0D0E009E311E0F8
:101790002196F80182819381419151918F019C01A1
:1017A000241B350B48535F4F841B950BB90137FF42
:1017B00004C066277727621B730BAC0197FF04C038
:1017C00044275527481B590B461757072CF03093D1
:1017D00032022093310204C090933202809331028E
:1017E0004091310250913202052E000C660B770BAE
:1017F00081E893E00E948F040E94C10764E170E0D9
:1018000080E090E00E9445028CE691E00E946B042B
:1018100080913502909136020C9739F484E991E079
:101820000E946B0481E090E002C080E090E0209193
:101830003502309136022930310521F0892B09F427
:10184000A7CF04C087EA91E00E946B048AEB91E085
:101850000E946B04CC0FDD1FC75CDE4F8A819B8129
:10186000499159919C01241B350B48535F4F841BB0
:10187000950BB90137FF04C066277727621B730BEE
:10188000AC0197FF04C044275527481B590B461746
:1018900057072CF0309332022093310204C090930A
:1018A0003202809331024091310250913202052E72
:1018B000000C660B770B81E893E00E948F0466E0D2
:1018C00070E080E090E00E9445020E94C10764E160
:1018D00070E080E090E00E9445028AED91E00E9475
:1018E0006B0480913502909136020C9739F482E0B6
:1018F00092E00E946B0482E090E002C081E090E000
:1019000020913502309136022930310521F00197BE
:1019100009F4A4CF04C085E192E00E946B040E9408
:101920009A070E947F078091330290913402892B9D
:1019300051F484EB90E00E94D60081E090E0909317
:1019400034028093330280913302909134020197E4
:1019500049F480E090E00E94D60010923402109288
:10196000330204C088E292E00E946B040E947F0769
:101970000E949A070E948503FDCF052E97FB1EF457
:1019800000940E94D40C57FD07D00E94EF0C07FC76
:1019900003D04EF40C94D40C50954095309521957D
:1019A0003F4F4F4F5F4F089590958095709561958B
:1019B0007F4F8F4F9F4F08950E94110DA59F900D4F
:1019C000B49F900DA49F800D911D11240895B7FF21
:1019D0000C94DC0C0E94DC0C821B930B0895A1E29A
:1019E0001A2EAA1BBB1BFD010DC0AA1FBB1FEE1F99
:1019F000FF1FA217B307E407F50720F0A21BB30BE4
:101A0000E40BF50B661F771F881F991F1A9469F75F
:101A100060957095809590959B01AC01BD01CF01BB
:101A20000895A29FB001B39FC001A39F700D811DB7
:101A30001124911DB29F700D811D1124911D0895D7
:101A4000DB018F939F930E94DC0CBF91AF91A29F0B
:101A5000800D911DA39F900DB29F900D11240895AC
:101A6000991B79E004C0991F961708F0961B881FF0
:101A70007A95C9F780950895EE0FFF1F0590F491B0
:101A8000E02D09940E94560D0C943E0E0E94370ED4
:101A900058F00E94300E40F029F45F3F29F00C947A
:101AA000270E51110C94720E0C942D0E0E944F0EA5
:101AB00068F39923B1F3552391F3951B550BBB277D
:101AC000AA2762177307840738F09F5F5F4F220FC2
:101AD000331F441FAA1FA9F335D00E2E3AF0E0E8B9
:101AE00032D091505040E695001CCAF72BD0FE2F03
:101AF00029D0660F771F881FBB1F26173707480797
:101B0000AB07B0E809F0BB0B802DBF01FF2793584E
:101B10005F4F3AF09E3F510578F00C94270E0C94DD
:101B2000720E5F3FE4F3983ED4F386957795679500
:101B3000B795F7959F5FC9F7880F911D9695879583
:101B400097F90895E1E0660F771F881FBB1F6217A2
:101B500073078407BA0720F0621B730B840BBA0B60
:101B6000EE1F88F7E09508950E94BB0D6894B111AF
:101B70000C94720E08950E94570E88F09F5798F0AB
:101B8000B92F9927B751B0F0E1F0660F771F881F82
:101B9000991F1AF0BA95C9F714C0B13091F00E949C
:101BA000710EB1E008950C94710E672F782F88277D
:101BB000B85F39F0B93FCCF3869577956795B395C3
:101BC000D9F73EF490958095709561957F4F8F4F32
:101BD0009F4F0895E89409C097FB3EF49095809537
:101BE000709561957F4F8F4F9F4F9923A9F0F92FE3
:101BF00096E9BB279395F695879577956795B79561
:101C0000F111F8CFFAF4BB0F11F460FF1BC06F5F46
:101C10007F4F8F4F9F4F16C0882311F096E911C058
:101C2000772321F09EE8872F762F05C0662371F079
:101C300096E8862F70E060E02AF09A95660F771F8D
:101C4000881FDAF7880F9695879597F9089597F981
:101C50009F6780E870E060E008959FEF80EC089552
:101C600000240A941616170618060906089500247B
:101C70000A9412161306140605060895092E0394F5
:101C8000000C11F4882352F0BB0F40F4BF2B11F469
:101C900060FF04C06F5F7F4F8F4F9F4F089557FDC8
:101CA0009058440F551F59F05F3F71F04795880FCA
:101CB00097FB991F61F09F3F79F087950895121661
:101CC00013061406551FF2CF4695F1DF08C016160D
:101CD00017061806991FF1CF8695710561050894BE
:101CE0000895E894BB2766277727CB0197F90895D5
:101CF0000E948B0E0C943E0E0E94300E38F00E9413
:101D0000370E20F0952311F00C94270E0C942D0E15
:101D100011240C94720E0E944F0E70F3959FC1F324
:101D2000950F50E0551F629FF001729FBB27F00D89
:101D3000B11D639FAA27F00DB11DAA1F649F6627DE
:101D4000B00DA11D661F829F2227B00DA11D621F2D
:101D5000739FB00DA11D621F839FA00D611D221FE7
:101D6000749F3327A00D611D231F849F600D211DCB
:101D7000822F762F6A2F11249F5750409AF0F1F04E
:101D800088234AF0EE0FFF1FBB1F661F771F881FB7
:101D900091505040A9F79E3F510580F00C94270EBA
:101DA0000C94720E5F3FE4F3983ED4F386957795DA
:101DB0006795B795F795E7959F5FC1F7FE2B880F5D
:101DC000911D9695879597F9089519F416F40C943A
:101DD0002D0E0C942B0F0E94570EB8F39923C9F3C4
:101DE000B6F39F57550B87FF0E94390F0024A0E6DA
:101DF00040EA900180585695979528F4805C660FCC
:101E0000771F881F20F026173707480730F4621B1A
:101E1000730B840B202931294A2BA695179407941C
:101E2000202531254A2758F7660F771F881F20F095
:101E300026173707480730F4620B730B840B200D0D
:101E4000311D411DA09581F7B901842F9158880F4C
:101E50009695879508959F3F31F0915020F487958E
:101E600077956795B795880F911D9695879597F902
:101E7000089591505040660F771F881FD2F708953C
:0E1E800081E090E0F8940C94450FF894FFCFA9
:101E8E000001020307000102030407000000001610
:101E9E00037F02AD026303DE02BC02D0020000002B
:101EAE00009803D203AD039B03000000008F0306CE
:101EBE0004AD039B03950392030000080010001964
:101ECE00002100290032003A0042004B0053005B13
:101EDE000064006C0074007D0085008E0096009EEC
:101EEE0000A600AF00B700BF000D0A0068696A20A7
:101EFE0069732061616E20686574207A6F656B6509
:101F0E006E206E61617220646520316520646961A6
:101F1E00626F6C00646520316520646961626F6C6C
:101F2E006F20697320480064652031652064696103
:101F3E00626F6C6F206973204C0068696A2067615C
:101F4E006174206E7520646520326520646961625B
:101F5E006F6C207A6F656B656E0068696A206973B5
:101F6E002061616E20686574207A6F656B656E20E6
:101F7E006E61617220646520326520646961626FF2
:101F8E006C00646520326520646961626F6C6F203D
:101F9E006973204800646520326520646961626F50
:0E1FAE006C6F206973204C006572726F7200B8
:00000001FF
