:100000000C945D000C9485000C9485000C94850084
:100010000C9485000C9485000C9485000C9485004C
:100020000C9485000C9485000C9485000C944C0471
:100030000C9485000C9485000C9485000C9485002C
:100040000C94AA030C9485000C941A040C94F403E9
:100050000C9485000C9485000C9485000C9485000C
:100060000C9485000C9485000000000024002700FB
:100070002A0000000000250028002B0004040404CE
:100080000404040402020202020203030303030342
:10009000010204081020408001020408102001021F
:1000A00004081020000000080002010000030407FB
:1000B00000000000000000000D0511241FBECFEF5E
:1000C000D8E0DEBFCDBF11E0A0E0B1E0E4E6FEE0A5
:1000D00002C005900D92AA33B107D9F722E0AAE336
:1000E000B1E001C01D92A93CB207E1F710E0CDE5F7
:1000F000D0E004C02197FE010E942507CC35D1072E
:10010000C9F70E9411060C9430070C940000FC0102
:1001100081E291E091838083168217821086118696
:10012000128613861486158688EC90E0978786875A
:10013000718B608B538B428B8FEF9FEF958B848BF2
:1001400081E090E0978B868B918F808F128E138E3B
:10015000148E158E178E168E88EE93E091A380A3D1
:1001600093A382A314A615A616A617A610A611A6D9
:1001700012A613A615AE14AE10AA11AA12AA13AA9B
:1001800014AA15AA16AA17AA10AE11AE12AE13AE73
:10019000128213821482158214A215A216A217A22B
:1001A000089590E0FC01EC55FF4F2491FC01E057CD
:1001B000FF4F3491FC01E458FF4FE491EE2309F422
:1001C0003CC0222339F1233091F038F42130A9F0DA
:1001D000223001F584B58F7D12C0273091F0283090
:1001E000A1F02430B9F4809180008F7D03C080910C
:1001F00080008F77809380000DC084B58F7784BD99
:1002000009C08091B0008F7703C08091B0008F7DCE
:100210008093B000F0E0EE0FFF1FEE58FF4FA59166
:10022000B4919FB7F894611104C08C913095382334
:1002300002C0EC913E2B3C939FBF0895CF93DF9378
:1002400090E0FC01E057FF4F2491FC01E458FF4F80
:100250008491882361F190E0880F991FFC01E8598F
:10026000FF4FC591D491FC01EE58FF4FA591B49179
:10027000611109C09FB7F8948881209582238883F3
:10028000EC912E230BC0623061F49FB7F894888103
:10029000322F309583238883EC912E2B2C939FBF94
:1002A00006C08FB7F894E8812E2B28838FBFDF918B
:1002B000CF910895CF93DF93EC0161E088890E948C
:1002C0001E0161E088890E94D10061E08A890E9454
:1002D0001E0160E08A890E94D1008C899D898F3F30
:1002E0002FEF920751F061E00E941E01E881F98131
:1002F0000680F781E02DCE01099580E090E0A8E42A
:10030000B3E48A8F9B8FAC8FBD8FE881F981028027
:10031000F381E02D61E070E0CE010995E881F9817B
:100320000480F581E02DCE01DF91CF9109943FB794
:10033000F8948091400190914101A0914201B091C7
:10034000430126B5A89B05C02F3F19F00196A11DBA
:10035000B11D3FBFBA2FA92F982F8827820F911D5B
:10036000A11DB11DBC01CD0142E0660F771F881FA2
:10037000991F4A95D1F70895CF92DF92EF92FF929D
:100380000F931F93CF93DF936C017A018B01C0E031
:10039000D0E0CE15DF0581F0D8016D918D01D60139
:1003A000ED91FC910190F081E02DC6010995892B1A
:1003B00011F02196EECF7E01C701DF91CF911F9101
:1003C0000F91FF90EF90DF90CF900895089580E017
:1003D00090E00895FC01538D448D252F30E0842F4B
:1003E00090E0821B930B541710F0CF96089501975D
:1003F0000895FC01918D828D981761F0828DDF0147
:10040000A80FB11D5D968C91928D9F5F9F73928F07
:1004100090E008958FEF9FEF0895FC01918D828DFC
:10042000981731F0828DE80FF11D858D90E00895C9
:100430008FEF9FEF0895FC01918D228D892F90E021
:10044000805C9F4F821B91098F739927089584E4E4
:1004500091E00E941B0221E0892B09F420E0822F09
:100460000895FC01848DDF01A80FB11DA35ABF4F71
:100470002C91848D90E001968F739927848FA689A3
:10048000B7892C93A089B1898C91837080648C93F7
:10049000938D848D981306C00288F389E02D8081A6
:1004A0008F7D80830895EF92FF920F931F93CF93D8
:1004B000DF93EC0181E0888F9B8D8C8D981305C0B4
:1004C000E889F989808185FD26C0F62E0B8D10E024
:1004D0000F5F1F4F0F731127E02E8C8DE8120CC099
:1004E0000FB607FCFACFE889F989808185FFF5CF3F
:1004F000CE010E943102F1CF8B8DFE01E80FF11D7C
:10050000E35AFF4FF0829FB7F8940B8FEA89FB897B
:10051000808180620AC09FB7F894EE89FF8960836A
:10052000E889F98980818370806480839FBF81E03E
:1005300090E0DF91CF911F910F91FF90EF90089580
:10054000CF93DF93EC01888D8823C9F0EA89FB897A
:10055000808185FD05C0A889B9898C9186FD0FC071
:100560000FB607FCF5CF808185FFF2CFA889B98946
:100570008C9185FFEDCFCE010E943102E7CFDF9154
:10058000CF91089580E090E0892B29F00E94270206
:1005900081110C940000089580E290E0089586E0B7
:1005A00090E0089585E091E0089580E890E0089556
:1005B000FC01248935892F3FFFEF3F0751F061E0AF
:1005C000FC0186899789019709F460E0822F0C94D9
:1005D000D1000895EF92FF920F931F93CF93DF9373
:1005E0008C017B01C1E0D0E0D801ED91FC9101903C
:1005F000F081E02DC80109958C179D0754F0CE15A8
:10060000DF0521F4F801D18FC08F03C0CC0FDD1FAF
:10061000EBCFD80158968D919C915997DF91CF914E
:100620001F910F91FF90EF90089580E190E0089561
:1006300085E090E0089580E091E00895CF92DF9208
:10064000EF92FF920F931F93CF93DF93EC010E94E1
:10065000EA028EAD9FAD019609F44AC07E0180E4A6
:10066000E80EF11CF70180819181019609F440C0E8
:100670006E0122E4C20ED11CF601808191810196A7
:10068000B9F1E881F9810084F185E02DCE01099569
:100690008C01E881F9810284F385E02DCE01099572
:1006A00020E030E08217930719F1488D598D022E12
:1006B00002C0559547950A94E2F740FF16C0F8012D
:1006C000E20FF31F1081612F6470F60180810E9498
:1006D000D100612F6270F70180810E94D100612FEB
:1006E00061708EAD0E94D10003C02F5F3F4FDACF03
:1006F000888D998DDF91CF911F910F91FF90EF9091
:10070000DF90CF9008950E942B07CF92DF92EF9257
:10071000FF92FC01248935892F3FFFEF3F0729F025
:10072000FC016689822F0E94D1000E9497016B0113
:100730007C010E949701DC01CB018C199D09AE0957
:10074000BF090297A105B105A0F3FF90EF90DF90DC
:10075000CF9008951F920F920FB60F9211242F93EE
:100760003F938F939F93AF93BF9380913C01909160
:100770003D01A0913E01B0913F0130913B0123E04A
:10078000230F2D3720F40196A11DB11D05C026E8C9
:10079000230F0296A11DB11D20933B0180933C01C4
:1007A00090933D01A0933E01B0933F0180914001A1
:1007B00090914101A0914201B09143010196A11D88
:1007C000B11D8093400190934101A0934201B093E9
:1007D0004301BF91AF919F918F913F912F910F90C6
:1007E0000FBE0F901F9018951F920F920FB60F9289
:1007F00011242F933F934F935F936F937F938F9326
:100800009F93AF93BF93EF93FF9384E491E00E9493
:100810003102FF91EF91BF91AF919F918F917F91A5
:100820006F915F914F913F912F910F900FBE0F905D
:100830001F9018951F920F920FB60F9211242F93AD
:100840008F939F93EF93FF93E0915401F0915501A3
:100850008081E0915A01F0915B0182FD12C090818C
:1008600080915D018F5F8F7320915E01821751F03F
:10087000E0915D01F0E0EC5BFE4F958F80935D01B0
:1008800001C08081FF91EF919F918F912F910F90E7
:100890000FBE0F901F9018951F920F920FB60F92D8
:1008A00011242F933F934F935F936F937F938F9375
:1008B0009F93AF93BF93EF93FF9380913A0187FF8C
:1008C00005C010928500109284001BC020913A014F
:1008D000022E000C330B8091050290E02817390797
:1008E00084F480913A01082E000C990BFC01EE0F64
:1008F000FF1F8E0F9F1FFC01EF51FE4F808186FD71
:1009000015C080913A018F5F80933A0120913A019E
:10091000022E000C330B8091050290E02817390756
:10092000C4F480913A018C3064F113C080913A0193
:10093000082E000C990BFC01EE0FFF1F8E0F9F1F5E
:10094000FC01EF51FE4F808160E08F730E94D10067
:10095000D8CF8091840090918500049680349C4982
:1009600018F480E49CE905C0809184009091850092
:10097000049690938900809388008FEF80933A01CA
:100980003BC0209184003091850080913A01082E6F
:10099000000C990BFC01EE0FFF1F8E0F9F1FFC0137
:1009A000EF51FE4F81819281820F931F90938900B6
:1009B0008093880080913A01082E000C990BFC016D
:1009C000EE0FFF1F8E0F9F1FFC01EF51FE4F808126
:1009D00086FF12C080913A01082E000C990BFC0191
:1009E000EE0FFF1F8E0F9F1FFC01EF51FE4F808106
:1009F00061E08F730E94D100FF91EF91BF91AF91A1
:100A00009F918F917F916F915F914F913F912F9126
:100A10000F900FBE0F901F901895109247011092E3
:100A2000460188EE93E0A0E0B0E080934801909307
:100A30004901A0934A01B0934B018FE091E090935C
:100A400045018093440185EC90E09093510180939F
:100A5000500184EC90E0909353018093520180EC1C
:100A600090E0909355018093540181EC90E0909335
:100A700057018093560182EC90E090935901809346
:100A8000580186EC90E090935B0180935A0110929C
:100A90005D0110925E0110925F0110926001109250
:100AA0008B0210928C0210928D0210928E02109284
:100AB0008F0210929002109291021092920288EC92
:100AC00090E0909394028093930288E090E090935A
:100AD00096028093950289E090E09093980280932B
:100AE00097028FEF9FEF90939A028093990221E0F3
:100AF00030E030939C0220939B0230939E0220931F
:100B00009D0210929F021092A0021092A1021092D8
:100B1000A2021092A4021092A30228EE33E03093B6
:100B2000A6022093A5023093A8022093A702109258
:100B3000B1021092B2021092B3021092B40210925B
:100B4000AD021092AE021092AF021092B00210925B
:100B5000C2021092C1021092B5021092B602109217
:100B6000B7021092B8021092B9021092BA02109213
:100B7000BB021092BC021092BD021092BE021092F3
:100B8000BF021092C0021092870210928802109247
:100B9000890210928A021092A9021092AA0210925F
:100BA000AB021092AC029093C4028093C302909364
:100BB000C6028093C5029093C8028093C7028DE25B
:100BC00091E0909386028093850242E050E061E0DC
:100BD00070E087E492E00E9487004DE050E06CE016
:100BE00070E089E092E00E948700809105028C30DD
:100BF000A0F491E0980F909305028093060290E094
:100C0000FC01EE0FFF1F8E0F9F1FFC01EF51FE4FE7
:100C100088EB9BE09283818308958FEF8093060297
:100C20000895789484B5826084BD84B5816084BD64
:100C300085B5826085BD85B5816085BD80916E007A
:100C4000816080936E0010928100809181008260AB
:100C500080938100809181008160809381008091E8
:100C600080008160809380008091B10084608093D7
:100C7000B1008091B00081608093B00080917A00D3
:100C8000846080937A0080917A00826080937A00F9
:100C900080917A00816080937A0080917A008068E8
:100CA00080937A001092C100E0915401F0915501B7
:100CB00082E08083E0915001F09151011082E09137
:100CC0005201F09153018FEC808310925C01E0910E
:100CD0005801F091590186E08083E0915601F0912E
:100CE0005701808180618083E0915601F091570126
:100CF000808188608083E0915601F0915701808166
:100D000080688083E0915601F091570180818F7D4A
:100D1000808385E892E00E945A018091C3029091FD
:100D2000C4028F3F2FEF9207D9F02091C502309176
:100D3000C6022F3F3F4FA1F02091C7023091C80259
:100D40002F3F3F4F69F061E00E941E0161E08091FA
:100D5000C5020E941E0161E08091C7020E941E012F
:100D600089E092E00E945A0187E492E00E945A01D1
:100D700061E084E00E941E0160E085E00E941E01A7
:100D8000809106028C3008F051C061E08AE00E9438
:100D90001E0180910602E82FF0E09F01220F331F11
:100DA000E20FF31FEF51FE4F9081907C9A60908389
:100DB00010920702109208026CE00E9419079CE052
:100DC000899FB001112440E050E09B01240F351FA2
:100DD000F901EE0FFF1F2E0F3F1FF901EF51FE4FDC
:100DE000908196FD16C04F5F5F4F4C30510569F7FB
:100DF00081110FC01092800082E0809381001092D8
:100E0000850010928400B19A80916F008260809377
:100E10006F00E0910602F0E0CF01880F991FE80F04
:100E2000F91FEF51FE4F8081806480830E94C202CF
:100E3000FDCF991B79E004C0991F961708F0961B07
:100E4000881F7A95C9F780950895EE0FFF1F0590CA
:100E5000F491E02D099481E090E0F8940C9430072F
:040E6000F894FFCF34
:100E6400000102030700010203040700000000530D
:100E740002BC01EA01A0021B02F9010D02000000FC
:100E840000D502EA028503D80200000000CC021E4D
:0A0E9400038503D802D202CF02004A
:00000001FF
