:100000000C9453000C947B000C947B000C947B00AC
:100010000C947B000C947B000C947B000C947B0074
:100020000C947B000C947B000C947B000C947B0064
:100030000C947B000C947B000C947B000C947B0054
:100040000C94DE010C947B000C944E020C9428025C
:100050000C947B000C947B000C947B000C947B0034
:100060000C947B000C947B0000000000250028000D
:100070002B0000000000240027002A0004040404D0
:100080000404040402020202020203030303030342
:10009000010204081020408001020408102001021F
:1000A00004081020800211241FBECFEFD8E0DEBF6D
:1000B000CDBF11E0A0E0B1E0ECEBF7E002C00590AD
:1000C0000D92A231B107D9F722E0A2E1B1E001C05F
:1000D0001D92A630B207E1F710E0C3E5D0E004C0FE
:1000E0002197FE010E94D103C235D107C9F70E94B2
:1000F000D5020C94DC030C94000090E0FC01E05766
:10010000FF4F2491FC01E458FF4F8491882399F01C
:1001100090E0880F991FFC01EE58FF4FA591B49114
:10012000FC01E859FF4F859194918FB7F894EC91B9
:10013000E22BEC938FBF08950F931F93CF93DF9320
:10014000EC01862F1B861A86198218821E8A1F8A46
:10015000188E198EE8ECF0E0FF83EE836C877D87C4
:100160005F874E87398B288B1B8B0A8B0E947D0003
:100170008E850E947D0088890E947D008A890E9468
:100180007D001D8A1C8A84E090E099878887DF9132
:10019000CF911F910F910895CF92DF92EF92FF922E
:1001A0000F931F93CF93DF936C017A018B01C0E013
:1001B000D0E0CE15DF0581F0D8016D918D01D6011B
:1001C000ED91FC910190F081E02DC6010995892BFC
:1001D00011F02196EECF7E01C701DF91CF911F91E3
:1001E0000F91FF90EF90DF90CF900895089580E0F9
:1001F00090E00895FC01538D448D252F30E0842F2D
:1002000090E0821B930B541710F0CF96089501973E
:100210000895FC01918D828D981761F0828DDF0128
:10022000A80FB11D5D968C91928D9F5F9F73928FE9
:1002300090E008958FEF9FEF0895FC01918D828DDE
:10024000981731F0828DE80FF11D858D90E00895AB
:100250008FEF9FEF0895FC01918D228D892F90E003
:10026000805C9F4F821B91098F73992708958BE1C2
:1002700091E00E942B0121E0892B09F420E0822FDC
:100280000895FC01848DDF01A80FB11DA35ABF4F53
:100290002C91848D90E001968F739927848FA68985
:1002A000B7892C93A089B1898C91837080648C93D9
:1002B000938D848D981306C00288F389E02D808188
:1002C0008F7D80830895EF92FF920F931F93CF93BA
:1002D000DF93EC0181E0888F9B8D8C8D981305C096
:1002E000E889F989808185FD26C0F62E0B8D10E006
:1002F0000F5F1F4F0F731127E02E8C8DE8120CC07B
:100300000FB607FCFACFE889F989808185FFF5CF20
:10031000CE010E944101F1CF8B8DFE01E80FF11D4E
:10032000E35AFF4FF0829FB7F8940B8FEA89FB895D
:10033000808180620AC09FB7F894EE89FF8960834C
:10034000E889F98980818370806480839FBF81E020
:1003500090E0DF91CF911F910F91FF90EF90089562
:10036000CF93DF93EC01888D8823C9F0EA89FB895C
:10037000808185FD05C0A889B9898C9186FD0FC053
:100380000FB607FCF5CF808185FFF2CFA889B98928
:100390008C9185FFEDCFCE010E944101E7CFDF9127
:1003A000CF91089580E090E0892B29F00E943701D9
:1003B00081110C94000008950E94D7031F920F92A0
:1003C0000FB60F9211242F933F938F939F93AF9368
:1003D000BF938091170190911801A0911901B091DC
:1003E0001A013091160123E0230F2D3720F40196D6
:1003F000A11DB11D05C026E8230F0296A11DB11D48
:10040000209316018093170190931801A09319016E
:10041000B0931A018091120190911301A0911401DF
:10042000B09115010196A11DB11D80931201909309
:100430001301A0931401B0931501BF91AF919F9147
:100440008F913F912F910F900FBE0F901F90189595
:100450001F920F920FB60F9211242F933F934F9339
:100460005F936F937F938F939F93AF93BF93EF931C
:10047000FF938BE191E00E944101FF91EF91BF91C9
:10048000AF919F918F917F916F915F914F913F912C
:100490002F910F900FBE0F901F9018951F920F92E3
:1004A0000FB60F9211242F938F939F93EF93FF9387
:1004B000E0912B01F0912C018081E0913101F091CC
:1004C000320182FD12C09081809134018F5F8F7361
:1004D00020913501821751F0E0913401F0E0E55EA2
:1004E000FE4F958F8093340101C08081FF91EF9181
:1004F0009F918F912F910F900FBE0F901F90189585
:100500000F931F93EBE1F1E01382128288EE93E0E8
:10051000A0E0B0E084839583A683B78384E091E074
:100520009183808385EC90E09587848784EC90E0CC
:100530009787868780EC90E0918B808B81EC90E0B0
:10054000938B828B82EC90E0958B848B86EC90E091
:10055000978B868B118E128E138E148E0BE010E00B
:100560002AE030E049E050E068E070E08CEE91E095
:100570000E949C0004E010E023E030E042E050E004
:1005800061E070E082ED91E00E949C000FE010E0DD
:100590002EE030E04DE050E06CE070E088EB91E060
:1005A0000E949C001F910F910895789484B58260F9
:1005B00084BD84B5816084BD85B5826085BD85B507
:1005C000816085BD80916E00816080936E00109285
:1005D0008100809181008260809381008091810000
:1005E0008160809381008091800081608093800091
:1005F0008091B10084608093B1008091B0008160EF
:100600008093B00080917A00846080937A0080911A
:100610007A00826080937A0080917A008160809372
:100620007A0080917A00806880937A001092C100ED
:10063000E0912B01F0912C0182E08083E091270171
:10064000F09128011082E0912901F0912A018FECAC
:10065000808310923301E0912F01F091300186E008
:100660008083E0912D01F0912E0180818061808353
:10067000E0912D01F0912E01808188608083E091CE
:100680002D01F0912E01808180688083E0912D0101
:10069000F0912E0180818F7D80832091F201309135
:1006A000F301032E000C440B550BC12C87E8D82E08
:1006B00083E9E82E83E0F82EC701B6010E9490037B
:1006C0009CE3892E912CA12CB12CCA01B901A50162
:1006D00094010E9490032093EE013093EF01409328
:1006E000F0015093F1012091D8013091D901032EEE
:1006F000000C440B550BC701B6010E949003CA01C0
:10070000B901A50194010E9490032093D401309374
:10071000D5014093D6015093D7010E94D201FDCF5D
:10072000052E97FB1EF400940E94A70357FD07D0E7
:100730000E94AF0307FC03D04EF40C94A70350951E
:100740004095309521953F4F4F4F5F4F08959095BD
:100750008095709561957F4F8F4F9F4F0895A1E2CF
:100760001A2EAA1BBB1BFD010DC0AA1FBB1FEE1F2B
:10077000FF1FA217B307E407F50720F0A21BB30B76
:10078000E40BF50B661F771F881F991F1A9469F7F2
:1007900060957095809590959B01AC01BD01CF014E
:1007A0000895EE0FFF1F0590F491E02D099481E06C
:0C07B00090E0F8940C94DC03F894FFCF68
:1007BC00000000006301CC00FA00B0012B0109011C
:0207CC001D010D
:00000001FF
