:100000000C9467000C948F000C948F000C948F005C
:100010000C948F000C948F000C948F000C948F0024
:100020000C948F000C948F000C948F000C948F0014
:100030000C948F000C948F000C948F000C948F0004
:100040000C94F3030C948F000C9463040C943D0403
:100050000C948F000C948F000C948F000C948F00E4
:100060000C948F000C948F005E0165017101820178
:1000700084018B019701A801BE01C00100000008A6
:10008000000201000003040700000000000000005F
:1000900000000000250028002B00000000002400C4
:1000A00027002A00040404040404040402020202D7
:1000B000020203030303030301020408102040802B
:1000C000010204081020010204081020B4041124C5
:1000D0001FBECFEFD8E0DEBFCDBF11E0A0E0B1E0A2
:1000E000EAE3FDE002C005900D92A231B107D9F715
:1000F00022E0A2E1B1E001C01D92A630B207E1F713
:1001000010E0C7E6D0E004C02197FE010E945A0625
:10011000C636D107C9F70E9458050C949B060C946B
:10012000000090E0FC01E458FF4F2491FC01E854EA
:10013000FF4F3491FC01EC55FF4FE491EE2309F49D
:100140003CC0222339F1233091F038F42130A9F05A
:10015000223001F584B58F7D12C0273091F0283010
:10016000A1F02430B9F4809180008F7D03C080918C
:1001700080008F77809380000DC084B58F7784BD19
:1001800009C08091B0008F7703C08091B0008F7D4F
:100190008093B000F0E0EE0FFF1FE057FF4FA591F6
:1001A000B4919FB7F894611104C08C9130953823B5
:1001B00002C0EC913E2B3C939FBF0895CF93DF93F9
:1001C000EC018091F4019091F501029709F5C1309D
:1001D000D10569F024F42097D9F460E009C0C23059
:1001E000D10561F0C330D10599F460E008C061E049
:1001F0008091F8010E94910061E006C061E0809169
:10020000F8010E94910060E08091FA010E94910043
:100210008091F4019091F501049709F03FC0C1303D
:10022000D105B9F04CF42097C9F561E08091F8014F
:100230000E94910060E013C0C230D105D9F0C330F4
:10024000D10561F561E08091F8010E94910060E0C4
:1002500017C060E08091F8010E94910061E08091F8
:10026000FA010E94910061E08091FC010E949100DE
:1002700060E010C060E08091F8010E94910061E0B0
:100280008091FA010E94910060E08091FC010E943F
:10029000910061E08091FE010E9491008091F40143
:1002A0009091F501059709F086C0CA30D10508F094
:1002B00082C0FE01EC5CFF4F0C945A0660E0809116
:1002C000F8010E94910061E061C060E08091F80156
:1002D0000E94910061E08091FA010E94910060E02B
:1002E0005AC060E08091F8010E94910061E0809125
:1002F000FA010E94910060E08091FC010E9491004F
:1003000061E04EC060E001C061E08091F8010E94B0
:10031000910061E006C061E08091F8010E949100C7
:1003200060E08091FA010E94910060E00BC061E002
:100330008091F8010E94910060E08091FA010E9492
:10034000910061E08091FC010E94910061E010C089
:1003500061E08091F8010E94910060E08091FA01D3
:100360000E94910061E08091FC010E94910060E098
:100370008091FE010E94910060E017C061E001C021
:1003800060E08091F8010E94910060E08091FA01A4
:100390000E94910061E08091FC010E94910060E068
:1003A0008091FE010E94910061E080910002DF9146
:1003B000CF910C949100DF91CF9108953FB7F894BD
:1003C0008091170190911801A0911901B0911A0123
:1003D00026B5A89B05C02F3F19F00196A11DB11DA0
:1003E0003FBFBA2FA92F982F8827820F911DA11DDB
:1003F000B11DBC01CD0142E0660F771F881F991F18
:100400004A95D1F708954F925F926F927F928F92A3
:100410009F92AF92BF92EF92FF920F931F93CF9351
:10042000DF93EC0197FF04C0CC27DD27C81BD90B55
:10043000181619063CF481E090E09093ED0180934A
:10044000EC0106C0892B21F01092ED011092EC0115
:1004500004E010E08AE0E82EF12C209709F468C04F
:100460000E94DE018090020290900302A09004029C
:10047000B09005022B013C01481859086A087B0816
:100480008090EE019090EF01A090F001B090F1010A
:10049000481459046A047B0400F3609302027093C9
:1004A000030280930402909305022091EC013091A5
:1004B000ED018091F6019091F7012130310589F429
:1004C00001969093F7018093F6012091F20130910B
:1004D000F30182179307C1F41092F7011092F6010D
:1004E00013C0892B41F48091F2019091F301909314
:1004F000F7018093F6018091F6019091F701019741
:100500009093F7018093F60121972091F4013091A7
:10051000F5018091F6019091F7012530310511F434
:10052000B70101C0B8010E9427060E94DE0095CFE6
:10053000DF91CF911F910F91FF90EF90BF90AF90FF
:100540009F908F907F906F905F904F9008958F92C3
:100550009F92AF92BF92CF92DF92EF92FF926B0188
:100560007C010E94DE014B015C01C114D104E10455
:10057000F104F1F00E94DE01DC01CB018819990938
:10058000AA09BB09883E9340A105B10570F321E09B
:10059000C21AD108E108F10888EE880E83E0981E9F
:1005A000A11CB11CC114D104E104F10419F7DDCF81
:1005B000FF90EF90DF90CF90BF90AF909F908F9083
:1005C0000895CF92DF92EF92FF920F931F93CF93F4
:1005D000DF936C017A018B01C0E0D0E0CE15DF051E
:1005E00081F0D8016D918D01D601ED91FC910190C2
:1005F000F081E02DC6010995892B11F02196EECFEF
:100600007E01C701DF91CF911F910F91FF90EF9075
:10061000DF90CF900895089580E090E00895FC0168
:10062000538D448D252F30E0842F90E0821B930B57
:10063000541710F0CF96089501970895FC01918DFD
:10064000828D981761F0828DDF01A80FB11D5D9634
:100650008C91928D9F5F9F73928F90E008958FEFA2
:100660009FEF0895FC01918D828D981731F0828D56
:10067000E80FF11D858D90E008958FEF9FEF0895AD
:10068000FC01918D228D892F90E0805C9F4F821B11
:1006900091098F73992708958BE191E00E9440039F
:1006A00021E0892B09F420E0822F0895FC01848D3C
:1006B000DF01A80FB11DA35ABF4F2C91848D90E08C
:1006C00001968F739927848FA689B7892C93A08967
:1006D000B1898C91837080648C93938D848D9813F1
:1006E00006C00288F389E02D80818F7D8083089584
:1006F000EF92FF920F931F93CF93DF93EC0181E072
:10070000888F9B8D8C8D981305C0E889F98980812D
:1007100085FD26C0F62E0B8D10E00F5F1F4F0F7367
:100720001127E02E8C8DE8120CC00FB607FCFACF13
:10073000E889F989808185FFF5CFCE010E945603B3
:10074000F1CF8B8DFE01E80FF11DE35AFF4FF082D0
:100750009FB7F8940B8FEA89FB89808180620AC079
:100760009FB7F894EE89FF896083E889F9898081D1
:100770008370806480839FBF81E090E0DF91CF91A0
:100780001F910F91FF90EF900895CF93DF93EC01AD
:10079000888D8823C9F0EA89FB89808185FD05C0A1
:1007A000A889B9898C9186FD0FC00FB607FCF5CFDB
:1007B000808185FFF2CFA889B9898C9185FFEDCF23
:1007C000CE010E945603E7CFDF91CF91089580E0DC
:1007D00090E0892B29F00E944C0381110C940000B9
:1007E00008950E9496061F920F920FB60F92112441
:1007F0002F933F938F939F93AF93BF938091130158
:1008000090911401A0911501B0911601309112013F
:1008100023E0230F2D3720F40196A11DB11D05C043
:1008200026E8230F0296A11DB11D2093120180938B
:10083000130190931401A0931501B09316018091B8
:10084000170190911801A0911901B0911A01019618
:10085000A11DB11D8093170190931801A093190158
:10086000B0931A01BF91AF919F918F913F912F91BA
:100870000F900FBE0F901F9018951F920F920FB6FA
:100880000F9211242F933F934F935F936F937F9316
:100890008F939F93AF93BF93EF93FF938BE191E07F
:1008A0000E945603FF91EF91BF91AF919F918F915D
:1008B0007F916F915F914F913F912F910F900FBE5C
:1008C0000F901F9018951F920F920FB60F92112440
:1008D0002F938F939F93EF93FF93E0912B01F091D0
:1008E0002C018081E0913101F091320182FD12C032
:1008F0009081809134018F5F8F7320913501821731
:1009000051F0E0913401F0E0E55EFE4F958F809369
:10091000340101C08081FF91EF919F918F912F91C0
:100920000F900FBE0F901F90189590E0FC01E854B7
:10093000FF4F2491FC01EC55FF4F8491882399F0DF
:1009400090E0880F991FFC01E656FF4FA591B491E6
:10095000FC01E057FF4F859194918FB7F894EC918B
:10096000E22BEC938FBF0895EF92FF920F931F93AA
:10097000CF93DF93EBE1F1E01382128288EE93E0F4
:10098000A0E0B0E084839583A683B78384E091E000
:100990009183808385EC90E09587848784EC90E058
:1009A0009787868780EC90E0918B808B81EC90E03C
:1009B000938B828B82EC90E0958B848B86EC90E01D
:1009C000978B868B118E128E138E148ECCEED1E007
:1009D0001B861A86198218821E8A1F8A188E198E03
:1009E00088ECE82EF12CFF82EE8284E090E09D8777
:1009F0008C8785E090E09F878E8784E00E94950435
:100A00008E850E949504198A188A1B8A1A8A1D8A63
:100A10001C8A02E010E019870887C2EDD1E01B862E
:100A20001A86198218821E8A1F8A188E198EFF82D2
:100A3000EE828AE090E09D878C878BE090E09F8734
:100A40008E878AE00E9495048E850E949504198AFB
:100A5000188A1B8A1A8A1D8A1C8A19870887C8EB7C
:100A6000D1E01B861A86198218821E8A1F8A188E68
:100A7000198EFF82EE828CE090E09D878C878DE05E
:100A800090E09F878E878CE00E9495048E850E945F
:100A90009504198A188A1B8A1A8A1D8A1C8A198742
:100AA0000887DF91CF911F910F91FF90EF900895EC
:100AB000789484B5826084BD84B5816084BD85B539
:100AC000826085BD85B5816085BD80916E00816045
:100AD00080936E00109281008091810082608093EB
:100AE00081008091810081608093810080918000ED
:100AF0008160809380008091B10084608093B10018
:100B00008091B00081608093B00080917A00846011
:100B100080937A0080917A00826080937A0080913D
:100B20007A00816080937A0080917A008068809357
:100B30007A001092C100E0912B01F0912C0182E02B
:100B40008083E0912701F09128011082E091290132
:100B5000F0912A018FEC808310923301E0912F01F4
:100B6000F091300186E08083E0912D01F0912E011B
:100B7000808180618083E0912D01F0912E01808140
:100B800088608083E0912D01F0912E018081806842
:100B90008083E0912D01F0912E0180818F7D8083F3
:100BA0002091F2013091F301032E000C440B550B00
:100BB000C12C87E8D82E83E9E82E83E0F82EC70100
:100BC000B6010E943B069CE3892E912CA12CB12CEE
:100BD000CA01B901A50194010E943B062093EE01D0
:100BE0003093EF014093F0015093F1012091D8012F
:100BF0003091D901032E000C440B550BC701B601EF
:100C00000E943B06CA01B901A50194010E943B065E
:100C10002093D4013093D5014093D6015093D7014E
:100C200088EC90E00E94030266EA70E080E090E0C9
:100C30000E94A70288E39FEF0E94030266EA70E029
:100C400080E090E00E94A7020E94E703E9CF97FBB3
:100C5000072E16F4009407D077FD09D00E94600695
:100C600007FC05D03EF4909581959F4F08957095AF
:100C700061957F4F0895052E97FB1EF400940E9406
:100C8000520657FD07D00E94740607FC03D04EF4AD
:100C90000C94520650954095309521953F4F4F4FFB
:100CA0005F4F089590958095709561957F4F8F4F18
:100CB0009F4F0895EE0FFF1F0590F491E02D0994CA
:100CC000AA1BBB1B51E107C0AA1FBB1FA617B70772
:100CD00010F0A61BB70B881F991F5A95A9F780958E
:100CE0009095BC01CD010895A1E21A2EAA1BBB1B51
:100CF000FD010DC0AA1FBB1FEE1FFF1FA217B307E8
:100D0000E407F50720F0A21BB30BE40BF50B661FFD
:100D1000771F881F991F1A9469F7609570958095C1
:100D200090959B01AC01BD01CF01089581E090E059
:0A0D3000F8940C949B06F894FFCF92
:100D3A00000000007803E1020F03C50340031E030D
:020D4A00320372
:00000001FF
