:100000000C943A010C946B010C946B010C946B01F1
:100010000C946B010C946B010C946B010C946B01B0
:100020000C946B010C946B010C946B010C946B01A0
:100030000C946B010C946B010C946B010C946B0190
:100040000C946B010C9452060C946B010C946B0194
:100050000C946B010C946B010C946B010C941E05B9
:100060000C946B010C9492050C9468050C946B0134
:100070000C946B010C946B010C946B010C946B0150
:100080000C9424060C946B010C946B010C946B0182
:100090000C946B010C946B010C946B010C946B0130
:1000A0000C946B010C946B010C94F6050C946B0191
:1000B0000C946B010C946B010C946B010C94C805AF
:1000C0000C946B010C946B010C946B010C946B0100
:1000D0000C946B010C946B010C946B010C946B01F0
:1000E0000C946B0120022302120216021A025A0219
:1000F00027022B023102350239023F024302470236
:100100005A024D02510255020C9427020C944302EC
:100110000C9451020C949B030C943F020C94120219
:100120000C945A020C9416020C9439020C94550348
:100130000C941A020C9404030C9441030C942B02AB
:100140000C9447020C9463030C9435020C94310216
:100150000C94E8030C9455020C944D020C94800608
:100160000C9432030C9420020C9423020000210012
:10017000240027002A002D00300033000101000078
:10018000040107010A0100002200250028002B00BD
:100190002E003100340002010000050108010B01AE
:1001A00005050505070508080808020202020A0AF3
:1001B0000808040404040101010101010101030311
:1001C000030303030303040707070C0C0C0C0C0CBC
:1001D0000C0C0202020206060606060606060B0BB9
:1001E0000B0B0B0B0B0B01021020200808102040FA
:1001F00010204080020102010804020101020408EB
:100200001020408080402010080402018004020178
:1002100080402010080402010804020101020408C1
:1002200010204080010204081020408000000A0BCA
:1002300002090C0D0E080703040100000000000075
:1002400000000000000000000000000000000000AE
:10025000000000000000000012111000000000006B
:10026000000000000000000000000000000000008E
:100270000000800611241FBECFEFD1E2DEBFCDBF4C
:1002800000E00CBF12E0A0E0B2E0EAEFF2E100E033
:100290000BBF02C007900D92A634B107D9F723E037
:1002A000A6E4B2E001C01D92A43DB207E1F711E05F
:1002B000CAE3D1E000E006C021970109802FFE01CA
:1002C0000E946E09C933D10780E00807A9F70E9490
:1002D00006070C947B090C940000CF92DF92EF92FA
:1002E000FF92DC01A03282E0B8070CF03EC0B7FDFF
:1002F00006C0A53BB1052CF0A4EBB0E002C0A0E025
:10030000B0E08091840328E830E06901C81AD10880
:1003100087FDD394CC0CDD1CCC0CDD1C0D2C000C0B
:10032000EE08FF088091850328E532E0281B31099B
:1003300087FD3395220F331F220F331FA901330F7F
:10034000660B770B9A01AB012C193D094E095F0929
:100350000E94290924EB30E040E050E00E94FF08B1
:10036000C20ED31EE41EF51ED60190918303903376
:1003700098F58091840348E850E0481B510987FDB7
:100380005395440F551F440F551FA417B5078CF004
:100390008091850328E532E0281B310987FD3395DC
:1003A000220F331F220F331FAD012A173B070CF416
:1003B000A90142505109440F551F2FB7F894892FB6
:1003C00090E0FC01EE0FFF1F8E0F9F1FFC01EE500F
:1003D000FD4F528341832FBFFF90EF90DF90CF906E
:1003E0000895362F90E0FC01E45DFD4F4491FC013F
:1003F000EA51FE4F2491FC01E056FE4F949199235F
:1004000009F46CC0442309F455C050E0FA01319757
:10041000E231F10508F04EC08827EE58FF4F8F4FAC
:100420000C946E09809180008F7707C080918000C6
:100430008F7D03C080918000877F809380003AC0C9
:1004400084B58F7702C084B58F7D84BD33C0809121
:10045000B0008F7703C08091B0008F7D8093B00093
:1004600029C0809190008F7707C0809190008F7D88
:1004700003C080919000877F809390001BC0809183
:10048000A0008F7707C08091A0008F7D03C080916E
:10049000A000877F8093A0000DC0809120018F77FE
:1004A00007C0809120018F7D03C080912001877F4C
:1004B00080932001E92FF0E0EE0FFF1FEA57FE4F77
:1004C000A591B4919FB7F894311104C08C912095F7
:1004D000282302C0EC912E2B2C939FBF0895CF931D
:1004E000DF9390E0FC01EA51FE4F2491FC01E056BD
:1004F000FE4F8491882361F190E0880F991FFC01E1
:10050000E459FE4FC591D491FC01EA57FE4FA591E5
:10051000B491611109C09FB7F89488812095822316
:100520008883EC912E230BC0623061F49FB7F8945E
:100530008881322F309583238883EC912E2B2C9346
:100540009FBF06C08FB7F894E8812E2B28838FBFFA
:10055000DF91CF9108950F931F93CF93DF93EC0119
:10056000862F1B861A86198218821E8A1F8A188E69
:10057000198EE8ECF0E0FF83EE836C877D875F8760
:100580004E87398B288B1B8B0A8B61E00E946F0290
:1005900061E08E850E946F0261E088890E946F028F
:1005A00061E08A890E946F021D8A1C8A84E090E0C3
:1005B00099878887DF91CF911F910F9108953FB759
:1005C000F8948091510290915202A0915302B091FF
:1005D000540226B5A89B05C02F3F19F00196A11D16
:1005E000B11D3FBFBA2FA92F982F8827820F911DC9
:1005F000A11DB11DBC01CD0142E0660F771F881F10
:10060000991F4A95D1F70895CF92DF92EF92FF920A
:100610000F931F93CF93DF936C017A018B01C0E09E
:10062000D0E0CE15DF0581F0D8016D918D01D601A6
:10063000ED91FC910190F081E02DC6011995892B77
:1006400011F02196EECF7E01C701DF91CF911F916E
:100650000F91FF90EF90DF90CF900895089580E084
:1006600090E00895FC01538D448D252F30E0842FB8
:1006700090E0821B930B541710F0CF9608950197CA
:100680000895FC01918D828D981761F0828DDF01B4
:10069000A80FB11D5D968C91928D9F5F9F73928F75
:1006A00090E008958FEF9FEF0895FC01918D828D6A
:1006B000981731F0828DE80FF11D858D90E0089537
:1006C0008FEF9FEF0895FC01918D228D892F90E08F
:1006D000805C9F4F821B91098F739927089585E550
:1006E00092E00E94630321E0892B09F420E0822F2D
:1006F0000895FC01848DDF01A80FB11DA35ABF4FDF
:100700002C91848D90E001968F739927848FA68910
:10071000B7892C93A089B1898C91837080648C9364
:10072000938D848D981306C00288F389E02D808113
:100730008F7D80830895EF92FF920F931F93CF9345
:10074000DF93EC0181E0888F9B8D8C8D981305C021
:10075000E889F989808185FD26C0F62E0B8D10E091
:100760000F5F1F4F0F731127E02E8C8DE8120CC006
:100770000FB607FCFACFE889F989808185FFF5CFAC
:10078000CE010E947903F1CF8B8DFE01E80FF11DA0
:10079000E35AFF4FF0829FB7F8940B8FEA89FB89E9
:1007A000808180620AC09FB7F894EE89FF896083D8
:1007B000E889F98980818370806480839FBF81E0AC
:1007C00090E0DF91CF911F910F91FF90EF900895EE
:1007D000CF93DF93EC01888D8823C9F0EA89FB89E8
:1007E000808185FD05C0A889B9898C9186FD0FC0DF
:1007F0000FB607FCF5CF808185FFF2CFA889B989B4
:100800008C9185FFEDCFCE010E947903E7CFDF9178
:10081000CF91089580E090E0892B21F00E946F0332
:10082000811125C080E090E0892B41F080E090E0CC
:10083000892B21F00E94000081111CC080E090E013
:10084000892B41F080E090E0892B21F00E9400008C
:10085000811113C080E090E0892BA1F080E090E04E
:10086000892B81F00E94000081110AC008950E9426
:100870000000D8CF0E940000E1CF0E940000EACF24
:100880000C9400000895CF92DF92EF92FF920F93A5
:100890001F93CF93DF936C018B017A01EC01CA5B4C
:1008A000DD4F888187FF04C0FB011182108224C0C4
:1008B0002CE02C9DC0012D9D900D11242881AC01B0
:1008C000420F511D27FD5A952091820330E04217B7
:1008D000530794F42881AC01420F511D27FD5A950E
:1008E0009A01FA01EE0FFF1F2E0F3F1FF901EE5084
:1008F000FD4F208126FD19C088818F5F88832CE001
:100900002C9DC0012D9D900D11242881AC01420F1A
:10091000511D27FD5A952091820330E0421753075D
:10092000BCF428812C3044F113C02881820F911D22
:1009300027FD9A95FC01EE0FFF1F8E0F9F1FFC01F4
:10094000EE50FD4F808160E08F730E94F101D4CFA3
:10095000F80180819181049680349C4918F480E4E8
:100960009CE904C0F801808191810496F70191838C
:1009700080838FEF888345C0F801408151812881B1
:10098000BC01620F711D27FD7A959B01FB01EE0FE3
:10099000FF1F2E0F3F1FF901EE50FD4F21813281C5
:1009A000240F351FF701318320832881AC01420FCA
:1009B000511D27FD5A959A01FA01EE0FFF1F2E0FC8
:1009C0003F1FF901EE50FD4F208126FF1AC02881FC
:1009D000820F911D27FD9A95FC01EE0FFF1F8E0FD0
:1009E0009F1FFC01EE50FD4F808161E08F73DF910E
:1009F000CF911F910F91FF90EF90DF90CF900C94CB
:100A0000F101DF91CF911F910F91FF90EF90DF9057
:100A1000CF900895009769F0FC0101900020E9F75C
:100A20003197AF01481B590BBC0185E592E00C944E
:100A3000040380E090E008950E9476091F920F92CF
:100A40000FB60F9211242F933F938F939F93AF93E1
:100A5000BF9380914D0290914E02A0914F02B091B0
:100A6000500230914C0223E0230F2D3720F40196E1
:100A7000A11DB11D05C026E8230F0296A11DB11DC1
:100A800020934C0280934D0290934E02A0934F020C
:100A9000B09350028091510290915202A091530262
:100AA000B09154020196A11DB11D80935102909303
:100AB0005202A0935302B0935402BF91AF919F9101
:100AC0008F913F912F910F900FBE0F901F9018950F
:100AD0001F920F920FB60F9211240BB60F922F9305
:100AE0003F934F935F936F937F938F939F93AF93B6
:100AF000BF93EF93FF9385E592E00E947903FF9106
:100B0000EF91BF91AF919F918F917F916F915F9185
:100B10004F913F912F910F900BBE0F900FBE0F90F2
:100B20001F9018951F920F920FB60F9211240BB6BB
:100B30000F922F938F939F93EF93FF93E091650212
:100B4000F09166028081E0916B02F0916C0282FD6F
:100B500012C0908180916E028F5F8F7320916F021F
:100B6000821751F0E0916E02F0E0EB5AFD4F958F45
:100B700080936E0201C08081FF91EF919F918F91D0
:100B80002F910F900BBE0F900FBE0F901F901895D6
:100B90001F920F920FB60F9211240BB60F922F9344
:100BA0003F934F935F936F937F938F939F93AF93F5
:100BB000BF93EF93FF9348E251E064E271E080E07D
:100BC00090E00E944304FF91EF91BF91AF919F91FC
:100BD0008F917F916F915F914F913F912F910F90E6
:100BE0000BBE0F900FBE0F901F9018951F920F9283
:100BF0000FB60F9211240BB60F922F933F934F9382
:100C00005F936F937F938F939F93AF93BF93EF9374
:100C1000FF9348EA50E064EA70E083E090E00E94CD
:100C20004304FF91EF91BF91AF919F918F917F917D
:100C30006F915F914F913F912F910F900BBE0F904D
:100C40000FBE0F901F9018951F920F920FB60F9224
:100C500011240BB60F922F933F934F935F936F9393
:100C60007F938F939F93AF93BF93EF93FF9348E945
:100C700050E064E970E082E090E00E944304FF915C
:100C8000EF91BF91AF919F918F917F916F915F9104
:100C90004F913F912F910F900BBE0F900FBE0F9071
:100CA0001F9018951F920F920FB60F9211240BB63A
:100CB0000F922F933F934F935F936F937F938F93F5
:100CC0009F93AF93BF93EF93FF9348E850E064E89E
:100CD00070E081E090E00E944304FF91EF91BF91AA
:100CE000AF919F918F917F916F915F914F913F91C4
:100CF0002F910F900BBE0F900FBE0F901F90189565
:100D00000F931F93109258021092570288EE93E0AF
:100D1000A0E0B0E08093590290935A02A0935B0246
:100D2000B0935C0284E092E0909356028093550267
:100D300085EC90E0909362028093610284EC90E0F5
:100D4000909364028093630280EC90E0909366023B
:100D50008093650281EC90E0909368028093670233
:100D600082EC90E090936A028093690286EC90E0B6
:100D700090936C0280936B0210926E0210926F023D
:100D8000109270021092710205E010E024E030E051
:100D900043E050E062E070E08AEB93E00E94AB0237
:100DA0000BE010E02AE030E049E050E068E070E05D
:100DB00080EA93E00E94AB020FE110E02DE130E009
:100DC0004BE150E069E170E086E893E00E94AB02FD
:100DD000809182038033A0F491E0980F9093820376
:100DE0008093830390E0FC01EE0FFF1F8E0F9F1F87
:100DF000FC01EE50FD4F88EB9BE09283818303C0A2
:100E00008FEF809383031F910F910895789484B599
:100E1000826084BD84B5816084BD85B5826085BDF6
:100E200085B5816085BD80916E00816080936E0084
:100E30001092810080918100826080938100809176
:100E40008100816080938100809180008160809327
:100E500080008091B10084608093B1008091B000E7
:100E600081608093B00080919100826080939100B6
:100E700080919100816080939100809190008160C9
:100E8000809390008091A10082608093A100809166
:100E9000A10081608093A1008091A0008160809377
:100EA000A000809121018260809321018091210125
:100EB00081608093210180912001816080932001D5
:100EC00080917A00846080937A0080917A008260B9
:100ED00080937A0080917A00816080937A0080917B
:100EE0007A00806880937A001092C100E0916502D8
:100EF000F091660282E08083E0916102F0916202EB
:100F00001082E0916302F09164028FEC8083109272
:100F10006D02E0916902F0916A0286E08083E091BF
:100F20006702F0916802808180618083E0916702AE
:100F3000F0916802808188608083E0916702F0917F
:100F40006802808180688083E0916702F091680286
:100F500080818F7D80832091A6033091A703032E8B
:100F6000000C440B550BC12CC7E8DC2EC3E9EC2E5A
:100F7000C3E0FC2EC701B6010E94FF08CA01B901F7
:100F800024E130E040E050E00E94FF082093A203FB
:100F90003093A3034093A4035093A50320918C03A3
:100FA00030918D03032E000C440B550BC701B60185
:100FB0000E94FF08DCE38D2E912CA12CB12CCA01DC
:100FC000B901A50194010E94FF0820938803309382
:100FD000890340938A0350938B032091C00330917F
:100FE000C103032E000C440B550BC701B6010E9430
:100FF000FF08CA01B901A50194010E94FF082093CE
:10100000BC033093BD034093BE035093BF0361E024
:101010008BE20E946F0260E08DE20E946F0261E04D
:101020008FE20E946F0260E081E30E946F0261E044
:1010300083E30E946F0260E085E30E946F0280916B
:101040008303803308F052C061E08DE00E946F029C
:1010500080918303E82FF0E09F01220F331FE20FFE
:10106000F31FEE50FD4F9081907C9D609083109215
:101070008403109285036CE00E9462092CE0829F39
:10108000B001112440E050E09B01240F351FF9010D
:10109000EE0FFF1F2E0F3F1FF901EE50FD4F908105
:1010A00096FD17C04F5F5F4F4C30510569F7813097
:1010B00009F079C01092800082E080938100109244
:1010C000850010928400B19A80916F0082608093B5
:1010D0006F00E0918303F0E0CF01880F991FE80FC4
:1010E000F91FEE50FD4F80818064808384EB90E097
:1010F0000E946D0181E090E090934B0280934A0240
:10110000C1E0D0E080914A0290914B02892B89F492
:1011100084EB90E00E946D0182E192E00E940A055A
:101120008AE292E00E940A05D0934B02C0934A02E1
:1011300010C086E490E00E946D018DE292E00E9472
:101140000A058AE292E00E940A0510924B02109270
:101150004A020E94DF024B015C0180EDC82E87E04D
:10116000D82EE12CF12C0E94DF02DC01CB01881982
:101170009909AA09BB09883E9340A105B10598F3D6
:1011800081E0C81AD108E108F10898EE890E93E0D1
:10119000991EA11CB11CC114D104E104F10419F77A
:1011A0000E940A04AFCF823061F4109290008093C5
:1011B0009100109295001092940088BB809371006A
:1011C00088CF833069F41092A00082E08093A10060
:1011D0001092A5001092A40089BB8093720079CF71
:1011E000811177CF1092200182E08093210110922B
:1011F0002501109224018ABB809373006ACF052ECB
:1012000097FB1EF400940E94160957FD07D00E9418
:10121000310907FC03D04EF40C9416095095409503
:10122000309521953F4F4F4F5F4F08959095809592
:10123000709561957F4F8F4F9F4F08950E9453097E
:10124000A59F900DB49F900DA49F800D911D11241A
:101250000895B7FF0C941E090E941E09821B930B70
:101260000895A1E21A2EAA1BBB1BFD010DC0AA1FE7
:10127000BB1FEE1FFF1FA217B307E407F50720F0FF
:10128000A21BB30BE40BF50B661F771F881F991F7A
:101290001A9469F760957095809590959B01AC01C3
:1012A000BD01CF010895A29FB001B39FC001A39FCC
:1012B000700D811D1124911DB29F700D811D11248F
:1012C000911D0895991B79E004C0991F961708F0A5
:1012D000961B881F7A95C9F780950895EE0FFF1F1A
:1012E000881F8BBF0790F691E02D199481E090E064
:0A12F000F8940C947B09F894FFCFEA
:1012FA00000000009B0304033203E8036303410375
:10130A0055036D696A6E206772697070657220692B
:10131A0073206E75206F70656E000D0A006D696A24
:10132A006E2067726970706572206973206E75200D
:06133A00646963687400A1
:00000001FF
