:100000000C9465010C9496010C9496010C94960145
:100010000C9496010C9496010C9496010C94960104
:100020000C9496010C9496010C9496010C949601F4
:100030000C9496010C9496010C9496010C949601E4
:100040000C9496010C9432040C9496010C94960135
:100050000C9496010C9496010C9496010C94A90BA7
:100060000C9496010C9455090C942B090C94960150
:100070000C9496010C9496010C9496010C949601A4
:100080000C9404040C9496010C9496010C94960123
:100090000C9496010C9496010C9496010C94960184
:1000A0000C9496010C9496010C94D6030C94960132
:1000B0000C9496010C9496010C9496010C94A80350
:1000C0000C9496010C9496010C9496010C94960154
:1000D0000C9496010C9496010C9496010C94960144
:1000E0000C94960117031D032703350337033D03C3
:1000F00047035503670369038B0A8E0A7D0A810A49
:10010000850AC50A920A960A9C0AA00AA40AAA0AA3
:10011000AE0AB20AC50AB80ABC0AC00A0C94D80FC3
:100120000C9447030C94B20A0C94A2080C94550347
:100130000C94920A0C94A00A0C94C50A0C949C0A84
:100140000C94850A0C9417030C9467030C94810A91
:100150000C941D030C9451080C9469030C949801A1
:100160000C9437030C948E0A0C948E080C94BC0AE1
:100170000C94A40A0C947F080C9435030C94AE0ADA
:100180000C948B0A0C94B80A0C94AA0A0C947D0A5D
:100190000C9409090C94C00A0C9427030C943D0399
:1001A0000C94960A0C94BC0800002100240027003F
:1001B0002A002D0030003300010100000401070176
:1001C0000A0100002200250028002B002E0031002B
:1001D000340002010000050108010B0100000A0BB8
:1001E00002090C0D0E0807030401000000000000C6
:1001F00000000000000000000000000000000000FF
:1002000000000000000000001211100000000000BB
:1002100000000000000000000000000000000000DE
:100220000000000020002300260029002C002F00E1
:100230003200000100000301060109010505050562
:10024000070508080808020202020A0A080804044E
:10025000040401010101010101010303030303037C
:100260000303040707070C0C0C0C0C0C0C0C02020B
:10027000020206060606060606060B0B0B0B0B0B08
:100280000B0B010210202008081020401020408095
:10029000020102010804020101020408102040804A
:1002A00080402010080402018004020180402010D8
:1002B0000804020108040201010204081020408021
:1002C0000102040810204080D80F11241FBECFEF78
:1002D000D1E2DEBFCDBF00E00CBF16E0A0E0B2E08F
:1002E000EAEAF5E200E00BBF02C007900D92AE33E0
:1002F000B107D9F728E0AEE3B6E001C01D92AC39F2
:10030000B207E1F711E0C5E6D1E000E006C02197B1
:100310000109802FFE010E94E110C436D10780E060
:100320000807A9F70E94380C0C94D3120C94000013
:10033000FC01918D228D892F90E0805C9F4F821B64
:1003400091098F739927089580E090E0892B21F01F
:100350000E94B208811125C080E090E0892B41F015
:1003600080E090E0892B21F00E94000081111CC0E8
:1003700080E090E0892B41F080E090E0892B21F033
:100380000E940000811113C080E090E0892BA1F051
:1003900080E090E0892B81F00E94000081110AC06A
:1003A00008950E940000D8CF0E940000E1CF0E9473
:1003B0000000EACF0C9400000895CF92DF92EF92F4
:1003C000FF920F931F93CF93DF936C018B017A0100
:1003D000EC01CE51D94F888187FF04C0FB01118207
:1003E000108224C02CE02C9DC0012D9D900D112465
:1003F0002881AC01420F511D27FD5A9520914108DB
:1004000030E04217530794F42881AC01420F511D8C
:1004100027FD5A959A01FA01EE0FFF1F2E0F3F1F7D
:10042000F901EF54F84F208126FD19C088818F5FB4
:1004300088832CE02C9DC0012D9D900D11242881D6
:10044000AC01420F511D27FD5A952091410830E023
:1004500042175307BCF428812C3044F113C0288183
:10046000820F911D27FD9A95FC01EE0FFF1F8E0F45
:100470009F1FFC01EF54F84F808160E08F730E9452
:100480005C0AD4CFF80180819181049680349C4924
:1004900018F480E49CE904C0F801808191810496FD
:1004A000F701918380838FEF888345C0F8014081F5
:1004B00051812881BC01620F711D27FD7A959B0136
:1004C000FB01EE0FFF1F2E0F3F1FF901EF54F84FF6
:1004D00021813281240F351FF70131832083288148
:1004E000AC01420F511D27FD5A959A01FA01EE0FFA
:1004F000FF1F2E0F3F1FF901EF54F84F208126FFF9
:100500001AC02881820F911D27FD9A95FC01EE0FDC
:10051000FF1F8E0F9F1FFC01EF54F84F808161E099
:100520008F73DF91CF911F910F91FF90EF90DF902C
:10053000CF900C945C0ADF91CF911F910F91FF90A7
:10054000EF90DF90CF9008950F931F93CF93DF9399
:10055000EC018B01888599850297F1F46130710572
:1005600069F024F4672BC1F460E009C062307105C2
:1005700059F06330710581F460E007C061E08C855B
:100580000E945C0A61E005C061E08C850E945C0A03
:1005900060E08E850E945C0A888599850497B9F58C
:1005A00001301105B1F04CF40115110581F561E040
:1005B0008C850E945C0A60E011C002301105B9F020
:1005C0000330110521F561E08C850E945C0A60E032
:1005D00013C060E08C850E945C0A61E08E850E94F9
:1005E0005C0A61E088890E945C0A60E00DC060E0FE
:1005F0008C850E945C0A61E08E850E945C0A60E046
:1006000088890E945C0A61E08A890E945C0A888568
:100610009985059709F075C00A30110508F071C079
:10062000F8018827EE58FF4F8F4F0C94E11060E0DF
:100630008C850E945C0A61E051C060E08C850E945C
:100640005C0A61E08E850E945C0A60E04BC060E05D
:100650008C850E945C0A61E08E850E945C0A60E0E5
:1006600088890E945C0A61E041C060E001C061E0ED
:100670008C850E945C0A61E005C061E08C850E9467
:100680005C0A60E08E850E945C0A60E009C061E05F
:100690008C850E945C0A60E08E850E945C0A61E0A5
:1006A00088890E945C0A61E00DC061E08C850E942F
:1006B0005C0A60E08E850E945C0A61E088890E9485
:1006C0005C0A60E08A890E945C0A60E013C061E015
:1006D00001C060E08C850E945C0A60E08E850E940B
:1006E0005C0A61E088890E945C0A60E08A890E9455
:1006F0005C0A61E08C89DF91CF911F910F910C947E
:100700005C0ADF91CF911F910F910895FC01848DB8
:10071000DF01A80FB11DA35ABF4F2C91848D90E02B
:1007200001968F739927848FA689B7892C93A08906
:10073000B1898C91837080648C93938D848D981390
:1007400006C00288F389E02D80818F7D8083089523
:100750001F920F920FB60F9211240BB60F922F9388
:100760003F934F935F936F937F938F939F93AF9339
:10077000BF93EF93FF9348E251E064E271E080E0C1
:1007800090E00E94DD01FF91EF91BF91AF919F91A9
:100790008F917F916F915F914F913F912F910F902A
:1007A0000BBE0F900FBE0F901F9018951F920F92C7
:1007B0000FB60F9211240BB60F922F933F934F93C6
:1007C0005F936F937F938F939F93AF93BF93EF93B9
:1007D000FF9348EA50E064EA70E083E090E00E9412
:1007E000DD01FF91EF91BF91AF919F918F917F912B
:1007F0006F915F914F913F912F910F900BBE0F9092
:100800000FBE0F901F9018951F920F920FB60F9268
:1008100011240BB60F922F933F934F935F936F93D7
:100820007F938F939F93AF93BF93EF93FF9348E989
:1008300050E064E970E082E090E00E94DD01FF9109
:10084000EF91BF91AF919F918F917F916F915F9148
:100850004F913F912F910F900BBE0F900FBE0F90B5
:100860001F9018951F920F920FB60F9211240BB67E
:100870000F922F933F934F935F936F937F938F9339
:100880009F93AF93BF93EF93FF9348E850E064E8E2
:1008900070E081E090E00E94DD01FF91EF91BF9157
:1008A000AF919F918F917F916F915F914F913F9108
:1008B0002F910F900BBE0F900FBE0F901F901895A9
:1008C0004F925F926F927F928F929F92AF92BF9260
:1008D000CF92DF92EF92FF920F931F93CF93DF930C
:1008E000EC018B0177FF04C000271127061B170BB3
:1008F000161617062CF481E090E09983888304C0D3
:10090000672B11F01982188284E0E82EF12C9AE00E
:10091000C92ED12C0115110509F449C00E944A0BBA
:100920008E889F88A88CB98C2B013C0148185908E7
:100930006A087B088A809B80AC80BD80481459047B
:100940006A047B0438F36E8B7F8B888F998F2881A4
:1009500039818A859B852130310559F401969B8721
:100960008A872E813F818217930771F41B861A862E
:100970000BC0892B21F48E819F819B878A878A8572
:100980009B8501979B878A870150110928853985A6
:100990008A859B852530310511F4B60101C0B70168
:1009A0000E94CD10BC01CE010E94A402B3CFDF9102
:1009B000CF911F910F91FF90EF90DF90CF90BF905C
:1009C000AF909F908F907F906F905F904F90089521
:1009D0008091FA069091FB068130910541F4909345
:1009E000FD068093FC061092FB061092FA06809199
:1009F000FC069091FD068130910549F41092FD06A8
:100A00001092FC069093FB068093FA06089582E408
:100A100092E00C94210ACF92DF92EF92FF920F9313
:100A20001F93CF93DF9360E08BE20E945C0A03E0A8
:100A300010E0C8010197F1F761E08BE20E945C0AC7
:100A4000C3E2D0E0CE010197F1F760E08BE20E94B3
:100A50005C0A8DE20E942F0A072E000C880B990B6E
:100A60000E94A71126E933E44BE05DE30E945C128B
:100A700020E030E040E05FE30E945C126093F0060B
:100A80007093F1068093F2069093F30660E08FE294
:100A90000E945C0AC8010197F1F761E08FE20E94B1
:100AA0005C0ACE010197F1F760E08FE20E945C0AD8
:100AB00081E30E942F0A072E000C880B990B0E94DD
:100AC000A71126E933E44BE05DE30E945C1220E0CD
:100AD00030E040E05FE30E945C126093EC067093AC
:100AE000ED068093EE069093EF0660E083E30E94AC
:100AF0005C0AC8010197F1F761E083E30E945C0A98
:100B00002197F1F760E083E30E945C0A85E30E948D
:100B10002F0A072E000C880B990B0E94A71126E9BB
:100B200033E44BE05DE30E945C1220E030E040E003
:100B30005FE30E945C1220E030E040E251E40E945A
:100B4000FD106B017C0120E030E0A9010E945712EA
:100B5000181624F0F7FAF094F7F8F094C092E8062B
:100B6000D092E906E092EA06F092EB0620E030E04F
:100B700040E251E46091EC067091ED068091EE0642
:100B80009091EF060E94FD106B017C0120E030E0A7
:100B9000A9010E945712181624F0F7FAF094F7F8FA
:100BA000F094C092EC06D092ED06E092EE06F09240
:100BB000EF0620E030E040E251E4C701B6010E94B8
:100BC000FD106B017C0120E030E0A9010E9457126A
:100BD000181624F0F7FAF094F7F8F094C092F006A3
:100BE000D092F106E092F206F092F306DF91CF91F7
:100BF0001F910F91FF90EF90DF90CF9008952F926B
:100C00003F924F925F926F927F928F929F92AF929C
:100C1000BF92CF92DF92EF92FF920F931F93CF93E9
:100C2000DF93CDB7DEB7A4970FB6F894DEBF0FBE43
:100C3000CDBF68ED7FEF85E498E00E94600402E498
:100C400016E01BA30AA36AE070E080E090E00E9437
:100C50006F0B60E08FE20E945C0A83E090E00197F6
:100C6000F1F761E08FE20E945C0A83E290E0019775
:100C7000F1F760E08FE20E945C0A81E30E942F0A94
:100C8000072E000C880B990B0E94A71126E933E46C
:100C90004BE05DE30E945C1220E030E040E05FE367
:100CA0000E945C126B017C014B015C01EAA1FBA17B
:100CB0006193719381939193FBA3EAA362E070E047
:100CC00085E498E00E94600468ED7FEF85E498E099
:100CD0000E946004A7019601C701B6010E94C912D3
:100CE000882319F087E692E01AC026013701E894BC
:100CF00077F82FEF3FEF4FE75FE7C301B2010E94A4
:100D0000C91281110FC02FEF3FEF4FE75FE7C3011B
:100D1000B2010E946A1118162CF48BE692E00E9430
:100D20000F0AA0C02FEF3FEF4FE75FE4C701B60106
:100D30000E94571218161CF48FE692E0F0CF2FEFA6
:100D40003FEF4FE75FECC701B6010E946A1187FDD4
:100D5000F3CF20E030E0A901C701B6010E946A117B
:100D600087FF0BC06DE284E197E00E94BC0846015A
:100D70005701B7FAB094B7F8B0942AE037ED43EAD8
:100D80005BE3C501B4010E94FE106B017C010E946F
:100D900076114B015C010E94A5119B01AC01C701BA
:100DA000B6010E94FD102B013C0119A27E01F1E267
:100DB000EF0EF11CDE2CCF2CC501B4012AE030E08F
:100DC00040E050E00E94901049015A01605DF70137
:100DD00062937F01232B242B252B71F7CF010E94D7
:100DE0000F0A6EE284E197E00E94BC0883E0F82ECF
:100DF000FA94FF20B9F120E030E040E251E4C30171
:100E0000B2010E945C124B015C010E9476119B01B1
:100E100040E050E019A24D2C5C2C3B01E42E5CA379
:100E2000CA01B9012AE030E040E050E00E94901091
:100E3000605DF20162932F012115310541055105D5
:100E400079F7CF010E940F0AB3018E2D9CA10E9459
:100E5000A5119B01AC01C501B4010E94FD102B013D
:100E60003C01C6CF83E792E00E940F0A86E792E03A
:100E70000E94210A22EE36E08AA19BA12817390799
:100E800009F0E1CEF801C190D190E190F1908F018D
:100E9000B101330C880B990B0E94A711A701960191
:100EA0000E94FE100E946F111B0122EE36E02017F7
:100EB000310741F7CB0168E270E00E94CD10683045
:100EC0007105C4F4072E000C880B990B0E94A71122
:100ED00001E02DEC3CEC4CEF50E40E946A11181636
:100EE0000CF400E081E0082710E08FEA92E00E9415
:100EF000210A02C001E010E068ED7FEF8FE598E085
:100F00000E946004C801A4960FB6F894DEBF0FBE1D
:100F1000CDBFDF91CF911F910F91FF90EF90DF90A8
:100F2000CF90BF90AF909F908F907F906F905F9089
:100F30004F903F902F9008958091400690914106E8
:100F4000892B51F484EB90E00E948B0981E090E0C2
:100F5000909341068093400680914006909141060F
:100F6000019749F48AE590E00E948B0910924106AE
:100F700010924006089589EC92E00C94210A809129
:100F8000FA069091FB06019749F466E571E089E75E
:100F900098E00E9460046AEA7EEF08C067E571E0AD
:100FA00089E798E00E94600469EA7EEF89E798E0AB
:100FB0000C9460048091F4069091F506892B61F4FD
:100FC0006AE670E085E498E00E94600481E090E0C9
:100FD0009093F5068093F4068091F4069091F506BF
:100FE000019751F466E97FEF85E498E00E94600480
:100FF0001092F5061092F40608950E94DA0768EE42
:1010000073E080E090E00E946F0B0E94BF0768EEE3
:1010100073E080E090E00E946F0B0E949C0768EEF6
:1010200073E080E090E00E946F0B0E949C070E949A
:10103000BF070E94DA0760ED77E080E090E00C9453
:101040006F0B2091E6063091E706AC01421B530B73
:1010500028533F4FBC01621B730B9B01FA0157FFE2
:1010600004C0EE27FF27E41BF50BB90137FF04C0CE
:1010700066277727621B730B6E177F072CF0509340
:101080003F0640933E0604C030933F0620933E0641
:101090009093E7068093E60680913E0690913F0686
:1010A0000895CF92DF92EF92FF920F931F93CF9309
:1010B000DF936C017A018B01C0E0D0E0CE15DF0533
:1010C00081F0D8016D918D01D601ED91FC910190D7
:1010D000F081E02DC6011995892B11F02196EECFF4
:1010E0007E01C701DF91CF911F910F91FF90EF908B
:1010F000DF90CF900895089580E090E00895FC017E
:10110000538D448D252F30E0842F90E0821B930B6C
:10111000541710F0CF96089501970895FC01918D12
:10112000828D981761F0828DDF01A80FB11D5D9649
:101130008C91928D9F5F9F73928F90E008958FEFB7
:101140009FEF0895FC01918D828D981731F0828D6B
:10115000E80FF11D858D90E008958FEF9FEF0895C2
:101160000E94CE1284E197E00E94980121E0892B31
:1011700009F420E0822F0895EF92FF920F931F93BE
:10118000CF93DF93EC0181E0888F9B8D8C8D98133A
:1011900005C0E889F989808185FD26C0F62E0B8D72
:1011A00010E00F5F1F4F0F731127E02E8C8DE81298
:1011B0000CC00FB607FCFACFE889F989808185FF5A
:1011C000F5CFCE010E948603F1CF8B8DFE01E80F93
:1011D000F11DE35AFF4FF0829FB7F8940B8FEA8915
:1011E000FB89808180620AC09FB7F894EE89FF89ED
:1011F0006083E889F98980818370806480839FBFE0
:1012000081E090E0DF91CF911F910F91FF90EF90DF
:101210000895CF93DF93EC01888D8823C9F0EA8984
:10122000FB89808185FD05C0A889B9898C9186FDDF
:101230000FC00FB607FCF5CF808185FFF2CFA889DC
:10124000B9898C9185FFEDCFCE010E948603E7CF4F
:10125000DF91CF9108951F920F920FB60F92112434
:101260000BB60F922F933F934F935F936F937F93A0
:101270008F939F93AF93BF93EF93FF9384E197E096
:101280000E948603FF91EF91BF91AF919F918F9143
:101290007F916F915F914F913F912F910F900BBE76
:1012A0000F900FBE0F901F9018951F920F920FB6C0
:1012B0000F9211240BB60F922F938F939F93EF935E
:1012C000FF93E0912407F09125078081E0912A07A0
:1012D000F0912B0782FD12C0908180912D078F5FC6
:1012E0008F7320912E07821751F0E0912D07F0E0C7
:1012F000EC5EF84F958F80932D0701C08081FF91A0
:10130000EF919F918F912F910F900BBE0F900FBE79
:101310000F901F901895CF92DF92EF92FF92DC0111
:10132000A03282E0B8070CF03EC0B7FD06C0A53B76
:10133000B1052CF0A4EBB0E002C0A0E0B0E08091D9
:10134000430828E830E06901C81AD10887FDD39422
:10135000CC0CDD1CCC0CDD1C0D2C000CEE08FF08A9
:101360008091440828E532E0281B310987FD339538
:10137000220F331F220F331FA901330F660B770B88
:101380009A01AB012C193D094E095F090E94881092
:1013900024EB30E040E050E00E945E10C20ED31E0D
:1013A000E41EF51ED60190914208903398F5809185
:1013B000430848E850E0481B510987FD5395440F06
:1013C000551F440F551FA417B5078CF08091440892
:1013D00028E532E0281B310987FD3395220F331FA2
:1013E000220F331FAD012A173B070CF4A90142500D
:1013F0005109440F551F2FB7F894892F90E0FC0135
:10140000EE0FFF1F8E0F9F1FFC01EF54F84F52830A
:1014100041832FBFFF90EF90DF90CF90089500970A
:1014200069F0FC0101900020E9F73197AF01481BFA
:10143000590BBC0184E197E00C94510880E090E0E6
:101440000895CF93DF930E940F0AEC0183E792E0A7
:101450000E940F0A8C0F9D1FDF91CF9108950F936B
:101460001F9390E0FC01EE57FD4F6491FC01E45C9A
:10147000FD4FE491F0E0EE0FFF1FEE5DFD4F859113
:10148000949100E412E42FE030E0462F0E94F30B29
:10149000611571058105910549F0DC01CB010196CB
:1014A000A11DB11DBC01CD019F7003C060E070E0C3
:1014B000CB011F910F910895362F90E0FC01E4526B
:1014C000FE4F4491FC01EE57FD4F2491FC01E45C7A
:1014D000FD4F9491992309F46CC0442309F455C03D
:1014E00050E0FA013197E231F10508F04EC088274B
:1014F000E458FF4F8F4F0C94E110809180008F775C
:1015000007C0809180008F7D03C080918000877F1D
:10151000809380003AC084B58F7702C084B58F7DF8
:1015200084BD33C08091B0008F7703C08091B0003C
:101530008F7D8093B00029C0809190008F7707C085
:10154000809190008F7D03C080919000877F809371
:1015500090001BC08091A0008F7707C08091A000F1
:101560008F7D03C08091A000877F8093A0000DC075
:10157000809120018F7707C0809120018F7D03C06B
:1015800080912001877F80932001E92FF0E0EE0F0A
:10159000FF1FEE53FE4FA591B4919FB7F894311100
:1015A00004C08C912095282302C0EC912E2B2C9303
:1015B0009FBF0895CF93DF9390E0FC01EE57FD4F5E
:1015C0002491FC01E45CFD4F8491882361F190E05B
:1015D000880F991FFC01E855FE4FC591D491FC017D
:1015E000EE53FE4FA591B491611109C09FB7F894D5
:1015F0008881209582238883EC912E230BC0623052
:1016000061F49FB7F8948881322F309583238883C3
:10161000EC912E2B2C939FBF06C08FB7F894E881D6
:101620002E2B28838FBFDF91CF9108950F931F93A7
:10163000CF93DF93EC01862F1B861A8619821882BE
:101640001E8A1F8A188E198EE8ECF0E0FF83EE8365
:101650006C877D875F874E87398B288B1B8B0A8B26
:1016600061E00E94DA0A61E08E850E94DA0A61E098
:1016700088890E94DA0A61E08A890E94DA0A1D8A52
:101680001C8A84E090E099878887DF91CF911F9131
:101690000F9108953FB7F894809198089091990818
:1016A000A0919A08B0919B0826B5A89B05C02F3F32
:1016B00019F00196A11DB11D3FBFBA2FA92F982F78
:1016C0008827820F911DA11DB11DBC01CD0142E0F3
:1016D000660F771F881F991F4A95D1F708958F923B
:1016E0009F92AF92BF92CF92DF92EF92FF926B01E7
:1016F0007C010E944A0B4B015C01C114D104E1043E
:10170000F104F1F00E944A0BDC01CB018819990920
:10171000AA09BB09883E9340A105B10570F321E0F9
:10172000C21AD108E108F10888EE880E83E0981EFD
:10173000A11CB11CC114D104E104F10419F7DDCFDF
:10174000FF90EF90DF90CF90BF90AF909F908F90E1
:1017500008951F920F920FB60F9211242F933F936B
:101760008F939F93AF93BF93809194089091950826
:10177000A0919608B09197083091930823E0230F29
:101780002D3720F40196A11DB11D05C026E8230FB9
:101790000296A11DB11D2093930880939408909305
:1017A0009508A0939608B093970880919808909117
:1017B0009908A0919A08B0919B080196A11DB11DAE
:1017C0008093980890939908A0939A08B0939B08E7
:1017D000BF91AF919F918F913F912F910F900FBE2D
:1017E0000F901F901895CF92DF92EF92FF920F9378
:1017F0001F93E82FF92F05C0015011092109310964
:1018000061F1908196239417B9F305C00150110935
:101810002109310911F1908196239413F7CFC12C3E
:10182000D12CE12CF12C0AC08FEFC81AD80AE80A93
:10183000F80A0C151D052E053F0579F080818623D9
:10184000841791F36C2D7D2D8E2D9F2D1F910F915F
:10185000FF90EF90DF90CF90089560E070E080E01F
:1018600090E01F910F91FF90EF90DF90CF9008953F
:10187000789484B5826084BD84B5816084BD85B56B
:10188000826085BD85B5816085BD80916E00816077
:1018900080936E001092810080918100826080931D
:1018A000810080918100816080938100809180001F
:1018B0008160809380008091B10084608093B1004A
:1018C0008091B00081608093B0008091910082602F
:1018D000809391008091910081608093910080912C
:1018E00090008160809390008091A100826080933D
:1018F000A1008091A10081608093A1008091A0004F
:1019000081608093A00080912101826080932101F9
:10191000809121018160809321018091200181606B
:101920008093200180917A00846080937A00809176
:101930007A00826080937A0080917A00816080933F
:101940007A0080917A00806880937A001092C100BA
:10195000E0912407F091250782E08083E091200741
:10196000F09121071082E0912207F09123078FEC7C
:10197000808310922C07E0912807F091290786E0D8
:101980008083E0912607F091270780818061808322
:10199000E0912607F0912707808188608083E0919D
:1019A0002607F0912707808180688083E0912607D1
:1019B000F091270780818F7D808381E090E0909374
:1019C000FB068093FA069093F5068093F406209127
:1019D000650830916608032E000C440B550BC12C92
:1019E000C7E8DC2EC3E9EC2EC3E0FC2EC701B6012C
:1019F0000E945E10CA01B90128E230E040E050E0E8
:101A00000E945E102093610830936208409363083F
:101A10005093640820914B0830914C08032E000C21
:101A2000440B550BC701B6010E945E10DCE38D2EFE
:101A3000912CA12CB12CCA01B901A50194010E94DD
:101A40005E1020934708309348084093490850930C
:101A50004A0820917F0830918008032E000C440B27
:101A6000550BC701B6010E945E10CA01B901A5015C
:101A700094010E945E1020937B0830937C08409371
:101A80007D0850937E0861E08BE20E94DA0A60E0F4
:101A90008DE20E94DA0A61E08FE20E94DA0A60E0D9
:101AA00081E30E94DA0A61E083E30E94DA0A60E0DF
:101AB00085E30E94DA0A80914208803308F052C020
:101AC00061E08DE00E94DA0A80914208E82FF0E0A0
:101AD0009F01220F331FE20FF31FEF54F84F908145
:101AE000907C9D60908310924308109244086CE0B3
:101AF0000E94C1109CE0899FB001112440E050E099
:101B00009B01240F351FF901EE0FFF1F2E0F3F1F02
:101B1000F901EF54F84F908196FD17C04F5F5F4F6A
:101B20004C30510569F7813009F016C210928000DF
:101B300082E0809381001092850010928400B19A17
:101B400080916F00826080936F00E0914208F0E026
:101B5000CF01880F991FE80FF91FEF54F84F8081CC
:101B6000806480830E949C0768E270E08FE598E0C3
:101B70000E946004C2E1D2E009E210E03AE3E32E01
:101B8000F12C4EE8C42ED12C5EE9A52EB12C6FEBC2
:101B9000862E912C0E940B052091EC063091ED06CB
:101BA0004091EE065091EF066091F0067091F106BB
:101BB0008091F2069091F3060E94FE102091E806B3
:101BC0003091E9064091EA065091EB060E94FE1022
:101BD0000E946F11161617060CF046C08FEC92E0AB
:101BE0000E94210A0E94FF0581309105E1F48EE1F7
:101BF00093E00E94210A1093FF060093FE06F092E4
:101C00000107E0920007D0920307C0920207B0924A
:101C10000507A0920407909207078092060723E029
:101C2000622E712C24C0892BD1F783E393E00E94AC
:101C3000210A888199811093090700930807F0927F
:101C40000B07E0920A07D0920D07C0920C07B092E2
:101C50000F07A0920E0790921107809210079093A1
:101C6000130780931207DBCF92E0692E712C88E472
:101C700093E00E94210A8A819B810E942108BC0175
:101C80008FE598E00E946004229682E06816710455
:101C900009F480CF81E893E00E94210A86EA93E06C
:101CA0000E94210A68ED7FEF8FE598E00E946004B2
:101CB00086E0E82E87E0F82E8091FC069091FD06E4
:101CC000019709F03CC1C0911207D0911307CE01D2
:101CD0000E942108BC018FE598E00E946004CE01BB
:101CE0000E94210886EF93E00E94210A0E94DA07F1
:101CF00068EE73E080E090E00E946F0B0E949C070A
:101D000068EE73E080E090E00E946F0B0E94BF07D6
:101D100068EE73E080E090E00E946F0B0E949C07E9
:101D200068EE73E080E090E00E946F0B0E94BF07B6
:101D30000E94DA0768EE73E080E090E00E946F0B8B
:101D400084E494E00E94210AC8E0D7E00991199147
:101D5000C8010E942108BC0185E498E00E9460044B
:101D6000C8010E94210882E894E00E94210A0E9492
:101D7000FD0787EC94E00E94210A97E0C031D90763
:101D800029F7C0911007D0911107CE010E942108B8
:101D9000BC0185E498E00E946004CE010E94210805
:101DA0000E94DA0768EE73E080E090E00E946F0B1B
:101DB0000E94BF0768EE73E080E090E00E946F0B26
:101DC0000E949C070E94BF0768EE73E080E090E0ED
:101DD0000E946F0B0E949C070E94DA0768EE73E076
:101DE00080E090E00E946F0B8091100790911107A6
:101DF00090931307809312078EEF94E00E94210ABC
:101E00000E94E8048091FA069091FB06019709F080
:101E100096C0C0911207D0911307CE010E942108ED
:101E2000BC018FE598E00E946004CE010E94210869
:101E300080E495E00E94210A0E94DA0768EE73E0D0
:101E400080E090E00E946F0B0E949C0768EE73E0B8
:101E500080E090E00E946F0B0E94BF0768EE73E085
:101E600080E090E00E946F0B0E949C0768EE73E098
:101E700080E090E00E946F0B0E94BF070E94DA078B
:101E800068EE73E080E090E00E946F0B8EE895E0D2
:101E90000E94210ACEEFD6E009911991C8010E9453
:101EA0002108BC0185E498E00E946004C8010E94FA
:101EB000210882E894E00E94210A0E94FD0787EC35
:101EC00094E00E94210AEC16FD0631F7C091060746
:101ED000D0910707CE010E942108BC0185E498E05B
:101EE0000E946004CE010E9421080E94DA0768EE79
:101EF00073E080E090E00E946F0B0E94BF0768EEE5
:101F000073E080E090E00E946F0B0E949C070E94AB
:101F1000BF0768EE73E080E090E00E946F0B0E94C4
:101F20009C070E94DA0768EE73E080E090E00E9470
:101F30006F0B8CEC95E00E94210A0E94E8048EE071
:101F400096E00E94210A60ED77E080E090E00E9438
:101F50006F0B0E94A401B0CE823061F41092900009
:101F600080939100109295001092940088BB80930A
:101F70007100EBCD833069F41092A00082E0809371
:101F8000A1001092A5001092A40089BB809372005A
:101F9000DCCD8111DACD1092200182E08093210105
:101FA00010922501109224018ABB80937300CDCD3D
:101FB0000F931F93109217071092160788EE93E065
:101FC000A0E0B0E08093180790931907A0931A0738
:101FD000B0931B0784E092E0909315078093140759
:101FE00085EC90E0909321078093200784EC90E0AB
:101FF000909323078093220780EC90E0909325072D
:102000008093240781EC90E0909327078093260724
:1020100082EC90E0909329078093280786EC90E06B
:1020200090932B0780932A0710922D0710922E076A
:1020300010922F071092300705E010E024E030E006
:1020400043E050E062E070E089E798E00E94160B00
:102050000BE010E02AE030E049E050E068E070E09A
:102060008FE598E00E94160B0FE110E02DE130E0C3
:102070004BE150E069E170E085E498E00E94160BC6
:10208000809141088033A0F491E0980F909341082B
:102090008093420890E0FC01EE0FFF1F8E0F9F1F00
:1020A000FC01EF54F84F88EB9BE09283818303C0DF
:1020B0008FEF809342081F910F910895052E97FB93
:1020C0001EF400940E94751057FD07D00E949010D6
:1020D00007FC03D04EF40C94751050954095309544
:1020E00021953F4F4F4F5F4F089590958095709584
:1020F00061957F4F8F4F9F4F08950E94B210A59F0B
:10210000900DB49F900DA49F800D911D11240895F2
:10211000B7FF0C947D100E947D10821B930B0895D5
:10212000A1E21A2EAA1BBB1BFD010DC0AA1FBB1FDB
:10213000EE1FFF1FA217B307E407F50720F0A21B4D
:10214000B30BE40BF50B661F771F881F991F1A94BA
:1021500069F760957095809590959B01AC01BD01E4
:10216000CF010895A29FB001B39FC001A39F700D3E
:10217000811D1124911DB29F700D811D1124911D8F
:102180000895991B79E004C0991F961708F0961BD3
:10219000881F7A95C9F78095089597FB072E16F446
:1021A000009407D077FD09D00E94E91007FC05D004
:1021B0003EF4909581959F4F0895709561957F4F5E
:1021C0000895EE0FFF1F881F8BBF0790F691E02D3B
:1021D0001994AA1BBB1B51E107C0AA1FBB1FA6175E
:1021E000B70710F0A61BB70B881F991F5A95A9F7C0
:1021F00080959095BC01CD0108955058BB27AA2722
:102200000E9415110C941D120E940F1238F00E94AA
:10221000161220F039F49F3F19F426F40C940C1296
:102220000EF4E095E7FB0C940612E92F0E942E12A3
:1022300058F3BA17620773078407950720F079F4FB
:10224000A6F50C9450120EF4E0950B2EBA2FA02D8B
:102250000B01B90190010C01CA01A0011124FF2753
:10226000591B99F0593F50F4503E68F11A16F0404E
:10227000A22F232F342F4427585FF3CF469537954D
:102280002795A795F0405395C9F77EF41F16BA0B12
:10229000620B730B840BBAF09150A1F0FF0FBB1FC0
:1022A000661F771F881FC2F70EC0BA0F621F731F09
:1022B000841F48F4879577956795B795F7959E3F66
:1022C00008F0B0CF9395880F08F09927EE0F9795F7
:1022D000879508950E94E21108F481E008950E9414
:1022E00076116894B1110C94511208950E9436121F
:1022F00088F09F5798F0B92F9927B751B0F0E1F0C7
:10230000660F771F881F991F1AF0BA95C9F714C076
:10231000B13091F00E945012B1E008950C94501227
:10232000672F782F8827B85F39F0B93FCCF38695AF
:1023300077956795B395D9F73EF49095809570950C
:1023400061957F4F8F4F9F4F0895E89409C097FB89
:102350003EF490958095709561957F4F8F4F9F4F7C
:102360009923A9F0F92F96E9BB279395F6958795C0
:1023700077956795B795F111F8CFFAF4BB0F11F483
:1023800060FF1BC06F5F7F4F8F4F9F4F16C088232A
:1023900011F096E911C0772321F09EE8872F762F60
:1023A00005C0662371F096E8862F70E060E02AF0A1
:1023B0009A95660F771F881FDAF7880F969587958D
:1023C00097F90895990F0008550FAA0BE0E8FEEF62
:1023D00016161706E807F907C0F012161306E407E9
:1023E000F50798F0621B730B840B950B39F40A26E2
:1023F00061F0232B242B252B21F408950A2609F4C0
:10240000A140A6958FEF811D811D089597F99F67C3
:1024100080E870E060E008959FEF80EC089500246C
:102420000A941616170618060906089500240A9439
:1024300012161306140605060895092E0394000CBF
:1024400011F4882352F0BB0F40F4BF2B11F460FF4E
:1024500004C06F5F7F4F8F4F9F4F089557FD905877
:10246000440F551F59F05F3F71F04795880F97FB58
:10247000991F61F09F3F79F0879508951216130612
:102480001406551FF2CF4695F1DF08C01616170641
:102490001806991FF1CF8695710561050894089576
:1024A000E894BB2766277727CB0197F908950E9408
:1024B000E21108F48FEF08950E946F120C941D1220
:1024C0000E940F1238F00E94161220F0952311F08E
:1024D0000C9406120C940C1211240C9451120E94AC
:1024E0002E1270F3959FC1F3950F50E0551F629F18
:1024F000F001729FBB27F00DB11D639FAA27F00D5D
:10250000B11DAA1F649F6627B00DA11D661F829F83
:102510002227B00DA11D621F739FB00DA11D621F68
:10252000839FA00D611D221F749F3327A00D611D85
:10253000231F849F600D211D822F762F6A2F112467
:102540009F5750409AF0F1F088234AF0EE0FFF1F9A
:10255000BB1F661F771F881F91505040A9F79E3FF1
:10256000510580F00C9406120C9451125F3FE4F375
:10257000983ED4F3869577956795B795F795E79547
:102580009F5FC1F7FE2B880F911D9695879597F950
:1025900008950E94E211880B990B089581E090E064
:0A25A000F8940C94D312F894FFCFC6
:1025AA0000000000BC0851087F08090998018E083C
:1025BA00A2080000080010001900210029003200BA
:1025CA003A0042004B0053005B0064006C00740048
:1025DA007D0085008E0096009E00A600AF00B70021
:1025EA00BF00437269746963616C206572726F72AD
:1025FA0020446961626F6C6F207374617465205541
:10260A006E6B6E6F776E006E616E00696E66006F3C
:10261A007666000D0A0068696A2069732077656525
:10262A007220746572756720696E2064652063651F
:10263A006E746572206E616461742068696A2068CC
:10264A00656566742067657363616E6E65640065AF
:10265A0072726F7220646961626F6C20682F6C20DD
:10266A006F6E62656B656E74006572726F72006878
:10267A00696A206865656674206465206565727399
:10268A00746520446961626F6C206765766F6E6459
:10269A00656E206761206E752062657061616C6588
:1026AA006E206F662068696A20737461616E206F9C
:1026BA0066206C696767656E6420697320006465CB
:1026CA0020316520646961626F6C20697320486FEC
:1026DA006F6700646520316520646961626F6C20F0
:1026EA006973204C6161670068696A20686565667C
:1026FA0074206E696B73206765766F6E64656E20F1
:10270A00696E2064652076616B2067616174206E52
:10271A0061617220646520766F6C67656E646520FE
:10272A000068696A2067616174206E75207A6F6536
:10273A006B656E206E61617220646520326520646B
:10274A006961626F6C0068696A20686565667420F1
:10275A00626569646520646961626F6C656E206791
:10276A0065766F6E64656E20656E206765696E6456
:10277A006963656572642077656C6B65206B616E51
:10278A00742068696A206F70206D6F6574206472A6
:10279A00616169656E00696B2068616E67206E759C
:1027AA0020626F76656E206465206C696767656E66
:1027BA00646520646961626F6C20696B20676120BF
:1027CA006E7520626567696E6E656E206D65742030
:1027DA006D696A6E2067616D6520737472617465D4
:1027EA0067696500696B20686562204C20646961CD
:1027FA00626F6C20696E206D696A6E2068616E6412
:10280A00656E20656E2062656E207765657220743C
:10281A006572756720696E206D696A6E20686172DB
:10282A007400696B206761206E7520626567696E46
:10283A006E656E206D65742065656E2070756E74A8
:10284A00207465207665727A616D656C656E207696
:10285A006F6F72206465206C696767656E646520B6
:10286A00646961626F6C00696B20686562206E65DD
:10287A00742065656E2070756E74207665727A6153
:10288A006D656C74207665646572206E6161722074
:10289A00646520766F6C67656E6465202100696BDC
:1028AA002062656E206B6C616172206D65742070A8
:1028BA00756E746A6573207665727A616D656C658A
:1028CA006E207961792021206E75206F70206E61EB
:1028DA006172206465204820646961626F6C21001E
:1028EA00696B2068616E67206E7520626F76656E0F
:1028FA0020646520737461616E6465202064696177
:10290A00626F6C20696B206761206E752062656753
:10291A00696E6E656E206D6574206D696A6E2067DA
:10292A00616D652073747261746567696500696BAE
:10293A0020686562204820646961626F6C20696E54
:10294A00206D696A6E2068616E64656E20656E200E
:10295A0062656E2077656572207465727567206995
:10296A006E206D696A6E206861727400696B2062FC
:10297A00656E206B6C616172206D65742070756E76
:10298A00746A6573207665727A616D656C656E200E
:10299A007961792021206E75206F70206E616172D5
:1029AA00206465204C20646961626F6C2100696B48
:1029BA002068656220342070756E74656E207665B5
:1029CA00727A616D656C64206E6161722064652043
:0E29DA00766F6C67656E646520746F65200013
:00000001FF
