:100000000C9465010C9496010C9496010C94960145
:100010000C9496010C9496010C9496010C94960104
:100020000C9496010C9496010C9496010C949601F4
:100030000C9496010C9496010C9496010C949601E4
:100040000C9496010C94CC080C9496010C94960197
:100050000C9496010C9496010C9496010C944D0C02
:100060000C9496010C940C080C94E2070C949601E5
:100070000C9496010C9496010C9496010C949601A4
:100080000C949E080C9496010C9496010C94960185
:100090000C9496010C9496010C9496010C94960184
:1000A0000C9496010C9496010C9470080C94960193
:1000B0000C9496010C9496010C9496010C944208B1
:1000C0000C9496010C9496010C9496010C94960154
:1000D0000C9496010C9496010C9496010C94960144
:1000E0000C94960189048F049904A704A904AF0411
:1000F000B904C704D904DB042F0B320B210B250BE9
:10010000290B690B360B3A0B400B440B480B4E0B7B
:10011000520B560B690B5C0B600B640B0C94690B58
:100120000C94560B0C94A7040C94520B0C94990449
:100130000C947C020C94600B0C94A9040C94AF04F6
:100140000C9489040C943A0B0C94E9010C94210B47
:100150000C945C0B0C948F040C94440B0C948A103C
:100160000C94640B0C942F020C94320B0C94D5015C
:100170000C94360B0C94290B0C94D9040C94250B7D
:100180000C942F0B0C94DB040C94400B0C949801F2
:100190000C94C6010C94C7040C94480B0C94F70102
:1001A0000C944E0B0C94B90400002100240027008D
:1001B0002A002D0030003300010100000401070176
:1001C0000A0100002200250028002B002E0031002B
:1001D000340002010000050108010B0100000A0BB8
:1001E00002090C0D0E0807030401000000000000C6
:1001F00000000000000000000000000000000000FF
:1002000000000000000000001211100000000000BB
:1002100000000000000000000000000000000000DE
:100220000000000020002300260029002C002F00E1
:100230003200000100000301060109010505050562
:10024000070508080808020202020A0A080804044E
:10025000040401010101010101010303030303037C
:100260000303040707070C0C0C0C0C0C0C0C02020B
:10027000020206060606060606060B0B0B0B0B0B08
:100280000B0B010210202008081020401020408095
:10029000020102010804020101020408102040804A
:1002A00080402010080402018004020180402010D8
:1002B0000804020108040201010204081020408021
:1002C00001020408102040808A1011241FBECFEFC5
:1002D000D1E2DEBFCDBF00E00CBF16E0A0E0B2E08F
:1002E000EEEFF7E200E00BBF02C007900D92A83ED0
:1002F000B107D9F729E0A8EEB6E001C01D92A634F7
:10030000B207E1F711E0C5E6D1E000E006C02197B1
:100310000109802FFE010E949911C436D10780E0A7
:100320000807A9F70E94DC0C0C94FD130C94000044
:10033000CF92DF92EF92FF920F931F93CF93DF93B1
:100340006C017A018B01C0E0D0E0CE15DF0581F0B1
:10035000D8016D918D01D601ED91FC910190F08154
:10036000E02DC6011995892B11F02196EECF7E0163
:10037000C701DF91CF911F910F91FF90EF90DF9018
:10038000CF900895089580E090E00895FC01538D8A
:10039000448D252F30E0842F90E0821B930B54175F
:1003A00010F0CF96089501970895FC01918D828DEC
:1003B000981761F0828DDF01A80FB11D5D968C91B9
:1003C000928D9F5F9F73928F90E008958FEF9FEFC4
:1003D0000895FC01918D828D981731F0828DE80F80
:1003E000F11D858D90E008958FEF9FEF0895FC013A
:1003F000918D228D892F90E0805C9F4F821B910907
:100400008F73992708958CEB97E00E94F70121E004
:10041000892B09F420E0822F0895FC01848DDF01EF
:10042000A80FB11DA35ABF4F2C91848D90E0019667
:100430008F739927848FA689B7892C93A089B18956
:100440008C91837080648C93938D848D981306C0F7
:100450000288F389E02D80818F7D80830895EF925B
:10046000FF920F931F93CF93DF93EC0181E0888F6E
:100470009B8D8C8D981305C0E889F989808185FD55
:1004800026C0F62E0B8D10E00F5F1F4F0F73112744
:10049000E02E8C8DE8120CC00FB607FCFACFE8896D
:1004A000F989808185FFF5CFCE010E940D02F1CF41
:1004B0008B8DFE01E80FF11DE35AFF4FF0829FB7CD
:1004C000F8940B8FEA89FB89808180620AC09FB70C
:1004D000F894EE89FF896083E889F98980818370C7
:1004E000806480839FBF81E090E0DF91CF911F9176
:1004F0000F91FF90EF900895CF93DF93EC01888DDB
:100500008823C9F0EA89FB89808185FD05C0A88917
:10051000B9898C9186FD0FC00FB607FCF5CF80819D
:1005200085FFF2CFA889B9898C9185FFEDCFCE01E7
:100530000E940D02E7CFDF91CF91089580E090E017
:10054000892B21F00E940302811125C080E090E0F8
:10055000892B41F080E090E0892B21F00E9400007F
:1005600081111CC080E090E0892B41F080E090E098
:10057000892B21F00E940000811113C080E090E0DF
:10058000892BA1F080E090E0892B81F00E9400008F
:1005900081110AC008950E940000D8CF0E94000077
:1005A000E1CF0E940000EACF0C9400000895209152
:1005B000EA083091EB08AC01421B530B28533F4F24
:1005C000BC01621B730B9B01FA0157FF04C0EE27AD
:1005D000FF27E41BF50BB90137FF04C06627772717
:1005E000621B730B6E177F072CF05093E906409344
:1005F000E80604C03093E9062093E8069093EB08E0
:100600008093EA088091E8069091E9060895809128
:10061000A8079091A9078130910541F49093B707FD
:100620008093B6071092A9071092A8078091B60789
:100630009091B7078130910549F41092B707109255
:10064000B6079093A9078093A807089582E492E0E3
:100650000C94900980919A0790919B07892B51F4F3
:1006600084EB90E00E940C0981E090E090939B075E
:1006700080939A0780919A0790919B07019749F47C
:100680008AE590E00E940C0910929B0710929A074D
:10069000089587E692E00C9490090E94F813CF9297
:1006A000DF92EF92FF920F931F93CF93DF936C0132
:1006B0008B017A01EC01C657D84F888187FF04C0AF
:1006C000FB011182108224C02CE02C9DC0012D9DC5
:1006D000900D11242881AC01420F511D27FD5A9520
:1006E0002091E90830E04217530794F42881AC01C7
:1006F000420F511D27FD5A959A01FA01EE0FFF1F77
:100700002E0F3F1FF901E75AF74F208126FD19C030
:1007100088818F5F88832CE02C9DC0012D9D900DDA
:1007200011242881AC01420F511D27FD5A952091BB
:10073000E90830E042175307BCF428812C3044F11B
:1007400013C02881820F911D27FD9A95FC01EE0FA1
:10075000FF1F8E0F9F1FFC01E75AF74F808160E05B
:100760008F730E94000BD4CFF80180819181049691
:1007700080349C4918F480E49CE904C0F80180812D
:1007800091810496F701918380838FEF888345C020
:10079000F801408151812881BC01620F711D27FD44
:1007A0007A959B01FB01EE0FFF1F2E0F3F1FF901F2
:1007B000E75AF74F21813281240F351FF70131832A
:1007C00020832881AC01420F511D27FD5A959A01C3
:1007D000FA01EE0FFF1F2E0F3F1FF901E75AF74FE7
:1007E000208126FF1AC02881820F911D27FD9A952E
:1007F000FC01EE0FFF1F8E0F9F1FFC01E75AF74F02
:10080000808161E08F73DF91CF911F910F91FF90F5
:10081000EF90DF90CF900C94000BDF91CF911F9160
:100820000F91FF90EF90DF90CF9008950F931F935B
:10083000CF93DF93EC018B01888599850297F1F4C2
:100840006130710569F024F4672BC1F460E009C0E0
:100850006230710559F06330710581F460E007C0C2
:1008600061E08C850E94000B61E005C061E08C8531
:100870000E94000B60E08E850E94000B88859985A0
:100880000497B9F501301105B1F04CF401151105CB
:1008900081F561E08C850E94000B60E011C00230A0
:1008A0001105B9F00330110521F561E08C850E9436
:1008B000000B60E013C060E08C850E94000B61E0DB
:1008C0008E850E94000B61E088890E94000B60E029
:1008D0000DC060E08C850E94000B61E08E850E9457
:1008E000000B60E088890E94000B61E08A890E9409
:1008F000000B88859985059709F075C00A301105A8
:1009000008F071C0F8018827EE58FF4F8F4F0C9404
:10091000991160E08C850E94000B61E051C060E09D
:100920008C850E94000B61E08E850E94000B60E0C8
:100930004BC060E08C850E94000B61E08E850E94B8
:10094000000B60E088890E94000B61E041C060E01C
:1009500001C061E08C850E94000B61E005C061E090
:100960008C850E94000B60E08E850E94000B60E089
:1009700009C061E08C850E94000B60E08E850E94BA
:10098000000B61E088890E94000B61E00DC061E00E
:100990008C850E94000B60E08E850E94000B61E058
:1009A00088890E94000B60E08A890E94000B60E049
:1009B00013C061E001C060E08C850E94000B60E024
:1009C0008E850E94000B61E088890E94000B60E028
:1009D0008A890E94000B61E08C89DF91CF911F9181
:1009E0000F910C94000BDF91CF911F910F910895FF
:1009F0004F925F926F927F928F929F92AF92BF922F
:100A0000CF92DF92EF92FF920F931F93CF93DF93DA
:100A1000EC018B0177FF04C000271127061B170B81
:100A2000161617062CF481E090E09983888304C0A1
:100A3000672B11F01982188284E0E82EF12C9AE0DD
:100A4000C92ED12C0115110509F449C00E94EE0BE5
:100A50008E889F88A88CB98C2B013C0148185908B6
:100A60006A087B088A809B80AC80BD80481459044A
:100A70006A047B0438F36E8B7F8B888F998F288173
:100A800039818A859B852130310559F401969B87F0
:100A90008A872E813F818217930771F41B861A86FD
:100AA0000BC0892B21F48E819F819B878A878A8541
:100AB0009B8501979B878A87015011092885398575
:100AC0008A859B852530310511F4B60101C0B70137
:100AD0000E948511BC01CE010E941604B3CFDF91A4
:100AE000CF911F910F91FF90EF90DF90CF90BF902B
:100AF000AF909F908F907F906F905F904F900895F0
:100B00008091A8079091A907019761F466E571E0CB
:100B100083E299E00E94F8046AEA7EEF83E299E0BA
:100B20000E94F8048091B6079091B707019761F48D
:100B300067E571E083E299E00E94F80469EA7EEFDC
:100B400083E299E00C94F8048DE692E00C9490090D
:100B500080919C0790919D07892B61F468E270E079
:100B60008FEE98E00E94F80481E090E090939D075A
:100B700080939C0780919C0790919D07019751F469
:100B800068ED7FEF8FEE98E00E94F80410929D07C9
:100B900010929C0708950E94A80568EE73E080E01B
:100BA00090E00E94130C0E94800568EE73E080E0E4
:100BB00090E00E94130C0E942A0368EE73E080E02C
:100BC00090E00E94130C0E942A030E9480050E945C
:100BD000A80560ED77E080E090E00C94130C0F9393
:100BE0001F93CF93DF9360E08BE20E94000B03E042
:100BF00010E0C8010197F1F761E08BE20E94000B61
:100C0000C3E2D0E0CE010197F1F760E08BE20E94F1
:100C1000000B8DE20E94D30A072E000C880B990B63
:100C20000E94D11226E933E44BE05DE30E94861373
:100C300020E030E040E05FE30E9486136093960777
:100C400070939707809398079093990782EA92E0B0
:100C50000E9490096091960770919707809198077C
:100C6000909199070E94C20964E170E080E090E0F1
:100C70000E94130C60E08FE20E94000BC8010197F4
:100C8000F1F761E08FE20E94000BCE010197F1F7CE
:100C900060E08FE20E94000B81E30E94D30A072EDE
:100CA000000C880B990B0E94D11226E933E44BE02B
:100CB0005DE30E94861320E030E040E05FE30E94A5
:100CC0008613609392077093930780939407909391
:100CD000950784EB92E00E949009609192077091D1
:100CE000930780919407909195070E94C20964E14F
:100CF00070E080E090E00E94130C60E083E30E94CB
:100D0000000BC8010197F1F761E083E30E94000B3B
:100D10002197F1F760E083E30E94000B85E30E94D6
:100D2000D30A072E000C880B990B0E94D11226E9DA
:100D300033E44BE05DE30E94861320E030E040E0C6
:100D40005FE30E94861360938E0770938F078093F2
:100D500090079093910786EC92E00E949009609131
:100D60008E0770918F0780919007909191070E9454
:100D7000C20964E170E080E090E00E94130C2091D1
:100D80008E0730918F07409190075091910760E056
:100D900070E080E291E40E94B51160938E07709339
:100DA0008F0780939007909391072091920730913D
:100DB0009307409194075091950760E070E080E2BE
:100DC00091E40E94B511609392077093930780930A
:100DD000940790939507209196073091970740913B
:100DE00098075091990760E070E080E291E40E94DA
:100DF000B511609396077093970780939807909327
:100E0000990788ED92E00E94900960919607709191
:100E1000970780919807909199070E94C209609165
:100E200092077091930780919407909195070E9483
:100E3000C20960918E0770918F0780919007909101
:100E40009107DF91CF911F910F910C94C2094F929E
:100E50005F926F927F928F929F92AF92BF92CF924A
:100E6000DF92EF92FF920F931F93CF93DF9368ED82
:100E70007FEF8FEE98E00E94F804CAEED6E08E0174
:100E800083E0A82EB12C93E2892E912C6AE070E0C9
:100E900080E090E00E94130C60E08FE20E94000B63
:100EA000C5010197F1F761E08FE20E94000BC401D8
:100EB0000197F1F760E08FE20E94000B81E30E944E
:100EC000D30A072E000C880B990B0E94D11226E939
:100ED00033E44BE05DE30E94861320E030E040E025
:100EE0005FE30E9486132B013C01F801619371932B
:100EF000819391938F0162E070E08FEE98E00E9401
:100F0000F80468ED7FEF8FEE98E00E94F804C301CB
:100F1000B2010E94C20986E193E00E949009F7E0C5
:100F20000A381F0709F0B2CF299139914991599197
:100F3000C701B6010E94B6116B017C0187E0CA3877
:100F4000D80791F720E030E040E252E4C701B60153
:100F50000E9427126B017C0120E030E040E051E468
:100F60000E94811387FF14C0C1E02DEC3CEC4CEFD4
:100F700050E4C701B6010E94221218160CF4C0E01A
:100F800081E0C827D0E08FE493E00E94900902C07E
:100F9000C1E0D0E068ED7FEF89E099E00E94F804BD
:100FA000CE01DF91CF911F910F91FF90EF90DF90D5
:100FB000CF90BF90AF909F908F907F906F905F90F9
:100FC0004F9008951F920F920FB60F9211240BB6F7
:100FD0000F922F933F934F935F936F937F938F93D2
:100FE0009F93AF93BF93EF93FF938CEB97E00E9497
:100FF0000D02FF91EF91BF91AF919F918F917F91E2
:101000006F915F914F913F912F910F900BBE0F9079
:101010000FBE0F901F9018951F920F920FB60F9250
:1010200011240BB60F922F938F939F93EF93FF93FF
:10103000E091CC07F091CD078081E091D207F0914B
:10104000D30782FD12C090818091D5078F5F8F7387
:101050002091D607821751F0E091D507F0E0E454D3
:10106000F84F958F8093D50701C08081FF91EF9154
:101070009F918F912F910F900BBE0F900FBE0F90ED
:101080001F9018951F920F920FB60F9211240BB656
:101090000F922F933F934F935F936F937F938F9311
:1010A0009F93AF93BF93EF93FF9348E251E064E2C5
:1010B00071E080E090E00E944F03FF91EF91BF91BB
:1010C000AF919F918F917F916F915F914F913F91E0
:1010D0002F910F900BBE0F900FBE0F901F90189581
:1010E0001F920F920FB60F9211240BB60F922F93EF
:1010F0003F934F935F936F937F938F939F93AF93A0
:10110000BF93EF93FF9348EA50E064EA70E083E016
:1011100090E00E944F03FF91EF91BF91AF919F919B
:101120008F917F916F915F914F913F912F910F9090
:101130000BBE0F900FBE0F901F9018951F920F922D
:101140000FB60F9211240BB60F922F933F934F932C
:101150005F936F937F938F939F93AF93BF93EF931F
:10116000FF9348E950E064E970E082E090E00E947B
:101170004F03FF91EF91BF91AF919F918F917F911D
:101180006F915F914F913F912F910F900BBE0F90F8
:101190000FBE0F901F9018951F920F920FB60F92CF
:1011A00011240BB60F922F933F934F935F936F933E
:1011B0007F938F939F93AF93BF93EF93FF9348E8F1
:1011C00050E064E870E081E090E00E944F03FF91FE
:1011D000EF91BF91AF919F918F917F916F915F91AF
:1011E0004F913F912F910F900BBE0F900FBE0F901C
:1011F0001F901895009769F0FC0101900020E9F715
:101200003197AF01481B590BBC018CEB97E00C9454
:10121000980180E090E00895CF92DF92EF92FF92E4
:10122000DC01A03282E0B8070CF03EC0B7FD06C07A
:10123000A53BB1052CF0A4EBB0E002C0A0E0B0E00B
:101240008091ED0828E830E06901C81AD10887FDCF
:10125000D394CC0CDD1CCC0CDD1C0D2C000CEE084A
:10126000FF088091EE0828E532E0281B310987FD50
:101270003395220F331F220F331FA901330F660B43
:10128000770B9A01AB012C193D094E095F090E94A9
:10129000401124EB30E040E050E00E941611C20EF5
:1012A000D31EE41EF51ED6019091EC08903398F5FC
:1012B0008091ED0848E850E0481B510987FD53959F
:1012C000440F551F440F551FA417B5078CF080918C
:1012D000EE0828E532E0281B310987FD3395220FFF
:1012E000331F220F331FAD012A173B070CF4A9014E
:1012F00042505109440F551F2FB7F894892F90E0A1
:10130000FC01EE0FFF1F8E0F9F1FFC01E75AF74FE6
:10131000528341832FBFFF90EF90DF90CF900895CD
:10132000CF93DF930E94FA08EC0188ED96E00E94CB
:10133000FA088C0F9D1FDF91CF910895CF92DF9215
:10134000EF92FF92BC01990F880B990B0E94D1126A
:1013500020E932EC45E75EE30E9427126B017C0135
:1013600020E030E0A9010E948113181624F0F7FA5A
:10137000F094F7F8F094C701B601FF90EF90DF907A
:10138000CF9008952F923F924F925F926F927F92EB
:101390008F929F92AF92BF92CF92DF92EF92FF9285
:1013A0000F931F93CF93DF93CDB7DEB7A4970FB6FC
:1013B000F894DEBF0FBECDBF4B015C019B01AC01B9
:1013C0000E94F313882319F08BED96E01AC0750183
:1013D0006401E894F7F82FEF3FEF4FE75FE7C701AD
:1013E000B6010E94F313811110C02FEF3FEF4FE7BA
:1013F0005FE7C701B6010E942212181634F48FED80
:1014000096E00E94FA088C01AFC02FEF3FEF4FE744
:101410005FE4C501B4010E94811318161CF483EE29
:1014200096E0EFCF2FEF3FEF4FE75FECC501B40140
:101430000E94221287FDF3CF20E030E0A901C50110
:10144000B4010E94221287FF0BC06DE28CEB97E083
:101450000E942F026C01B7FAB094B7F8B09402C0A2
:10146000C12CD12C2AE037ED43EA5BE3C501B4017E
:101470000E94B6114B015C010E94A0122B013C019D
:101480000E94CF129B01AC01C501B4010E94B511AD
:101490004B015C0119A27E0181E2E80EF11CEAA277
:1014A000FBA2C301B2012AE030E040E050E00E941C
:1014B000481129013A01605DF70162937F01232BF6
:1014C000242B252B71F7CF010E94FA088C016EE2C4
:1014D0008CEB97E00E942F02800F911F8C010C0D66
:1014E0001D1D83E0F82E9AE0292E312C412C512C21
:1014F000FA94FF20C9F120E030E040E251E4C50158
:10150000B4010E9486134B015C010E94A0129B0152
:1015100040E050E019A26AA07BA06CA3C32ED42E99
:10152000E52ECA01B901A20191010E944811605D36
:10153000F30162933F01211531054105510589F7FA
:10154000CF010E94FA08080F191F6CA17C2D8D2D68
:101550009E2D0E94CF129B01AC01C501B4010E94D7
:10156000B5114B015C01C4CF88ED96E00E94FA08EA
:10157000800F911FA4960FB6F894DEBF0FBECDBFAB
:10158000DF91CF911F910F91FF90EF90DF90CF905F
:10159000BF90AF909F908F907F906F905F904F9093
:1015A0003F902F9008950F931F9390E0FC01EE570A
:1015B000FD4F6491FC01E45CFD4FE491F0E0EE0F1F
:1015C000FF1FEE5DFD4F8591949100E412E42FE042
:1015D00030E0462F0E94970C611571058105910539
:1015E00049F0DC01CB010196A11DB11DBC01CD016B
:1015F0009F7003C060E070E0CB011F910F910895D0
:10160000362F90E0FC01E452FE4F4491FC01EE576E
:10161000FD4F2491FC01E45CFD4F9491992309F462
:101620006CC0442309F455C050E0FA013197E2310F
:10163000F10508F04EC08827E458FF4F8F4F0C94F7
:101640009911809180008F7707C0809180008F7DF5
:1016500003C080918000877F809380003AC084B56A
:101660008F7702C084B58F7D84BD33C08091B00078
:101670008F7703C08091B0008F7D8093B00029C028
:10168000809190008F7707C0809190008F7D03C07C
:1016900080919000877F809390001BC08091A00074
:1016A0008F7707C08091A0008F7D03C08091A0003C
:1016B000877F8093A0000DC0809120018F7707C0A5
:1016C000809120018F7D03C080912001877F8093CE
:1016D0002001E92FF0E0EE0FFF1FEE53FE4FA59122
:1016E000B4919FB7F894311104C08C9120952823B0
:1016F00002C0EC912E2B2C939FBF0895CF93DF93C4
:1017000090E0FC01EE57FD4F2491FC01E45CFD4F9D
:101710008491882361F190E0880F991FFC01E855BE
:10172000FE4FC591D491FC01EE53FE4FA591B491AB
:10173000611109C09FB7F89488812095822388831E
:10174000EC912E230BC0623061F49FB7F89488812E
:10175000322F309583238883EC912E2B2C939FBFBF
:1017600006C08FB7F894E8812E2B28838FBFDF91B6
:10177000CF9108950F931F93CF93DF93EC01862FA2
:101780001B861A86198218821E8A1F8A188E198E45
:10179000E8ECF0E0FF83EE836C877D875F874E8700
:1017A000398B288B1B8B0A8B61E00E947E0B61E0DA
:1017B0008E850E947E0B61E088890E947E0B61E02D
:1017C0008A890E947E0B1D8A1C8A84E090E099879A
:1017D0008887DF91CF911F910F9108953FB7F894BB
:1017E0008091420990914309A0914409B091450923
:1017F00026B5A89B05C02F3F19F00196A11DB11D6C
:101800003FBFBA2FA92F982F8827820F911DA11DA6
:10181000B11DBC01CD0142E0660F771F881F991FE3
:101820004A95D1F708958F929F92AF92BF92CF922F
:10183000DF92EF92FF926B017C010E94EE0B4B0155
:101840005C01C114D104E104F104F1F00E94EE0B3B
:10185000DC01CB0188199909AA09BB09883E93408C
:10186000A105B10570F321E0C21AD108E108F10821
:1018700088EE880E83E0981EA11CB11CC114D1040F
:10188000E104F10419F7DDCFFF90EF90DF90CF90E6
:10189000BF90AF909F908F9008951F920F920FB6B8
:1018A0000F9211242F933F938F939F93AF93BF93E6
:1018B00080913E0990913F09A0914009B091410962
:1018C00030913D0923E0230F2D3720F40196A11D0F
:1018D000B11D05C026E8230F0296A11DB11D20935E
:1018E0003D0980933E0990933F09A0934009B0932E
:1018F00041098091420990914309A0914409B09116
:1019000045090196A11DB11D809342099093430999
:10191000A0934409B0934509BF91AF919F918F91D6
:101920003F912F910F900FBE0F901F901895CF925F
:10193000DF92EF92FF920F931F93E82FF92F05C0CC
:10194000015011092109310961F190819623941701
:10195000B9F305C0015011092109310911F1908134
:1019600096239413F7CFC12CD12CE12CF12C0AC073
:101970008FEFC81AD80AE80AF80A0C151D052E05BB
:101980003F0579F080818623841791F36C2D7D2D9E
:101990008E2D9F2D1F910F91FF90EF90DF90CF9094
:1019A000089560E070E080E090E01F910F91FF905B
:1019B000EF90DF90CF900895789484B5826084BDD5
:1019C00084B5816084BD85B5826085BD85B5816043
:1019D00085BD80916E00816080936E0010928100C1
:1019E000809181008260809381008091810081607C
:1019F000809381008091800081608093800080913D
:101A0000B10084608093B1008091B00081608093C8
:101A1000B00080919100826080939100809191004C
:101A2000816080939100809190008160809390000C
:101A30008091A10082608093A1008091A1008160CB
:101A40008093A1008091A00081608093A00080918C
:101A50002101826080932101809121018160809326
:101A600021018091200181608093200180917A0082
:101A7000846080937A0080917A00826080937A00FB
:101A800080917A00816080937A0080917A008068EA
:101A900080937A001092C10010929D0710929C07CB
:101AA000E091CC07F091CD0782E08083E091C807F8
:101AB000F091C9071082E091CA07F091CB078FEC33
:101AC00080831092D407E091D007F091D10786E08F
:101AD0008083E091CE07F091CF0780818061808381
:101AE000E091CE07F091CF07808188608083E091FC
:101AF000CE07F091CF07808180688083E091CE0788
:101B0000F091CF0780818F7D808320910F093091E4
:101B10001009032E000C440B550BC12CC7E8DC2E1A
:101B2000C3E9EC2EC3E0FC2EC701B6010E941611DA
:101B3000CA01B90128E230E040E050E00E941611ED
:101B400020930B0930930C0940930D0950930E0913
:101B50002091F5083091F608032E000C440B550B2C
:101B6000C701B6010E941611DCE38D2E912CA12C29
:101B7000B12CCA01B901A50194010E94161120934C
:101B8000F1083093F2084093F3085093F408209141
:101B9000290930912A09032E000C440B550BC7016B
:101BA000B6010E941611CA01B901A50194010E9453
:101BB0001611209325093093260940932709509345
:101BC000280961E08BE20E947E0B60E08DE20E94BA
:101BD0007E0B61E08FE20E947E0B60E081E30E9459
:101BE0007E0B61E083E30E947E0B60E085E30E9450
:101BF0007E0B8091EC08803308F052C061E08DE0EC
:101C00000E947E0B8091EC08E82FF0E09F01220FEC
:101C1000331FE20FF31FE75AF74F9081907C9D60CE
:101C200090831092ED081092EE086CE00E947911FA
:101C30009CE0899FB001112440E050E09B01240FFB
:101C4000351FF901EE0FFF1F2E0F3F1FF901E75A55
:101C5000F74F908196FD17C04F5F5F4F4C30510595
:101C600069F7813009F02AC21092800082E08093E7
:101C700081001092850010928400B19A80916F00CB
:101C8000826080936F00E091EC08F0E0CF01880F54
:101C9000991FE80FF91FE75AF74F8081806480830E
:101CA00084EB90E00E940C0981E090E090939B0708
:101CB00080939A0768E270E08FEE98E00E94F80443
:101CC000C2E1D2E009E210E03AE3E32EF12C4EE863
:101CD000C42ED12C5EE9A52EB12C6FEB862E912C53
:101CE0000E94EF052091920730919307409194074D
:101CF000509195076091960770919707809198078A
:101D0000909199070E94B61120918E0730918F070C
:101D100040919007509191070E94B6110E9499122C
:101D2000161617060CF046C089E693E00E9490094B
:101D30000E94270781309105E1F488EB93E00E942F
:101D4000900910939F0700939E07F092A107E092DD
:101D5000A007D092A307C092A207B092A507A092B5
:101D6000A4079092A7078092A60723E0622E712C09
:101D700024C0892BD1F78DEC93E00E9490098881D3
:101D800099811093AB070093AA07F092AD07E092F8
:101D9000AC07D092AF07C092AE07B092B107A09245
:101DA000B0079092B3078092B2079093B5078093E3
:101DB000B407DBCF92E0692E712C82EE93E00E9493
:101DC00090098A819B810E94D702BC0189E099E039
:101DD0000E94F804229682E06816710409F480CF0C
:101DE0008BE194E00E94900980E494E00E949009C5
:101DF00068ED7FEF89E099E00E94F80486EAE82E1A
:101E000087E0F82E8091B6079091B707019709F007
:101E100048C1C091B407D091B507CE010E94D70246
:101E2000BC0189E099E00E94F804CE010E94D7022B
:101E30000E949E0980E994E00E9490090E94A805F2
:101E400068EE73E080E090E00E94130C0E942A0389
:101E500068EE73E080E090E00E94130C0E94800521
:101E600068EE73E080E090E00E94130C0E942A0369
:101E700068EE73E080E090E00E94130C0E94800501
:101E80000E94A80568EE73E080E090E00E94130CC9
:101E90008EED94E00E949009CAEAD7E00991199169
:101EA000C8010E94D702BC018FEE98E00E94F8049E
:101EB000C8010E94D7020E949E098CE195E00E9411
:101EC00090090E94CB0581E695E00E94900997E079
:101ED000C23BD90719F7C091B207D091B307CE0121
:101EE0000E94D702BC018FEE98E00E94F804CE0158
:101EF0000E94D7020E949E090E94A80568EE73E026
:101F000080E090E00E94130C0E94800568EE73E070
:101F100080E090E00E94130C0E942A030E9480053A
:101F200068EE73E080E090E00E94130C0E942A03A8
:101F30000E94A80568EE73E080E090E00E94130C18
:101F40008091B2079091B3079093B5078093B4073F
:101F500088E995E00E9490090E9407038091A807F4
:101F60009091A907019709F09CC0C091B407D09146
:101F7000B507CE010E94D702BC0189E099E00E941A
:101F8000F804CE010E94D7020E949E098AED95E0D6
:101F90000E9490090E94A80568EE73E080E090E03E
:101FA0000E94130C0E942A0368EE73E080E090E028
:101FB0000E94130C0E94800568EE73E080E090E0C0
:101FC0000E94130C0E942A0368EE73E080E090E008
:101FD0000E94130C0E9480050E94A80568EE73E021
:101FE00080E090E00E94130C88E296E00E94900945
:101FF000CEE9D7E009911991C8010E94D702BC012E
:102000008FEE98E00E94F804C8010E94D7020E9457
:102010009E098CE195E00E9490090E94CB0581E623
:1020200095E00E949009EC16FD0621F7C091A607E5
:10203000D091A707CE010E94D702BC018FEE98E095
:102040000E94F804CE010E94D7020E949E090E94BD
:10205000A80568EE73E080E090E00E94130C0E94F7
:10206000800568EE73E080E090E00E94130C0E940F
:102070002A030E94800568EE73E080E090E00E94F1
:10208000130C0E942A030E94A80568EE73E080E00A
:1020900090E00E94130C86E696E00E9490090E9450
:1020A000070388EA96E00E94900960ED77E080E0FF
:1020B00090E00E94130C0E949E02A4CE823061F434
:1020C00010929000809391001092950010929400CD
:1020D00088BB80937100D7CD833069F41092A00043
:1020E00082E08093A1001092A5001092A40089BB09
:1020F00080937200C8CD8111C6CD1092200182E07C
:102100008093210110922501109224018ABB8093B3
:102110007300B9CD0F931F931092BF071092BE07A3
:1021200088EE93E0A0E0B0E08093C0079093C107F1
:10213000A093C207B093C30784E092E09093BD07D9
:102140008093BC0785EC90E09093C9078093C80703
:1021500084EC90E09093CB078093CA0780EC90E0EA
:102160009093CD078093CC0781EC90E09093CF07BC
:102170008093CE0782EC90E09093D1078093D007B4
:1021800086EC90E09093D3078093D2071092D50706
:102190001092D6071092D7071092D80705E010E0EA
:1021A00024E030E043E050E062E070E083E299E058
:1021B0000E94BA0B0BE010E02AE030E049E050E06A
:1021C00068E070E089E099E00E94BA0B0FE110E04E
:1021D0002DE130E04BE150E069E170E08FEE98E0F6
:1021E0000E94BA0B8091E9088033A0F491E0980F27
:1021F0009093E9088093EC0890E0FC01EE0FFF1F3C
:102200008E0F9F1FFC01E75AF74F88EB9BE09283EC
:10221000818303C08FEF8093EC0888E090E0909377
:10222000EB088093EA081F910F910895052E97FB04
:102230001EF400940E942D1157FD07D00E944811F2
:1022400007FC03D04EF40C942D1150954095309519
:1022500021953F4F4F4F5F4F089590958095709512
:1022600061957F4F8F4F9F4F08950E946A11A59FE0
:10227000900DB49F900DA49F800D911D1124089581
:10228000B7FF0C9435110E943511821B930B0895F2
:10229000A1E21A2EAA1BBB1BFD010DC0AA1FBB1F6A
:1022A000EE1FFF1FA217B307E407F50720F0A21BDC
:1022B000B30BE40BF50B661F771F881F991F1A9449
:1022C00069F760957095809590959B01AC01BD0173
:1022D000CF010895A29FB001B39FC001A39F700DCD
:1022E000811D1124911DB29F700D811D1124911D1E
:1022F0000895991B79E004C0991F961708F0961B62
:10230000881F7A95C9F78095089597FB072E16F4D4
:10231000009407D077FD09D00E94A11107FC05D0D9
:102320003EF4909581959F4F0895709561957F4FEC
:102330000895EE0FFF1F881F8BBF0790F691E02DC9
:102340001994AA1BBB1B51E107C0AA1FBB1FA617EC
:10235000B70710F0A61BB70B881F991F5A95A9F74E
:1023600080959095BC01CD0108955058BB27AA27B0
:102370000E94CD110C9447130E94391338F00E942B
:10238000401320F039F49F3F19F426F40C943613CF
:102390000EF4E095E7FB0C943013E92F0E945813DC
:1023A00058F3BA17620773078407950720F079F48A
:1023B000A6F50C947A130EF4E0950B2EBA2FA02DEF
:1023C0000B01B90190010C01CA01A0011124FF27E2
:1023D000591B99F0593F50F4503E68F11A16F040DD
:1023E000A22F232F342F4427585FF3CF46953795DC
:1023F0002795A795F0405395C9F77EF41F16BA0BA1
:10240000620B730B840BBAF09150A1F0FF0FBB1F4E
:10241000661F771F881FC2F70EC0BA0F621F731F97
:10242000841F48F4879577956795B795F7959E3FF4
:1024300008F0B0CF9395880F08F09927EE0F979585
:10244000879508950E940C1308F481E008950E9476
:102450003B120C9447130E94401358F00E9439130A
:1024600040F029F45F3F29F00C94301351110C9483
:102470007B130C9436130E94581368F39923B1F31D
:10248000552391F3951B550BBB27AA27621773079A
:10249000840738F09F5F5F4F220F331F441FAA1F2E
:1024A000A9F335D00E2E3AF0E0E832D091505040EA
:1024B000E695001CCAF72BD0FE2F29D0660F771F98
:1024C000881FBB1F261737074807AB07B0E809F07E
:1024D000BB0B802DBF01FF2793585F4F3AF09E3F03
:1024E000510578F00C9430130C947B135F3FE4F3A8
:1024F000983ED4F3869577956795B795F7959F5F46
:10250000C9F7880F911D9695879597F90895E1E091
:10251000660F771F881FBB1F621773078407BA07F0
:1025200020F0621B730B840BBA0BEE1F88F7E0954B
:1025300008950E94A0126894B1110C947B13089521
:102540000E94601388F09F5798F0B92F9927B751D0
:10255000B0F0E1F0660F771F881F991F1AF0BA9547
:10256000C9F714C0B13091F00E947A13B1E0089518
:102570000C947A13672F782F8827B85F39F0B93F0A
:10258000CCF3869577956795B395D9F73EF49095FA
:102590008095709561957F4F8F4F9F4F0895E89478
:1025A00009C097FB3EF490958095709561957F4F9B
:1025B0008F4F9F4F9923A9F0F92F96E9BB27939549
:1025C000F695879577956795B795F111F8CFFAF459
:1025D000BB0F11F460FF1BC06F5F7F4F8F4F9F4F8A
:1025E00016C0882311F096E911C0772321F09EE8E8
:1025F000872F762F05C0662371F096E8862F70E04E
:1026000060E02AF09A95660F771F881FDAF7880F27
:102610009695879597F90895990F0008550FAA0B7D
:10262000E0E8FEEF16161706E807F907C0F01216E5
:102630001306E407F50798F0621B730B840B950BE8
:1026400039F40A2661F0232B242B252B21F408953D
:102650000A2609F4A140A6958FEF811D811D0895DA
:1026600097F99F6780E870E060E008959FEF80EC45
:10267000089500240A9416161706180609060895E8
:1026800000240A9412161306140605060895092E4E
:102690000394000C11F4882352F0BB0F40F4BF2BBD
:1026A00011F460FF04C06F5F7F4F8F4F9F4F0895FD
:1026B00057FD9058440F551F59F05F3F71F04795F3
:1026C000880F97FB991F61F09F3F79F087950895D8
:1026D000121613061406551FF2CF4695F1DF08C0F7
:1026E000161617061806991FF1CF86957105610514
:1026F00008940895E894BB2766277727CB0197F9BC
:1027000008950E940C1308F48FEF08950E94991306
:102710000C9447130E94391338F00E94401320F0A4
:10272000952311F00C9430130C94361311240C944F
:102730007B130E94581370F3959FC1F3950F50E0DF
:10274000551F629FF001729FBB27F00DB11D639F63
:10275000AA27F00DB11DAA1F649F6627B00DA11D09
:10276000661F829F2227B00DA11D621F739FB00DAF
:10277000A11D621F839FA00D611D221F749F33271F
:10278000A00D611D231F849F600D211D822F762FB8
:102790006A2F11249F5750409AF0F1F088234AF095
:1027A000EE0FFF1FBB1F661F771F881F9150504001
:1027B000A9F79E3F510580F00C9430130C947B13C5
:1027C0005F3FE4F3983ED4F3869577956795B79588
:1027D000F795E7959F5FC1F7FE2B880F911D9695A2
:1027E000879597F908950E940C13880B990B08950B
:0E27F00081E090E0F8940C94FD13F894FFCF74
:1027FE00000000002F029801C6017C02F701D501EE
:10280E00E901000008001000190021002900320023
:10281E003A0042004B0053005B0064006C007400F1
:10282E007D0085008E0096009E00A600AF00B700CA
:10283E00BF00437269746963616C206572726F7256
:10284E0020446961626F6C6F2073746174652055EA
:10285E006E6B6E6F776E006572726F72006572725C
:10286E006F722067616D65207374617465206E6987
:10287E006574206765766F6E64656E20656E642084
:10288E006B616E206E696574207377697463686519
:10289E006E0031652073656E736F722077616172A1
:1028AE0064653A0032652073656E736F72207761CE
:1028BE00617264653A0033652073656E736F7220C2
:1028CE007761617264653A00646520756974656943
:1028DE006E64656C696A6B2061667374616E6420E8
:1028EE00746F742064652067726F6E642069732044
:1028FE006F7020766F6C676F72646520312C322C8E
:10290E00332069733A0068696A20697320776565B8
:10291E007220746572756720696E20646520636528
:10292E006E746572206E616461742068696A2068D5
:10293E00656566742067657363616E6E65640065B8
:10294E0072726F7220646961626F6C20682F6C20E6
:10295E006F6E62656B656E740068696A2068656586
:10296E0066742064652065657273746520446961C0
:10297E00626F6C206765766F6E64656E206761208E
:10298E006E752062657061616C656E206F66206881
:10299E00696A20737461616E206F66206C69676767
:1029AE00656E64206973200064652031652064695A
:1029BE0061626F6C20697320486F6F6700646520D9
:1029CE00316520646961626F6C206973204C6161AE
:1029DE00670068696A206865656674206E696B7346
:1029EE00206765766F6E64656E20696E2064652063
:1029FE0076616B2067616174206E6161722064651F
:102A0E0020766F6C67656E6465200068696A206762
:102A1E00616174206E75207A6F656B656E206E61D4
:102A2E00617220646520326520646961626F6C009A
:102A3E0068696A20686565667420626569646520E8
:102A4E00646961626F6C656E206765766F6E646532
:102A5E006E20656E206765696E6469636565726474
:102A6E002077656C6B65206B616E742068696A20D7
:102A7E006F70206D6F6574206472616169656E00A0
:102A8E00696B2068616E67206E7520626F76656E69
:102A9E00206465206C696767656E64652064696192
:102AAE00626F6C20696B206761206E7520626567AE
:102ABE00696E6E656E206D6574206D696A6E206735
:102ACE00616D652073747261746567696500696B09
:102ADE0020686562204C20646961626F6C20696EAB
:102AEE00206D696A6E2068616E64656E20656E2069
:102AFE0062656E20776565722074657275672069F0
:102B0E006E206D696A6E206861727400696B206751
:102B1E0061206E7520626567696E6E656E206D65EB
:102B2E00742065656E2070756E74207465207665F0
:102B3E00727A616D656C656E20766F6F722064655A
:102B4E00206C696767656E646520646961626F6C8D
:102B5E0000696B20686562206E65742065656E2065
:102B6E0070756E74207665727A616D656C74207600
:102B7E0065646572206E61617220646520766F6C8B
:102B8E0067656E6465202100696B2062656E206B3F
:102B9E006C616172206D65742070756E746A6573F8
:102BAE00207665727A616D656C656E20796179202B
:102BBE0021206E75206F70206E6161722064652019
:102BCE004820646961626F6C2100696B2068616ED8
:102BDE0067206E7520626F76656E20646520737453
:102BEE0061616E64652020646961626F6C20696B3F
:102BFE00206761206E7520626567696E6E656E2056
:102C0E006D6574206D696A6E2067616D65207374E1
:102C1E007261746567696500696B2068656220483A
:102C2E0020646961626F6C20696E206D696A6E2026
:102C3E0068616E64656E20656E2062656E207765D4
:102C4E00657220746572756720696E206D696A6E93
:102C5E00206861727400696B2062656E206B6C6116
:102C6E006172206D65742070756E746A657320765E
:102C7E0065727A616D656C656E20796179202120AF
:102C8E006E75206F70206E616172206465204C201D
:102C9E00646961626F6C2100696B20686562203423
:102CAE002070756E74656E207665727A616D656CD6
:102CBE0064206E61617220646520766F6C67656E4C
:102CCE00646520746F6520000D0A006E616E0069E8
:082CDE006E66006F76660000CF
:00000001FF
