:100000000C9458010C9489010C9489010C94890179
:100010000C9489010C9489010C9489010C94890138
:100020000C9489010C9489010C9489010C94890128
:100030000C9489010C9489010C9489010C94890118
:100040000C9489010C9405090C9489010C94890184
:100050000C9489010C9489010C9489010C94D107AA
:100060000C9489010C9445080C941B080C9489018C
:100070000C9489010C9489010C9489010C948901D8
:100080000C94D7080C9489010C9489010C94890173
:100090000C9489010C9489010C9489010C948901B8
:1000A0000C9489010C9489010C94A9080C94890181
:1000B0000C9489010C9489010C9489010C947B089F
:1000C0000C9489010C9489010C9489010C94890188
:1000D0000C9489010C9489010C9489010C94890178
:1000E0000C948901BA01BD01AC01B001B401F40165
:1000F000C101C501CB01CF01D301D901DD01E1016E
:10010000F401E701EB01EF0128062E06380646064A
:1001100048064E065806660678067A060C94F401E0
:100120000C9403030C9438060C943B030C94BA0112
:100130000C94B4010C94D2020C947A060C944606EA
:100140000C9478060C94CB010C94E1020C942E06CE
:100150000C9488030C94E1010C94DD010C94AC0127
:100160000C94B0010C94E7010C94D3010C94480654
:100170000C94CF010C94BD010C9433090C94C10173
:100180000C94EF010C944E060C94EB010C94280691
:100190000C9466060C94F5020C94C5010C94580658
:1001A0000C94A4020C94D901000021002400270023
:1001B0002A002D0030003300010100000401070176
:1001C0000A0100002200250028002B002E0031002B
:1001D000340002010000050108010B0105050505B9
:1001E000070508080808020202020A0A08080404AF
:1001F00004040101010101010101030303030303DD
:100200000303040707070C0C0C0C0C0C0C0C02026B
:10021000020206060606060606060B0B0B0B0B0B68
:100220000B0B0102102020080810204010204080F5
:1002300002010201080402010102040810204080AA
:100240008040201008040201800402018040201038
:100250000804020108040201010204081020408081
:10026000010204081020408000000A0B02090C0D56
:100270000E08070304010000000000000000000059
:10028000000000000000000000000000000000006E
:10029000000000001211100000000000000000002B
:1002A0000000000000000000000000000000330912
:1002B00011241FBECFEFD1E2DEBFCDBF00E00CBFE7
:1002C00013E0A0E0B2E0E6E2FAE100E00BBF02C01A
:1002D00007900D92AA34B107D9F724E0AAE4B3E05D
:1002E00001C01D92A73CB207E1F711E0C8E5D1E0DB
:1002F00000E006C021970109802FFE010E94F00C4A
:10030000C735D10780E00807A9F70E94460A0C9478
:10031000110D0C940000362F90E0FC01E859FD4FC0
:100320004491FC01EE5DFD4F2491FC01E452FE4F2F
:100330009491992309F46CC0442309F455C050E00A
:10034000FA013197E231F10508F04EC08827EE58E6
:10035000FF4F8F4F0C94F00C809180008F7707C077
:10036000809180008F7D03C080918000877F809383
:1003700080003AC084B58F7702C084B58F7D84BD7C
:1003800033C08091B0008F7703C08091B0008F7D23
:100390008093B00029C0809190008F7707C0809132
:1003A00090008F7D03C080919000877F80939000A4
:1003B0001BC08091A0008F7707C08091A0008F7D27
:1003C00003C08091A000877F8093A0000DC0809122
:1003D00020018F7707C0809120018F7D03C080911D
:1003E0002001877F80932001E92FF0E0EE0FFF1FAF
:1003F000EE53FE4FA591B4919FB7F894311104C00C
:100400008C912095282302C0EC912E2B2C939FBF1A
:100410000895CF93DF9390E0FC01EE5DFD4F2491B2
:10042000FC01E452FE4F8491882361F190E0880F33
:10043000991FFC01E855FE4FC591D491FC01EE5384
:10044000FE4FA591B491611109C09FB7F8948881BE
:10045000209582238883EC912E230BC0623061F4B7
:100460009FB7F8948881322F309583238883EC914D
:100470002E2B2C939FBF06C08FB7F894E8812E2BAC
:1004800028838FBFDF91CF9108953FB7F894809173
:100490005B0390915C03A0915D03B0915E0326B570
:1004A000A89B05C02F3F19F00196A11DB11D3FBFAC
:1004B000BA2FA92F982F8827820F911DA11DB11D3A
:1004C000BC01CD0142E0660F771F881F991F4A9536
:1004D000D1F708958F929F92AF92BF92CF92DF9201
:1004E000EF92FF926B017C010E9445024B015C017F
:1004F000C114D104E104F104F1F00E944502DC01D1
:10050000CB0188199909AA09BB09883E9340A10526
:10051000B10570F321E0C21AD108E108F10888EEB4
:10052000880E83E0981EA11CB11CC114D104E10403
:10053000F10419F7DDCFFF90EF90DF90CF90BF90DF
:10054000AF909F908F900895CF92DF92EF92FF929D
:100550000F931F93CF93DF936C017A018B01C0E05F
:10056000D0E0CE15DF0581F0D8016D918D01D60167
:10057000ED91FC910190F081E02DC6011995892B38
:1005800011F02196EECF7E01C701DF91CF911F912F
:100590000F91FF90EF90DF90CF900895089580E045
:1005A00090E00895FC01538D448D252F30E0842F79
:1005B00090E0821B930B541710F0CF96089501978B
:1005C0000895FC01918D828D981761F0828DDF0175
:1005D000A80FB11D5D968C91928D9F5F9F73928F36
:1005E00090E008958FEF9FEF0895FC01918D828D2B
:1005F000981731F0828DE80FF11D858D90E00895F8
:100600008FEF9FEF0895FC01918D228D892F90E04F
:10061000805C9F4F821B91098F73992708958FE506
:1006200093E00E94030321E0892B09F420E0822F4C
:100630000895FC01848DDF01A80FB11DA35ABF4F9F
:100640002C91848D90E001968F739927848FA689D1
:10065000B7892C93A089B1898C91837080648C9325
:10066000938D848D981306C00288F389E02D8081D4
:100670008F7D80830895EF92FF920F931F93CF9306
:10068000DF93EC0181E0888F9B8D8C8D981305C0E2
:10069000E889F989808185FD26C0F62E0B8D10E052
:1006A0000F5F1F4F0F731127E02E8C8DE8120CC0C7
:1006B0000FB607FCFACFE889F989808185FFF5CF6D
:1006C000CE010E941903F1CF8B8DFE01E80FF11DC1
:1006D000E35AFF4FF0829FB7F8940B8FEA89FB89AA
:1006E000808180620AC09FB7F894EE89FF89608399
:1006F000E889F98980818370806480839FBF81E06D
:1007000090E0DF91CF911F910F91FF90EF900895AE
:10071000CF93DF93EC01888D8823C9F0EA89FB89A8
:10072000808185FD05C0A889B9898C9186FD0FC09F
:100730000FB607FCF5CF808185FFF2CFA889B98974
:100740008C9185FFEDCFCE010E941903E7CFDF9199
:10075000CF91089580E090E0892B21F00E940F0353
:10076000811125C080E090E0892B41F080E090E08D
:10077000892B21F00E94000081111CC080E090E0D4
:10078000892B41F080E090E0892B21F00E9400004D
:10079000811113C080E090E0892BA1F080E090E00F
:1007A000892B81F00E94000081110AC008950E94E7
:1007B0000000D8CF0E940000E1CF0E940000EACFE5
:1007C0000C9400000895CF92DF92EF92FF92CF93A6
:1007D000DF93EC01603282E078070CF03DC077FDDA
:1007E00006C0653B71052CF064EB70E002C060E070
:1007F00070E0898128E830E06901C81AD10887FDD6
:10080000D394CC0CDD1CCC0CDD1C0D2C000CEE08A4
:10081000FF088A8128E532E0281B310987FD3395DE
:10082000220F331F220F331FC901330FAA0BBB0B3B
:100830009C01AD012C193D094E095F09DB010E94A5
:10084000970C24EB30E040E050E00E946D0CC20EAB
:10085000D31EE41EF51EB6013881303380F52981A0
:1008600088E890E0821B910927FD9395880F991FD6
:10087000880F991F6817790784F08A8148E552E04C
:10088000481B510987FD5395440F551F440F551FB1
:10089000CB01461757070CF4CA010297880F991F1E
:1008A0004FB7F894232F30E0F901EE0FFF1F2E0F02
:1008B0003F1FF901E450FC4F928381834FBFDF91CA
:1008C000CF91FF90EF90DF90CF9008951F93CF933B
:1008D000DF93EC01162F8881803308F04EC061E071
:1008E000812F0E9409028881E82FF0E09F01220FEA
:1008F000331FE20FF31FE450FC4F1F739081907C75
:10090000192B108319821A826CE00E94D00C9CE093
:10091000899FB001112440E050E09B01240F351F56
:10092000F901EE0FFF1F2E0F3F1FF901E450FC4F9E
:10093000908196FD16C04F5F5F4F4C30510569F7AF
:10094000813001F51092800082E080938100109246
:10095000850010928400B19A80916F00826080932C
:100960006F00E881F0E0CF01880F991FE80FF91FB1
:10097000E450FC4F8081806480838881DF91CF9137
:100980001F910895823061F410929000809391003D
:10099000109295001092940088BB80937100E1CF73
:1009A000833069F41092A00082E08093A10010923D
:1009B000A5001092A40089BB80937200D2CF811150
:1009C000D0CF1092200182E0809321011092250166
:1009D000109224018ABB80937300C3CFCF92DF9221
:1009E000EF92FF920F931F93CF93DF936C018B01D4
:1009F0007A01EC01C45BDC4F888187FF04C0FB01F6
:100A00001182108224C02CE02C9DC0012D9D900DE0
:100A100011242881AC01420F511D27FD5A952091C8
:100A20008C0430E04217530794F42881AC01420F44
:100A3000511D27FD5A959A01FA01EE0FFF1F2E0F47
:100A40003F1FF901E450FC4F208126FD19C0888129
:100A50008F5F88832CE02C9DC0012D9D900D11246B
:100A60002881AC01420F511D27FD5A9520918C041D
:100A700030E042175307BCF428812C3044F113C0F6
:100A80002881820F911D27FD9A95FC01EE0FFF1F13
:100A90008E0F9F1FFC01E450FC4F808160E08F733C
:100AA0000E948B01D4CFF80180819181049680341B
:100AB0009C4918F480E49CE904C0F801808191818C
:100AC0000496F701918380838FEF888345C0F801F6
:100AD000408151812881BC01620F711D27FD7A95EB
:100AE0009B01FB01EE0FFF1F2E0F3F1FF901E4508A
:100AF000FC4F21813281240F351FF7013183208380
:100B00002881AC01420F511D27FD5A959A01FA0127
:100B1000EE0FFF1F2E0F3F1FF901E450FC4F208105
:100B200026FF1AC02881820F911D27FD9A95FC018E
:100B3000EE0FFF1F8E0F9F1FFC01E450FC4F8081C2
:100B400061E08F73DF91CF911F910F91FF90EF9034
:100B5000DF90CF900C948B01DF91CF911F910F917B
:100B6000FF90EF90DF90CF9008950F931F93CF9356
:100B7000DF93EC018B01888599850297F1F4613050
:100B8000710569F024F4672BC1F460E009C062309C
:100B9000710559F06330710581F460E007C061E0D0
:100BA0008C850E948B0161E005C061E08C850E940C
:100BB0008B0160E08E850E948B0188859985049762
:100BC000B9F501301105B1F04CF40115110581F5AD
:100BD00061E08C850E948B0160E011C0023011053C
:100BE000B9F00330110521F561E08C850E948B017D
:100BF00060E013C060E08C850E948B0161E08E850F
:100C00000E948B0161E088890E948B0160E00DC029
:100C100060E08C850E948B0161E08E850E948B01D3
:100C200060E088890E948B0161E08A890E948B01C3
:100C300088859985059709F075C00A30110508F077
:100C400071C0F8018827EC57FF4F8F4F0C94F00CC0
:100C500060E08C850E948B0161E051C060E08C8572
:100C60000E948B0161E08E850E948B0160E04BC089
:100C700060E08C850E948B0161E08E850E948B0173
:100C800060E088890E948B0161E041C060E001C0A2
:100C900061E08C850E948B0161E005C061E08C857C
:100CA0000E948B0160E08E850E948B0160E009C08C
:100CB00061E08C850E948B0160E08E850E948B0133
:100CC00061E088890E948B0161E00DC061E08C8544
:100CD0000E948B0160E08E850E948B0161E0888913
:100CE0000E948B0160E08A890E948B0160E013C042
:100CF00061E001C060E08C850E948B0160E08E8520
:100D00000E948B0161E088890E948B0160E08A89E2
:100D10000E948B0161E08C89DF91CF911F910F912F
:100D20000C948B01DF91CF911F910F9108954F92F9
:100D30005F926F927F928F929F92AF92BF92CF926B
:100D4000DF92EF92FF920F931F93CF93DF93EC010B
:100D50008B0177FF04C000271127061B170B1616FF
:100D600017062CF481E090E09983888304C0672BF8
:100D700011F01982188284E0E82EF12C9AE0C92E35
:100D8000D12C0115110509F449C00E9445028E8835
:100D90009F88A88CB98C2B013C01481859086A0817
:100DA0007B088A809B80AC80BD80481459046A040B
:100DB0007B0438F36E8B7F8B888F998F28813981E4
:100DC0008A859B852130310559F401969B878A8756
:100DD0002E813F818217930771F41B861A860BC000
:100DE000892B21F48E819F819B878A878A859B85A9
:100DF00001979B878A8701501109288539858A8543
:100E00009B852530310511F4B60101C0B7010E9460
:100E1000DC0CBC01CE010E94B505B3CFDF91CF91B0
:100E20001F910F91FF90EF90DF90CF90BF90AF9008
:100E30009F908F907F906F905F904F9008958091DA
:100E40004A0390914B03892B69F460E570E083E9D4
:100E500094E00E94970681E090E090934B0380938A
:100E60004A03089560EB7FEF83E994E00E949706C0
:100E700010924B0310924A030895CF93DF9300978B
:100E800079F0FC0101900020E9F73197AF01481B90
:100E9000590BBC018FE593E00E94A402EC0102C053
:100EA000C0E0D0E042E050E062E172E08FE593E024
:100EB0000E94A4028C0F9D1FDF91CF910895809115
:100EC000520390915303892B89F464EB70E080E91D
:100ED00094E00E94E30385E192E00E943D0781E0F7
:100EE00090E0909353038093520308956BE470E075
:100EF00080E994E00E94E3038DE292E00E943D07C6
:100F000010925303109252030895CF93DF93C09130
:100F10005403D09155038091500390915103C130F7
:100F2000D105E1F4892B69F469E670E08DE894E07D
:100F30000E94E303D0935103C093500386E492E0F0
:100F40002AC064EB70E08DE894E00E94E303109205
:100F500051031092500381E892E01DC0892B79F46F
:100F600062E370E08DE894E00E94E30381E090E0AA
:100F700090935103809350038AEB92E00CC064EB92
:100F800070E08DE894E00E94E30310925103109208
:100F9000500384EF92E0DF91CF910C943D070E94C3
:100FA0000C0D1F920F920FB60F9211242F933F93A7
:100FB0008F939F93AF93BF93809157039091580362
:100FC000A0915903B0915A033091560323E0230FA7
:100FD0002D3720F40196A11DB11D05C026E8230F71
:100FE0000296A11DB11D2093560380935703909341
:100FF0005803A0935903B0935A0380915B039091D7
:101000005C03A0915D03B0915E030196A11DB11D2B
:1010100080935B0390935C03A0935D03B0935E03A6
:10102000BF91AF919F918F913F912F910F900FBEE4
:101030000F901F9018951F920F920FB60F921124C8
:101040000BB60F922F933F934F935F936F937F93C2
:101050008F939F93AF93BF93EF93FF938FE593E0AD
:101060000E941903FF91EF91BF91AF919F918F91D2
:101070007F916F915F914F913F912F910F900BBE98
:101080000F900FBE0F901F9018951F920F920FB6E2
:101090000F9211240BB60F922F938F939F93EF9380
:1010A000FF93E0916F03F09170038081E0917503ED
:1010B000F091760382FD12C09081809178038F5F5A
:1010C0008F7320917903821751F0E0917803F0E05B
:1010D000E15AFC4F958F8093780301C08081FF9186
:1010E000EF919F918F912F910F900BBE0F900FBE9C
:1010F0000F901F9018951F920F920FB60F92112408
:101100000BB60F922F933F934F935F936F937F9301
:101110008F939F93AF93BF93EF93FF9348E251E078
:1011200064E271E080E090E00E94EE04FF91EF91B4
:10113000BF91AF919F918F917F916F915F914F91EF
:101140003F912F910F900BBE0F900FBE0F901F90ED
:1011500018951F920F920FB60F9211240BB60F9293
:101160002F933F934F935F936F937F938F939F93AF
:10117000AF93BF93EF93FF9348EA50E064EA70E0C7
:1011800083E090E00E94EE04FF91EF91BF91AF9158
:101190009F918F917F916F915F914F913F912F918F
:1011A0000F900BBE0F900FBE0F901F9018951F92BF
:1011B0000F920FB60F9211240BB60F922F933F93FD
:1011C0004F935F936F937F938F939F93AF93BF934F
:1011D000EF93FF9348E950E064E970E082E090E02B
:1011E0000E94EE04FF91EF91BF91AF919F918F917B
:1011F0007F916F915F914F913F912F910F900BBE17
:101200000F900FBE0F901F9018951F920F920FB660
:101210000F9211240BB60F922F933F934F935F932E
:101220006F937F938F939F93AF93BF93EF93FF93AE
:1012300048E850E064E870E081E090E00E94EE044D
:10124000FF91EF91BF91AF919F918F917F916F919E
:101250005F914F913F912F910F900BBE0F900FBE5A
:101260000F901F9018950F931F93CF93DF931092B9
:1012700062031092610388EE93E0A0E0B0E08093F7
:10128000630390936403A0936503B093660384E0C3
:1012900092E09093600380935F0385EC90E09093DD
:1012A0006C0380936B0384EC90E090936E038093C7
:1012B0006D0380EC90E09093700380936F0381EC5A
:1012C00090E0909372038093710382EC90E090938E
:1012D00074038093730386EC90E09093760380937D
:1012E0007503109278031092790310927A0310928A
:1012F0007B031092B8041092B7041092AE041092BF
:10130000AD041092C3041092C4041092C50410924C
:10131000C60408EC10E01093B4040093B3048DE20B
:1013200090E09093BA048093B9048FE290E0909398
:10133000BC048093BB0481E390E09093BE0480934F
:10134000BD0483E390E09093C0048093BF0461E008
:101350008DE20E94090261E08091BB040E940902B3
:1013600061E08091BD040E94090261E08091BF04A8
:101370000E9409021092C2041092C104C4E0D0E09D
:10138000D093B604C093B50410929E0410929D04AD
:1013900010929404109293041092A9041092AA043B
:1013A0001092AB041092AC0410939A040093990429
:1013B00089E190E09093A00480939F048BE190E0FA
:1013C0009093A2048093A1048DE190E09093A404F3
:1013D0008093A3048FE190E09093A6048093A504EA
:1013E00061E089E10E94090261E08091A1040E940C
:1013F000090261E08091A3040E94090261E08091EA
:10140000A5040E9409021092A8041092A704D09388
:101410009C04C0939B0480918C048033A0F491E0E1
:10142000980F90938C048093900490E0FC01EE0F51
:10143000FF1F8E0F9F1FFC01E450FC4F88EB9BE0C9
:101440009283818303C08FEF8093900480918C04FA
:101450008033A0F491E0980F90938C0480938D04D6
:1014600090E0FC01EE0FFF1F8E0F9F1FFC01E45068
:10147000FC4F88EB9BE09283818303C08FEF8093C6
:101480008D04DF91CF911F910F910895789484B5C9
:10149000826084BD84B5816084BD85B5826085BD70
:1014A00085B5816085BD80916E00816080936E00FE
:1014B00010928100809181008260809381008091F0
:1014C00081008160809381008091800081608093A1
:1014D00080008091B10084608093B1008091B00061
:1014E00081608093B0008091910082608093910030
:1014F0008091910081608093910080919000816043
:10150000809390008091A10082608093A1008091DF
:10151000A10081608093A1008091A00081608093F0
:10152000A00080912101826080932101809121019E
:10153000816080932101809120018160809320014E
:1015400080917A00846080937A0080917A00826032
:1015500080937A0080917A00816080937A008091F4
:101560007A00806880937A001092C100E0916F0346
:10157000F091700382E08083E0916B03F0916C0343
:101580001082E0916D03F0916E038FEC80831092D6
:101590007703E0917303F091740386E08083E09118
:1015A0007103F0917203808180618083E091710307
:1015B000F0917203808188608083E0917103F091E3
:1015C0007203808180688083E0917103F0917203DF
:1015D00080818F7D80832091B3043091B404032EE9
:1015E000000C440B550BC12C87E8D82E83E9E82E5C
:1015F00083E0F82EC701B6010E946D0CCA01B90143
:1016000025E030E040E050E00E946D0C2093AF04F4
:101610003093B0044093B1045093B20420919904E4
:1016200030919A04032E000C440B550BC701B601F0
:101630000E946D0CCA01B9012CE330E040E050E09B
:101640000E946D0C20939504309396044093970468
:101650005093980461E089E20E94090260E088E208
:101660000E94090261E084E20E94090260E085E2D2
:101670000E94090261E087E20E94090260E086E2BE
:101680000E94090263E070E080E994E00E94660431
:1016900064E070E08DE894E00E9466048CE293E0E0
:1016A0000E943D0766E970E080E994E00E94E30350
:1016B00081E090E090935303809352031092510382
:1016C00010925003909355038093540368E873E19C
:1016D00080E090E00E946A0263E070E08DEA94E0AE
:1016E0000E9497060E941F0768EE73E080E090E07A
:1016F0000E946A020E941F0761E170E08DEA94E097
:101700000E9497060E941F0768EE73E080E090E059
:101710000E946A020E941F0765E070E08DEA94E073
:101720000E94970660ED77E080E090E00E946A02F8
:101730000E94850768EE73E080E090E00E946A02F4
:101740000E945F0768EE73E080E090E00E946A020A
:101750000E94850768EE73E080E090E00E946A02D4
:1017600060E170E08DEA94E00E94970660ED77E01A
:1017700080E090E00E946A020E94850768EE73E0B4
:1017800080E090E00E946A020E945F0768EE73E0CA
:1017900080E090E00E946A020E945F0768EE73E0BA
:1017A00080E090E00E946A020E94850768EE73E084
:1017B00080E090E00E946A0260E170E08DEA94E0CF
:1017C0000E94970660ED77E080E090E00E946A0258
:1017D0000E94850768EE73E080E090E00E946A0254
:1017E0000E945F0768EE73E080E090E00E946A026A
:1017F0000E94850768EE73E080E090E00E946A0234
:1018000010925503109254036FEC7FEF8DEA94E031
:101810000E94970660ED77E080E090E00E946A0207
:101820000E94850768EE73E080E090E00E946A0203
:101830000E945F0768EE73E080E090E00E946A0219
:101840000E9485076EEC7FEF8DEA94E00E94970678
:1018500060ED77E080E090E00E946A020E948507D8
:1018600068EE73E080E090E00E946A020E945F07E9
:1018700068EE73E080E090E00E946A020E945F07D9
:1018800068EE73E080E090E00E946A020E948507A3
:1018900068EE73E080E090E00E946A026CEE7FEFF9
:1018A0008DEA94E00E94970660ED77E080E090E09A
:1018B0000E946A020E94850768EE73E080E090E073
:1018C0000E946A020E945F0768EE73E080E090E089
:1018D0000E946A020E94AA03F9CE052E97FB1EF40D
:1018E00000940E94840C57FD07D00E949F0C07FCB7
:1018F00003D04EF40C94840C50954095309521956E
:101900003F4F4F4F5F4F089590958095709561952B
:101910007F4F8F4F9F4F08950E94C10CA59F900D40
:10192000B49F900DA49F800D911D11240895B7FFC1
:101930000C948C0C0E948C0C821B930B0895A1E2DA
:101940001A2EAA1BBB1BFD010DC0AA1FBB1FEE1F39
:10195000FF1FA217B307E407F50720F0A21BB30B84
:10196000E40BF50B661F771F881F991F1A9469F700
:1019700060957095809590959B01AC01BD01CF015C
:101980000895A29FB001B39FC001A39F700D811D58
:101990001124911DB29F700D811D1124911D089578
:1019A000991B79E004C0991F961708F0961B881FB1
:1019B0007A95C9F78095089597FB072E16F4009441
:1019C00007D077FD09D00E94F80C07FC05D03EF443
:1019D000909581959F4F0895709561957F4F0895DB
:1019E000EE0FFF1F881F8BBF0790F691E02D199413
:1019F000AA1BBB1B51E107C0AA1FBB1FA617B70735
:101A000010F0A61BB70B881F991F5A95A9F7809550
:101A10009095BC01CD01089581E090E0F8940C947C
:061A2000110DF894FFCF48
:101A2600000000003B03A402D20288030303E10284
:101A3600F5020D0A006D696A6E206772697070653D
:101A460072206973206E75206F70656E006D696A0D
:101A56006E2067726970706572206973206E7520DA
:101A66006469636874006D696A6E206B6F70737465
:101A7600756B2067616174206E75206E61617220DE
:101A860062656E6564656E20746F6520766F6F7231
:101A960020646520686F6F676520646961626F6C9A
:101AA600006D696A6E206B6F707374756B20676169
:101AB6006174206E75206E61617220626F76656E4C
:101AC60020746F6520766F6F7220646520686F6F73
:101AD600676520646961626F6C006D696A6E206B70
:101AE6006F707374756B2067616174206E75206EFC
:101AF6006161722062656E6564656E20746F652033
:101B0600766F6F72206465206C6167652064696119
:101B1600626F6C006D696A6E206B6F707374756BA3
:101B26002067616174206E75206E61617220626F3C
:101B360076656E20746F6520766F6F7220646520FF
:101B46006C61676520646961626F6C00696B207AFD
:101B56006574206E75206D696A6E206772696A7099
:0A1B66006572206469636874200052
:00000001FF
