:100000000C9465010C9496010C9496010C94960145
:100010000C9496010C9496010C9496010C94960104
:100020000C9496010C9496010C9496010C949601F4
:100030000C9496010C9496010C9496010C949601E4
:100040000C9496010C94C0080C9496010C949601A3
:100050000C9496010C9496010C9496010C94410C0E
:100060000C9496010C9400080C94D6070C949601FD
:100070000C9496010C9496010C9496010C949601A4
:100080000C9492080C9496010C9496010C94960191
:100090000C9496010C9496010C9496010C94960184
:1000A0000C9496010C9496010C9464080C9496019F
:1000B0000C9496010C9496010C9496010C943608BD
:1000C0000C9496010C9496010C9496010C94960154
:1000D0000C9496010C9496010C9496010C94960144
:1000E0000C9496017D0483048D049B049D04A30459
:1000F000AD04BB04CD04CF04230B260B150B190B49
:100100001D0B5D0B2A0B2E0B340B380B3C0B420BDB
:10011000460B4A0B5D0B500B540B580B0C945D0BAC
:100120000C944A0B0C94460B0C947C020C949B048C
:100130000C947D040C94540B0C94BB040C94AD04EF
:100140000C942E0B0C94E9010C94A3040C94150B45
:100150000C94500B0C94CD040C94380B0C9486101A
:100160000C94CF040C94580B0C942F020C949D0407
:100170000C94260B0C9483040C94D5010C942A0B3C
:100180000C941D0B0C94190B0C94230B0C948D04E4
:100190000C94340B0C9498010C94C6010C943C0BF9
:1001A0000C94F7010C94420B00002100240027005E
:1001B0002A002D0030003300010100000401070176
:1001C0000A0100002200250028002B002E0031002B
:1001D000340002010000050108010B0100000A0BB8
:1001E00002090C0D0E0807030401000000000000C6
:1001F00000000000000000000000000000000000FF
:1002000000000000000000001211100000000000BB
:1002100000000000000000000000000000000000DE
:100220000000000020002300260029002C002F00E1
:100230003200000100000301060109010505050562
:10024000070508080808020202020A0A080804044E
:10025000040401010101010101010303030303037C
:100260000303040707070C0C0C0C0C0C0C0C02020B
:10027000020206060606060606060B0B0B0B0B0B08
:100280000B0B010210202008081020401020408095
:10029000020102010804020101020408102040804A
:1002A00080402010080402018004020180402010D8
:1002B0000804020108040201010204081020408021
:1002C0000102040810204080861011241FBECFEFC9
:1002D000D1E2DEBFCDBF00E00CBF16E0A0E0B2E08F
:1002E000E6EFF7E200E00BBF02C007900D92A63EDA
:1002F000B107D9F729E0A6EEB6E001C01D92A234FD
:10030000B207E1F711E0C5E6D1E000E006C02197B1
:100310000109802FFE010E949511C436D10780E0AB
:100320000807A9F70E94D00C0C94F9130C94000054
:10033000CF92DF92EF92FF920F931F93CF93DF93B1
:100340006C017A018B01C0E0D0E0CE15DF0581F0B1
:10035000D8016D918D01D601ED91FC910190F08154
:10036000E02DC6011995892B11F02196EECF7E0163
:10037000C701DF91CF911F910F91FF90EF90DF9018
:10038000CF900895089580E090E00895FC01538D8A
:10039000448D252F30E0842F90E0821B930B54175F
:1003A00010F0CF96089501970895FC01918D828DEC
:1003B000981761F0828DDF01A80FB11D5D968C91B9
:1003C000928D9F5F9F73928F90E008958FEF9FEFC4
:1003D0000895FC01918D828D981731F0828DE80F80
:1003E000F11D858D90E008958FEF9FEF0895FC013A
:1003F000918D228D892F90E0805C9F4F821B910907
:100400008F739927089588EB97E00E94F70121E008
:10041000892B09F420E0822F0895FC01848DDF01EF
:10042000A80FB11DA35ABF4F2C91848D90E0019667
:100430008F739927848FA689B7892C93A089B18956
:100440008C91837080648C93938D848D981306C0F7
:100450000288F389E02D80818F7D80830895EF925B
:10046000FF920F931F93CF93DF93EC0181E0888F6E
:100470009B8D8C8D981305C0E889F989808185FD55
:1004800026C0F62E0B8D10E00F5F1F4F0F73112744
:10049000E02E8C8DE8120CC00FB607FCFACFE8896D
:1004A000F989808185FFF5CFCE010E940D02F1CF41
:1004B0008B8DFE01E80FF11DE35AFF4FF0829FB7CD
:1004C000F8940B8FEA89FB89808180620AC09FB70C
:1004D000F894EE89FF896083E889F98980818370C7
:1004E000806480839FBF81E090E0DF91CF911F9176
:1004F0000F91FF90EF900895CF93DF93EC01888DDB
:100500008823C9F0EA89FB89808185FD05C0A88917
:10051000B9898C9186FD0FC00FB607FCF5CF80819D
:1005200085FFF2CFA889B9898C9185FFEDCFCE01E7
:100530000E940D02E7CFDF91CF91089580E090E017
:10054000892B21F00E940302811125C080E090E0F8
:10055000892B41F080E090E0892B21F00E9400007F
:1005600081111CC080E090E0892B41F080E090E098
:10057000892B21F00E940000811113C080E090E0DF
:10058000892BA1F080E090E0892B81F00E9400008F
:1005900081110AC008950E940000D8CF0E94000077
:1005A000E1CF0E940000EACF0C9400000895AC0156
:1005B0002091E6083091E708821B930B28533F4FA8
:1005C000BA01621B730B9B01FC0197FF04C0EE276D
:1005D000FF27E81BF90BB90137FF04C0662777270F
:1005E000621B730B6E177F070CF4C9015093E70869
:1005F0004093E60808958091A4079091A507813063
:10060000910541F49093B3078093B2071092A50728
:100610001092A4078091B2079091B30781309105A1
:1006200049F41092B3071092B2079093A5078093F4
:10063000A407089582E492E00C94840980919807BD
:1006400090919907892B51F484EB90E00E94000966
:1006500081E090E0909399078093980780919807A4
:1006600090919907019749F48AE590E00E9400096A
:100670001092990710929807089587E692E00C94DB
:1006800084090E94F413CF92DF92EF92FF920F93AE
:100690001F93CF93DF936C018B017A01EC01C85754
:1006A000D84F888187FF04C0FB011182108224C0CB
:1006B0002CE02C9DC0012D9D900D11242881AC01B2
:1006C000420F511D27FD5A952091E50830E0421751
:1006D000530794F42881AC01420F511D27FD5A9510
:1006E0009A01FA01EE0FFF1F2E0F3F1FF901EB5A7F
:1006F000F74F208126FD19C088818F5F88832CE009
:100700002C9DC0012D9D900D11242881AC01420F1C
:10071000511D27FD5A952091E50830E042175307F7
:10072000BCF428812C3044F113C02881820F911D24
:1007300027FD9A95FC01EE0FFF1F8E0F9F1FFC01F6
:10074000EB5AF74F808160E08F730E94F40AD4CF98
:10075000F80180819181049680349C4918F480E4EA
:100760009CE904C0F801808191810496F70191838E
:1007700080838FEF888345C0F801408151812881B3
:10078000BC01620F711D27FD7A959B01FB01EE0FE5
:10079000FF1F2E0F3F1FF901EB5AF74F21813281C6
:1007A000240F351FF701318320832881AC01420FCC
:1007B000511D27FD5A959A01FA01EE0FFF1F2E0FCA
:1007C0003F1FF901EB5AF74F208126FF1AC02881FD
:1007D000820F911D27FD9A95FC01EE0FFF1F8E0FD2
:1007E0009F1FFC01EB5AF74F808161E08F73DF910F
:1007F000CF911F910F91FF90EF90DF90CF900C94CD
:10080000F40ADF91CF911F910F91FF90EF90DF904D
:10081000CF9008950F931F93CF93DF93EC018B013B
:10082000888599850297F1F46130710569F024F4A7
:10083000672BC1F460E009C06230710559F0633084
:10084000710581F460E007C061E08C850E94F40AC4
:1008500061E005C061E08C850E94F40A60E08E854D
:100860000E94F40A888599850497B9F5013011052D
:10087000B1F04CF40115110581F561E08C850E9401
:10088000F40A60E011C002301105B9F0033011051F
:1008900021F561E08C850E94F40A60E013C060E0FD
:1008A0008C850E94F40A61E08E850E94F40A61E062
:1008B00088890E94F40A60E00DC060E08C850E9487
:1008C000F40A61E08E850E94F40A60E088890E9443
:1008D000F40A61E08A890E94F40A8885998505975F
:1008E00009F075C00A30110508F071C0F8018827B9
:1008F000EE58FF4F8F4F0C94951160E08C850E944D
:10090000F40A61E051C060E08C850E94F40A61E065
:100910008E850E94F40A60E04BC060E08C850E94E6
:10092000F40A61E08E850E94F40A60E088890E94E2
:10093000F40A61E041C060E001C061E08C850E9482
:10094000F40A61E005C061E08C850E94F40A60E071
:100950008E850E94F40A60E009C061E08C850E94E7
:10096000F40A60E08E850E94F40A61E088890E94A2
:10097000F40A61E00DC061E08C850E94F40A60E039
:100980008E850E94F40A61E088890E94F40A60E082
:100990008A890E94F40A60E013C061E001C060E04F
:1009A0008C850E94F40A60E08E850E94F40A61E062
:1009B00088890E94F40A60E08A890E94F40A61E052
:1009C0008C89DF91CF911F910F910C94F40ADF91E4
:1009D000CF911F910F9108954F925F926F927F92E6
:1009E0008F929F92AF92BF92CF92DF92EF92FF923F
:1009F0000F931F93CF93DF93EC018B0177FF04C01C
:100A000000271127061B170B161617062CF481E07A
:100A100090E09983888304C0672B11F019821882B3
:100A200084E0E82EF12C9AE0C92ED12C0115110595
:100A300009F449C00E94E20B8E889F88A88CB98C6B
:100A40002B013C01481859086A087B088A809B8062
:100A5000AC80BD80481459046A047B0438F36E8B63
:100A60007F8B888F998F288139818A859B8521305A
:100A7000310559F401969B878A872E813F81821721
:100A8000930771F41B861A860BC0892B21F48E8183
:100A90009F819B878A878A859B8501979B878A8709
:100AA00001501109288539858A859B8525303105B6
:100AB00011F4B60101C0B7010E948111BC01CE0141
:100AC0000E940A04B3CFDF91CF911F910F91FF9045
:100AD000EF90DF90CF90BF90AF909F908F907F90DE
:100AE0006F905F904F9008958091A4079091A50713
:100AF000019761F466E571E08FE199E00E94EC04F2
:100B00006AEA7EEF8FE199E00E94EC048091B207DF
:100B10009091B307019761F467E571E08FE199E087
:100B20000E94EC0469EA7EEF8FE199E00C94EC04FA
:100B30008DE692E00C9484098091E6069091E70698
:100B4000892B61F468E270E08BEE98E00E94EC047F
:100B500081E090E09093E7068093E6068091E606B8
:100B60009091E706019751F468ED7FEF8BEE98E0E6
:100B70000E94EC041092E7061092E60608950E9487
:100B80009C0568EE73E080E090E00E94070C0E94F4
:100B9000740568EE73E080E090E00E94070C0E940C
:100BA0001E0368EE73E080E090E00E94070C0E9454
:100BB0001E030E9474050E949C0560ED77E080E0B2
:100BC00090E00C94070C0F931F93CF93DF9360E09A
:100BD0008BE20E94F40A03E010E0C8010197F1F7EC
:100BE00061E08BE20E94F40AC3E2D0E0CE010197FB
:100BF000F1F760E08BE20E94F40A8DE20E94C70ADE
:100C0000072E000C880B990B0E94CD1226E933E4C5
:100C10004BE05DE30E94821320E030E040E05FE3C0
:100C20000E948213609394077093950780939607B0
:100C30009093970782EA92E00E948409609194075A
:100C40007091950780919607909197070E94B60939
:100C500064E170E080E090E00E94070C60E08FE2C9
:100C60000E94F40AC8010197F1F761E08FE20E9447
:100C7000F40ACE010197F1F760E08FE20E94F40AD6
:100C800081E30E94C70A072E000C880B990B0E9473
:100C9000CD1226E933E44BE05DE30E94821320E0AD
:100CA00030E040E05FE30E9482136093900770930E
:100CB0009107809392079093930784EB92E00E94B0
:100CC00084096091900770919107809192079091AB
:100CD00093070E94B60964E170E080E090E00E9412
:100CE000070C60E083E30E94F40AC8010197F1F762
:100CF00061E083E30E94F40A2197F1F760E083E367
:100D00000E94F40A85E30E94C70A072E000C880B94
:100D1000990B0E94CD1226E933E44BE05DE30E947B
:100D2000821320E030E040E05FE30E948213609392
:100D30008C0770938D0780938E0790938F0786ECB6
:100D400092E00E94840960918C0770918D078091D8
:100D50008E0790918F070E94B60964E170E080E0F1
:100D600090E00E94070C20918C0730918D074091F4
:100D70008E0750918F0760E070E080E291E40E945E
:100D8000B11160938C0770938D0780938E079093B9
:100D90008F072091900730919107409192075091D1
:100DA000930760E070E080E291E40E94B1116093EB
:100DB00090077093910780939207909393072091E7
:100DC000940730919507409196075091970760E0FE
:100DD00070E080E291E40E94B111609394077093F7
:100DE0009507809396079093970788ED92E00E946D
:100DF000840960919407709195078091960790916E
:100E000097070E94B60960919007709191078091B1
:100E10009207909193070E94B60960918C07709198
:100E20008D0780918E0790918F07DF91CF911F9151
:100E30000F910C94B6094F925F926F927F928F92AE
:100E40009F92AF92BF92CF92DF92EF92FF920F9359
:100E50001F93CF93DF9368ED7FEF8BEE98E00E94B6
:100E6000EC04C8EED6E08E0183E0A82EB12C93E20C
:100E7000892E912C6AE070E080E090E00E94070CDF
:100E800060E08FE20E94F40AC5010197F1F761E08A
:100E90008FE20E94F40AC4010197F1F760E08FE24B
:100EA0000E94F40A81E30E94C70A072E000C880BF7
:100EB000990B0E94CD1226E933E44BE05DE30E94DA
:100EC000821320E030E040E05FE30E9482132B01B8
:100ED0003C01F80161937193819391938F0162E0DA
:100EE00070E08BEE98E00E94EC0468ED7FEF8BEEF3
:100EF00098E00E94EC04C301B2010E94B60986E1A9
:100F000093E00E948409F7E008381F0709F0B2CF88
:100F10002991399149915991C701B6010E94B211A5
:100F20006B017C0187E0C838D80791F720E030E0FA
:100F300040E252E4C701B6010E9423126B017C011A
:100F400020E030E040E051E40E947D1387FF14C0B0
:100F5000C1E02DEC3CEC4CEF50E4C701B6010E941F
:100F60001E1218160CF4C0E081E0C827D0E08FE410
:100F700093E00E94840902C0C1E0D0E068ED7FEFF9
:100F800085E099E00E94EC04CE01DF91CF911F91A2
:100F90000F91FF90EF90DF90CF90BF90AF909F9018
:100FA0008F907F906F905F904F9008951F920F9257
:100FB0000FB60F9211240BB60F922F933F934F93BE
:100FC0005F936F937F938F939F93AF93BF93EF93B1
:100FD000FF9388EB97E00E940D02FF91EF91BF9184
:100FE000AF919F918F917F916F915F914F913F91C1
:100FF0002F910F900BBE0F900FBE0F901F90189562
:101000001F920F920FB60F9211240BB60F922F93CF
:101010008F939F93EF93FF93E091C807F091C907D7
:101020008081E091CE07F091CF0782FD12C09081C0
:101030008091D1078F5F8F732091D207821751F073
:10104000E091D107F0E0E854F84F958F8093D107F5
:1010500001C08081FF91EF919F918F912F910F900F
:101060000BBE0F900FBE0F901F9018951F920F92FE
:101070000FB60F9211240BB60F922F933F934F93FD
:101080005F936F937F938F939F93AF93BF93EF93F0
:10109000FF9348E251E064E271E080E090E00E945A
:1010A0004303FF91EF91BF91AF919F918F917F91FA
:1010B0006F915F914F913F912F910F900BBE0F90C9
:1010C0000FBE0F901F9018951F920F920FB60F92A0
:1010D00011240BB60F922F933F934F935F936F930F
:1010E0007F938F939F93AF93BF93EF93FF9348EAC0
:1010F00050E064EA70E083E090E00E944303FF91D7
:10110000EF91BF91AF919F918F917F916F915F917F
:101110004F913F912F910F900BBE0F900FBE0F90EC
:101120001F9018951F920F920FB60F9211240BB6B5
:101130000F922F933F934F935F936F937F938F9370
:101140009F93AF93BF93EF93FF9348E950E064E917
:1011500070E082E090E00E944303FF91EF91BF9125
:10116000AF919F918F917F916F915F914F913F913F
:101170002F910F900BBE0F900FBE0F901F901895E0
:101180001F920F920FB60F9211240BB60F922F934E
:101190003F934F935F936F937F938F939F93AF93FF
:1011A000BF93EF93FF9348E850E064E870E081E07C
:1011B00090E00E944303FF91EF91BF91AF919F9107
:1011C0008F917F916F915F914F913F912F910F90F0
:1011D0000BBE0F900FBE0F901F901895009769F0EF
:1011E000FC0101900020E9F73197AF01481B590B32
:1011F000BC0188EB97E00C94980180E090E00895A2
:10120000CF92DF92EF92FF92DC01A03282E0B8072A
:101210000CF03EC0B7FD06C0A53BB1052CF0A4EB19
:10122000B0E002C0A0E0B0E08091E90828E830E03A
:101230006901C81AD10887FDD394CC0CDD1CCC0CF5
:10124000DD1C0D2C000CEE08FF088091EA0828E553
:1012500032E0281B310987FD3395220F331F220FFF
:10126000331FA901330F660B770B9A01AB012C19C1
:101270003D094E095F090E943C1124EB30E040E03B
:1012800050E00E941211C20ED31EE41EF51ED601BC
:101290009091E808903398F58091E90848E850E08B
:1012A000481B510987FD5395440F551F440F551F87
:1012B000A417B5078CF08091EA0828E532E0281BD6
:1012C000310987FD3395220F331F220F331FAD01E4
:1012D0002A173B070CF4A90142505109440F551F2E
:1012E0002FB7F894892F90E0FC01EE0FFF1F8E0FAF
:1012F0009F1FFC01EB5AF74F528341832FBFFF9092
:10130000EF90DF90CF900895CF93DF930E94EE0887
:10131000EC0187ED96E00E94EE088C0F9D1FDF9197
:10132000CF910895CF92DF92EF92FF92BC01990F77
:10133000880B990B0E94CD1220E932EC45E75EE361
:101340000E9423126B017C0120E030E0A9010E9481
:101350007D13181624F0F7FAF094F7F8F094C7010B
:10136000B601FF90EF90DF90CF9008952F923F92BB
:101370004F925F926F927F928F929F92AF92BF92A5
:10138000CF92DF92EF92FF920F931F93CF93DF9351
:10139000CDB7DEB7A4970FB6F894DEBF0FBECDBFB2
:1013A0004B015C019B01AC010E94EF13882319F0F3
:1013B0008AED96E01AC075016401E894F7F82FEF02
:1013C0003FEF4FE75FE7C701B6010E94EF138111BE
:1013D00010C02FEF3FEF4FE75FE7C701B6010E9454
:1013E0001E12181634F48EED96E00E94EE088C0161
:1013F000AFC02FEF3FEF4FE75FE4C501B4010E949C
:101400007D1318161CF482EE96E0EFCF2FEF3FEF1E
:101410004FE75FECC501B4010E941E1287FDF3CFB8
:1014200020E030E0A901C501B4010E941E1287FF2F
:101430000BC06DE288EB97E00E942F026C01B7FAB7
:10144000B094B7F8B09402C0C12CD12C2AE037ED8B
:1014500043EA5BE3C501B4010E94B2114B015C0198
:101460000E949C122B013C010E94CB129B01AC01FB
:10147000C501B4010E94B1114B015C0119A27E01AA
:1014800081E2E80EF11CEAA2FBA2C301B2012AE04C
:1014900030E040E050E00E94441129013A01605DD3
:1014A000F70162937F01232B242B252B71F7CF01AA
:1014B0000E94EE088C016EE288EB97E00E942F02FA
:1014C000800F911F8C010C0D1D1D83E0F82E9AE0FA
:1014D000292E312C412C512CFA94FF20C9F120E007
:1014E00030E040E251E4C501B4010E9482134B0197
:1014F0005C010E949C129B0140E050E019A26AA08E
:101500007BA06CA3C32ED42EE52ECA01B901A20183
:1015100091010E944411605DF30162933F01211526
:1015200031054105510589F7CF010E94EE08080FEA
:10153000191F6CA17C2D8D2D9E2D0E94CB129B011D
:10154000AC01C501B4010E94B1114B015C01C4CFD3
:1015500087ED96E00E94EE08800F911FA4960FB6CB
:10156000F894DEBF0FBECDBFDF91CF911F910F91D9
:10157000FF90EF90DF90CF90BF90AF909F908F90B3
:101580007F906F905F904F903F902F9008950F93B2
:101590001F9390E0FC01EE57FD4F6491FC01E45C69
:1015A000FD4FE491F0E0EE0FFF1FEE5DFD4F8591E2
:1015B000949100E412E42FE030E0462F0E948B0C5F
:1015C000611571058105910549F0DC01CB0101969A
:1015D000A11DB11DBC01CD019F7003C060E070E092
:1015E000CB011F910F910895362F90E0FC01E4523A
:1015F000FE4F4491FC01EE57FD4F2491FC01E45C49
:10160000FD4F9491992309F46CC0442309F455C00B
:1016100050E0FA013197E231F10508F04EC0882719
:10162000E458FF4F8F4F0C949511809180008F7775
:1016300007C0809180008F7D03C080918000877FEC
:10164000809380003AC084B58F7702C084B58F7DC7
:1016500084BD33C08091B0008F7703C08091B0000B
:101660008F7D8093B00029C0809190008F7707C054
:10167000809190008F7D03C080919000877F809340
:1016800090001BC08091A0008F7707C08091A000C0
:101690008F7D03C08091A000877F8093A0000DC044
:1016A000809120018F7707C0809120018F7D03C03A
:1016B00080912001877F80932001E92FF0E0EE0FD9
:1016C000FF1FEE53FE4FA591B4919FB7F8943111CF
:1016D00004C08C912095282302C0EC912E2B2C93D2
:1016E0009FBF0895CF93DF9390E0FC01EE57FD4F2D
:1016F0002491FC01E45CFD4F8491882361F190E02A
:10170000880F991FFC01E855FE4FC591D491FC014B
:10171000EE53FE4FA591B491611109C09FB7F894A3
:101720008881209582238883EC912E230BC0623020
:1017300061F49FB7F8948881322F30958323888392
:10174000EC912E2B2C939FBF06C08FB7F894E881A5
:101750002E2B28838FBFDF91CF9108950F931F9376
:10176000CF93DF93EC01862F1B861A86198218828D
:101770001E8A1F8A188E198EE8ECF0E0FF83EE8334
:101780006C877D875F874E87398B288B1B8B0A8BF5
:1017900061E00E94720B61E08E850E94720B61E035
:1017A00088890E94720B61E08A890E94720B1D8AEF
:1017B0001C8A84E090E099878887DF91CF911F9100
:1017C0000F9108953FB7F89480913E0990913F0999
:1017D000A0914009B091410926B5A89B05C02F3FB3
:1017E00019F00196A11DB11D3FBFBA2FA92F982F47
:1017F0008827820F911DA11DB11DBC01CD0142E0C2
:10180000660F771F881F991F4A95D1F708958F9209
:101810009F92AF92BF92CF92DF92EF92FF926B01B5
:101820007C010E94E20B4B015C01C114D104E10474
:10183000F104F1F00E94E20BDC01CB018819990957
:10184000AA09BB09883E9340A105B10570F321E0C8
:10185000C21AD108E108F10888EE880E83E0981ECC
:10186000A11CB11CC114D104E104F10419F7DDCFAE
:10187000FF90EF90DF90CF90BF90AF909F908F90B0
:1018800008951F920F920FB60F9211242F933F933A
:101890008F939F93AF93BF9380913A0990913B09A7
:1018A000A0913C09B0913D093091390923E0230F03
:1018B0002D3720F40196A11DB11D05C026E8230F88
:1018C0000296A11DB11D2093390980933A09909386
:1018D0003B09A0933C09B0933D0980913E0990914A
:1018E0003F09A0914009B09141090196A11DB11D88
:1018F00080933E0990933F09A0934009B09341091A
:10190000BF91AF919F918F913F912F910F900FBEFB
:101910000F901F901895CF92DF92EF92FF920F9346
:101920001F93E82FF92F05C0015011092109310932
:1019300061F1908196239417B9F305C00150110904
:101940002109310911F1908196239413F7CFC12C0D
:10195000D12CE12CF12C0AC08FEFC81AD80AE80A62
:10196000F80A0C151D052E053F0579F080818623A8
:10197000841791F36C2D7D2D8E2D9F2D1F910F912E
:10198000FF90EF90DF90CF90089560E070E080E0EE
:1019900090E01F910F91FF90EF90DF90CF9008950E
:1019A000789484B5826084BD84B5816084BD85B53A
:1019B000826085BD85B5816085BD80916E00816046
:1019C00080936E00109281008091810082608093EC
:1019D00081008091810081608093810080918000EE
:1019E0008160809380008091B10084608093B10019
:1019F0008091B00081608093B000809191008260FE
:101A000080939100809191008160809391008091FA
:101A100090008160809390008091A100826080930B
:101A2000A1008091A10081608093A1008091A0001D
:101A300081608093A00080912101826080932101C8
:101A4000809121018160809321018091200181603A
:101A50008093200180917A00846080937A00809145
:101A60007A00826080937A0080917A00816080930E
:101A70007A0080917A00806880937A001092C10089
:101A8000E091C807F091C90782E08083E091C40724
:101A9000F091C5071082E091C607F091C7078FEC5F
:101AA00080831092D007E091CC07F091CD0786E0BB
:101AB0008083E091CA07F091CB07808180618083A9
:101AC000E091CA07F091CB07808188608083E09124
:101AD000CA07F091CB07808180688083E091CA07B4
:101AE000F091CB0780818F7D808320910B0930910D
:101AF0000C09032E000C440B550BC12CC7E8DC2E3F
:101B0000C3E9EC2EC3E0FC2EC701B6010E941211FE
:101B1000CA01B90128E230E040E050E00E94121111
:101B200020930709309308094093090950930A0943
:101B30002091F1083091F208032E000C440B550B54
:101B4000C701B6010E941211DCE38D2E912CA12C4D
:101B5000B12CCA01B901A50194010E941211209370
:101B6000ED083093EE084093EF085093F008209171
:101B7000250930912609032E000C440B550BC70193
:101B8000B6010E941211CA01B901A50194010E9477
:101B90001211209321093093220940932309509375
:101BA000240961E08BE20E94720B60E08DE20E94EA
:101BB000720B61E08FE20E94720B60E081E30E9491
:101BC000720B61E083E30E94720B60E085E30E9488
:101BD000720B8091E808803308F052C061E08DE01C
:101BE0000E94720B8091E808E82FF0E09F01220F1D
:101BF000331FE20FF31FEB5AF74F9081907C9D60EB
:101C000090831092E9081092EA086CE00E94751126
:101C10009CE0899FB001112440E050E09B01240F1B
:101C2000351FF901EE0FFF1F2E0F3F1FF901EB5A71
:101C3000F74F908196FD17C04F5F5F4F4C305105B5
:101C400069F7813009F0CAC01092800082E0809369
:101C500081001092850010928400B19A80916F00EB
:101C6000826080936F00E091E808F0E0CF01880F78
:101C7000991FE80FF91FEB5AF74F8081806480832A
:101C800084EB90E00E94000981E090E09093990736
:101C90008093980768E270E08BEE98E00E94EC0475
:101CA00004E112E0C0E0D0E089E693E00E948409FC
:101CB0007E01EFEFEE1AFE0AF801819191918F01FA
:101CC0000E94D702BC0185E099E00E94EC0468EE16
:101CD00073E080E090E00E94070C0E94E3052091F1
:101CE000900730919107409192075091930760912E
:101CF00094077091950780919607909197070E949D
:101D0000B21120918C0730918D0740918E07509130
:101D10008F070E94B2110E9495121616170614F032
:101D2000E701C2CF82EA93E00E9484090E941B0768
:101D30008130910519F581EF93E00E94840989E2D1
:101D400090E090939B0780939A078AE390E09093AA
:101D50009D0780939C078EE890E090939F07809367
:101D60009E078EE990E09093A1078093A0078FEBE8
:101D700090E09093A3078093A2075CC0892B09F0A1
:101D800059C086E094E00E948409CC0FDD1FCE5E2E
:101D9000DD4F8881998129E230E03093A7072093B5
:101DA000A6072AE330E03093A9072093A8072EE87E
:101DB00030E03093AB072093AA072EE930E0309350
:101DC000AD072093AC072FEB30E03093AF072093A3
:101DD000AE079093B1078093B0072CC0823061F4B6
:101DE00010929000809391001092950010929400B0
:101DF00088BB8093710037CF833069F41092A000C4
:101E000082E08093A1001092A5001092A40089BBEB
:101E10008093720028CF811126CF1092200182E09A
:101E20008093210110922501109224018ABB809396
:101E3000730019CF83E696E00E94840987E896E054
:101E40000E94840968ED7FEF85E099E00E94EC0430
:101E500002EA17E08091B2079091B307019709F069
:101E600048C1C091B007D091B107CE010E94D702FE
:101E7000BC0185E099E00E94EC04CE010E94D702EB
:101E80000E9492098BE194E00E9484090E949C05C3
:101E900068EE73E080E090E00E94070C0E941E0351
:101EA00068EE73E080E090E00E94070C0E947405E9
:101EB00068EE73E080E090E00E94070C0E941E0331
:101EC00068EE73E080E090E00E94070C0E947405C9
:101ED0000E949C0568EE73E080E090E00E94070C91
:101EE00089E694E00E948409C6EAD7E0E990F99077
:101EF000C7010E94D702BC018BEE98E00E94EC045F
:101F0000C7010E94D7020E94920987EA94E00E94CA
:101F100084090E94BF058CEE94E00E948409F7E0DA
:101F2000CE3ADF0719F7C091AE07D091AF07CE01C7
:101F30000E94D702BC018BEE98E00E94EC04CE0117
:101F40000E94D7020E9492090E949C0568EE73E0ED
:101F500080E090E00E94070C0E94740568EE73E038
:101F600080E090E00E94070C0E941E030E9474050E
:101F700068EE73E080E090E00E94070C0E941E0370
:101F80000E949C0568EE73E080E090E00E94070CE0
:101F90008091AE079091AF079093B1078093B007FF
:101FA00083E295E00E9484090E94FB028091A407CD
:101FB0009091A507019709F09CC0C091B007D091FE
:101FC000B107CE010E94D702BC0185E099E00E94D2
:101FD000EC04CE010E94D7020E94920985E695E0AA
:101FE0000E9484090E949C0568EE73E080E090E006
:101FF0000E94070C0E941E0368EE73E080E090E0F0
:102000000E94070C0E94740568EE73E080E090E087
:102010000E94070C0E941E0368EE73E080E090E0CF
:102020000E94070C0E9474050E949C0568EE73E0F4
:1020300080E090E00E94070C83EB95E00E94840909
:10204000CAE9D7E0E990F990C7010E94D702BC0124
:102050008BEE98E00E94EC04C7010E94D7020E9418
:10206000920987EA94E00E9484090E94BF058CEEE1
:1020700094E00E9484090C171D0721F7C091A20764
:10208000D091A307CE010E94D702BC018BEE98E04D
:102090000E94EC04CE010E94D7020E9492090E9485
:1020A0009C0568EE73E080E090E00E94070C0E94BF
:1020B000740568EE73E080E090E00E94070C0E94D7
:1020C0001E030E94740568EE73E080E090E00E94B9
:1020D000070C0E941E030E949C0568EE73E080E0DE
:1020E00090E00E94070C81EF95E00E9484090E9415
:1020F000FB0283E396E00E94840960ED77E080E0D4
:1021000090E00E94070C0E949E02A4CE0F931F93A2
:102110001092BB071092BA0788EE93E0A0E0B0E0FF
:102120008093BC079093BD07A093BE07B093BF07F1
:1021300084E092E09093B9078093B80785EC90E033
:102140009093C5078093C40784EC90E09093C707F1
:102150008093C60780EC90E09093C9078093C807EE
:1021600081EC90E09093CB078093CA0782EC90E0DB
:102170009093CD078093CC0786EC90E09093CF07A7
:102180008093CE071092D1071092D2071092D307F6
:102190001092D40705E010E024E030E043E050E086
:1021A00062E070E08FE199E00E94AE0B0BE010E07E
:1021B0002AE030E049E050E068E070E085E099E036
:1021C0000E94AE0B0FE110E02DE130E04BE150E05A
:1021D00069E170E08BEE98E00E94AE0B8091E5081B
:1021E0008033A0F491E0980F9093E5088093E8087D
:1021F00090E0FC01EE0FFF1F8E0F9F1FFC01EB5ABA
:10220000F74F88EB9BE09283818303C08FEF80932D
:10221000E80888E090E09093E7088093E6081F9133
:102220000F910895052E97FB1EF400940E9429112A
:1022300057FD07D00E94441107FC03D04EF40C94C4
:10224000291150954095309521953F4F4F4F5F4F45
:10225000089590958095709561957F4F8F4F9F4F12
:1022600008950E946611A59F900DB49F900DA49FA4
:10227000800D911D11240895B7FF0C9431110E9417
:102280003111821B930B0895A1E21A2EAA1BBB1BCE
:10229000FD010DC0AA1FBB1FEE1FFF1FA217B30732
:1022A000E407F50720F0A21BB30BE40BF50B661F48
:1022B000771F881F991F1A9469F76095709580950C
:1022C00090959B01AC01BD01CF010895A29FB00183
:1022D000B39FC001A39F700D811D1124911DB29F5A
:1022E000700D811D1124911D0895991B79E004C082
:1022F000991F961708F0961B881F7A95C9F7809545
:10230000089597FB072E16F4009407D077FD09D0A7
:102310000E949D1107FC05D03EF4909581959F4F3A
:102320000895709561957F4F0895EE0FFF1F881FE8
:102330008BBF0790F691E02D1994AA1BBB1B51E1AE
:1023400007C0AA1FBB1FA617B70710F0A61BB70B25
:10235000881F991F5A95A9F780959095BC01CD01CA
:1023600008955058BB27AA270E94C9110C94431303
:102370000E94351338F00E943C1320F039F49F3F3F
:1023800019F426F40C9432130EF4E095E7FB0C9448
:102390002C13E92F0E94541358F3BA1762077307DE
:1023A0008407950720F079F4A6F50C9476130EF4C3
:1023B000E0950B2EBA2FA02D0B01B90190010C0155
:1023C000CA01A0011124FF27591B99F0593F50F46D
:1023D000503E68F11A16F040A22F232F342F4427C5
:1023E000585FF3CF469537952795A795F0405395BD
:1023F000C9F77EF41F16BA0B620B730B840BBAF08D
:102400009150A1F0FF0FBB1F661F771F881FC2F7F7
:102410000EC0BA0F621F731F841F48F4879577950B
:102420006795B795F7959E3F08F0B0CF9395880FC5
:1024300008F09927EE0F9795879508950E94081345
:1024400008F481E008950E9437120C9443130E940F
:102450003C1358F00E94351340F029F45F3F29F0F7
:102460000C942C1351110C9477130C9432130E947A
:10247000541368F39923B1F3552391F3951B550B2E
:10248000BB27AA2762177307840738F09F5F5F4F47
:10249000220F331F441FAA1FA9F335D00E2E3AF086
:1024A000E0E832D091505040E695001CCAF72BD09E
:1024B000FE2F29D0660F771F881FBB1F26173707EF
:1024C0004807AB07B0E809F0BB0B802DBF01FF2721
:1024D00093585F4F3AF09E3F510578F00C942C13BF
:1024E0000C9477135F3FE4F3983ED4F38695779589
:1024F0006795B795F7959F5FC9F7880F911D9695DA
:10250000879597F90895E1E0660F771F881FBB1F35
:10251000621773078407BA0720F0621B730B840BE2
:10252000BA0BEE1F88F7E09508950E949C126894FC
:10253000B1110C94771308950E945C1388F09F5793
:1025400098F0B92F9927B751B0F0E1F0660F771FD7
:10255000881F991F1AF0BA95C9F714C0B13091F0CD
:102560000E947613B1E008950C947613672F782FAC
:102570008827B85F39F0B93FCCF386957795679592
:10258000B395D9F73EF490958095709561957F4FFE
:102590008F4F9F4F0895E89409C097FB3EF49095A4
:1025A0008095709561957F4F8F4F9F4F9923A9F02C
:1025B000F92F96E9BB279395F695879577956795BB
:1025C000B795F111F8CFFAF4BB0F11F460FF1BC0FF
:1025D0006F5F7F4F8F4F9F4F16C0882311F096E992
:1025E00011C0772321F09EE8872F762F05C0662340
:1025F00071F096E8862F70E060E02AF09A95660FF9
:10260000771F881FDAF7880F9695879597F90895B1
:10261000990F0008550FAA0BE0E8FEEF16161706F3
:10262000E807F907C0F012161306E407F50798F05B
:10263000621B730B840B950B39F40A2661F0232B74
:10264000242B252B21F408950A2609F4A140A695F0
:102650008FEF811D811D089597F99F6780E870E0D5
:1026600060E008959FEF80EC089500240A94161608
:10267000170618060906089500240A941216130670
:10268000140605060895092E0394000C11F48823FE
:1026900052F0BB0F40F4BF2B11F460FF04C06F5F1A
:1026A0007F4F8F4F9F4F089557FD9058440F551FF0
:1026B00059F05F3F71F04795880F97FB991F61F0C4
:1026C0009F3F79F087950895121613061406551F3B
:1026D000F2CF4695F1DF08C0161617061806991FA7
:1026E000F1CF86957105610508940895E894BB279C
:1026F00066277727CB0197F908950E94081308F4FD
:102700008FEF08950E9495130C9443130E94351384
:1027100038F00E943C1320F0952311F00C942C13F8
:102720000C94321311240C9477130E94541370F3F9
:10273000959FC1F3950F50E0551F629FF001729F66
:10274000BB27F00DB11D639FAA27F00DB11DAA1F75
:10275000649F6627B00DA11D661F829F2227B00DC2
:10276000A11D621F739FB00DA11D621F839FA00D4D
:10277000611D221F749F3327A00D611D231F849F9D
:10278000600D211D822F762F6A2F11249F575040F4
:102790009AF0F1F088234AF0EE0FFF1FBB1F661F6F
:1027A000771F881F91505040A9F79E3F510580F038
:1027B0000C942C130C9477135F3FE4F3983ED4F3FE
:1027C000869577956795B795F795E7959F5FC1F7DC
:1027D000FE2B880F911D9695879597F908950E9475
:1027E0000813880B990B089581E090E0F8940C94FD
:0627F000F913F894FFCF7D
:1027F600000000002F029801C6017C02F701D501F6
:10280600E90100000800100019002100290032002B
:102816003A0042004B0053005B0064006C007400F9
:102826007D0085008E0096009E00A600AF00B700D2
:10283600BF00437269746963616C206572726F725E
:1028460020446961626F6C6F2073746174652055F2
:102856006E6B6E6F776E006572726F720065727264
:102866006F722067616D65207374617465206E698F
:102876006574206765766F6E64656E20656E64208C
:102886006B616E206E696574207377697463686521
:102896006E0031652073656E736F722077616172A9
:1028A60064653A0032652073656E736F72207761D6
:1028B600617264653A0033652073656E736F7220CA
:1028C6007761617264653A0064652075697465694B
:1028D6006E64656C696A6B2061667374616E6420F0
:1028E600746F742064652067726F6E64206973204C
:1028F6006F7020766F6C676F72646520312C322C96
:10290600332069733A0068696A20697320776565C0
:102916007220746572756720696E20646520636530
:102926006E746572206E616461742068696A2068DD
:10293600656566742067657363616E6E65640065C0
:1029460072726F7220646961626F6C20682F6C20EE
:102956006F6E62656B656E740068696A206865658E
:102966006674206E696B73206765766F6E64656E3C
:1029760020696E2064652076616B20676161742032
:102986006E61617220646520766F6C67656E646542
:10299600200068696A20686565667420646520653C
:1029A600657273746520446961626F6C2067657631
:1029B6006F6E64656E206761206E7520626570615A
:1029C600616C656E206F662068696A207374616148
:1029D6006E206F66206C696767656E642069732078
:1029E60000646520316520646961626F6C206973DB
:1029F60020486F6F670064652031652064696162F5
:102A06006F6C206973204C61616700696B20686197
:102A16006E67206E7520626F76656E206465206C29
:102A2600696767656E646520646961626F6C2069B9
:102A36006B206761206E7520626567696E6E656ED4
:102A4600206D6574206D696A6E2067616D652073FF
:102A5600747261746567696500696B2068656220D8
:102A66004C20646961626F6C20696E206D696A6EC4
:102A76002068616E64656E20656E2062656E2077E3
:102A860065657220746572756720696E206D696A66
:102A96006E206861727400696B206761206E752014
:102AA600626567696E6E656E206D65742065656E1C
:102AB6002070756E74207465207665727A616D6516
:102AC6006C656E20766F6F72206465206C6967672F
:102AD600656E646520646961626F6C00696B20686D
:102AE6006562206E65742065656E2070756E742053
:102AF6007665727A616D656C7420766564657220A0
:102B06006E61617220646520766F6C67656E6465C0
:102B1600202100696B2062656E206B6C61617220FA
:102B26006D65742070756E746A6573207665727A49
:102B3600616D656C656E207961792021206E752046
:102B46006F70206E6161722064652048206469613F
:102B5600626F6C2100696B2068616E67206E75205C
:102B6600626F76656E20646520737461616E64655C
:102B76002020646961626F6C20696B206761206E3A
:102B86007520626567696E6E656E206D6574206D71
:102B9600696A6E2067616D6520737472617465671A
:102BA600696500696B206865622048206469616216
:102BB6006F6C20696E206D696A6E2068616E64654F
:102BC6006E20656E2062656E20776565722074657D
:102BD60072756720696E206D696A6E20686172740D
:102BE60000696B2062656E206B6C616172206D6599
:102BF600742070756E746A6573207665727A616D7D
:102C0600656C656E207961792021206E75206F7064
:102C1600206E616172206465204C20646961626F78
:102C26006C2100696B2068656220342070756E74B3
:102C3600656E207665727A616D656C64206E616181
:102C46007220646520766F6C67656E646520746FAC
:102C5600652000696B2067616174206E75207A6F4C
:102C6600656B656E206E6161722064652032652039
:102C7600646961626F6C0068696A2068656566747C
:102C860020626569646520646961626F6C656E20A7
:102C96006765766F6E64656E20656E206765696E22
:102CA600646963656572642077656C6B65206B612A
:102CB6006E742068696A206F70206D6F6574206479
:102CC60072616169656E000D0A006E616E00696E63
:062CD60066006F76660047
:00000001FF
