:100000000C9465010C9496010C9496010C94960145
:100010000C9496010C9496010C9496010C94960104
:100020000C9496010C9496010C9496010C949601F4
:100030000C9496010C9496010C9496010C949601E4
:100040000C9496010C94A8080C9496010C949601BB
:100050000C9496010C9496010C9496010C94050C4A
:100060000C9496010C94E8070C94BE070C9496012E
:100070000C9496010C9496010C9496010C949601A4
:100080000C947A080C9496010C9496010C949601A9
:100090000C9496010C9496010C9496010C94960184
:1000A0000C9496010C9496010C944C080C949601B7
:1000B0000C9496010C9496010C9496010C941E08D5
:1000C0000C9496010C9496010C9496010C94960154
:1000D0000C9496010C9496010C9496010C94960144
:1000E0000C94960189048F049904A704A904AF0411
:1000F000B904C704D904DB04E70AEA0AD90ADD0A0D
:10010000E10A210BEE0AF20AF80AFC0A000B060BC0
:100110000A0B0E0B210B140B180B1C0B0C94E10A91
:100120000C94A7040C94F20A0C94AF040C94FC0AEF
:100130000C94D5010C94180B0C943C100C94210BCE
:100140000C94C6010C94F80A0C94A9040C94C704EE
:100150000C94EE0A0C9489040C94E70A0C94F701B1
:100160000C94140B0C9499040C9498010C94D90AD7
:100170000C942F020C948F040C94B9040C941C0B57
:100180000C94EA0A0C94D9040C94000B0C94E90129
:100190000C947C020C94DB040C940E0B0C94060B58
:1001A0000C940A0B0C94DD0A0000210024002700A7
:1001B0002A002D0030003300010100000401070176
:1001C0000A0100002200250028002B002E0031002B
:1001D000340002010000050108010B0100000A0BB8
:1001E00002090C0D0E0807030401000000000000C6
:1001F00000000000000000000000000000000000FF
:1002000000000000000000001211100000000000BB
:1002100000000000000000000000000000000000DE
:100220000000000020002300260029002C002F00E1
:100230003200000100000301060109010505050562
:10024000070508080808020202020A0A080804044E
:10025000040401010101010101010303030303037C
:100260000303040707070C0C0C0C0C0C0C0C02020B
:10027000020206060606060606060B0B0B0B0B0B08
:100280000B0B010210202008081020401020408095
:10029000020102010804020101020408102040804A
:1002A00080402010080402018004020180402010D8
:1002B0000804020108040201010204081020408021
:1002C00001020408102040803C1011241FBECFEF13
:1002D000D1E2DEBFCDBF00E00CBF16E0A0E0B2E08F
:1002E000E2E7F6E200E00BBF02C007900D92AE33EA
:1002F000B107D9F728E0AEE3B6E001C01D92A839F6
:10030000B207E1F711E0C5E6D1E000E006C02197B1
:100310000109802FFE010E944511C436D10780E0FB
:100320000807A9F70E94940C0C9437130C94000052
:10033000CF92DF92EF92FF920F931F93CF93DF93B1
:100340006C017A018B01C0E0D0E0CE15DF0581F0B1
:10035000D8016D918D01D601ED91FC910190F08154
:10036000E02DC6011995892B11F02196EECF7E0163
:10037000C701DF91CF911F910F91FF90EF90DF9018
:10038000CF900895089580E090E00895FC01538D8A
:10039000448D252F30E0842F90E0821B930B54175F
:1003A00010F0CF96089501970895FC01918D828DEC
:1003B000981761F0828DDF01A80FB11D5D968C91B9
:1003C000928D9F5F9F73928F90E008958FEF9FEFC4
:1003D0000895FC01918D828D981731F0828DE80F80
:1003E000F11D858D90E008958FEF9FEF0895FC013A
:1003F000918D228D892F90E0805C9F4F821B910907
:100400008F739927089580E197E00E94F70121E01A
:10041000892B09F420E0822F0895FC01848DDF01EF
:10042000A80FB11DA35ABF4F2C91848D90E0019667
:100430008F739927848FA689B7892C93A089B18956
:100440008C91837080648C93938D848D981306C0F7
:100450000288F389E02D80818F7D80830895EF925B
:10046000FF920F931F93CF93DF93EC0181E0888F6E
:100470009B8D8C8D981305C0E889F989808185FD55
:1004800026C0F62E0B8D10E00F5F1F4F0F73112744
:10049000E02E8C8DE8120CC00FB607FCFACFE8896D
:1004A000F989808185FFF5CFCE010E940D02F1CF41
:1004B0008B8DFE01E80FF11DE35AFF4FF0829FB7CD
:1004C000F8940B8FEA89FB89808180620AC09FB70C
:1004D000F894EE89FF896083E889F98980818370C7
:1004E000806480839FBF81E090E0DF91CF911F9176
:1004F0000F91FF90EF900895CF93DF93EC01888DDB
:100500008823C9F0EA89FB89808185FD05C0A88917
:10051000B9898C9186FD0FC00FB607FCF5CF80819D
:1005200085FFF2CFA889B9898C9185FFEDCFCE01E7
:100530000E940D02E7CFDF91CF91089580E090E017
:10054000892B21F00E940302811125C080E090E0F8
:10055000892B41F080E090E0892B21F00E9400007F
:1005600081111CC080E090E0892B41F080E090E098
:10057000892B21F00E940000811113C080E090E0DF
:10058000892BA1F080E090E0892B81F00E9400008F
:1005900081110AC008950E940000D8CF0E94000077
:1005A000E1CF0E940000EACF0C9400000895209152
:1005B000E4063091E506AC01421B530B28533F4F34
:1005C000BC01621B730B9B01FA0157FF04C0EE27AD
:1005D000FF27E41BF50BB90137FF04C06627772717
:1005E000621B730B6E177F072CF050933F064093EE
:1005F0003E0604C030933F0620933E069093E506E6
:100600008093E40680913E0690913F060895809184
:100610000007909101078130910541F490930F07F5
:1006200080930E07109201071092000780910E0729
:1006300090910F078130910549F410920F071092A5
:100640000E079093010780930007089582E492E0DB
:100650000C946C098091F2069091F306892B51F469
:1006600084EB90E00E94E80881E090E09093F3062C
:100670008093F2068091F2069091F306019749F477
:100680008AE590E00E94E8081092F3061092F206C4
:10069000089587E692E00C946C090E943213CF9281
:1006A000DF92EF92FF920F931F93CF93DF936C0132
:1006B0008B017A01EC01C052D94F888187FF04C0B9
:1006C000FB011182108224C02CE02C9DC0012D9DC5
:1006D000900D11242881AC01420F511D27FD5A9520
:1006E00020913D0830E04217530794F42881AC0173
:1006F000420F511D27FD5A959A01FA01EE0FFF1F77
:100700002E0F3F1FF901E355F84F208126FD19C038
:1007100088818F5F88832CE02C9DC0012D9D900DDA
:1007200011242881AC01420F511D27FD5A952091BB
:100730003D0830E042175307BCF428812C3044F1C7
:1007400013C02881820F911D27FD9A95FC01EE0FA1
:10075000FF1F8E0F9F1FFC01E355F84F808160E063
:100760008F730E94B80AD4CFF801808191810496DA
:1007700080349C4918F480E49CE904C0F80180812D
:1007800091810496F701918380838FEF888345C020
:10079000F801408151812881BC01620F711D27FD44
:1007A0007A959B01FB01EE0FFF1F2E0F3F1FF901F2
:1007B000E355F84F21813281240F351FF701318332
:1007C00020832881AC01420F511D27FD5A959A01C3
:1007D000FA01EE0FFF1F2E0F3F1FF901E355F84FEF
:1007E000208126FF1AC02881820F911D27FD9A952E
:1007F000FC01EE0FFF1F8E0F9F1FFC01E355F84F0A
:10080000808161E08F73DF91CF911F910F91FF90F5
:10081000EF90DF90CF900C94B80ADF91CF911F91A9
:100820000F91FF90EF90DF90CF9008950F931F935B
:10083000CF93DF93EC018B01888599850297F1F4C2
:100840006130710569F024F4672BC1F460E009C0E0
:100850006230710559F06330710581F460E007C0C2
:1008600061E08C850E94B80A61E005C061E08C857A
:100870000E94B80A60E08E850E94B80A8885998532
:100880000497B9F501301105B1F04CF401151105CB
:1008900081F561E08C850E94B80A60E011C00230E9
:1008A0001105B9F00330110521F561E08C850E9436
:1008B000B80A60E013C060E08C850E94B80A61E06D
:1008C0008E850E94B80A61E088890E94B80A60E0BB
:1008D0000DC060E08C850E94B80A61E08E850E94A0
:1008E000B80A60E088890E94B80A61E08A890E949B
:1008F000B80A88859985059709F075C00A301105F1
:1009000008F071C0F8018827EE58FF4F8F4F0C9404
:10091000451160E08C850E94B80A61E051C060E03A
:100920008C850E94B80A61E08E850E94B80A60E05A
:100930004BC060E08C850E94B80A61E08E850E9401
:10094000B80A60E088890E94B80A61E041C060E0AE
:1009500001C061E08C850E94B80A61E005C061E0D9
:100960008C850E94B80A60E08E850E94B80A60E01B
:1009700009C061E08C850E94B80A60E08E850E9403
:10098000B80A61E088890E94B80A61E00DC061E0A0
:100990008C850E94B80A60E08E850E94B80A61E0EA
:1009A00088890E94B80A60E08A890E94B80A60E0DB
:1009B00013C061E001C060E08C850E94B80A60E06D
:1009C0008E850E94B80A61E088890E94B80A60E0BA
:1009D0008A890E94B80A61E08C89DF91CF911F91CA
:1009E0000F910C94B80ADF91CF911F910F91089548
:1009F0004F925F926F927F928F929F92AF92BF922F
:100A0000CF92DF92EF92FF920F931F93CF93DF93DA
:100A1000EC018B0177FF04C000271127061B170B81
:100A2000161617062CF481E090E09983888304C0A1
:100A3000672B11F01982188284E0E82EF12C9AE0DD
:100A4000C92ED12C0115110509F449C00E94A60B2D
:100A50008E889F88A88CB98C2B013C0148185908B6
:100A60006A087B088A809B80AC80BD80481459044A
:100A70006A047B0438F36E8B7F8B888F998F288173
:100A800039818A859B852130310559F401969B87F0
:100A90008A872E813F818217930771F41B861A86FD
:100AA0000BC0892B21F48E819F819B878A878A8541
:100AB0009B8501979B878A87015011092885398575
:100AC0008A859B852530310511F4B60101C0B70137
:100AD0000E943111BC01CE010E941604B3CFDF91F8
:100AE000CF911F910F91FF90EF90DF90CF90BF902B
:100AF000AF909F908F907F906F905F904F900895F0
:100B00008091000790910107019749F466E571E033
:100B100085E798E00E94F8046AEA7EEF08C067E57E
:100B200071E085E798E00E94F80469EA7EEF85E7C6
:100B300098E00C94F8048091F4069091F506892BC6
:100B400061F46AE670E081E498E00E94F80481E0D4
:100B500090E09093F5068093F4068091F4069091CE
:100B6000F506019751F466E97FEF81E498E00E9471
:100B7000F8041092F5061092F40608950E949B0561
:100B800068EE73E080E090E00E94CB0B0E9480054D
:100B900068EE73E080E090E00E94CB0B0E942A0395
:100BA00068EE73E080E090E00E94CB0B0E942A0385
:100BB0000E9480050E949B0560ED77E080E090E058
:100BC0000C94CB0BCF92DF92EF92FF920F931F9377
:100BD000CF93DF9360E08BE20E94B80A03E010E05D
:100BE000C8010197F1F761E08BE20E94B80AC3E205
:100BF000D0E0CE010197F1F760E08BE20E94B80AE5
:100C00008DE20E948B0A072E000C880B990B0E9424
:100C10000B1226E933E44BE05DE30E94C01220E0B2
:100C200030E040E05FE30E94C0126093EE067093F4
:100C3000EF068093F0069093F1060E947A0964E132
:100C400070E080E090E00E94CB0B60E08FE20E94B9
:100C5000B80AC8010197F1F761E08FE20E94B80A73
:100C6000CE010197F1F760E08FE20E94B80A81E3BC
:100C70000E948B0A072E000C880B990B0E940B1206
:100C800026E933E44BE05DE30E94C01220E030E04F
:100C900040E05FE30E94C0126093EA067093EB06A7
:100CA0008093EC069093ED060E947A0964E170E06F
:100CB00080E090E00E94CB0B60E083E30E94B80AE2
:100CC000C8010197F1F761E083E30E94B80A219718
:100CD000F1F760E083E30E94B80A85E30E948B0A83
:100CE000072E000C880B990B0E940B1226E933E4A7
:100CF0004BE05DE30E94C01220E030E040E05FE3A3
:100D00000E94C0126093E6067093E7068093E8069F
:100D10009093E9060E947A0964E170E080E090E037
:100D20000E94CB0B20E030E040E251E46091E60607
:100D30007091E7068091E8069091E9060E946111A2
:100D40006B017C0120E030E0A9010E94BB12181663
:100D500024F0F7FAF094F7F8F094C092E606D092F7
:100D6000E706E092E806F092E90620E030E040E293
:100D700051E46091EA067091EB068091EC06909147
:100D8000ED060E9461116B017C0120E030E0A901B9
:100D90000E94BB12181624F0F7FAF094F7F8F094BA
:100DA000C092EA06D092EB06E092EC06F092ED06D5
:100DB00020E030E040E251E4C701B6010E94611139
:100DC0006B017C0120E030E0A9010E94BB121816E3
:100DD00024F0F7FAF094F7F8F094C092EE06D0926F
:100DE000EF06E092F006F092F106DF91CF911F91AD
:100DF0000F91FF90EF90DF90CF9008954F925F9208
:100E00006F927F928F929F92AF92BF92CF92DF921A
:100E1000EF92FF920F931F93CF93DF9368ED7FEFD5
:100E200081E498E00E94F80400E416E080EEC82E09
:100E300086E0D82E780193E0A92EB12C23E2822EF1
:100E4000912C6AE070E080E090E00E94CB0B60E0C3
:100E50008FE20E94B80AC5010197F1F761E08FE2C5
:100E60000E94B80AC4010197F1F760E08FE20E9486
:100E7000B80A81E30E948B0A072E000C880B990B9D
:100E80000E940B1226E933E44BE05DE30E94C0129E
:100E900020E030E040E05FE30E94C0122B013C0103
:100EA000F70161937193819391937F0162E070E008
:100EB00081E498E00E94F80468ED7FEF81E498E017
:100EC0000E94F804C301B2010E947A098DE692E003
:100ED0000E946C09CE14DF0409F0B3CFF8018190B1
:100EE0009190A190B1908F01BE01DD0F880B990BFD
:100EF0000E940B12A50194010E9462110E94D3115D
:100F0000EB01C016D10651F7CB0168E270E00E94F8
:100F1000311168307105C4F4072E000C880B990B51
:100F20000E940B12C1E02DEC3CEC4CEF50E40E940F
:100F3000CE1118160CF4C0E081E0C827D0E086EA94
:100F400092E00E946C0902C0C1E0D0E068ED7FEF42
:100F50008BE598E00E94F804CE01DF91CF911F91BC
:100F60000F91FF90EF90DF90CF90BF90AF909F9048
:100F70008F907F906F905F904F9008951F920F9287
:100F80000FB60F9211240BB60F922F933F934F93EE
:100F90005F936F937F938F939F93AF93BF93EF93E1
:100FA000FF9380E197E00E940D02FF91EF91BF91C6
:100FB000AF919F918F917F916F915F914F913F91F1
:100FC0002F910F900BBE0F900FBE0F901F90189592
:100FD0001F920F920FB60F9211240BB60F922F9300
:100FE0008F939F93EF93FF93E0912007F091210758
:100FF0008081E0912607F091270782FD12C0908141
:10100000809129078F5F8F7320912A07821751F0F3
:10101000E0912907F0E0E05FF84F958F8093290772
:1010200001C08081FF91EF919F918F912F910F903F
:101030000BBE0F900FBE0F901F9018951F920F922E
:101040000FB60F9211240BB60F922F933F934F932D
:101050005F936F937F938F939F93AF93BF93EF9320
:10106000FF9348E251E064E271E080E090E00E948A
:101070004F03FF91EF91BF91AF919F918F917F911E
:101080006F915F914F913F912F910F900BBE0F90F9
:101090000FBE0F901F9018951F920F920FB60F92D0
:1010A00011240BB60F922F933F934F935F936F933F
:1010B0007F938F939F93AF93BF93EF93FF9348EAF0
:1010C00050E064EA70E083E090E00E944F03FF91FB
:1010D000EF91BF91AF919F918F917F916F915F91B0
:1010E0004F913F912F910F900BBE0F900FBE0F901D
:1010F0001F9018951F920F920FB60F9211240BB6E6
:101100000F922F933F934F935F936F937F938F93A0
:101110009F93AF93BF93EF93FF9348E950E064E947
:1011200070E082E090E00E944F03FF91EF91BF9149
:10113000AF919F918F917F916F915F914F913F916F
:101140002F910F900BBE0F900FBE0F901F90189510
:101150001F920F920FB60F9211240BB60F922F937E
:101160003F934F935F936F937F938F939F93AF932F
:10117000BF93EF93FF9348E850E064E870E081E0AC
:1011800090E00E944F03FF91EF91BF91AF919F912B
:101190008F917F916F915F914F913F912F910F9020
:1011A0000BBE0F900FBE0F901F901895009769F01F
:1011B000FC0101900020E9F73197AF01481B590B62
:1011C000BC0180E197E00C94980180E090E00895E4
:1011D000CF92DF92EF92FF92DC01A03282E0B8075B
:1011E0000CF03EC0B7FD06C0A53BB1052CF0A4EB4A
:1011F000B0E002C0A0E0B0E080913F0828E830E015
:101200006901C81AD10887FDD394CC0CDD1CCC0C25
:10121000DD1C0D2C000CEE08FF088091400828E52D
:1012200032E0281B310987FD3395220F331F220F2F
:10123000331FA901330F660B770B9A01AB012C19F1
:101240003D094E095F090E94EC1024EB30E040E0BC
:1012500050E00E94C210C20ED31EE41EF51ED6013D
:1012600090913E08903398F580913F0848E850E00F
:10127000481B510987FD5395440F551F440F551FB7
:10128000A417B5078CF08091400828E532E0281BB0
:10129000310987FD3395220F331F220F331FAD0114
:1012A0002A173B070CF4A90142505109440F551F5E
:1012B0002FB7F894892F90E0FC01EE0FFF1F8E0FDF
:1012C0009F1FFC01E355F84F528341832FBFFF90CE
:1012D000EF90DF90CF900895CF93DF930E94D608D0
:1012E000EC018FE296E00E94D6088C0F9D1FDF91E3
:1012F000CF9108952F923F924F925F926F927F927B
:101300008F929F92AF92BF92CF92DF92EF92FF9215
:101310000F931F93CF93DF93CDB7DEB7A4970FB68C
:10132000F894DEBF0FBECDBF4B015C019B01AC0149
:101330000E942D13882319F082E396E01AC07501EC
:101340006401E894F7F82FEF3FEF4FE75FE7C7013D
:10135000B6010E942D13811110C02FEF3FEF4FE710
:101360005FE7C701B6010E94CE11181634F486E378
:1013700096E00E94D6088C01AFC02FEF3FEF4FE7F9
:101380005FE4C501B4010E94BB1218161CF48AE385
:1013900096E0EFCF2FEF3FEF4FE75FECC501B401D1
:1013A0000E94CE1187FDF3CF20E030E0A901C501F6
:1013B000B4010E94CE1187FF0BC06DE280E197E07F
:1013C0000E942F026C01B7FAB094B7F8B09402C033
:1013D000C12CD12C2AE037ED43EA5BE3C501B4010F
:1013E0000E9462114B015C010E94DA112B013C0149
:1013F0000E9409129B01AC01C501B4010E94611158
:101400004B015C0119A27E0181E2E80EF11CEAA207
:10141000FBA2C301B2012AE030E040E050E00E94AC
:10142000F41029013A01605DF70162937F01232BDB
:10143000242B252B71F7CF010E94D6088C016EE278
:1014400080E197E00E942F02800F911F8C010C0D0C
:101450001D1D83E0F82E9AE0292E312C412C512CB1
:10146000FA94FF20C9F120E030E040E251E4C501E8
:10147000B4010E94C0124B015C010E94DA119B0171
:1014800040E050E019A26AA07BA06CA3C32ED42E2A
:10149000E52ECA01B901A20191010E94F410605D1C
:1014A000F30162933F01211531054105510589F78B
:1014B000CF010E94D608080F191F6CA17C2D8D2D1D
:1014C0009E2D0E9409129B01AC01C501B4010E942E
:1014D00061114B015C01C4CF8FE296E00E94D608F7
:1014E000800F911FA4960FB6F894DEBF0FBECDBF3C
:1014F000DF91CF911F910F91FF90EF90DF90CF90F0
:10150000BF90AF909F908F907F906F905F904F9023
:101510003F902F9008950F931F9390E0FC01EE579A
:10152000FD4F6491FC01E45CFD4FE491F0E0EE0FAF
:10153000FF1FEE5DFD4F8591949100E412E42FE0D2
:1015400030E0462F0E944F0C611571058105910511
:1015500049F0DC01CB010196A11DB11DBC01CD01FB
:101560009F7003C060E070E0CB011F910F91089560
:10157000362F90E0FC01E452FE4F4491FC01EE57FF
:10158000FD4F2491FC01E45CFD4F9491992309F4F3
:101590006CC0442309F455C050E0FA013197E231A0
:1015A000F10508F04EC08827E458FF4F8F4F0C9488
:1015B0004511809180008F7707C0809180008F7DDA
:1015C00003C080918000877F809380003AC084B5FB
:1015D0008F7702C084B58F7D84BD33C08091B00009
:1015E0008F7703C08091B0008F7D8093B00029C0B9
:1015F000809190008F7707C0809190008F7D03C00D
:1016000080919000877F809390001BC08091A00004
:101610008F7707C08091A0008F7D03C08091A000CC
:10162000877F8093A0000DC0809120018F7707C035
:10163000809120018F7D03C080912001877F80935E
:101640002001E92FF0E0EE0FFF1FEE53FE4FA591B2
:10165000B4919FB7F894311104C08C912095282340
:1016600002C0EC912E2B2C939FBF0895CF93DF9354
:1016700090E0FC01EE57FD4F2491FC01E45CFD4F2E
:101680008491882361F190E0880F991FFC01E8554F
:10169000FE4FC591D491FC01EE53FE4FA591B4913C
:1016A000611109C09FB7F8948881209582238883AF
:1016B000EC912E230BC0623061F49FB7F8948881BF
:1016C000322F309583238883EC912E2B2C939FBF50
:1016D00006C08FB7F894E8812E2B28838FBFDF9147
:1016E000CF9108950F931F93CF93DF93EC01862F33
:1016F0001B861A86198218821E8A1F8A188E198ED6
:10170000E8ECF0E0FF83EE836C877D875F874E8790
:10171000398B288B1B8B0A8B61E00E94360B61E0B2
:101720008E850E94360B61E088890E94360B61E04D
:101730008A890E94360B1D8A1C8A84E090E0998772
:101740008887DF91CF911F910F9108953FB7F8944B
:101750008091940890919508A0919608B09197086F
:1017600026B5A89B05C02F3F19F00196A11DB11DFC
:101770003FBFBA2FA92F982F8827820F911DA11D37
:10178000B11DBC01CD0142E0660F771F881F991F74
:101790004A95D1F708958F929F92AF92BF92CF92C0
:1017A000DF92EF92FF926B017C010E94A60B4B012E
:1017B0005C01C114D104E104F104F1F00E94A60B14
:1017C000DC01CB0188199909AA09BB09883E93401D
:1017D000A105B10570F321E0C21AD108E108F108B2
:1017E00088EE880E83E0981EA11CB11CC114D104A0
:1017F000E104F10419F7DDCFFF90EF90DF90CF9077
:10180000BF90AF909F908F9008951F920F920FB648
:101810000F9211242F933F938F939F93AF93BF9376
:101820008091900890919108A0919208B0919308AE
:1018300030918F0823E0230F2D3720F40196A11D4E
:10184000B11D05C026E8230F0296A11DB11D2093EE
:101850008F088093900890939108A0939208B0937A
:1018600093088091940890919508A0919608B09162
:1018700097080196A11DB11D809394089093950837
:10188000A0939608B0939708BF91AF919F918F91C5
:101890003F912F910F900FBE0F901F901895CF92F0
:1018A000DF92EF92FF920F931F93E82FF92F05C05D
:1018B000015011092109310961F190819623941792
:1018C000B9F305C0015011092109310911F19081C5
:1018D00096239413F7CFC12CD12CE12CF12C0AC004
:1018E0008FEFC81AD80AE80AF80A0C151D052E054C
:1018F0003F0579F080818623841791F36C2D7D2D2F
:101900008E2D9F2D1F910F91FF90EF90DF90CF9024
:10191000089560E070E080E090E01F910F91FF90EB
:10192000EF90DF90CF900895789484B5826084BD65
:1019300084B5816084BD85B5826085BD85B58160D3
:1019400085BD80916E00816080936E001092810051
:10195000809181008260809381008091810081600C
:1019600080938100809180008160809380008091CD
:10197000B10084608093B1008091B0008160809359
:10198000B0008091910082608093910080919100DD
:10199000816080939100809190008160809390009D
:1019A0008091A10082608093A1008091A10081605C
:1019B0008093A1008091A00081608093A00080911D
:1019C00021018260809321018091210181608093B7
:1019D00021018091200181608093200180917A0013
:1019E000846080937A0080917A00826080937A008C
:1019F00080917A00816080937A0080917A0080687B
:101A000080937A001092C100E0912007F0912107A5
:101A100082E08083E0911C07F0911D071082E09125
:101A20001E07F0911F078FEC808310922807E0912A
:101A30002407F091250786E08083E0912207F0914A
:101A40002307808180618083E0912207F091230742
:101A5000808188608083E0912207F0912307808154
:101A600080688083E0912207F091230780818F7D39
:101A7000808381E090E0909301078093000790932A
:101A8000F5068093F4062091610830916208032ED8
:101A9000000C440B550BC12CC7E8DC2EC3E9EC2E1F
:101AA000C3E0FC2EC701B6010E94C210CA01B901F1
:101AB00028E230E040E050E00E94C21020935D0830
:101AC00030935E0840935F08509360082091470868
:101AD00030914808032E000C440B550BC701B6018A
:101AE0000E94C210DCE38D2E912CA12CB12CCA01D6
:101AF000B901A50194010E94C210209343083093BC
:101B00004408409345085093460820917B08309143
:101B10007C08032E000C440B550BC701B6010E9434
:101B2000C210CA01B901A50194010E94C2102093FC
:101B30007708309378084093790850937A0861E0E9
:101B40008BE20E94360B60E08DE20E94360B61E072
:101B50008FE20E94360B60E081E30E94360B61E069
:101B600083E30E94360B60E085E30E94360B809190
:101B70003E08803308F052C061E08DE00E94360BD1
:101B800080913E08E82FF0E09F01220F331FE20F03
:101B9000F31FE355F84F9081907C9D6090831092E5
:101BA0003F08109240086CE00E9425119CE0899F3C
:101BB000B001112440E050E09B01240F351FF901D2
:101BC000EE0FFF1F2E0F3F1FF901E355F84F9081D5
:101BD00096FD17C04F5F5F4F4C30510569F781305C
:101BE00009F01EC21092800082E080938100109262
:101BF000850010928400B19A80916F00826080937A
:101C00006F00E0913E08F0E0CF01880F991FE80FC8
:101C1000F91FE355F84F80818064808384EB90E066
:101C20000E94E80881E090E09093F3068093F2062A
:101C300068E270E08BE598E00E94F804C2E1D2E02F
:101C400009E210E03AE3E32EF12C4EE8C42ED12C49
:101C50005EE9A52EB12C6FEB862E912C0E94E20539
:101C60002091EA063091EB064091EC065091ED068A
:101C70006091EE067091EF068091F0069091F1066A
:101C80000E9462112091E6063091E7064091E80635
:101C90005091E9060E9462110E94D3111616170690
:101CA0000CF046C080EC92E00E946C090E94FE0697
:101CB00081309105E1F48FE093E00E946C0910936C
:101CC000F7060093F606F092F906E092F806D09235
:101CD000FB06C092FA06B092FD06A092FC06909216
:101CE000FF068092FE0623E0622E712C24C0892B11
:101CF000D1F784E293E00E946C0988819981109366
:101D0000030700930207F0920507E0920407D092C0
:101D10000707C0920607B0920907A09208079092A1
:101D20000B0780920A0790930D0780930C07DBCF77
:101D300092E0692E712C89E393E00E946C098A81FC
:101D40009B810E94D702BC018BE598E00E94F804B9
:101D5000229682E06816710409F480CF82E793E04E
:101D60000E946C0987E993E00E946C0968ED7FEF9F
:101D70008BE598E00E94F8048EEFE82E86E0F82EBE
:101D800080910E0790910F07019709F03CC1C09117
:101D90000C07D0910D07CE010E94D702BC018BE544
:101DA00098E00E94F804CE010E94D70287EE93E0EB
:101DB0000E946C090E949B0568EE73E080E090E051
:101DC0000E94CB0B0E942A0368EE73E080E090E053
:101DD0000E94CB0B0E94800568EE73E080E090E0EB
:101DE0000E94CB0B0E942A0368EE73E080E090E033
:101DF0000E94CB0B0E9480050E949B0568EE73E059
:101E000080E090E00E94CB0B85E394E00E946C0997
:101E1000C2E0D7E009911991C8010E94D702BC0124
:101E200081E498E00E94F804C8010E94D70283E789
:101E300094E00E946C090E94BE0588EB94E00E9429
:101E40006C0997E0CA30D90729F7C0910A07D091E9
:101E50000B07CE010E94D702BC0181E498E00E94EA
:101E6000F804CE010E94D7020E949B0568EE73E041
:101E700080E090E00E94CB0B0E94800568EE73E04A
:101E800080E090E00E94CB0B0E942A030E94800514
:101E900068EE73E080E090E00E94CB0B0E942A0382
:101EA0000E949B0568EE73E080E090E00E94CB0BFF
:101EB00080910A0790910B0790930D0780930C0770
:101EC0008FEE94E00E946C090E9407038091000746
:101ED00090910107019709F096C0C0910C07D0912D
:101EE0000D07CE010E94D702BC018BE598E00E944D
:101EF000F804CE010E94D70281E395E00E946C09AC
:101F00000E949B0568EE73E080E090E00E94CB0B9E
:101F10000E942A0368EE73E080E090E00E94CB0B01
:101F20000E94800568EE73E080E090E00E94CB0B99
:101F30000E942A0368EE73E080E090E00E94CB0BE1
:101F40000E9480050E949B0568EE73E080E090E0AF
:101F50000E94CB0B8FE795E00E946C09C6EFD6E09C
:101F600009911991C8010E94D702BC0181E498E04F
:101F70000E94F804C8010E94D70283E794E00E94FF
:101F80006C090E94BE0588EB94E00E946C09EC1677
:101F9000FD0631F7C091FE06D091FF06CE010E94EA
:101FA000D702BC0181E498E00E94F804CE010E94AF
:101FB000D7020E949B0568EE73E080E090E00E94EB
:101FC000CB0B0E94800568EE73E080E090E00E94F9
:101FD000CB0B0E942A030E94800568EE73E080E02C
:101FE00090E00E94CB0B0E942A030E949B0568EEA2
:101FF00073E080E090E00E94CB0B8DEB95E00E94B7
:102000006C090E9407038FEF95E00E946C0960ED58
:1020100077E080E090E00E94CB0B0E949E02B0CE61
:10202000823061F41092900080939100109295009C
:102030001092940088BB80937100E3CD833069F4E3
:102040001092A00082E08093A1001092A50010924F
:10205000A40089BB80937200D4CD8111D2CD10929F
:10206000200182E080932101109225011092240129
:102070008ABB80937300C5CD0F931F9310921307F3
:102080001092120788EE93E0A0E0B0E0809314076E
:1020900090931507A0931607B093170784E092E07A
:1020A000909311078093100785EC90E090931D07A3
:1020B00080931C0784EC90E090931F0780931E0789
:1020C00080EC90E0909321078093200781EC90E0D2
:1020D000909323078093220782EC90E0909325074A
:1020E0008093240786EC90E090932707809326073F
:1020F0001092290710922A0710922B0710922C0792
:1021000005E010E024E030E043E050E062E070E001
:1021100085E798E00E94720B0BE010E02AE030E0C7
:1021200049E050E068E070E08BE598E00E94720BB7
:102130000FE110E02DE130E04BE150E069E170E0AB
:1021400081E498E00E94720B80913D088033A0F4F6
:1021500091E0980F90933D0880933E0890E0FC0139
:10216000EE0FFF1F8E0F9F1FFC01E355F84F88EB0A
:102170009BE09283818303C08FEF80933E081F9181
:102180000F910895052E97FB1EF400940E94D9101C
:1021900057FD07D00E94F41007FC03D04EF40C94B6
:1021A000D91050954095309521953F4F4F4F5F4F37
:1021B000089590958095709561957F4F8F4F9F4FB3
:1021C00008950E941611A59F900DB49F900DA49F95
:1021D000800D911D11240895B7FF0C94E1100E9409
:1021E000E110821B930B0895A1E21A2EAA1BBB1BC0
:1021F000FD010DC0AA1FBB1FEE1FFF1FA217B307D3
:10220000E407F50720F0A21BB30BE40BF50B661FE8
:10221000771F881F991F1A9469F7609570958095AC
:1022200090959B01AC01BD01CF010895A29FB00123
:10223000B39FC001A39F700D811D1124911DB29FFA
:10224000700D811D1124911D0895991B79E004C022
:10225000991F961708F0961B881F7A95C9F78095E5
:10226000089597FB072E16F4009407D077FD09D048
:102270000E944D1107FC05D03EF4909581959F4F2B
:102280000895709561957F4F0895EE0FFF1F881F89
:102290008BBF0790F691E02D1994AA1BBB1B51E14F
:1022A00007C0AA1FBB1FA617B70710F0A61BB70BC6
:1022B000881F991F5A95A9F780959095BC01CD016B
:1022C00008955058BB27AA270E9479110C948112B7
:1022D0000E94731238F00E947A1220F039F49F3F66
:1022E00019F426F40C9470120EF4E095E7FB0C94AC
:1022F0006A12E92F0E94921258F3BA176207730705
:102300008407950720F079F4A6F50C94B4120EF426
:10231000E0950B2EBA2FA02D0B01B90190010C01F5
:10232000CA01A0011124FF27591B99F0593F50F40D
:10233000503E68F11A16F040A22F232F342F442765
:10234000585FF3CF469537952795A795F04053955D
:10235000C9F77EF41F16BA0B620B730B840BBAF02D
:102360009150A1F0FF0FBB1F661F771F881FC2F798
:102370000EC0BA0F621F731F841F48F487957795AC
:102380006795B795F7959E3F08F0B0CF9395880F66
:1023900008F09927EE0F9795879508950E944612A9
:1023A00008F481E008950E94DA116894B1110C9448
:1023B000B51208950E949A1288F09F5798F0B92F8D
:1023C0009927B751B0F0E1F0660F771F881F991F6A
:1023D0001AF0BA95C9F714C0B13091F00E94B41246
:1023E000B1E008950C94B412672F782F8827B85F56
:1023F00039F0B93FCCF3869577956795B395D9F7C2
:102400003EF490958095709561957F4F8F4F9F4FCB
:102410000895E89409C097FB3EF4909580957095D7
:1024200061957F4F8F4F9F4F9923A9F0F92F96E920
:10243000BB279395F695879577956795B795F11195
:10244000F8CFFAF4BB0F11F460FF1BC06F5F7F4F32
:102450008F4F9F4F16C0882311F096E911C0772344
:1024600021F09EE8872F762F05C0662371F096E84D
:10247000862F70E060E02AF09A95660F771F881F1C
:10248000DAF7880F9695879597F90895990F0008C0
:10249000550FAA0BE0E8FEEF16161706E807F90736
:1024A000C0F012161306E407F50798F0621B730BD1
:1024B000840B950B39F40A2661F0232B242B252B52
:1024C00021F408950A2609F4A140A6958FEF811DF5
:1024D000811D089597F99F6780E870E060E0089596
:1024E0009FEF80EC089500240A941616170618062C
:1024F0000906089500240A94121613061406050608
:102500000895092E0394000C11F4882352F0BB0F98
:1025100040F4BF2B11F460FF04C06F5F7F4F8F4FFB
:102520009F4F089557FD9058440F551F59F05F3F36
:1025300071F04795880F97FB991F61F09F3F79F0E5
:1025400087950895121613061406551FF2CF469567
:10255000F1DF08C0161617061806991FF1CF8695E9
:102560007105610508940895E894BB2766277727CD
:10257000CB0197F908950E94461208F48FEF089551
:102580000E94D3120C9481120E94731238F00E94A0
:102590007A1220F0952311F00C946A120C947012A8
:1025A00011240C94B5120E94921270F3959FC1F3FE
:1025B000950F50E0551F629FF001729FBB27F00DF1
:1025C000B11D639FAA27F00DB11DAA1F649F662746
:1025D000B00DA11D661F829F2227B00DA11D621F95
:1025E000739FB00DA11D621F839FA00D611D221F4F
:1025F000749F3327A00D611D231F849F600D211D33
:10260000822F762F6A2F11249F5750409AF0F1F0B5
:1026100088234AF0EE0FFF1FBB1F661F771F881F1E
:1026200091505040A9F79E3F510580F00C946A12DA
:102630000C94B5125F3FE4F3983ED4F386957795FA
:102640006795B795F795E7959F5FC1F7FE2B880FC4
:10265000911D9695879597F908950E944612880BCB
:10266000990B089581E090E0F8940C943713F89456
:02267000FFCF9A
:10267200000000002F029801C6017C02F701D5017B
:10268200E9010000080010001900210029003200B1
:102692003A0042004B0053005B0064006C0074007F
:1026A2007D0085008E0096009E00A600AF00B70058
:1026B200BF00437269746963616C206572726F72E4
:1026C20020446961626F6C6F207374617465205578
:1026D2006E6B6E6F776E006572726F720068696AF8
:1026E2002069732077656572207465727567206949
:1026F2006E2064652063656E746572206E6164612C
:10270200742068696A20686565667420676573630A
:10271200616E6E6564006572726F722064696162D7
:102722006F6C20682F6C206F6E62656B656E740033
:1027320068696A20686565667420646520656572EB
:1027420073746520446961626F6C206765766F6E91
:1027520064656E206761206E752062657061616CD0
:10276200656E206F662068696A20737461616E20ED
:102772006F66206C696767656E6420697320006408
:102782006520316520646961626F6C20697320483D
:102792006F6F6700646520316520646961626F6CE8
:1027A200206973204C6161670068696A2068656509
:1027B2006674206E696B73206765766F6E64656EF2
:1027C20020696E2064652076616B206761617420E8
:1027D2006E61617220646520766F6C67656E6465F8
:1027E200200068696A2067616174206E75207A6FC3
:1027F200656B656E206E61617220646520326520B2
:10280200646961626F6C0068696A206865656674F4
:1028120020626569646520646961626F6C656E201F
:102822006765766F6E64656E20656E206765696E9A
:10283200646963656572642077656C6B65206B61A2
:102842006E742068696A206F70206D6F65742064F1
:1028520072616169656E00696B2068616E67206EE6
:102862007520626F76656E206465206C69676765A6
:102872006E646520646961626F6C20696B206761B8
:10288200206E7520626567696E6E656E206D657477
:10289200206D696A6E2067616D6520737472617460
:1028A2006567696500696B20686562204C20646910
:1028B20061626F6C20696E206D696A6E2068616E5C
:1028C20064656E20656E2062656E20776565722094
:1028D200746572756720696E206D696A6E20686121
:1028E200727400696B206761206E7520626567698A
:1028F2006E6E656E206D65742065656E2070756EF6
:1029020074207465207665727A616D656C656E20DF
:10291200766F6F72206465206C696767656E6465A7
:1029220020646961626F6C00696B20686562206E69
:1029320065742065656E2070756E74207665727A96
:10294200616D656C74207665646572206E6161727A
:1029520020646520766F6C67656E6465202100696E
:102962006B2062656E206B6C616172206D657420F4
:1029720070756E746A6573207665727A616D656CC6
:10298200656E207961792021206E75206F70206E2E
:10299200616172206465204820646961626F6C2104
:1029A20000696B2068616E67206E7520626F7665C4
:1029B2006E20646520737461616E646520206469B1
:1029C20061626F6C20696B206761206E75206265A1
:1029D20067696E6E656E206D6574206D696A6E2022
:1029E20067616D65207374726174656769650069FA
:1029F2006B20686562204820646961626F6C20699F
:102A02006E206D696A6E2068616E64656E20656E07
:102A12002062656E20776565722074657275672025
:102A2200696E206D696A6E206861727400696B203C
:102A320062656E206B6C616172206D6574207075C9
:102A42006E746A6573207665727A616D656C656E07
:102A5200207961792021206E75206F70206E61616E
:102A620072206465204C20646961626F6C21006988
:102A72006B2068656220342070756E74656E2076F6
:102A820065727A616D656C64206E61617220646545
:102A920020766F6C67656E646520746F6520000D2B
:0E2AA2000A006E616E00696E66006F76660057
:00000001FF
