:100000000C9465010C9496010C9496010C94960145
:100010000C9496010C9496010C9496010C94960104
:100020000C9496010C9496010C9496010C949601F4
:100030000C9496010C9496010C9496010C949601E4
:100040000C9496010C94C2080C9496010C949601A1
:100050000C9496010C9496010C9496010C94620CED
:100060000C9496010C9402080C94D8070C949601F9
:100070000C9496010C9496010C9496010C949601A4
:100080000C9494080C9496010C9496010C9496018F
:100090000C9496010C9496010C9496010C94960184
:1000A0000C9496010C9496010C9466080C9496019D
:1000B0000C9496010C9496010C9496010C943808BB
:1000C0000C9496010C9496010C9496010C94960154
:1000D0000C9496010C9496010C9496010C94960144
:1000E0000C94960189048F049904A704A904AF0411
:1000F000B904C704D904DB04440B470B360B3A0B95
:100100003E0B7E0B4B0B4F0B550B590B5D0B630BD3
:10011000670B6B0B7E0B710B750B790B0C94A704A3
:100120000C946B0B0C9499040C947C020C94630B50
:100130000C94A9040C94AF040C9489040C94E90168
:100140000C94550B0C948F040C943A0B0C94710B7B
:100150000C949F100C94670B0C945D0B0C942F0265
:100160000C94D5010C94750B0C94D9040C94790B58
:100170000C944B0B0C94DB040C94360B0C949801F0
:100180000C947E0B0C94C6010C94C7040C943E0B8B
:100190000C944F0B0C94470B0C94590B0C94F701D7
:1001A0000C94440B0C94B904000021002400270097
:1001B0002A002D0030003300010100000401070176
:1001C0000A0100002200250028002B002E0031002B
:1001D000340002010000050108010B0100000A0BB8
:1001E00002090C0D0E0807030401000000000000C6
:1001F00000000000000000000000000000000000FF
:1002000000000000000000001211100000000000BB
:1002100000000000000000000000000000000000DE
:100220000000000020002300260029002C002F00E1
:100230003200000100000301060109010505050562
:10024000070508080808020202020A0A080804044E
:10025000040401010101010101010303030303037C
:100260000303040707070C0C0C0C0C0C0C0C02020B
:10027000020206060606060606060B0B0B0B0B0B08
:100280000B0B010210202008081020401020408095
:10029000020102010804020101020408102040804A
:1002A00080402010080402018004020180402010D8
:1002B0000804020108040201010204081020408021
:1002C00001020408102040809F1011241FBECFEFB0
:1002D000D1E2DEBFCDBF00E00CBF16E0A0E0B2E08F
:1002E000E8E2F8E200E00BBF02C007900D92A23BEB
:1002F000B107D9F729E0A2EBB6E001C01D92A03109
:10030000B207E1F711E0C5E6D1E000E006C02197B1
:100310000109802FFE010E94AE11C436D10780E092
:100320000807A9F70E94F10C0C9412140C94000019
:10033000CF92DF92EF92FF920F931F93CF93DF93B1
:100340006C017A018B01C0E0D0E0CE15DF0581F0B1
:10035000D8016D918D01D601ED91FC910190F08154
:10036000E02DC6011995892B11F02196EECF7E0163
:10037000C701DF91CF911F910F91FF90EF90DF9018
:10038000CF900895089580E090E00895FC01538D8A
:10039000448D252F30E0842F90E0821B930B54175F
:1003A00010F0CF96089501970895FC01918D828DEC
:1003B000981761F0828DDF01A80FB11D5D968C91B9
:1003C000928D9F5F9F73928F90E008958FEF9FEFC4
:1003D0000895FC01918D828D981731F0828DE80F80
:1003E000F11D858D90E008958FEF9FEF0895FC013A
:1003F000918D228D892F90E0805C9F4F821B910907
:100400008F739927089586E897E00E94F70121E00D
:10041000892B09F420E0822F0895FC01848DDF01EF
:10042000A80FB11DA35ABF4F2C91848D90E0019667
:100430008F739927848FA689B7892C93A089B18956
:100440008C91837080648C93938D848D981306C0F7
:100450000288F389E02D80818F7D80830895EF925B
:10046000FF920F931F93CF93DF93EC0181E0888F6E
:100470009B8D8C8D981305C0E889F989808185FD55
:1004800026C0F62E0B8D10E00F5F1F4F0F73112744
:10049000E02E8C8DE8120CC00FB607FCFACFE8896D
:1004A000F989808185FFF5CFCE010E940D02F1CF41
:1004B0008B8DFE01E80FF11DE35AFF4FF0829FB7CD
:1004C000F8940B8FEA89FB89808180620AC09FB70C
:1004D000F894EE89FF896083E889F98980818370C7
:1004E000806480839FBF81E090E0DF91CF911F9176
:1004F0000F91FF90EF900895CF93DF93EC01888DDB
:100500008823C9F0EA89FB89808185FD05C0A88917
:10051000B9898C9186FD0FC00FB607FCF5CF80819D
:1005200085FFF2CFA889B9898C9185FFEDCFCE01E7
:100530000E940D02E7CFDF91CF91089580E090E017
:10054000892B21F00E940302811125C080E090E0F8
:10055000892B41F080E090E0892B21F00E9400007F
:1005600081111CC080E090E0892B41F080E090E098
:10057000892B21F00E940000811113C080E090E0DF
:10058000892BA1F080E090E0892B81F00E9400008F
:1005900081110AC008950E940000D8CF0E94000077
:1005A000E1CF0E940000EACF0C9400000895209152
:1005B000B4083091B508AC01421B530B28533F4F90
:1005C000BC01621B730B9B01FA0157FF04C0EE27AD
:1005D000FF27E41BF50BB90137FF04C06627772717
:1005E000621B730B6E177F072CF05093B30640937A
:1005F000B20604C03093B3062093B2069093B508B8
:100600008093B4088091B2069091B30608958091CA
:100610007207909173078130910541F4909381079F
:100620008093800710927307109272078091800761
:10063000909181078130910549F4109281071092C1
:1006400080079093730780937207089582E492E085
:100650000C9486098091640790916507892B51F469
:1006600084EB90E00E94F00881E090E090936507B1
:10067000809364078091640790916507019749F41E
:100680008AE590E00E94F0081092650710926407D6
:10069000089587E692E00C9486090E940D14CF928B
:1006A000DF92EF92FF920F931F93CF93DF936C0132
:1006B0008B017A01EC01CC5AD84F888187FF04C0A6
:1006C000FB011182108224C02CE02C9DC0012D9DC5
:1006D000900D11242881AC01420F511D27FD5A9520
:1006E0002091B30830E04217530794F42881AC01FD
:1006F000420F511D27FD5A959A01FA01EE0FFF1F77
:100700002E0F3F1FF901ED5DF74F208126FD19C027
:1007100088818F5F88832CE02C9DC0012D9D900DDA
:1007200011242881AC01420F511D27FD5A952091BB
:10073000B30830E042175307BCF428812C3044F151
:1007400013C02881820F911D27FD9A95FC01EE0FA1
:10075000FF1F8E0F9F1FFC01ED5DF74F808160E052
:100760008F730E94150BD4CFF8018081918104967C
:1007700080349C4918F480E49CE904C0F80180812D
:1007800091810496F701918380838FEF888345C020
:10079000F801408151812881BC01620F711D27FD44
:1007A0007A959B01FB01EE0FFF1F2E0F3F1FF901F2
:1007B000ED5DF74F21813281240F351FF701318321
:1007C00020832881AC01420F511D27FD5A959A01C3
:1007D000FA01EE0FFF1F2E0F3F1FF901ED5DF74FDE
:1007E000208126FF1AC02881820F911D27FD9A952E
:1007F000FC01EE0FFF1F8E0F9F1FFC01ED5DF74FF9
:10080000808161E08F73DF91CF911F910F91FF90F5
:10081000EF90DF90CF900C94150BDF91CF911F914B
:100820000F91FF90EF90DF90CF9008950F931F935B
:10083000CF93DF93EC018B01888599850297F1F4C2
:100840006130710569F024F4672BC1F460E009C0E0
:100850006230710559F06330710581F460E007C0C2
:1008600061E08C850E94150B61E005C061E08C851C
:100870000E94150B60E08E850E94150B8885998576
:100880000497B9F501301105B1F04CF401151105CB
:1008900081F561E08C850E94150B60E011C002308B
:1008A0001105B9F00330110521F561E08C850E9436
:1008B000150B60E013C060E08C850E94150B61E0B1
:1008C0008E850E94150B61E088890E94150B60E0FF
:1008D0000DC060E08C850E94150B61E08E850E9442
:1008E000150B60E088890E94150B61E08A890E94DF
:1008F000150B88859985059709F075C00A30110593
:1009000008F071C0F8018827EE58FF4F8F4F0C9404
:10091000AE1160E08C850E94150B61E051C060E073
:100920008C850E94150B61E08E850E94150B60E09E
:100930004BC060E08C850E94150B61E08E850E94A3
:10094000150B60E088890E94150B61E041C060E0F2
:1009500001C061E08C850E94150B61E005C061E07B
:100960008C850E94150B60E08E850E94150B60E05F
:1009700009C061E08C850E94150B60E08E850E94A5
:10098000150B61E088890E94150B61E00DC061E0E4
:100990008C850E94150B60E08E850E94150B61E02E
:1009A00088890E94150B60E08A890E94150B60E01F
:1009B00013C061E001C060E08C850E94150B60E00F
:1009C0008E850E94150B61E088890E94150B60E0FE
:1009D0008A890E94150B61E08C89DF91CF911F916C
:1009E0000F910C94150BDF91CF911F910F910895EA
:1009F0004F925F926F927F928F929F92AF92BF922F
:100A0000CF92DF92EF92FF920F931F93CF93DF93DA
:100A1000EC018B0177FF04C000271127061B170B81
:100A2000161617062CF481E090E09983888304C0A1
:100A3000672B11F01982188284E0E82EF12C9AE0DD
:100A4000C92ED12C0115110509F449C00E94030CCF
:100A50008E889F88A88CB98C2B013C0148185908B6
:100A60006A087B088A809B80AC80BD80481459044A
:100A70006A047B0438F36E8B7F8B888F998F288173
:100A800039818A859B852130310559F401969B87F0
:100A90008A872E813F818217930771F41B861A86FD
:100AA0000BC0892B21F48E819F819B878A878A8541
:100AB0009B8501979B878A87015011092885398575
:100AC0008A859B852530310511F4B60101C0B70137
:100AD0000E949A11BC01CE010E941604B3CFDF918F
:100AE000CF911F910F91FF90EF90DF90CF90BF902B
:100AF000AF909F908F907F906F905F904F900895F0
:100B00008091720790917307019749F466E571E04F
:100B10008DEE98E00E94F8046AEA7EEF08C067E56F
:100B200071E08DEE98E00E94F80469EA7EEF8DEEA8
:100B300098E00C94F8048091660790916707892BE0
:100B400061F468E270E089EB98E00E94F80481E0CB
:100B500090E0909367078093660780916607909175
:100B60006707019751F468ED7FEF89EB98E00E94E9
:100B7000F804109267071092660708950E949B057B
:100B800068EE73E080E090E00E94280C0E948005EF
:100B900068EE73E080E090E00E94280C0E942A0337
:100BA00068EE73E080E090E00E94280C0E942A0327
:100BB0000E9480050E949B0560ED77E080E090E058
:100BC0000C94280C4F925F926F927F928F929F921B
:100BD000AF92BF92CF92DF92EF92FF920F931F934B
:100BE000CF93DF9368ED7FEF89EB98E00E94F804E4
:100BF000C4EBD6E08E0183E0A82EB12C93E2892EBF
:100C0000912C6AE070E080E090E00E94280C60E0A7
:100C10008FE20E94150BC5010197F1F761E08FE2A9
:100C20000E94150BC4010197F1F760E08FE20E946A
:100C3000150B81E30E94E80A072E000C880B990B24
:100C40000E94E61226E933E44BE05DE30E949B1329
:100C500020E030E040E05FE30E949B132B013C0169
:100C6000F80161937193819391938F0162E070E039
:100C700089EB98E00E94F80468ED7FEF89EB98E03B
:100C80000E94F804C301B2010E94D90A8DE692E0E5
:100C90000E948609F7E004351F0709F0B2CF2991B9
:100CA000399149915991C701B6010E94CB116B014D
:100CB0007C0187E0C435D80791F720E030E040E2BE
:100CC00052E4C701B6010E943C126B017C0120E096
:100CD00030E040E051E40E94961387FF14C0C1E069
:100CE0002DEC3CEC4CEF50E4C701B6010E943712EA
:100CF00018160CF4C0E081E0C827D0E086EA92E044
:100D00000E94860902C0C1E0D0E068ED7FEF83ED6C
:100D100098E00E94F804CE01DF91CF911F910F91CE
:100D2000FF90EF90DF90CF90BF90AF909F908F900B
:100D30007F906F905F904F9008950F931F93CF9384
:100D4000DF9360E08BE20E94150B03E010E0C80126
:100D50000197F1F761E08BE20E94150BC3E2D0E04E
:100D6000CE010197F1F760E08BE20E94150B8DE256
:100D70000E94E80A072E000C880B990B0E94E612CD
:100D800026E933E44BE05DE30E949B1320E030E072
:100D900040E05FE30E949B136093600770936107DC
:100DA000809362079093630780EC92E00E9486092B
:100DB000609160077091610780916207909163076D
:100DC0000E94D90A64E170E080E090E00E94280C63
:100DD00060E08FE20E94150BC8010197F1F761E016
:100DE0008FE20E94150BCE010197F1F760E08FE2D0
:100DF0000E94150B81E30E94E80A072E000C880B65
:100E0000990B0E94E61226E933E44BE05DE30E9471
:100E10009B1320E030E040E05FE30E949B1360936F
:100E20005C0770935D0780935E0790935F0782ED88
:100E300092E00E94860960915C0770915D07809145
:100E40005E0790915F070E94D90A64E170E080E03C
:100E500090E00E94280C60E083E30E94150BC8011B
:100E60000197F1F761E083E30E94150B2197F1F7F9
:100E700060E083E30E94150B85E30E94E80A072ED9
:100E8000000C880B990B0E94E61226E933E44BE034
:100E90005DE30E949B1320E030E040E05FE30E94AE
:100EA0009B13609358077093590780935A07909348
:100EB0005B0784EE92E00E9486096091580770916A
:100EC000590780915A0790915B070E94D90A64E103
:100ED00070E080E090E00E94280C2091580730914B
:100EE000590740915A0750915B0760E070E080E23B
:100EF00091E40E94CA116093580770935907809338
:100F00005A0790935B0720915C0730915D074091F1
:100F10005E0750915F0760E070E080E291E40E941C
:100F2000CA1160935C0770935D0780935E0790938E
:100F30005F072091600730916107409162075091EF
:100F4000630760E070E080E291E40E94CA11609360
:100F5000600770936107809362079093630786EF41
:100F600092E00E947409609160077091610780911E
:100F700062079091630742E00E94B80960915C07A4
:100F800070915D0780915E0790915F0742E00E943B
:100F9000B809609158077091590780915A0790914C
:100FA0005B0742E0DF91CF911F910F910C94B8093C
:100FB0001F920F920FB60F9211240BB60F922F9320
:100FC0003F934F935F936F937F938F939F93AF93D1
:100FD000BF93EF93FF9386E897E00E940D02FF9185
:100FE000EF91BF91AF919F918F917F916F915F91A1
:100FF0004F913F912F910F900BBE0F900FBE0F900E
:101000001F9018951F920F920FB60F9211240BB6D6
:101010000F922F938F939F93EF93FF93E0919607F7
:10102000F09197078081E0919C07F0919D0782FDE8
:1010300012C0908180919F078F5F8F732091A007CE
:10104000821751F0E0919F07F0E0EA57F84F958F33
:1010500080939F0701C08081FF91EF919F918F91B5
:101060002F910F900BBE0F900FBE0F901F901895F1
:101070001F920F920FB60F9211240BB60F922F935F
:101080003F934F935F936F937F938F939F93AF9310
:10109000BF93EF93FF9348E251E064E271E080E098
:1010A00090E00E944F03FF91EF91BF91AF919F910C
:1010B0008F917F916F915F914F913F912F910F9001
:1010C0000BBE0F900FBE0F901F9018951F920F929E
:1010D0000FB60F9211240BB60F922F933F934F939D
:1010E0005F936F937F938F939F93AF93BF93EF9390
:1010F000FF9348EA50E064EA70E083E090E00E94E9
:101100004F03FF91EF91BF91AF919F918F917F918D
:101110006F915F914F913F912F910F900BBE0F9068
:101120000FBE0F901F9018951F920F920FB60F923F
:1011300011240BB60F922F933F934F935F936F93AE
:101140007F938F939F93AF93BF93EF93FF9348E960
:1011500050E064E970E082E090E00E944F03FF916C
:10116000EF91BF91AF919F918F917F916F915F911F
:101170004F913F912F910F900BBE0F900FBE0F908C
:101180001F9018951F920F920FB60F9211240BB655
:101190000F922F933F934F935F936F937F938F9310
:1011A0009F93AF93BF93EF93FF9348E850E064E8B9
:1011B00070E081E090E00E944F03FF91EF91BF91BA
:1011C000AF919F918F917F916F915F914F913F91DF
:1011D0002F910F900BBE0F900FBE0F901F90189580
:1011E000CF92DF92EF92FF92DC01A03282E0B8074B
:1011F0000CF03EC0B7FD06C0A53BB1052CF0A4EB3A
:10120000B0E002C0A0E0B0E08091B70828E830E08C
:101210006901C81AD10887FDD394CC0CDD1CCC0C15
:10122000DD1C0D2C000CEE08FF088091B80828E5A5
:1012300032E0281B310987FD3395220F331F220F1F
:10124000331FA901330F660B770B9A01AB012C19E1
:101250003D094E095F090E94551124EB30E040E042
:1012600050E00E942B11C20ED31EE41EF51ED601C3
:101270009091B608903398F58091B70848E850E00F
:10128000481B510987FD5395440F551F440F551FA7
:10129000A417B5078CF08091B80828E532E0281B28
:1012A000310987FD3395220F331F220F331FAD0104
:1012B0002A173B070CF4A90142505109440F551F4E
:1012C0002FB7F894892F90E0FC01EE0FFF1F8E0FCF
:1012D0009F1FFC01ED5DF74F528341832FBFFF90AD
:1012E000EF90DF90CF900895009769F0FC01019096
:1012F0000020E9F73197AF01481B590BBC0186E884
:1013000097E00C94980180E090E00895CF93DF93EC
:101310000E947409EC0183EA96E00E9474098C0F24
:101320009D1FDF91CF910895CF92DF92EF92FF92B0
:10133000BC01990F880B990B0E94E61220E932EC50
:1013400045E75EE30E943C126B017C0120E030E047
:10135000A9010E949613181624F0F7FAF094F7F8F2
:10136000F094C701B601FF90EF90DF90CF90089501
:101370002F923F924F925F926F927F928F929F92A5
:10138000AF92BF92CF92DF92EF92FF920F931F9393
:10139000CF93DF93CDB7DEB7A4970FB6F894DEBF37
:1013A0000FBECDBF4B015C01F42E9B01AC010E942E
:1013B0000814882319F086EA96E027C02401350135
:1013C000E89477F82FEF3FEF4FE75FE7C301B201F3
:1013D0000E94081481110DC02FEF3FEF4FE75FE728
:1013E000C301B2010E94371218161CF48AEA96E073
:1013F0000CC02FEF3FEF4FE75FE4C501B4010E943F
:10140000961318162CF48EEA96E00E947409B8C060
:101410002FEF3FEF4FE75FECC501B4010E94371299
:1014200087FDF1CF20E030E0A901C501B4010E94A1
:10143000371287FF0BC06DE286E897E00E942F020B
:101440003C01B7FAB094B7F8B09402C0612C712C8B
:1014500010E060E070E080E09FE3F11641F020E0F2
:1014600030E040E251E40E943C121F5FF6CFA5013C
:1014700094010E94CB114B015C010E94B5126AA33A
:10148000C72ED82EE92E19A2262F372F482F592FD5
:101490008E010F5D1F4F0BA31CA39AE0292E312C48
:1014A000412C512CCA01B901A20191010E945D1188
:1014B000605DF80162938F012115310541055105E9
:1014C00089F7CF010E9474098301080F191FFF20BB
:1014D00009F455C06AA17C2D8D2D9E2D0E94E41229
:1014E0009B01AC01C501B4010E94CA114B015C0112
:1014F0006EE286E897E00E942F02080F191F8AE02B
:10150000282E312C412C512C20E030E040E251E4D7
:10151000C501B4010E949B134B015C010E94B512EE
:101520009B0140E050E019A2CBA0DCA0762E3AA3AC
:10153000642EE52ECA01B901A20191010E945D113C
:10154000605DF60162936F0121153105410551057A
:1015500089F7CF010E947409080F191F672D7AA11E
:10156000862D9E2D0E94E4129B01AC01C501B401A1
:101570000E94CA114B015C01FA94F110C5CFC80159
:10158000A4960FB6F894DEBF0FBECDBFDF91CF910A
:101590001F910F91FF90EF90DF90CF90BF90AF9091
:1015A0009F908F907F906F905F904F903F902F9083
:1015B0000895CF93DF9342E00E94B809EC0183EADB
:1015C00096E00E9474098C0F9D1FDF91CF910895C2
:1015D0000F931F9390E0FC01EE57FD4F6491FC01C7
:1015E000E45CFD4FE491F0E0EE0FFF1FEE5DFD4F78
:1015F0008591949100E412E42FE030E0462F0E94A0
:10160000AC0C611571058105910549F0DC01CB0138
:101610000196A11DB11DBC01CD019F7003C060E00A
:1016200070E0CB011F910F910895362F90E0FC01DF
:10163000E452FE4F4491FC01EE57FD4F2491FC0112
:10164000E45CFD4F9491992309F46CC0442309F4A0
:1016500055C050E0FA013197E231F10508F04EC073
:101660008827E458FF4F8F4F0C94AE118091800073
:101670008F7707C0809180008F7D03C080918000AC
:10168000877F809380003AC084B58F7702C084B58D
:101690008F7D84BD33C08091B0008F7703C080916F
:1016A000B0008F7D8093B00029C0809190008F772B
:1016B00007C0809190008F7D03C080919000877F4C
:1016C000809390001BC08091A0008F7707C080910D
:1016D000A0008F7D03C08091A000877F8093A00031
:1016E0000DC0809120018F7707C0809120018F7DF0
:1016F00003C080912001877F80932001E92FF0E0D3
:10170000EE0FFF1FEE53FE4FA591B4919FB7F894D3
:10171000311104C08C912095282302C0EC912E2B0E
:101720002C939FBF0895CF93DF9390E0FC01EE5779
:10173000FD4F2491FC01E45CFD4F8491882361F10D
:1017400090E0880F991FFC01E855FE4FC591D49198
:10175000FC01EE53FE4FA591B491611109C09FB7F2
:10176000F8948881209582238883EC912E230BC0E6
:10177000623061F49FB7F8948881322F30958323CB
:101780008883EC912E2B2C939FBF06C08FB7F894C3
:10179000E8812E2B28838FBFDF91CF9108950F937F
:1017A0001F93CF93DF93EC01862F1B861A86198235
:1017B00018821E8A1F8A188E198EE8ECF0E0FF83CB
:1017C000EE836C877D875F874E87398B288B1B8BD9
:1017D0000A8B61E00E94930B61E08E850E94930B5F
:1017E00061E088890E94930B61E08A890E94930BD3
:1017F0001D8A1C8A84E090E099878887DF91CF91C9
:101800001F910F9108953FB7F89480910C09909122
:101810000D09A0910E09B0910F0926B5A89B05C02E
:101820002F3F19F00196A11DB11D3FBFBA2FA92F5F
:10183000982F8827820F911DA11DB11DBC01CD01DC
:1018400042E0660F771F881F991F4A95D1F70895C8
:101850008F929F92AF92BF92CF92DF92EF92FF92C0
:101860006B017C010E94030C4B015C01C114D1048B
:10187000E104F104F1F00E94030CDC01CB018819B2
:101880009909AA09BB09883E9340A105B10570F3E7
:1018900021E0C21AD108E108F10888EE880E83E041
:1018A000981EA11CB11CC114D104E104F10419F764
:1018B000DDCFFF90EF90DF90CF90BF90AF909F90E3
:1018C0008F9008951F920F920FB60F9211242F93AD
:1018D0003F938F939F93AF93BF938091080990910B
:1018E0000909A0910A09B0910B093091070923E079
:1018F000230F2D3720F40196A11DB11D05C026E848
:10190000230F0296A11DB11D20930709809308099A
:1019100090930909A0930A09B0930B0980910C09CF
:1019200090910D09A0910E09B0910F090196A11D8A
:10193000B11D80930C0990930D09A0930E09B093EB
:101940000F09BF91AF919F918F913F912F910F9070
:101950000FBE0F901F901895CF92DF92EF92FF92DB
:101960000F931F93E82FF92F05C00150110921098A
:10197000310961F1908196239417B9F305C00150A4
:1019800011092109310911F1908196239413F7CFA0
:10199000C12CD12CE12CF12C0AC08FEFC81AD80A27
:1019A000E80AF80A0C151D052E053F0579F080811F
:1019B0008623841791F36C2D7D2D8E2D9F2D1F91E5
:1019C0000F91FF90EF90DF90CF90089560E070E06E
:1019D00080E090E01F910F91FF90EF90DF90CF900B
:1019E0000895789484B5826084BD84B5816084BD97
:1019F00085B5826085BD85B5816085BD80916E00AD
:101A0000816080936E0010928100809181008260DD
:101A1000809381008091810081608093810080911A
:101A200080008160809380008091B1008460809309
:101A3000B1008091B00081608093B00080919100EE
:101A400082608093910080919100816080939100E9
:101A5000809190008160809390008091A1008260CD
:101A60008093A1008091A10081608093A10080916A
:101A7000A00081608093A00080912101826080930A
:101A800021018091210181608093210180912001B9
:101A900081608093200180917A00846080937A0035
:101AA00080917A00826080937A0080917A008160D0
:101AB00080937A0080917A00806880937A001092F7
:101AC000C1001092670710926607E0919607F091A7
:101AD000970782E08083E0919207F091930710824C
:101AE000E0919407F09195078FEC808310929E0708
:101AF000E0919A07F0919B0786E08083E091980738
:101B0000F0919907808180618083E0919807F0913E
:101B10009907808188608083E0919807F091990708
:101B2000808180688083E0919807F0919907808197
:101B30008F7D80832091D9083091DA08032E000C24
:101B4000440B550BC12CC7E8DC2EC3E9EC2EC3E0D7
:101B5000FC2EC701B6010E942B11CA01B90128E26F
:101B600030E040E050E00E942B112093D5083093E4
:101B7000D6084093D7085093D8082091BF083091D9
:101B8000C008032E000C440B550BC701B6010E9480
:101B90002B11DCE38D2E912CA12CB12CCA01B901A3
:101BA000A50194010E942B112093BB083093BC081F
:101BB0004093BD085093BE082091F3083091F4087B
:101BC000032E000C440B550BC701B6010E942B11CC
:101BD000CA01B901A50194010E942B112093EF08BD
:101BE0003093F0084093F1085093F20861E08BE2E3
:101BF0000E94930B60E08DE20E94930B61E08FE204
:101C00000E94930B60E081E30E94930B61E083E309
:101C10000E94930B60E085E30E94930B8091B608CD
:101C2000803308F052C061E08DE00E94930B8091F8
:101C3000B608E82FF0E09F01220F331FE20FF31FD9
:101C4000ED5DF74F9081907C9D6090831092B70876
:101C50001092B8086CE00E948E119CE0899FB00140
:101C6000112440E050E09B01240F351FF901EE0FD5
:101C7000FF1F2E0F3F1FF901ED5DF74F908196FD7D
:101C800017C04F5F5F4F4C30510569F7813009F045
:101C90002AC21092800082E0809381001092850019
:101CA00010928400B19A80916F00826080936F00DF
:101CB000E091B608F0E0CF01880F991FE80FF91FF7
:101CC000ED5DF74F80818064808384EB90E00E941B
:101CD000F00881E090E0909365078093640768E2E4
:101CE00070E089EB98E00E94F804C2E1D2E009E2DA
:101CF00010E03AE3E32EF12C4EE8C42ED12C5EE93D
:101D0000A52EB12C6FEB862E912C0E949D06209162
:101D10005C0730915D0740915E0750915F076091CD
:101D200060077091610780916207909163070E943C
:101D3000CB11209158073091590740915A07509183
:101D40005B070E94CB110E94AE12161617060CF00C
:101D500046C084E393E00E9486090E94E205813038
:101D60009105E1F483E893E00E94860910936907E6
:101D700000936807F0926B07E0926A07D0926D07B4
:101D8000C0926C07B0926F07A0926E079092710795
:101D90008092700723E0622E712C24C0892BD1F72A
:101DA00088E993E00E9486098881998110937507DC
:101DB00000937407F0927707E0927607D092790744
:101DC000C0927807B0927B07A0927A0790927D0725
:101DD00080927C0790937F0780937E07DBCF92E011
:101DE000692E712C8DEA93E00E9486098A819B817D
:101DF0000E94D702BC0183ED98E00E94F80422966D
:101E000082E06816710409F480CF86EE93E00E94A8
:101E100086098BE094E00E94860968ED7FEF83EDF0
:101E200098E00E94F80480E7E82E87E0F82E809181
:101E3000800790918107019709F048C1C0917E0702
:101E4000D0917F07CE010E94D702BC0183ED98E0BC
:101E50000E94F804CE010E94D7020E9494098BE5EB
:101E600094E00E9486090E949B0568EE73E080E082
:101E700090E00E94280C0E942A0368EE73E080E044
:101E800090E00E94280C0E94800568EE73E080E0DC
:101E900090E00E94280C0E942A0368EE73E080E024
:101EA00090E00E94280C0E9480050E949B0568EE2D
:101EB00073E080E090E00E94280C89EA94E00E94A0
:101EC0008609C4E7D7E009911991C8010E94D70299
:101ED000BC0189EB98E00E94F804C8010E94D70277
:101EE0000E94940987EE94E00E9486090E94BE0534
:101EF0008CE295E00E94860997E0CC37D90719F764
:101F0000C0917C07D0917D07CE010E94D702BC0111
:101F100089EB98E00E94F804CE010E94D7020E944B
:101F200094090E949B0568EE73E080E090E00E94B7
:101F3000280C0E94800568EE73E080E090E00E942B
:101F4000280C0E942A030E94800568EE73E080E05E
:101F500090E00E94280C0E942A030E949B0568EED4
:101F600073E080E090E00E94280C80917C079091C3
:101F70007D0790937F0780937E0783E695E00E941C
:101F800086090E9407038091720790917307019759
:101F900009F09CC0C0917E07D0917F07CE010E94BE
:101FA000D702BC0183ED98E00E94F804CE010E94A4
:101FB000D7020E94940985EA95E00E9486090E9452
:101FC0009B0568EE73E080E090E00E94280C0E9480
:101FD0002A0368EE73E080E090E00E94280C0E94E3
:101FE000800568EE73E080E090E00E94280C0E947B
:101FF0002A0368EE73E080E090E00E94280C0E94C3
:1020000080050E949B0568EE73E080E090E00E94EE
:10201000280C83EF95E00E948609C8E6D7E0099175
:102020001991C8010E94D702BC0189EB98E00E9477
:10203000F804C8010E94D7020E94940987EE94E038
:102040000E9486090E94BE058CE295E00E948609E6
:10205000EC16FD0621F7C0917007D0917107CE01F3
:102060000E94D702BC0189EB98E00E94F804CE01DF
:102070000E94D7020E9494090E949B0568EE73E0BB
:1020800080E090E00E94280C0E94800568EE73E0DA
:1020900080E090E00E94280C0E942A030E948005A4
:1020A00068EE73E080E090E00E94280C0E942A0312
:1020B0000E949B0568EE73E080E090E00E94280C8F
:1020C00081E396E00E9486090E94070383E796E079
:1020D0000E94860960ED77E080E090E00E94280C85
:1020E0000E949E02A4CE823061F4109290008093F0
:1020F0009100109295001092940088BB809371001B
:10210000D7CD833069F41092A00082E08093A100C3
:102110001092A5001092A40089BB80937200C8CDD4
:102120008111C6CD1092200182E08093210110928E
:102130002501109224018ABB80937300B9CD0F93BF
:102140001F93109289071092880788EE93E0A0E011
:10215000B0E080938A0790938B07A0938C07B0938D
:102160008D0784E092E0909387078093860785EC43
:1021700090E0909393078093920784EC90E0909383
:1021800095078093940780EC90E090939707809355
:10219000960781EC90E0909399078093980782ECE2
:1021A00090E090939B0780939A0786EC90E0909341
:1021B0009D0780939C0710929F071092A007109292
:1021C000A1071092A20705E010E024E030E043E010
:1021D00050E062E070E08DEE98E00E94CF0B0BE0E3
:1021E00010E02AE030E049E050E068E070E083ED84
:1021F00098E00E94CF0B0FE110E02DE130E04BE1C1
:1022000050E069E170E089EB98E00E94CF0B80918B
:10221000B3088033A0F491E0980F9093B3088093B3
:10222000B60890E0FC01EE0FFF1F8E0F9F1FFC0110
:10223000ED5DF74F88EB9BE09283818303C08FEFC6
:102240008093B60888E090E09093B5088093B40836
:102250001F910F910895052E97FB1EF400940E9484
:10226000421157FD07D00E945D1107FC03D04EF4C8
:102270000C94421150954095309521953F4F4F4F0A
:102280005F4F089590958095709561957F4F8F4F22
:102290009F4F08950E947F11A59F900DB49F900DB0
:1022A000A49F800D911D11240895B7FF0C944A112D
:1022B0000E944A11821B930B0895A1E21A2EAA1BB9
:1022C000BB1BFD010DC0AA1FBB1FEE1FFF1FA217E6
:1022D000B307E407F50720F0A21BB30BE40BF50BE3
:1022E000661F771F881F991F1A9469F7609570956C
:1022F000809590959B01AC01BD01CF010895A29FEF
:10230000B001B39FC001A39F700D811D1124911DC9
:10231000B29F700D811D1124911D0895991B79E0C4
:1023200004C0991F961708F0961B881F7A95C9F765
:102330008095089597FB072E16F4009407D077FD3B
:1023400009D00E94B61107FC05D03EF49095819506
:102350009F4F0895709561957F4F0895EE0FFF1F71
:10236000881F8BBF0790F691E02D1994AA1BBB1B09
:1023700051E107C0AA1FBB1FA617B70710F0A61B85
:10238000B70B881F991F5A95A9F780959095BC01A6
:10239000CD0108955058BB27AA270E94E2110C9442
:1023A0005C130E944E1338F00E94551320F039F44C
:1023B0009F3F19F426F40C944B130EF4E095E7FBC1
:1023C0000C944513E92F0E946D1358F3BA17620756
:1023D00073078407950720F079F4A6F50C948F1302
:1023E0000EF4E0950B2EBA2FA02D0B01B901900130
:1023F0000C01CA01A0011124FF27591B99F0593F74
:1024000050F4503E68F11A16F040A22F232F342FBB
:102410004427585FF3CF469537952795A795F04009
:102420005395C9F77EF41F16BA0B620B730B840B1E
:10243000BAF09150A1F0FF0FBB1F661F771F881FD6
:10244000C2F70EC0BA0F621F731F841F48F487952E
:1024500077956795B795F7959E3F08F0B0CF939520
:10246000880F08F09927EE0F9795879508950E9499
:10247000211308F481E008950E9450120C945C131B
:102480000E94551358F00E944E1340F029F45F3F0C
:1024900029F00C94451351110C9490130C944B1388
:1024A0000E946D1368F39923B1F3552391F3951BA3
:1024B000550BBB27AA2762177307840738F09F5F65
:1024C0005F4F220F331F441FAA1FA9F335D00E2ED2
:1024D0003AF0E0E832D091505040E695001CCAF73F
:1024E0002BD0FE2F29D0660F771F881FBB1F261702
:1024F00037074807AB07B0E809F0BB0B802DBF01D9
:10250000FF2793585F4F3AF09E3F510578F00C94A7
:1025100045130C9490135F3FE4F3983ED4F38695F3
:1025200077956795B795F7959F5FC9F7880F911DC8
:102530009695879597F90895E1E0660F771F881FB4
:10254000BB1F621773078407BA0720F0621B730B67
:10255000840BBA0BEE1F88F7E09508950E94B51220
:102560006894B1110C94901308950E94751388F02B
:102570009F5798F0B92F9927B751B0F0E1F0660F47
:10258000771F881F991F1AF0BA95C9F714C0B13088
:1025900091F00E948F13B1E008950C948F13672F70
:1025A000782F8827B85F39F0B93FCCF386957795B7
:1025B0006795B395D9F73EF49095809570956195A0
:1025C0007F4F8F4F9F4F0895E89409C097FB3EF4CB
:1025D00090958095709561957F4F8F4F9F4F992370
:1025E000A9F0F92F96E9BB279395F69587957795EE
:1025F0006795B795F111F8CFFAF4BB0F11F460FFAE
:102600001BC06F5F7F4F8F4F9F4F16C0882311F005
:1026100096E911C0772321F09EE8872F762F05C019
:10262000662371F096E8862F70E060E02AF09A95B4
:10263000660F771F881FDAF7880F9695879597F9A9
:102640000895990F0008550FAA0BE0E8FEEF161643
:102650001706E807F907C0F012161306E407F50796
:1026600098F0621B730B840B950B39F40A2661F00A
:10267000232B242B252B21F408950A2609F4A140AD
:10268000A6958FEF811D811D089597F99F6780E8BA
:1026900070E060E008959FEF80EC089500240A94B4
:1026A0001616170618060906089500240A9412162D
:1026B0001306140605060895092E0394000C11F460
:1026C000882352F0BB0F40F4BF2B11F460FF04C00D
:1026D0006F5F7F4F8F4F9F4F089557FD9058440F66
:1026E000551F59F05F3F71F04795880F97FB991F71
:1026F00061F09F3F79F0879508951216130614062E
:10270000551FF2CF4695F1DF08C0161617061806BA
:10271000991FF1CF86957105610508940895E89495
:10272000BB2766277727CB0197F908950E942113CD
:1027300008F48FEF08950E94AE130C945C130E946E
:102740004E1338F00E94551320F0952311F00C948D
:1027500045130C944B1311240C9490130E946D1389
:1027600070F3959FC1F3950F50E0551F629FF001E4
:10277000729FBB27F00DB11D639FAA27F00DB11DFD
:10278000AA1F649F6627B00DA11D661F829F222786
:10279000B00DA11D621F739FB00DA11D621F839F0D
:1027A000A00D611D221F749F3327A00D611D231FE3
:1027B000849F600D211D822F762F6A2F11249F5731
:1027C00050409AF0F1F088234AF0EE0FFF1FBB1F34
:1027D000661F771F881F91505040A9F79E3F5105F3
:1027E00080F00C9445130C9490135F3FE4F3983EF3
:1027F000D4F3869577956795B795F795E7959F5F9D
:10280000C1F7FE2B880F911D9695879597F908952E
:102810000E942113880B990B089581E090E0F894B1
:082820000C941214F894FFCF90
:10282800000000002F029801C6017C02F701D501C3
:10283800E9010000080010001900210029003200F9
:102848003A0042004B0053005B0064006C007400C7
:102858007D0085008E0096009E00A600AF00B700A0
:10286800BF00437269746963616C206572726F722C
:1028780020446961626F6C6F2073746174652055C0
:102888006E6B6E6F776E006572726F720068696A40
:102898002069732077656572207465727567206991
:1028A8006E2064652063656E746572206E61646174
:1028B800742068696A206865656674206765736353
:1028C800616E6E6564006572726F72206469616220
:1028D8006F6C20682F6C206F6E62656B656E74007C
:1028E80031652073656E736F7220776161726465FC
:1028F8003A0032652073656E736F7220776161727A
:1029080064653A0033652073656E736F7220776172
:10291800617264653A0064652075697465696E64FE
:10292800656C696A6B2061667374616E6420746F8C
:10293800742064652067726F6E64206973206F70FD
:1029480020766F6C676F72646520312C322C3320CF
:1029580069733A0068696A20686565667420646509
:102968002065657273746520446961626F6C2067C5
:1029780065766F6E64656E206761206E752062658E
:102988007061616C656E206F662068696A20737477
:1029980061616E206F66206C696767656E64206987
:1029A800732000646520316520646961626F6C2062
:1029B800697320486F6F670064652031652064691A
:1029C80061626F6C206973204C6161670068696A95
:1029D800206865656674206E696B73206765766F1D
:1029E8006E64656E20696E2064652076616B206771
:1029F800616174206E61617220646520766F6C6716
:102A0800656E6465200068696A2067616174206E7C
:102A180075207A6F656B656E206E616172206465E2
:102A280020326520646961626F6C0068696A206899
:102A38006565667420626569646520646961626FB2
:102A48006C656E206765766F6E64656E20656E20B6
:102A58006765696E646963656572642077656C6B28
:102A680065206B616E742068696A206F70206D6FD5
:102A78006574206472616169656E00696B206861C4
:102A88006E67206E7520626F76656E206465206CB7
:102A9800696767656E646520646961626F6C206947
:102AA8006B206761206E7520626567696E6E656E62
:102AB800206D6574206D696A6E2067616D6520738D
:102AC800747261746567696500696B206865622066
:102AD8004C20646961626F6C20696E206D696A6E52
:102AE8002068616E64656E20656E2062656E207771
:102AF80065657220746572756720696E206D696AF4
:102B08006E206861727400696B206761206E7520A1
:102B1800626567696E6E656E206D65742065656EA9
:102B28002070756E74207465207665727A616D65A3
:102B38006C656E20766F6F72206465206C696767BC
:102B4800656E646520646961626F6C00696B2068FA
:102B58006562206E65742065656E2070756E7420E0
:102B68007665727A616D656C74207665646572202D
:102B78006E61617220646520766F6C67656E64654E
:102B8800202100696B2062656E206B6C6161722088
:102B98006D65742070756E746A6573207665727AD7
:102BA800616D656C656E207961792021206E7520D4
:102BB8006F70206E616172206465204820646961CD
:102BC800626F6C2100696B2068616E67206E7520EA
:102BD800626F76656E20646520737461616E6465EA
:102BE8002020646961626F6C20696B206761206EC8
:102BF8007520626567696E6E656E206D6574206DFF
:102C0800696A6E2067616D652073747261746567A7
:102C1800696500696B2068656220482064696162A3
:102C28006F6C20696E206D696A6E2068616E6465DC
:102C38006E20656E2062656E20776565722074650A
:102C480072756720696E206D696A6E20686172749A
:102C580000696B2062656E206B6C616172206D6526
:102C6800742070756E746A6573207665727A616D0A
:102C7800656C656E207961792021206E75206F70F2
:102C8800206E616172206465204C20646961626F06
:102C98006C2100696B2068656220342070756E7441
:102CA800656E207665727A616D656C64206E61610F
:102CB8007220646520766F6C67656E646520746F3A
:102CC8006520000D0A006E616E00696E66006F7601
:022CD800660094
:00000001FF
