:100000000C9465010C9496010C9496010C94960145
:100010000C9496010C9496010C9496010C94960104
:100020000C9496010C9496010C9496010C949601F4
:100030000C9496010C9496010C9496010C949601E4
:100040000C9496010C9400090C9496010C94960162
:100050000C9496010C9496010C9496010C94A50BAB
:100060000C9496010C9440080C9416080C9496017C
:100070000C9496010C9496010C9496010C949601A4
:100080000C94D2080C9496010C9496010C94960151
:100090000C9496010C9496010C9496010C94960184
:1000A0000C9496010C9496010C94A4080C9496015F
:1000B0000C9496010C9496010C9496010C9476087D
:1000C0000C9496010C9496010C9496010C94960154
:1000D0000C9496010C9496010C9496010C94960144
:1000E0000C949601420548055205600562056805B5
:1000F0007205800592059405BB0ABE0AAD0AB10AD5
:10010000B50AF50AC20AC60ACC0AD00AD40ADA0A23
:10011000DE0AE20AF50AE80AEC0AF00A0C94D00AB0
:100120000C9442050C94C60A0C9462050C94940538
:100130000C947C020C9472050C94EC0A0C94D5017E
:100140000C94B50A0C94DE0A0C9468050C94800596
:100150000C9492050C942F020C94010E0C94D40A6A
:100160000C94BE0A0C9448050C94DA0A0C94BB0A51
:100170000C94F00A0C94E9010C94CC0A0C945205EE
:100180000C94E80A0C94AD0A0C94F7010C94C60187
:100190000C94C20A0C94B10A0C94E20A0C949801D3
:1001A0000C9460050C94F50A00002100240027003F
:1001B0002A002D0030003300010100000401070176
:1001C0000A0100002200250028002B002E0031002B
:1001D000340002010000050108010B0100000A0BB8
:1001E00002090C0D0E0807030401000000000000C6
:1001F00000000000000000000000000000000000FF
:1002000000000000000000001211100000000000BB
:1002100000000000000000000000000000000000DE
:100220000000000020002300260029002C002F00E1
:100230003200000100000301060109010505050562
:10024000070508080808020202020A0A080804044E
:10025000040401010101010101010303030303037C
:100260000303040707070C0C0C0C0C0C0C0C02020B
:10027000020206060606060606060B0B0B0B0B0B08
:100280000B0B010210202008081020401020408095
:10029000020102010804020101020408102040804A
:1002A00080402010080402018004020180402010D8
:1002B0000804020108040201010204081020408021
:1002C0000102040810204080010E11241FBECFEF50
:1002D000D1E2DEBFCDBF00E00CBF14E0A0E0B2E091
:1002E000E6E0F4E200E00BBF02C007900D92AA39ED
:1002F000B107D9F726E0AAE9B4E001C01D92AD3BF1
:10030000B207E1F711E0C5E6D1E000E006C02197B1
:100310000109802FFE010E949D0FC436D10780E0A5
:100320000807A9F70E94340C0C9401120C940000E9
:10033000CF92DF92EF92FF920F931F93CF93DF93B1
:100340006C017A018B01C0E0D0E0CE15DF0581F0B1
:10035000D8016D918D01D601ED91FC910190F08154
:10036000E02DC6011995892B11F02196EECF7E0163
:10037000C701DF91CF911F910F91FF90EF90DF9018
:10038000CF900895089580E090E00895FC01538D8A
:10039000448D252F30E0842F90E0821B930B54175F
:1003A00010F0CF96089501970895FC01918D828DEC
:1003B000981761F0828DDF01A80FB11D5D968C91B9
:1003C000928D9F5F9F73928F90E008958FEF9FEFC4
:1003D0000895FC01918D828D981731F0828DE80F80
:1003E000F11D858D90E008958FEF9FEF0895FC013A
:1003F000918D228D892F90E0805C9F4F821B910907
:100400008F73992708958AE495E00E94F70121E00F
:10041000892B09F420E0822F0895FC01848DDF01EF
:10042000A80FB11DA35ABF4F2C91848D90E0019667
:100430008F739927848FA689B7892C93A089B18956
:100440008C91837080648C93938D848D981306C0F7
:100450000288F389E02D80818F7D80830895EF925B
:10046000FF920F931F93CF93DF93EC0181E0888F6E
:100470009B8D8C8D981305C0E889F989808185FD55
:1004800026C0F62E0B8D10E00F5F1F4F0F73112744
:10049000E02E8C8DE8120CC00FB607FCFACFE8896D
:1004A000F989808185FFF5CFCE010E940D02F1CF41
:1004B0008B8DFE01E80FF11DE35AFF4FF0829FB7CD
:1004C000F8940B8FEA89FB89808180620AC09FB70C
:1004D000F894EE89FF896083E889F98980818370C7
:1004E000806480839FBF81E090E0DF91CF911F9176
:1004F0000F91FF90EF900895CF93DF93EC01888DDB
:100500008823C9F0EA89FB89808185FD05C0A88917
:10051000B9898C9186FD0FC00FB607FCF5CF80819D
:1005200085FFF2CFA889B9898C9185FFEDCFCE01E7
:100530000E940D02E7CFDF91CF91089580E090E017
:10054000892B21F00E940302811125C080E090E0F8
:10055000892B41F080E090E0892B21F00E9400007F
:1005600081111CC080E090E0892B41F080E090E098
:10057000892B21F00E940000811113C080E090E0DF
:10058000892BA1F080E090E0892B81F00E9400008F
:1005900081110AC008950E940000D8CF0E94000077
:1005A000E1CF0E940000EACF0C9400000895CF92A2
:1005B000DF92EF92FF92CF93DF93EC01603282E003
:1005C00078070CF03DC077FD06C0653B71052CF047
:1005D00064EB70E002C060E070E0898128E830E000
:1005E0006901C81AD10887FDD394CC0CDD1CCC0C52
:1005F000DD1C0D2C000CEE08FF088A8128E532E096
:10060000281B310987FD3395220F331F220F331F1B
:10061000C901330FAA0BBB0B9C01AD012C193D097D
:100620004E095F09DB010E94440F24EB30E040E0FB
:1006300050E00E941A0FC20ED31EE41EF51EB60132
:100640003881303380F5298188E890E0821B910958
:1006500027FD9395880F991F880F991F68177907B1
:1006600084F08A8148E552E0481B510987FD539583
:10067000440F551F440F551FCB01461757070CF465
:10068000CA010297880F991F4FB7F894232F30E0C3
:10069000F901EE0FFF1F2E0F3F1FF901E951FA4F2D
:1006A000928381834FBFDF91CF91FF90EF90DF90D6
:1006B000CF900895AC012091780630917906821B85
:1006C000930B28533F4FBA01621B730B9B01FC0134
:1006D00097FF04C0EE27FF27E81BF90BB90137FF8E
:1006E00004C066277727621B730B6E177F070CF415
:1006F000C901509379064093780608951F93CF93CC
:10070000DF93EC01162F8881803308F04EC061E042
:10071000812F0E940A0B8881E82FF0E09F01220FB1
:10072000331FE20FF31FE951FA4F1F739081907C42
:10073000192B108319821A826CE00E947D0F9CE0B5
:10074000899FB001112440E050E09B01240F351F28
:10075000F901EE0FFF1F2E0F3F1FF901E951FA4F6C
:10076000908196FD16C04F5F5F4F4C30510569F781
:10077000813001F51092800082E080938100109218
:10078000850010928400B19A80916F0082608093FE
:100790006F00E881F0E0CF01880F991FE80FF91F83
:1007A000E951FA4F8081806480838881DF91CF9105
:1007B0001F910895823061F410929000809391000F
:1007C000109295001092940088BB80937100E1CF45
:1007D000833069F41092A00082E08093A10010920F
:1007E000A5001092A40089BB80937200D2CF811122
:1007F000D0CF1092200182E0809321011092250138
:10080000109224018ABB80937300C3CF0E94FC1115
:10081000CF92DF92EF92FF920F931F93CF93DF93CC
:100820006C018B017A01EC01C65CDA4F888187FF8D
:1008300004C0FB011182108224C02CE02C9DC00159
:100840002D9D900D11242881AC01420F511D27FDD3
:100850005A952091770630E04217530794F4288187
:10086000AC01420F511D27FD5A959A01FA01EE0F76
:10087000FF1F2E0F3F1FF901E951FA4F208126FD7E
:1008800019C088818F5F88832CE02C9DC0012D9D2D
:10089000900D11242881AC01420F511D27FD5A955E
:1008A0002091770630E042175307BCF428812C30A2
:1008B00044F113C02881820F911D27FD9A95FC01F8
:1008C000EE0FFF1F8E0F9F1FFC01E951FA4F808131
:1008D00060E08F730E948C0AD4CFF80180819181EF
:1008E000049680349C4918F480E49CE904C0F80123
:1008F000808191810496F701918380838FEF8883B3
:1009000045C0F801408151812881BC01620F711DF1
:1009100027FD7A959B01FB01EE0FFF1F2E0F3F1F56
:10092000F901E951FA4F21813281240F351FF70176
:10093000318320832881AC01420F511D27FD5A9538
:100940009A01FA01EE0FFF1F2E0F3F1FF901E95127
:10095000FA4F208126FF1AC02881820F911D27FDA2
:100960009A95FC01EE0FFF1F8E0F9F1FFC01E951AE
:10097000FA4F808161E08F73DF91CF911F910F91CA
:10098000FF90EF90DF90CF900C948C0ADF91CF9185
:100990001F910F91FF90EF90DF90CF9008950F93EC
:1009A0001F93CF93DF93EC018B0188859985029784
:1009B000F1F46130710569F024F4672BC1F460E053
:1009C00009C06230710559F06330710581F460E04F
:1009D00007C061E08C850E948C0A61E005C061E07F
:1009E0008C850E948C0A60E08E850E948C0A888526
:1009F00099850497B9F501301105B1F04CF4011552
:100A0000110581F561E08C850E948C0A60E011C0BF
:100A100002301105B9F00330110521F561E08C8534
:100A20000E948C0A60E013C060E08C850E948C0AF2
:100A300061E08E850E948C0A61E088890E948C0AA0
:100A400060E00DC060E08C850E948C0A61E08E85BC
:100A50000E948C0A60E088890E948C0A61E08A8981
:100A60000E948C0A88859985059709F075C00A301F
:100A7000110508F071C0F8018827EE58FF4F8F4F1D
:100A80000C949D0F60E08C850E948C0A61E051C03F
:100A900060E08C850E948C0A61E08E850E948C0A41
:100AA00060E04BC060E08C850E948C0A61E08E851E
:100AB0000E948C0A60E088890E948C0A61E041C033
:100AC00060E001C061E08C850E948C0A61E005C095
:100AD00061E08C850E948C0A60E08E850E948C0A01
:100AE00060E009C061E08C850E948C0A60E08E8520
:100AF0000E948C0A61E088890E948C0A61E00DC026
:100B000061E08C850E948C0A60E08E850E948C0AD0
:100B100061E088890E948C0A60E08A890E948C0AC0
:100B200060E013C061E001C060E08C850E948C0A27
:100B300060E08E850E948C0A61E088890E948C0AA0
:100B400060E08A890E948C0A61E08C89DF91CF91F4
:100B50001F910F910C948C0ADF91CF911F910F91EF
:100B600008954F925F926F927F928F929F92AF9271
:100B7000BF92CF92DF92EF92FF920F931F93CF938A
:100B8000DF93EC018B0177FF04C000271127061BC0
:100B9000170B161617062CF481E090E099838883D2
:100BA00004C0672B11F01982188284E0E82EF12C22
:100BB0009AE0C92ED12C0115110509F449C00E94F3
:100BC000460B8E889F88A88CB98C2B013C01481855
:100BD00059086A087B088A809B80AC80BD804814D5
:100BE00059046A047B0438F36E8B7F8B888F998F4E
:100BF000288139818A859B852130310559F40196F8
:100C00009B878A872E813F818217930771F41B8609
:100C10001A860BC0892B21F48E819F819B878A873E
:100C20008A859B8501979B878A87015011092885B2
:100C300039858A859B852530310511F4B60101C0BF
:100C4000B7010E94890FBC01CE010E94CF04B3CF2F
:100C5000DF91CF911F910F91FF90EF90DF90CF9098
:100C6000BF90AF909F908F907F906F905F904F90CC
:100C700008950F931F93CF93DF9360E08BE20E9460
:100C80008C0A03E010E0C8010197F1F761E08BE204
:100C90000E948C0AC3E2D0E0CE010197F1F760E038
:100CA0008BE20E948C0A8DE20E945F0A072E000CE4
:100CB000880B990B0E94D51026E933E44BE05DE3E5
:100CC0000E948A1120E030E040E05FE30E948A1138
:100CD00060934605709347058093480590934905B6
:100CE00082E492E00E9440096091460570914705B8
:100CF00080914805909149050E944E0964E170E099
:100D000080E090E00E946B0B60E08FE20E948C0A12
:100D1000C8010197F1F761E08FE20E948C0ACE01D1
:100D20000197F1F760E08FE20E948C0A81E30E9454
:100D30005F0A072E000C880B990B0E94D51026E93C
:100D400033E44BE05DE30E948A1120E030E040E0B4
:100D50005FE30E948A11609342057093430580937C
:100D600044059093450584E592E00E944009609116
:100D700042057091430580914405909145050E947C
:100D80004E0964E170E080E090E00E946B0B60E04F
:100D900083E30E948C0AC8010197F1F761E083E3C5
:100DA0000E948C0A2197F1F760E083E30E948C0A8D
:100DB00085E30E945F0A072E000C880B990B0E94A6
:100DC000D51026E933E44BE05DE30E948A1120E070
:100DD00030E040E05FE30E948A1160933E0570932B
:100DE0003F05809340059093410586E692E00E947E
:100DF000400960913E0570913F05809140059091BA
:100E000041050E944E0964E170E080E090E00E949C
:100E10006B0B20913E0530913F054091400550916C
:100E2000410560E070E080E291E40E94B90F6093B8
:100E30003E0570933F0580934005909341052091B6
:100E4000420530914305409144055091450560E0CD
:100E500070E080E291E40E94B90F609342057093C4
:100E600043058093440590934505209146053091B4
:100E70004705409148055091490560E070E080E2E7
:100E800091E40E94B90F60934605709347058093E3
:100E900048059093490588E792E00E9440096091D7
:100EA00046057091470580914805909149050E943B
:100EB0004E096091420570914305809144059091DF
:100EC00045050E944E0960913E0570913F05809155
:100ED000400590914105DF91CF911F910F910C94A6
:100EE0004E094F925F926F927F928F929F92AF9234
:100EF000BF92CF92DF92EF92FF920F931F93CF9307
:100F0000DF9368ED7FEF80E896E00E94B105CAE9C3
:100F1000D4E08E0183E0A82EB12C93E2892E912C8F
:100F20006AE070E080E090E00E946B0B60E08FE28E
:100F30000E948C0AC5010197F1F761E08FE20E94DF
:100F40008C0AC4010197F1F760E08FE20E948C0ADD
:100F500081E30E945F0A072E000C880B990B0E9408
:100F6000D51026E933E44BE05DE30E948A1120E0CE
:100F700030E040E05FE30E948A112B013C01F80160
:100F800061937193819391938F0162E070E080E8A7
:100F900096E00E94B105C301B2010E944E09F5E03E
:100FA0000A331F0709F0BCCF68ED7FEF80E896E0B9
:100FB0000E94B10586EB92E00E9440092991399187
:100FC00049915991C701B6010E94BA0F6B017C018A
:100FD00085E0CA33D80791F720E030E040E252E4E0
:100FE000C701B6010E942B1020E030E040E051E440
:100FF0000E94851118163CF08FEE92E00E94400985
:1010000080E090E002C081E090E0DF91CF911F91FD
:101010000F91FF90EF90DF90CF90BF90AF909F9097
:101020008F907F906F905F904F9008951F920F92D6
:101030000FB60F9211240BB60F922F933F934F933D
:101040005F936F937F938F939F93AF93BF93EF9330
:10105000FF938AE495E00E940D02FF91EF91BF910A
:10106000AF919F918F917F916F915F914F913F9140
:101070002F910F900BBE0F900FBE0F901F901895E1
:101080001F920F920FB60F9211240BB60F922F934F
:101090008F939F93EF93FF93E0915A05F0915B0537
:1010A0008081E0916005F091610582FD12C0908120
:1010B000809163058F5F8F7320916405821751F0D3
:1010C000E0916305F0E0E65BFA4F958F809363054E
:1010D00001C08081FF91EF919F918F912F910F908F
:1010E0000BBE0F900FBE0F901F9018951F920F927E
:1010F0000FB60F9211240BB60F922F933F934F937D
:101100005F936F937F938F939F93AF93BF93EF936F
:10111000FF9348E251E064E271E080E090E00E94D9
:101120000804FF91EF91BF91AF919F918F917F91B3
:101130006F915F914F913F912F910F900BBE0F9048
:101140000FBE0F901F9018951F920F920FB60F921F
:1011500011240BB60F922F933F934F935F936F938E
:101160007F938F939F93AF93BF93EF93FF9348EA3F
:1011700050E064EA70E083E090E00E940804FF9190
:10118000EF91BF91AF919F918F917F916F915F91FF
:101190004F913F912F910F900BBE0F900FBE0F906C
:1011A0001F9018951F920F920FB60F9211240BB635
:1011B0000F922F933F934F935F936F937F938F93F0
:1011C0009F93AF93BF93EF93FF9348E950E064E997
:1011D00070E082E090E00E940804FF91EF91BF91DF
:1011E000AF919F918F917F916F915F914F913F91BF
:1011F0002F910F900BBE0F900FBE0F901F90189560
:101200001F920F920FB60F9211240BB60F922F93CD
:101210003F934F935F936F937F938F939F93AF937E
:10122000BF93EF93FF9348E850E064E870E081E0FB
:1012300090E00E940804FF91EF91BF91AF919F91C0
:101240008F917F916F915F914F913F912F910F906F
:101250000BBE0F900FBE0F901F901895009769F06E
:10126000FC0101900020E9F73197AF01481B590BB1
:10127000BC018AE495E00C94980180E090E0089528
:10128000CF93DF930E942E09EC018AE894E00E943C
:101290002E098C0F9D1FDF91CF9108952F923F92C1
:1012A0004F925F926F927F928F929F92AF92BF9276
:1012B000CF92DF92EF92FF920F931F93CF93DF9322
:1012C000CDB7DEB7A4970FB6F894DEBF0FBECDBF83
:1012D0004B015C019B01AC010E94F711882319F0BE
:1012E0008DE894E01AC075016401E894F7F82FEFD7
:1012F0003FEF4FE75FE7C701B6010E94F711811189
:1013000010C02FEF3FEF4FE75FE7C701B6010E9424
:101310002610181634F481E994E00E942E098C01FD
:10132000AFC02FEF3FEF4FE75FE4C501B4010E946C
:10133000851118161CF485E994E0EFCF2FEF3FEFED
:101340004FE75FECC501B4010E94261087FDF3CF83
:1013500020E030E0A901C501B4010E94261087FFFA
:101360000BC06DE28AE495E00E942F026C01B7FA8F
:10137000B094B7F8B09402C0C12CD12C2AE037ED5C
:1013800043EA5BE3C501B4010E94BA0F4B015C0163
:101390000E94A4102B013C010E94D3109B01AC01C0
:1013A000C501B4010E94B90F4B015C0119A27E0175
:1013B00081E2E80EF11CEAA2FBA2C301B2012AE01D
:1013C00030E040E050E00E944C0F29013A01605D9E
:1013D000F70162937F01232B242B252B71F7CF017B
:1013E0000E942E098C016EE28AE495E00E942F0291
:1013F000800F911F8C010C0D1D1D83E0F82E9AE0CB
:10140000292E312C412C512CFA94FF20C9F120E0D7
:1014100030E040E251E4C501B4010E948A114B0161
:101420005C010E94A4109B0140E050E019A26AA058
:101430007BA06CA3C32ED42EE52ECA01B901A20154
:1014400091010E944C0F605DF30162933F012115F1
:1014500031054105510589F7CF010E942E09080F7A
:10146000191F6CA17C2D8D2D9E2D0E94D3109B01E8
:10147000AC01C501B4010E94B90F4B015C01C4CF9E
:101480008AE894E00E942E09800F911FA4960FB65F
:10149000F894DEBF0FBECDBFDF91CF911F910F91AA
:1014A000FF90EF90DF90CF90BF90AF909F908F9084
:1014B0007F906F905F904F903F902F9008950F9383
:1014C0001F9390E0FC01EE57FD4F6491FC01E45C3A
:1014D000FD4FE491F0E0EE0FFF1FEE5DFD4F8591B3
:1014E000949100E412E42FE030E0462F0E94EF0BCD
:1014F000611571058105910549F0DC01CB0101966B
:10150000A11DB11DBC01CD019F7003C060E070E062
:10151000CB011F910F910895362F90E0FC01E4520A
:10152000FE4F4491FC01EE57FD4F2491FC01E45C19
:10153000FD4F9491992309F46CC0442309F455C0DC
:1015400050E0FA013197E231F10508F04EC08827EA
:10155000E458FF4F8F4F0C949D0F809180008F7740
:1015600007C0809180008F7D03C080918000877FBD
:10157000809380003AC084B58F7702C084B58F7D98
:1015800084BD33C08091B0008F7703C08091B000DC
:101590008F7D8093B00029C0809190008F7707C025
:1015A000809190008F7D03C080919000877F809311
:1015B00090001BC08091A0008F7707C08091A00091
:1015C0008F7D03C08091A000877F8093A0000DC015
:1015D000809120018F7707C0809120018F7D03C00B
:1015E00080912001877F80932001E92FF0E0EE0FAA
:1015F000FF1FEE53FE4FA591B4919FB7F8943111A0
:1016000004C08C912095282302C0EC912E2B2C93A2
:101610009FBF0895CF93DF9390E0FC01EE57FD4FFD
:101620002491FC01E45CFD4F8491882361F190E0FA
:10163000880F991FFC01E855FE4FC591D491FC011C
:10164000EE53FE4FA591B491611109C09FB7F89474
:101650008881209582238883EC912E230BC06230F1
:1016600061F49FB7F8948881322F30958323888363
:10167000EC912E2B2C939FBF06C08FB7F894E88176
:101680002E2B28838FBFDF91CF9108953FB7F89419
:101690008091B9069091BA06A091BB06B091BC06A4
:1016A00026B5A89B05C02F3F19F00196A11DB11DBD
:1016B0003FBFBA2FA92F982F8827820F911DA11DF8
:1016C000B11DBC01CD0142E0660F771F881F991F35
:1016D0004A95D1F708958F929F92AF92BF92CF9281
:1016E000DF92EF92FF926B017C010E94460B4B014F
:1016F0005C01C114D104E104F104F1F00E94460B35
:10170000DC01CB0188199909AA09BB09883E9340DD
:10171000A105B10570F321E0C21AD108E108F10872
:1017200088EE880E83E0981EA11CB11CC114D10460
:10173000E104F10419F7DDCFFF90EF90DF90CF9037
:10174000BF90AF909F908F9008951F920F920FB609
:101750000F9211242F933F938F939F93AF93BF9337
:101760008091B5069091B606A091B706B091B806E3
:101770003091B40623E0230F2D3720F40196A11DEC
:10178000B11D05C026E8230F0296A11DB11D2093AF
:10179000B4068093B5069093B606A093B706B093AF
:1017A000B8068091B9069091BA06A091BB06B09197
:1017B000BC060196A11DB11D8093B9069093BA068F
:1017C000A093BB06B093BC06BF91AF919F918F9140
:1017D0003F912F910F900FBE0F901F901895CF92B1
:1017E000DF92EF92FF920F931F93E82FF92F05C01E
:1017F000015011092109310961F190819623941753
:10180000B9F305C0015011092109310911F1908185
:1018100096239413F7CFC12CD12CE12CF12C0AC0C4
:101820008FEFC81AD80AE80AF80A0C151D052E050C
:101830003F0579F080818623841791F36C2D7D2DEF
:101840008E2D9F2D1F910F91FF90EF90DF90CF90E5
:10185000089560E070E080E090E01F910F91FF90AC
:10186000EF90DF90CF900895789484B5826084BD26
:1018700084B5816084BD85B5826085BD85B5816094
:1018800085BD80916E00816080936E001092810012
:1018900080918100826080938100809181008160CD
:1018A000809381008091800081608093800080918E
:1018B000B10084608093B1008091B000816080931A
:1018C000B00080919100826080939100809191009E
:1018D000816080939100809190008160809390005E
:1018E0008091A10082608093A1008091A10081601D
:1018F0008093A1008091A00081608093A0008091DE
:101900002101826080932101809121018160809377
:1019100021018091200181608093200180917A00D3
:10192000846080937A0080917A00826080937A004C
:1019300080917A00816080937A0080917A0080683B
:1019400080937A001092C100E0915A05F0915B05F6
:1019500082E08083E0915605F09157051082E09176
:101960005805F09159058FEC808310926205E09143
:101970005E05F0915F0586E08083E0915C05F09163
:101980005D05808180618083E0915C05F0915D055B
:10199000808188608083E0915C05F0915D058081A5
:1019A00080688083E0915C05F0915D0580818F7D8A
:1019B00080832091A0063091A106032E000C440BD9
:1019C000550BC12C67E8D62E63E9E62E63E0F62EB0
:1019D000C701B6010E941A0FCA01B90124E130E023
:1019E00040E050E00E941A0F20939C0630939D0621
:1019F00040939E0650939F0620918606309187065D
:101A0000032E000C440B550BC701B6010E941A0FA0
:101A1000CA01B9012CE330E040E050E00E941A0F07
:101A20002093820630938306409384065093850664
:101A300061E08BE20E940A0B60E08DE20E940A0BDB
:101A400061E08FE20E940A0B60E081E30E940A0BD2
:101A500061E083E30E940A0B60E085E30E940A0BC9
:101A600064E370E08DE796E00E947E0364EB70E033
:101A70008DE796E00E94D70265E370E08AE796E082
:101A80000E947E0368E270E080E896E00E94B10563
:101A9000C0E0D0E089E093E00E9440098E010F5F32
:101AA0001F4FF801EE0FFF1FEE5EFD4F8081918109
:101AB00003970E945A03BC018AE996E00E94B1058F
:101AC00068EE73E080E090E00E946B0B0E943906A4
:101AD00020914205309143054091440550914505C0
:101AE00060914605709147058091480590914905A0
:101AF0000E94BA0F20913E0530913F05409140056C
:101B0000509141050E94BA0F0E949D1016161706AB
:101B10000CF040C082E493E00E9440090E947107EB
:101B20008130910519F481E993E004C0892B21F4F7
:101B300086EA93E00E94400968ED7FEF80E896E036
:101B40000E94B10568EE73E080E090E00E946B0BAC
:101B5000CC0FDD1FCA5EDD4F8881998103970E94FB
:101B60005A03BC018AE996E00E94B10568EE73E071
:101B700080E090E00E946B0B68E270E080E896E005
:101B80000E94B1058BEB93E00E944009E80183E0DD
:101B900090E002C082E090E02196029709F47ACFAB
:101BA0008EEF93E00E94400982E294E00E94400997
:101BB00068ED7FEF80E896E00E94B10582E794E04F
:101BC0000E94400960E070E08AE796E00E94D70238
:101BD00060ED77E080E090E00E946B0B8DE794E091
:101BE0000E94400964EB70E08AE796E00E94D70209
:101BF00060ED77E080E090E00E946B0B0E949E0217
:101C0000DDCF0F931F93CF93DF9310924D0510926A
:101C10004C0588EE93E0A0E0B0E080934E059093F1
:101C20004F05A0935005B093510584E092E0909346
:101C30004B0580934A0585EC90E09093570580937F
:101C4000560584EC90E0909359058093580580ECFC
:101C500090E090935B0580935A0581EC90E090931F
:101C60005D0580935C0582EC90E090935F05809326
:101C70005E0586EC90E0909361058093600510927C
:101C80006305109264051092650510926605109226
:101C9000A5061092A40610929B0610929A06109226
:101CA000B0061092B1061092B2061092B30608EC7C
:101CB00010E01093A1060093A00688E090E09093B6
:101CC000A7068093A60689E090E09093A9068093EA
:101CD000A8068AE090E09093AB068093AA068BE07A
:101CE00090E09093AD068093AC0661E088E00E949E
:101CF0000A0B61E08091A8060E940A0B61E08091C6
:101D0000AA060E940A0B61E08091AC060E940A0BB1
:101D10001092AF061092AE06C4E0D0E0D093A306B6
:101D2000C093A20610928B0610928A06109281062A
:101D300010928006109296061092970610929806BE
:101D400010929906109387060093860689E190E029
:101D500090938D0680938C068BE190E090938F0694
:101D600080938E068DE190E090939106809390068B
:101D70008FE190E0909393068093920661E089E171
:101D80000E940A0B61E080918E060E940A0B61E0BE
:101D9000809190060E940A0B61E0809192060E9459
:101DA0000A0B1092950610929406D0938906C09360
:101DB0008806809177068033A0F491E0980F909385
:101DC000770680937D0690E0FC01EE0FFF1F8E0FDB
:101DD0009F1FFC01E951FA4F88EB9BE092838183BE
:101DE00003C08FEF80937D06809177068033A0F447
:101DF00091E0980F9093770680937A0690E0FC012B
:101E0000EE0FFF1F8E0F9F1FFC01E951FA4F88EB69
:101E10009BE09283818303C08FEF80937A0688E0F2
:101E200090E09093790680937806DF91CF911F918F
:101E30000F910895052E97FB1EF400940E94310F18
:101E400057FD07D00E944C0F07FC03D04EF40C94B2
:101E5000310F50954095309521953F4F4F4F5F4F33
:101E6000089590958095709561957F4F8F4F9F4F06
:101E700008950E946E0FA59F900DB49F900DA49F92
:101E8000800D911D11240895B7FF0C94390F0E9405
:101E9000390F821B930B0895A1E21A2EAA1BBB1BBC
:101EA000FD010DC0AA1FBB1FEE1FFF1FA217B30726
:101EB000E407F50720F0A21BB30BE40BF50B661F3C
:101EC000771F881F991F1A9469F760957095809500
:101ED00090959B01AC01BD01CF010895A29FB00177
:101EE000B39FC001A39F700D811D1124911DB29F4E
:101EF000700D811D1124911D0895991B79E004C076
:101F0000991F961708F0961B881F7A95C9F7809538
:101F1000089597FB072E16F4009407D077FD09D09B
:101F20000E94A50F07FC05D03EF4909581959F4F28
:101F30000895709561957F4F0895EE0FFF1F881FDC
:101F40008BBF0790F691E02D1994AA1BBB1B51E1A2
:101F500007C0AA1FBB1FA617B70710F0A61BB70B19
:101F6000881F991F5A95A9F780959095BC01CD01BE
:101F700008955058BB27AA270E94D10F0C944B11EB
:101F80000E943D1138F00E94441120F039F49F3F27
:101F900019F426F40C943A110EF4E095E7FB0C9436
:101FA0003411E92F0E945C1158F3BA1762077307C6
:101FB0008407950720F079F4A6F50C947E110EF4B1
:101FC000E0950B2EBA2FA02D0B01B90190010C0149
:101FD000CA01A0011124FF27591B99F0593F50F461
:101FE000503E68F11A16F040A22F232F342F4427B9
:101FF000585FF3CF469537952795A795F0405395B1
:10200000C9F77EF41F16BA0B620B730B840BBAF080
:102010009150A1F0FF0FBB1F661F771F881FC2F7EB
:102020000EC0BA0F621F731F841F48F487957795FF
:102030006795B795F7959E3F08F0B0CF9395880FB9
:1020400008F09927EE0F9795879508950E94101133
:1020500008F481E008950E943F100C944B110E94F7
:10206000441158F00E943D1140F029F45F3F29F0DF
:102070000C94341151110C947F110C943A110E945C
:102080005C1168F39923B1F3552391F3951B550B1C
:10209000BB27AA2762177307840738F09F5F5F4F3B
:1020A000220F331F441FAA1FA9F335D00E2E3AF07A
:1020B000E0E832D091505040E695001CCAF72BD092
:1020C000FE2F29D0660F771F881FBB1F26173707E3
:1020D0004807AB07B0E809F0BB0B802DBF01FF2715
:1020E00093585F4F3AF09E3F510578F00C943411AD
:1020F0000C947F115F3FE4F3983ED4F38695779577
:102100006795B795F7959F5FC9F7880F911D9695CD
:10211000879597F90895E1E0660F771F881FBB1F29
:10212000621773078407BA0720F0621B730B840BD6
:10213000BA0BEE1F88F7E09508950E94A4106894EA
:10214000B1110C947F1108950E94641188F09F577B
:1021500098F0B92F9927B751B0F0E1F0660F771FCB
:10216000881F991F1AF0BA95C9F714C0B13091F0C1
:102170000E947E11B1E008950C947E11672F782F94
:102180008827B85F39F0B93FCCF386957795679586
:10219000B395D9F73EF490958095709561957F4FF2
:1021A0008F4F9F4F0895E89409C097FB3EF4909598
:1021B0008095709561957F4F8F4F9F4F9923A9F020
:1021C000F92F96E9BB279395F695879577956795AF
:1021D000B795F111F8CFFAF4BB0F11F460FF1BC0F3
:1021E0006F5F7F4F8F4F9F4F16C0882311F096E986
:1021F00011C0772321F09EE8872F762F05C0662334
:1022000071F096E8862F70E060E02AF09A95660FEC
:10221000771F881FDAF7880F9695879597F90895A5
:10222000990F0008550FAA0BE0E8FEEF16161706E7
:10223000E807F907C0F012161306E407F50798F04F
:10224000621B730B840B950B39F40A2661F0232B68
:10225000242B252B21F408950A2609F4A140A695E4
:102260008FEF811D811D089597F99F6780E870E0C9
:1022700060E008959FEF80EC089500240A941616FC
:10228000170618060906089500240A941216130664
:10229000140605060895092E0394000C11F48823F2
:1022A00052F0BB0F40F4BF2B11F460FF04C06F5F0E
:1022B0007F4F8F4F9F4F089557FD9058440F551FE4
:1022C00059F05F3F71F04795880F97FB991F61F0B8
:1022D0009F3F79F087950895121613061406551F2F
:1022E000F2CF4695F1DF08C0161617061806991F9B
:1022F000F1CF86957105610508940895E894BB2790
:1023000066277727CB0197F908950E94101108F4EA
:102310008FEF08950E949D110C944B110E943D1166
:1023200038F00E94441120F0952311F00C943411E0
:102330000C943A1111240C947F110E945C1170F3DB
:10234000959FC1F3950F50E0551F629FF001729F5A
:10235000BB27F00DB11D639FAA27F00DB11DAA1F69
:10236000649F6627B00DA11D661F829F2227B00DB6
:10237000A11D621F739FB00DA11D621F839FA00D41
:10238000611D221F749F3327A00D611D231F849F91
:10239000600D211D822F762F6A2F11249F575040E8
:1023A0009AF0F1F088234AF0EE0FFF1FBB1F661F63
:1023B000771F881F91505040A9F79E3F510580F02C
:1023C0000C9434110C947F115F3FE4F3983ED4F3E6
:1023D000869577956795B795F795E7959F5FC1F7D0
:1023E000FE2B880F911D9695879597F908950E9469
:1023F0001011880B990B089581E090E0F8940C94EB
:062400000112F894FFCF69
:10240600000000002F029801C6017C02F701D501E9
:10241600E90100000800100019002100290032001F
:102426003A0042004B0053005B0064006C007400ED
:102436007D0085008E0096009E00A600AF00B700C6
:10244600BF0031652073656E736F722077616172AC
:1024560064653A0032652073656E736F722077612A
:10246600617264653A0033652073656E736F72201E
:102476007761617264653A0064652075697465699F
:102486006E64656C696A6B2061667374616E642044
:10249600746F742064652067726F6E6420697320A0
:1024A6006F7020766F6C676F72646520312C322CEA
:1024B600332069733A0068696A2069732077656515
:1024C6007220746572756720696E20646520636585
:1024D6006E746572206E616461742068696A206832
:1024E600656566742067657363616E6E6564006515
:1024F60072726F7220646961626F6C20682F6C2043
:102506006F6E62656B656E740068696A20686565E2
:102516006674206E696B73206765766F6E64656E90
:1025260020696E2064652076616B20676161742086
:102536006E61617220646520766F6C67656E646596
:10254600200068696A206865656674206465206590
:10255600657273746520446961626F6C2067657685
:102566006F6E64656E206761206E752062657061AE
:10257600616C656E206F662068696A20737461619C
:102586006E206F66206C696767656E6420697320CC
:1025960000646520316520646961626F6C2069732F
:1025A60020486F6F67006465203165206469616249
:1025B6006F6C206973204C61616700696B206865E8
:1025C6006220646520656572737465206469616262
:1025D6006F6C206F6E747765656B656E20656E2017
:1025E6006761206E75207665646572206E61617222
:1025F60020646520326520646961626F6C00696BD6
:102606002067616174206E75207A6F656B656E2038
:102616006E61617220646520326520646961626F53
:102626006C0068696A20686565667420626569641D
:102636006520646961626F6C656E206765766F6E92
:1026460064656E20656E206765696E64696365659D
:1026560072642077656C6B65206B616E74206869A7
:102666006A206F70206D6F657420647261616965A0
:102676006E006E61617220626F76656E006E6161DA
:10268600722062656E6564656E000D0A006E616E8D
:0A26960000696E66006F76660000B2
:00000001FF
