:100000000C9458010C9489010C9489010C94890179
:100010000C9489010C9489010C9489010C94890138
:100020000C9489010C9489010C9489010C94890128
:100030000C9489010C9489010C9489010C94890118
:100040000C9489010C946E070C9489010C9489011D
:100050000C9489010C9489010C9489010C943A0642
:100060000C9489010C94AE060C9484060C948901BE
:100070000C9489010C9489010C9489010C948901D8
:100080000C9440070C9489010C9489010C9489010B
:100090000C9489010C9489010C9489010C948901B8
:1000A0000C9489010C9489010C9412070C94890119
:1000B0000C9489010C9489010C9489010C94E40638
:1000C0000C9489010C9489010C9489010C94890188
:1000D0000C9489010C9489010C9489010C94890178
:1000E0000C948901BA01BD01AC01B001B401F40165
:1000F000C101C501CB01CF01D301D901DD01E1016E
:10010000F401E701EB01EF018B0292029E02AF02C4
:10011000B102B802C402D502EB02ED020C948B02CC
:100120000C94F4010C94ED020C9410040C949E02B7
:100130000C94BA010C94B8020C94B4010C94F4041D
:100140000C94B1020C9461040C94CB010C94EB025E
:100150000C94E1010C94DD010C94AC010C94B00101
:100160000C94E7010C94D3010C943E040C94CF0141
:100170000C94BD010C94C1010C94C4020C944D0468
:100180000C9492020C94EF010C94D5020C94EB01A8
:100190000C94A7040C94C5010C94D2070C94AF02E4
:1001A0000C946F040C94D901000021002400270056
:1001B0002A002D0030003300010100000401070176
:1001C0000A0100002200250028002B002E0031002B
:1001D000340002010000050108010B0105050505B9
:1001E000070508080808020202020A0A08080404AF
:1001F00004040101010101010101030303030303DD
:100200000303040707070C0C0C0C0C0C0C0C02026B
:10021000020206060606060606060B0B0B0B0B0B68
:100220000B0B0102102020080810204010204080F5
:1002300002010201080402010102040810204080AA
:100240008040201008040201800402018040201038
:100250000804020108040201010204081020408081
:10026000010204081020408000000A0B02090C0D56
:100270000E08070304010000000000000000000059
:10028000000000000000000000000000000000006E
:10029000000000001211100000000000000000002B
:1002A0000000000000000000000000000000D20775
:1002B00011241FBECFEFD1E2DEBFCDBF00E00CBFE7
:1002C00012E0A0E0B2E0E0EEF5E100E00BBF02C01A
:1002D00007900D92A838B107D9F724E0A8E8B2E05A
:1002E00001C01D92A631B207E1F711E0C8E5D1E0E7
:1002F00000E006C021970109802FFE010E94CD0A6F
:10030000C735D10780E00807A9F70E9465080C945B
:10031000EE0A0C940000362F90E0FC01E859FD4FE6
:100320004491FC01EE5DFD4F2491FC01E452FE4F2F
:100330009491992309F46CC0442309F455C050E00A
:10034000FA013197E231F10508F04EC08827EE58E6
:10035000FF4F8F4F0C94CD0A809180008F7707C09C
:10036000809180008F7D03C080918000877F809383
:1003700080003AC084B58F7702C084B58F7D84BD7C
:1003800033C08091B0008F7703C08091B0008F7D23
:100390008093B00029C0809190008F7707C0809132
:1003A00090008F7D03C080919000877F80939000A4
:1003B0001BC08091A0008F7707C08091A0008F7D27
:1003C00003C08091A000877F8093A0000DC0809122
:1003D00020018F7707C0809120018F7D03C080911D
:1003E0002001877F80932001E92FF0E0EE0FFF1FAF
:1003F000EE53FE4FA591B4919FB7F894311104C00C
:100400008C912095282302C0EC912E2B2C939FBF1A
:100410000895CF93DF93EC0180910404909105043B
:10042000029709F5C130D10569F024F42097D9F479
:1004300060E009C0C230D10561F0C330D10599F444
:1004400060E008C061E0809108040E948B0161E0D7
:1004500006C061E0809108040E948B0160E08091F9
:100460000A040E948B018091040490910504049772
:1004700009F03FC0C130D105B9F04CF42097C9F55F
:1004800061E0809108040E948B0160E013C0C230DB
:10049000D105D9F0C330D10561F561E08091080440
:1004A0000E948B0160E017C060E0809108040E9408
:1004B0008B0161E080910A040E948B0161E08091D0
:1004C0000C040E948B0160E010C060E08091080481
:1004D0000E948B0161E080910A040E948B0160E020
:1004E00080910C040E948B0161E080910E040E94B7
:1004F0008B018091040490910504059709F088C050
:10050000CA30D10508F084C0FE018827EC57FF4FA0
:100510008F4F0C94CD0A60E0809108040E948B01FB
:1005200061E061C060E0809108040E948B0161E09D
:1005300080910A040E948B0160E05AC060E08091C3
:1005400008040E948B0161E080910A040E948B01E3
:1005500060E080910C040E948B0161E04EC060E07D
:1005600001C061E0809108040E948B0161E006C037
:1005700061E0809108040E948B0160E080910A0490
:100580000E948B0160E00BC061E0809108040E9432
:100590008B0160E080910A040E948B0161E08091F0
:1005A0000C040E948B0161E010C061E0809108049E
:1005B0000E948B0160E080910A040E948B0161E03F
:1005C00080910C040E948B0160E080910E040E94D7
:1005D0008B0160E017C061E001C060E08091080419
:1005E0000E948B0160E080910A040E948B0161E00F
:1005F00080910C040E948B0160E080910E040E94A7
:100600008B0161E080911004DF91CF910C948B01FC
:10061000DF91CF910895CF93DF9390E0FC01EE5DE1
:10062000FD4F2491FC01E452FE4F8491882361F137
:1006300090E0880F991FFC01E855FE4FC591D491B9
:10064000FC01EE53FE4FA591B491611109C09FB713
:10065000F8948881209582238883EC912E230BC007
:10066000623061F49FB7F8948881322F30958323EC
:100670008883EC912E2B2C939FBF06C08FB7F894E4
:10068000E8812E2B28838FBFDF91CF9108953FB74C
:10069000F8948091930290919402A0919502B09168
:1006A000960226B5A89B05C02F3F19F00196A11D03
:1006B000B11D3FBFBA2FA92F982F8827820F911DF8
:1006C000A11DB11DBC01CD0142E0660F771F881F3F
:1006D000991F4A95D1F708954F925F926F927F923A
:1006E0008F929F92AF92BF92EF92FF920F931F93C0
:1006F000CF93DF93EC0197FF04C0CC27DD27C81B05
:10070000D90B181619063CF481E090E09093FD0394
:100710008093FC0306C0892B21F01092FD031092F8
:10072000FC0304E010E08AE0E82EF12C209709F4A5
:1007300068C00E9447038090120490901304A09018
:100740001404B09015042B013C01481859086A089C
:100750007B088090FE039090FF03A0900004B0906F
:100760000104481459046A047B0400F360931204E2
:100770007093130480931404909315042091FC0348
:100780003091FD03809106049091070421303105DA
:1007900089F4019690930704809306042091020443
:1007A0003091030482179307C1F41092070410924A
:1007B000060413C0892B41F4809102049091030434
:1007C0009093070480930604809106049091070497
:1007D00001979093070480930604219720910404C5
:1007E000309105048091060490910704253031056D
:1007F00011F4B70101C0B8010E94B90A0E940902B0
:1008000095CFDF91CF911F910F91FF90EF90BF9007
:10081000AF909F908F907F906F905F904F900895D2
:10082000CF92DF92EF92FF920F931F93CF93DF93BC
:100830006C017A018B01C0E0D0E0CE15DF0581F0BC
:10084000D8016D918D01D601ED91FC910190F0815F
:10085000E02DC6011995892B11F02196EECF7E016E
:10086000C701DF91CF911F910F91FF90EF90DF9023
:10087000CF900895089580E090E00895FC01538D95
:10088000448D252F30E0842F90E0821B930B54176A
:1008900010F0CF96089501970895FC01918D828DF7
:1008A000981761F0828DDF01A80FB11D5D968C91C4
:1008B000928D9F5F9F73928F90E008958FEF9FEFCF
:1008C0000895FC01918D828D981731F0828DE80F8B
:1008D000F11D858D90E008958FEF9FEF0895FC0145
:1008E000918D228D892F90E0805C9F4F821B910912
:1008F0008F739927089587E992E00E946F0421E0A1
:10090000892B09F420E0822F0895FC01848DDF01FA
:10091000A80FB11DA35ABF4F2C91848D90E0019672
:100920008F739927848FA689B7892C93A089B18961
:100930008C91837080648C93938D848D981306C002
:100940000288F389E02D80818F7D80830895EF9266
:10095000FF920F931F93CF93DF93EC0181E0888F79
:100960009B8D8C8D981305C0E889F989808185FD60
:1009700026C0F62E0B8D10E00F5F1F4F0F7311274F
:10098000E02E8C8DE8120CC00FB607FCFACFE88978
:10099000F989808185FFF5CFCE010E948504F1CFD2
:1009A0008B8DFE01E80FF11DE35AFF4FF0829FB7D8
:1009B000F8940B8FEA89FB89808180620AC09FB717
:1009C000F894EE89FF896083E889F98980818370D2
:1009D000806480839FBF81E090E0DF91CF911F9181
:1009E0000F91FF90EF900895CF93DF93EC01888DE6
:1009F0008823C9F0EA89FB89808185FD05C0A88923
:100A0000B9898C9186FD0FC00FB607FCF5CF8081A8
:100A100085FFF2CFA889B9898C9185FFEDCFCE01F2
:100A20000E948504E7CFDF91CF91089580E090E0A8
:100A3000892B21F00E947B04811125C080E090E089
:100A4000892B41F080E090E0892B21F00E9400008A
:100A500081111CC080E090E0892B41F080E090E0A3
:100A6000892B21F00E940000811113C080E090E0EA
:100A7000892BA1F080E090E0892B81F00E9400009A
:100A800081110AC008950E940000D8CF0E94000082
:100A9000E1CF0E940000EACF0C9400000895CF92AD
:100AA000DF92EF92FF920F931F93CF93DF936C012E
:100AB0008B017A01EC01C857DD4F888187FF04C0A4
:100AC000FB011182108224C02CE02C9DC0012D9DC1
:100AD000900D11242881AC01420F511D27FD5A951C
:100AE0002091C40330E04217530794F42881AC01ED
:100AF000420F511D27FD5A959A01FA01EE0FFF1F73
:100B00002E0F3F1FF901EC5CFC4F208126FD19C020
:100B100088818F5F88832CE02C9DC0012D9D900DD6
:100B200011242881AC01420F511D27FD5A952091B7
:100B3000C40330E042175307BCF428812C3044F141
:100B400013C02881820F911D27FD9A95FC01EE0F9D
:100B5000FF1F8E0F9F1FFC01EC5CFC4F808160E04B
:100B60008F730E948B01D4CFF8018081918104960C
:100B700080349C4918F480E49CE904C0F801808129
:100B800091810496F701918380838FEF888345C01C
:100B9000F801408151812881BC01620F711D27FD40
:100BA0007A959B01FB01EE0FFF1F2E0F3F1FF901EE
:100BB000EC5CFC4F21813281240F351FF70131831A
:100BC00020832881AC01420F511D27FD5A959A01BF
:100BD000FA01EE0FFF1F2E0F3F1FF901EC5CFC4FD7
:100BE000208126FF1AC02881820F911D27FD9A952A
:100BF000FC01EE0FFF1F8E0F9F1FFC01EC5CFC4FF2
:100C0000808161E08F73DF91CF911F910F91FF90F1
:100C1000EF90DF90CF900C948B01DF91CF911F91DB
:100C20000F91FF90EF90DF90CF900895CF93DF93D7
:100C3000009779F0FC0101900020E9F73197AF01AE
:100C4000481B590BBC0187E992E00E941004EC019B
:100C500002C0C0E0D0E042E050E062E172E087E92B
:100C600092E00E9410048C0F9D1FDF91CF91089598
:100C70000E94E90A1F920F920FB60F9211242F9330
:100C80003F938F939F93AF93BF9380918F029091E7
:100C90009002A0919102B091920230918E0223E0D5
:100CA000230F2D3720F40196A11DB11D05C026E8A4
:100CB000230F0296A11DB11D20938E0280938F02F7
:100CC00090939002A0939102B0939202809193022C
:100CD00090919402A0919502B09196020196A11D67
:100CE000B11D8093930290939402A0939502B093C8
:100CF0009602BF91AF919F918F913F912F910F904D
:100D00000FBE0F901F9018951F920F920FB60F9263
:100D100011240BB60F922F933F934F935F936F93D2
:100D20007F938F939F93AF93BF93EF93FF9387E945
:100D300092E00E948504FF91EF91BF91AF919F9146
:100D40008F917F916F915F914F913F912F910F9074
:100D50000BBE0F900FBE0F901F9018951F920F9211
:100D60000FB60F9211240BB60F922F938F939F9370
:100D7000EF93FF93E091A702F091A8028081E091A8
:100D8000AD02F091AE0282FD12C090818091B0025E
:100D90008F5F8F732091B102821751F0E091B00202
:100DA000F0E0E956FD4F958F8093B00201C080813D
:100DB000FF91EF919F918F912F910F900BBE0F900C
:100DC0000FBE0F901F9018951F920F920FB60F92A3
:100DD00011240BB60F922F933F934F935F936F9312
:100DE0007F938F939F93AF93BF93EF93FF9348E2CB
:100DF00051E064E271E080E090E00E944F05FF91D5
:100E0000EF91BF91AF919F918F917F916F915F9182
:100E10004F913F912F910F900BBE0F900FBE0F90EF
:100E20001F9018951F920F920FB60F9211240BB6B8
:100E30000F922F933F934F935F936F937F938F9373
:100E40009F93AF93BF93EF93FF9348EA50E064EA18
:100E500070E083E090E00E944F05FF91EF91BF9119
:100E6000AF919F918F917F916F915F914F913F9142
:100E70002F910F900BBE0F900FBE0F901F901895E3
:100E80001F920F920FB60F9211240BB60F922F9351
:100E90003F934F935F936F937F938F939F93AF9302
:100EA000BF93EF93FF9348E950E064E970E082E07C
:100EB00090E00E944F05FF91EF91BF91AF919F91FC
:100EC0008F917F916F915F914F913F912F910F90F3
:100ED0000BBE0F900FBE0F901F9018951F920F9290
:100EE0000FB60F9211240BB60F922F933F934F938F
:100EF0005F936F937F938F939F93AF93BF93EF9382
:100F0000FF9348E850E064E870E081E090E00E94E0
:100F10004F05FF91EF91BF91AF919F918F917F917D
:100F20006F915F914F913F912F910F900BBE0F905A
:100F30000FBE0F901F901895EF92FF920F931F9383
:100F4000CF93DF93EC01842F1B861A8619821882B7
:100F50001E8A1F8A188E198E7F836E834C875D8749
:100F60003F872E87198B088BFB8AEA8A61E00E94F3
:100F70000B0361E08E850E940B0361E088890E946B
:100F80000B0361E08A890E940B031D8A1C8A84E09E
:100F900090E099878887DF91CF911F910F91FF9003
:100FA000EF900895EF92FF920F931F9310929A0281
:100FB0001092990288EE93E0A0E0B0E080939B024B
:100FC00090939C02A0939D02B0939E0284E092E0D5
:100FD000909398028093970285EC90E09093A402FE
:100FE0008093A30284EC90E09093A6028093A502E4
:100FF00080EC90E09093A8028093A70281EC90E0AF
:101000009093AA028093A90282EC90E09093AC02A4
:101010008093AB0286EC90E09093AE028093AD0299
:101020001092B0021092B1021092B2021092B3026A
:1010300035E0E32EF12C04E010E023E030E042E064
:1010400050E060ED77E08CEF93E00E949C074BE06E
:10105000E42EF12C0AE010E029E030E048E050E016
:1010600068EC70E082EE93E00E949C075FE1E52E61
:10107000F12C0DE110E02BE130E049E150E068ECAB
:1010800070E088EC93E00E949C078091C403803359
:10109000A0F491E0980F9093C4038093C50390E06F
:1010A000FC01EE0FFF1F8E0F9F1FFC01EC5CFC4F3D
:1010B00088EB9BE09283818303C08FEF8093C5030D
:1010C0001F910F91FF90EF900895789484B58260FE
:1010D00084BD84B5816084BD85B5826085BD85B5DC
:1010E000816085BD80916E00816080936E0010925A
:1010F00081008091810082608093810080918100D5
:101100008160809381008091800081608093800065
:101110008091B10084608093B1008091B0008160C3
:101120008093B000809191008260809391008091C3
:101130009100816080939100809190008160809304
:1011400090008091A10082608093A1008091A10015
:1011500081608093A1008091A00081608093A000B5
:101160008091210182608093210180912101816021
:1011700080932101809120018160809320018091E2
:101180007A00846080937A0080917A0082608093F4
:101190007A0080917A00816080937A0080917A0051
:1011A000806880937A001092C100E091A702F091CC
:1011B000A80282E08083E091A302F091A402108251
:1011C000E091A502F091A6028FEC80831092AF020D
:1011D000E091AB02F091AC0286E08083E091A9023D
:1011E000F091AA02808180618083E091A902F09150
:1011F000AA02808188608083E091A902F091AA020E
:10120000808180688083E091A902F091AA028081A8
:101210008F7D80832091E8033091E903032E000C39
:10122000440B550BC12CC7E8DC2EC3E9EC2EC3E000
:10123000FC2EC701B6010E946C0ACA01B90124E163
:1012400030E040E050E00E946C0A2093E4033093C9
:10125000E5034093E6035093E7032091CE033091DA
:10126000CF03032E000C440B550BC701B6010E949F
:101270006C0ADCE38D2E912CA12CB12CCA01B90192
:10128000A50194010E946C0A2093CA033093CB03FA
:101290004093CC035093CD0320910204309103047A
:1012A000032E000C440B550BC701B6010E946C0ABB
:1012B000CA01B901A50194010E946C0A2093FE03A2
:1012C0003093FF03409300045093010461E08BE2EC
:1012D0000E940B0360E08DE20E940B0361E08FE24D
:1012E0000E940B0360E081E30E940B0361E083E353
:1012F0000E940B0360E085E30E940B038091C5030D
:10130000803308F052C061E08DE00E940B038091B1
:10131000C503E82FF0E09F01220F331FE20FF31FF8
:10132000EC5CFC4F9081907C9D6090831092C60392
:101330001092C7036CE00E94AD0A2CE0829FB001BE
:10134000112440E050E09B01240F351FF901EE0FFE
:10135000FF1F2E0F3F1FF901EC5CFC4F908196FDA3
:1013600017C04F5F5F4F4C30510569F7813009F06E
:1013700087C01092800082E08093810010928500E7
:1013800010928400B19A80916F00826080936F0008
:10139000E091C503F0E0CF01880F991FE80FF91F16
:1013A000EC5CFC4F8081806480838091C70328E5DA
:1013B00032E0281B310987FD3395220F331F220F9E
:1013C000331F8091C503803390F422503109220FDE
:1013D000331F4FB7F89490E0FC01EE0FFF1F8E0F04
:1013E0009F1FFC01EC5CFC4F328321834FBFC1E0A7
:1013F000D0E080918C0290918D02892B59F48CEE73
:101400009FEF0E946C03D0938D02C0938C0285E104
:1014100092E00AC084E190E00E946C0310928D0279
:1014200010928C028FE492E00E9416060E944703FD
:101430004B015C0180EDC82E87E0D82EE12CF12C09
:101440000E944703DC01CB0188199909AA09BB094D
:10145000883E9340A105B10598F381E0C81AD108F0
:10146000E108F10898EE890E93E0991EA11CB11CC9
:10147000C114D104E104F10419F70E941605B9CF93
:10148000823061F410929000809391001092950048
:101490001092940088BB809371007ACF833069F4F6
:1014A0001092A00082E08093A1001092A5001092FB
:1014B000A40089BB809372006BCF811169CF109219
:1014C000200182E0809321011092250110922401D5
:1014D0008ABB809373005CCF052E97FB1EF40094AB
:1014E0000E94830A57FD07D00E948B0A07FC03D095
:1014F0004EF40C94830A50954095309521953F4FBA
:101500004F4F5F4F089590958095709561957F4FEF
:101510008F4F9F4F0895A1E21A2EAA1BBB1BFD01FE
:101520000DC0AA1FBB1FEE1FFF1FA217B307E407C2
:10153000F50720F0A21BB30BE40BF50B661F771F1A
:10154000881F991F1A9469F76095709580959095FA
:101550009B01AC01BD01CF010895991B79E004C046
:10156000991F961708F0961B881F7A95C9F78095E2
:10157000089597FB072E16F4009407D077FD09D045
:101580000E94D50A07FC05D03EF4909581959F4FA7
:101590000895709561957F4F0895EE0FFF1F881F86
:1015A0008BBF0790F691E02D1994AA1BBB1B51E14C
:1015B00007C0AA1FBB1FA617B70710F0A61BB70BC3
:1015C000881F991F5A95A9F780959095BC01CD0168
:1015D000089581E090E0F8940C94EE0AF894FFCF1F
:1015E00000000000A70410043E04F4046F044D043E
:1015F00061040D0A006D696A6E206B6F70737475FB
:101600006B2067616174206E75206E61617220626B
:10161000656E6564656E20746F6520766F6F7220ED
:101620006465206C61676520646961626F6C006D40
:10163000696A6E206B6F707374756B20676161747B
:10164000206E75206E61617220626F76656E207407
:101650006F6520766F6F72206465206C616765200E
:08166000646961626F6C000017
:00000001FF
